{
  "_format": "hh-sol-artifact-1",
  "contractName": "Badge",
  "sourceName": "contracts/Badge.sol",
  "abi": [
    {
      "inputs": [
        {
          "internalType": "address",
          "name": "admin",
          "type": "address"
        },
        {
          "internalType": "string",
          "name": "baseURI",
          "type": "string"
        }
      ],
      "stateMutability": "nonpayable",
      "type": "constructor"
    },
    {
      "inputs": [],
      "name": "AccessControlBadConfirmation",
      "type": "error"
    },
    {
      "inputs": [
        {
          "internalType": "address",
          "name": "account",
          "type": "address"
        },
        {
          "internalType": "bytes32",
          "name": "neededRole",
          "type": "bytes32"
        }
      ],
      "name": "AccessControlUnauthorizedAccount",
      "type": "error"
    },
    {
      "inputs": [],
      "name": "ArrayLengthMismatch",
      "type": "error"
    },
    {
      "inputs": [],
      "name": "BadgeNotActive",
      "type": "error"
    },
    {
      "inputs": [
        {
          "internalType": "address",
          "name": "sender",
          "type": "address"
        },
        {
          "internalType": "uint256",
          "name": "tokenId",
          "type": "uint256"
        },
        {
          "internalType": "address",
          "name": "owner",
          "type": "address"
        }
      ],
      "name": "ERC721IncorrectOwner",
      "type": "error"
    },
    {
      "inputs": [
        {
          "internalType": "address",
          "name": "operator",
          "type": "address"
        },
        {
          "internalType": "uint256",
          "name": "tokenId",
          "type": "uint256"
        }
      ],
      "name": "ERC721InsufficientApproval",
      "type": "error"
    },
    {
      "inputs": [
        {
          "internalType": "address",
          "name": "approver",
          "type": "address"
        }
      ],
      "name": "ERC721InvalidApprover",
      "type": "error"
    },
    {
      "inputs": [
        {
          "internalType": "address",
          "name": "operator",
          "type": "address"
        }
      ],
      "name": "ERC721InvalidOperator",
      "type": "error"
    },
    {
      "inputs": [
        {
          "internalType": "address",
          "name": "owner",
          "type": "address"
        }
      ],
      "name": "ERC721InvalidOwner",
      "type": "error"
    },
    {
      "inputs": [
        {
          "internalType": "address",
          "name": "receiver",
          "type": "address"
        }
      ],
      "name": "ERC721InvalidReceiver",
      "type": "error"
    },
    {
      "inputs": [
        {
          "internalType": "address",
          "name": "sender",
          "type": "address"
        }
      ],
      "name": "ERC721InvalidSender",
      "type": "error"
    },
    {
      "inputs": [
        {
          "internalType": "uint256",
          "name": "tokenId",
          "type": "uint256"
        }
      ],
      "name": "ERC721NonexistentToken",
      "type": "error"
    },
    {
      "inputs": [],
      "name": "EnforcedPause",
      "type": "error"
    },
    {
      "inputs": [],
      "name": "ExceedsMaxSupply",
      "type": "error"
    },
    {
      "inputs": [],
      "name": "ExpectedPause",
      "type": "error"
    },
    {
      "inputs": [],
      "name": "InvalidBadgeType",
      "type": "error"
    },
    {
      "inputs": [],
      "name": "InvalidRarity",
      "type": "error"
    },
    {
      "inputs": [],
      "name": "InvalidTemplate",
      "type": "error"
    },
    {
      "inputs": [],
      "name": "NotTokenOwnerOrAdmin",
      "type": "error"
    },
    {
      "inputs": [],
      "name": "ReentrancyGuardReentrantCall",
      "type": "error"
    },
    {
      "inputs": [],
      "name": "TokenNotExists",
      "type": "error"
    },
    {
      "inputs": [],
      "name": "ZeroAddress",
      "type": "error"
    },
    {
      "anonymous": false,
      "inputs": [
        {
          "indexed": true,
          "internalType": "address",
          "name": "owner",
          "type": "address"
        },
        {
          "indexed": true,
          "internalType": "address",
          "name": "approved",
          "type": "address"
        },
        {
          "indexed": true,
          "internalType": "uint256",
          "name": "tokenId",
          "type": "uint256"
        }
      ],
      "name": "Approval",
      "type": "event"
    },
    {
      "anonymous": false,
      "inputs": [
        {
          "indexed": true,
          "internalType": "address",
          "name": "owner",
          "type": "address"
        },
        {
          "indexed": true,
          "internalType": "address",
          "name": "operator",
          "type": "address"
        },
        {
          "indexed": false,
          "internalType": "bool",
          "name": "approved",
          "type": "bool"
        }
      ],
      "name": "ApprovalForAll",
      "type": "event"
    },
    {
      "anonymous": false,
      "inputs": [
        {
          "indexed": true,
          "internalType": "uint256",
          "name": "tokenId",
          "type": "uint256"
        },
        {
          "indexed": false,
          "internalType": "string",
          "name": "newImageURI",
          "type": "string"
        }
      ],
      "name": "BadgeMetadataUpdated",
      "type": "event"
    },
    {
      "anonymous": false,
      "inputs": [
        {
          "indexed": true,
          "internalType": "address",
          "name": "recipient",
          "type": "address"
        },
        {
          "indexed": true,
          "internalType": "uint256",
          "name": "tokenId",
          "type": "uint256"
        },
        {
          "indexed": true,
          "internalType": "enum IBadge.BadgeType",
          "name": "badgeType",
          "type": "uint8"
        },
        {
          "indexed": false,
          "internalType": "enum IBadge.BadgeRarity",
          "name": "rarity",
          "type": "uint8"
        },
        {
          "indexed": false,
          "internalType": "uint256",
          "name": "poolId",
          "type": "uint256"
        }
      ],
      "name": "BadgeMinted",
      "type": "event"
    },
    {
      "anonymous": false,
      "inputs": [
        {
          "indexed": true,
          "internalType": "enum IBadge.BadgeType",
          "name": "badgeType",
          "type": "uint8"
        },
        {
          "components": [
            {
              "internalType": "enum IBadge.BadgeType",
              "name": "badgeType",
              "type": "uint8"
            },
            {
              "internalType": "enum IBadge.BadgeRarity",
              "name": "rarity",
              "type": "uint8"
            },
            {
              "internalType": "string",
              "name": "title",
              "type": "string"
            },
            {
              "internalType": "string",
              "name": "description",
              "type": "string"
            },
            {
              "internalType": "string",
              "name": "imageURI",
              "type": "string"
            },
            {
              "internalType": "uint256",
              "name": "minValue",
              "type": "uint256"
            },
            {
              "internalType": "bool",
              "name": "isActive",
              "type": "bool"
            },
            {
              "internalType": "uint256",
              "name": "totalMinted",
              "type": "uint256"
            },
            {
              "internalType": "uint256",
              "name": "maxSupply",
              "type": "uint256"
            }
          ],
          "indexed": false,
          "internalType": "struct IBadge.BadgeTemplate",
          "name": "template",
          "type": "tuple"
        }
      ],
      "name": "BadgeTemplateUpdated",
      "type": "event"
    },
    {
      "anonymous": false,
      "inputs": [
        {
          "indexed": false,
          "internalType": "uint256",
          "name": "_fromTokenId",
          "type": "uint256"
        },
        {
          "indexed": false,
          "internalType": "uint256",
          "name": "_toTokenId",
          "type": "uint256"
        }
      ],
      "name": "BatchMetadataUpdate",
      "type": "event"
    },
    {
      "anonymous": false,
      "inputs": [
        {
          "indexed": false,
          "internalType": "uint256",
          "name": "_tokenId",
          "type": "uint256"
        }
      ],
      "name": "MetadataUpdate",
      "type": "event"
    },
    {
      "anonymous": false,
      "inputs": [
        {
          "indexed": false,
          "internalType": "address",
          "name": "account",
          "type": "address"
        }
      ],
      "name": "Paused",
      "type": "event"
    },
    {
      "anonymous": false,
      "inputs": [
        {
          "indexed": true,
          "internalType": "address",
          "name": "user",
          "type": "address"
        },
        {
          "indexed": false,
          "internalType": "uint256",
          "name": "newScore",
          "type": "uint256"
        },
        {
          "indexed": false,
          "internalType": "uint256",
          "name": "badgeCount",
          "type": "uint256"
        }
      ],
      "name": "ReputationUpdated",
      "type": "event"
    },
    {
      "anonymous": false,
      "inputs": [
        {
          "indexed": true,
          "internalType": "bytes32",
          "name": "role",
          "type": "bytes32"
        },
        {
          "indexed": true,
          "internalType": "bytes32",
          "name": "previousAdminRole",
          "type": "bytes32"
        },
        {
          "indexed": true,
          "internalType": "bytes32",
          "name": "newAdminRole",
          "type": "bytes32"
        }
      ],
      "name": "RoleAdminChanged",
      "type": "event"
    },
    {
      "anonymous": false,
      "inputs": [
        {
          "indexed": true,
          "internalType": "bytes32",
          "name": "role",
          "type": "bytes32"
        },
        {
          "indexed": true,
          "internalType": "address",
          "name": "account",
          "type": "address"
        },
        {
          "indexed": true,
          "internalType": "address",
          "name": "sender",
          "type": "address"
        }
      ],
      "name": "RoleGranted",
      "type": "event"
    },
    {
      "anonymous": false,
      "inputs": [
        {
          "indexed": true,
          "internalType": "bytes32",
          "name": "role",
          "type": "bytes32"
        },
        {
          "indexed": true,
          "internalType": "address",
          "name": "account",
          "type": "address"
        },
        {
          "indexed": true,
          "internalType": "address",
          "name": "sender",
          "type": "address"
        }
      ],
      "name": "RoleRevoked",
      "type": "event"
    },
    {
      "anonymous": false,
      "inputs": [
        {
          "indexed": true,
          "internalType": "address",
          "name": "from",
          "type": "address"
        },
        {
          "indexed": true,
          "internalType": "address",
          "name": "to",
          "type": "address"
        },
        {
          "indexed": true,
          "internalType": "uint256",
          "name": "tokenId",
          "type": "uint256"
        }
      ],
      "name": "Transfer",
      "type": "event"
    },
    {
      "anonymous": false,
      "inputs": [
        {
          "indexed": false,
          "internalType": "address",
          "name": "account",
          "type": "address"
        }
      ],
      "name": "Unpaused",
      "type": "event"
    },
    {
      "inputs": [],
      "name": "BADGE_ADMIN_ROLE",
      "outputs": [
        {
          "internalType": "bytes32",
          "name": "",
          "type": "bytes32"
        }
      ],
      "stateMutability": "view",
      "type": "function"
    },
    {
      "inputs": [],
      "name": "DEFAULT_ADMIN_ROLE",
      "outputs": [
        {
          "internalType": "bytes32",
          "name": "",
          "type": "bytes32"
        }
      ],
      "stateMutability": "view",
      "type": "function"
    },
    {
      "inputs": [],
      "name": "MINTER_ROLE",
      "outputs": [
        {
          "internalType": "bytes32",
          "name": "",
          "type": "bytes32"
        }
      ],
      "stateMutability": "view",
      "type": "function"
    },
    {
      "inputs": [
        {
          "internalType": "address",
          "name": "to",
          "type": "address"
        },
        {
          "internalType": "uint256",
          "name": "tokenId",
          "type": "uint256"
        }
      ],
      "name": "approve",
      "outputs": [],
      "stateMutability": "nonpayable",
      "type": "function"
    },
    {
      "inputs": [
        {
          "internalType": "address",
          "name": "owner",
          "type": "address"
        }
      ],
      "name": "balanceOf",
      "outputs": [
        {
          "internalType": "uint256",
          "name": "",
          "type": "uint256"
        }
      ],
      "stateMutability": "view",
      "type": "function"
    },
    {
      "inputs": [
        {
          "internalType": "address",
          "name": "recipient",
          "type": "address"
        },
        {
          "internalType": "enum IBadge.BadgeType[]",
          "name": "badgeTypes",
          "type": "uint8[]"
        },
        {
          "internalType": "uint256[]",
          "name": "poolIds",
          "type": "uint256[]"
        },
        {
          "internalType": "uint256[]",
          "name": "values",
          "type": "uint256[]"
        }
      ],
      "name": "batchMintBadges",
      "outputs": [
        {
          "internalType": "uint256[]",
          "name": "tokenIds",
          "type": "uint256[]"
        }
      ],
      "stateMutability": "nonpayable",
      "type": "function"
    },
    {
      "inputs": [
        {
          "internalType": "address",
          "name": "user",
          "type": "address"
        }
      ],
      "name": "calculateReputationScore",
      "outputs": [
        {
          "internalType": "uint256",
          "name": "reputationScore",
          "type": "uint256"
        }
      ],
      "stateMutability": "view",
      "type": "function"
    },
    {
      "inputs": [
        {
          "internalType": "enum IBadge.BadgeType",
          "name": "badgeType",
          "type": "uint8"
        }
      ],
      "name": "canMintBadge",
      "outputs": [
        {
          "internalType": "bool",
          "name": "canMint",
          "type": "bool"
        }
      ],
      "stateMutability": "view",
      "type": "function"
    },
    {
      "inputs": [
        {
          "internalType": "uint256",
          "name": "tokenId",
          "type": "uint256"
        }
      ],
      "name": "getApproved",
      "outputs": [
        {
          "internalType": "address",
          "name": "",
          "type": "address"
        }
      ],
      "stateMutability": "view",
      "type": "function"
    },
    {
      "inputs": [
        {
          "internalType": "uint256",
          "name": "tokenId",
          "type": "uint256"
        }
      ],
      "name": "getBadgeInfo",
      "outputs": [
        {
          "components": [
            {
              "internalType": "uint256",
              "name": "tokenId",
              "type": "uint256"
            },
            {
              "internalType": "enum IBadge.BadgeType",
              "name": "badgeType",
              "type": "uint8"
            },
            {
              "internalType": "enum IBadge.BadgeRarity",
              "name": "rarity",
              "type": "uint8"
            },
            {
              "internalType": "address",
              "name": "recipient",
              "type": "address"
            },
            {
              "internalType": "uint256",
              "name": "earnedAt",
              "type": "uint256"
            },
            {
              "internalType": "uint256",
              "name": "poolId",
              "type": "uint256"
            },
            {
              "internalType": "string",
              "name": "title",
              "type": "string"
            },
            {
              "internalType": "string",
              "name": "description",
              "type": "string"
            },
            {
              "internalType": "string",
              "name": "imageURI",
              "type": "string"
            },
            {
              "internalType": "uint256",
              "name": "value",
              "type": "uint256"
            },
            {
              "internalType": "bytes32",
              "name": "achievementHash",
              "type": "bytes32"
            }
          ],
          "internalType": "struct IBadge.BadgeInfo",
          "name": "badgeInfo",
          "type": "tuple"
        }
      ],
      "stateMutability": "view",
      "type": "function"
    },
    {
      "inputs": [
        {
          "internalType": "enum IBadge.BadgeType",
          "name": "badgeType",
          "type": "uint8"
        }
      ],
      "name": "getBadgeTemplate",
      "outputs": [
        {
          "components": [
            {
              "internalType": "enum IBadge.BadgeType",
              "name": "badgeType",
              "type": "uint8"
            },
            {
              "internalType": "enum IBadge.BadgeRarity",
              "name": "rarity",
              "type": "uint8"
            },
            {
              "internalType": "string",
              "name": "title",
              "type": "string"
            },
            {
              "internalType": "string",
              "name": "description",
              "type": "string"
            },
            {
              "internalType": "string",
              "name": "imageURI",
              "type": "string"
            },
            {
              "internalType": "uint256",
              "name": "minValue",
              "type": "uint256"
            },
            {
              "internalType": "bool",
              "name": "isActive",
              "type": "bool"
            },
            {
              "internalType": "uint256",
              "name": "totalMinted",
              "type": "uint256"
            },
            {
              "internalType": "uint256",
              "name": "maxSupply",
              "type": "uint256"
            }
          ],
          "internalType": "struct IBadge.BadgeTemplate",
          "name": "template",
          "type": "tuple"
        }
      ],
      "stateMutability": "view",
      "type": "function"
    },
    {
      "inputs": [
        {
          "internalType": "enum IBadge.BadgeType",
          "name": "badgeType",
          "type": "uint8"
        }
      ],
      "name": "getBadgeTypeSupply",
      "outputs": [
        {
          "internalType": "uint256",
          "name": "totalSupply",
          "type": "uint256"
        }
      ],
      "stateMutability": "view",
      "type": "function"
    },
    {
      "inputs": [
        {
          "internalType": "enum IBadge.BadgeRarity",
          "name": "rarity",
          "type": "uint8"
        }
      ],
      "name": "getBadgesByRarity",
      "outputs": [
        {
          "components": [
            {
              "internalType": "uint256",
              "name": "tokenId",
              "type": "uint256"
            },
            {
              "internalType": "enum IBadge.BadgeType",
              "name": "badgeType",
              "type": "uint8"
            },
            {
              "internalType": "enum IBadge.BadgeRarity",
              "name": "rarity",
              "type": "uint8"
            },
            {
              "internalType": "address",
              "name": "recipient",
              "type": "address"
            },
            {
              "internalType": "uint256",
              "name": "earnedAt",
              "type": "uint256"
            },
            {
              "internalType": "uint256",
              "name": "poolId",
              "type": "uint256"
            },
            {
              "internalType": "string",
              "name": "title",
              "type": "string"
            },
            {
              "internalType": "string",
              "name": "description",
              "type": "string"
            },
            {
              "internalType": "string",
              "name": "imageURI",
              "type": "string"
            },
            {
              "internalType": "uint256",
              "name": "value",
              "type": "uint256"
            },
            {
              "internalType": "bytes32",
              "name": "achievementHash",
              "type": "bytes32"
            }
          ],
          "internalType": "struct IBadge.BadgeInfo[]",
          "name": "badges",
          "type": "tuple[]"
        }
      ],
      "stateMutability": "view",
      "type": "function"
    },
    {
      "inputs": [
        {
          "internalType": "enum IBadge.BadgeType",
          "name": "badgeType",
          "type": "uint8"
        }
      ],
      "name": "getBadgesByType",
      "outputs": [
        {
          "components": [
            {
              "internalType": "uint256",
              "name": "tokenId",
              "type": "uint256"
            },
            {
              "internalType": "enum IBadge.BadgeType",
              "name": "badgeType",
              "type": "uint8"
            },
            {
              "internalType": "enum IBadge.BadgeRarity",
              "name": "rarity",
              "type": "uint8"
            },
            {
              "internalType": "address",
              "name": "recipient",
              "type": "address"
            },
            {
              "internalType": "uint256",
              "name": "earnedAt",
              "type": "uint256"
            },
            {
              "internalType": "uint256",
              "name": "poolId",
              "type": "uint256"
            },
            {
              "internalType": "string",
              "name": "title",
              "type": "string"
            },
            {
              "internalType": "string",
              "name": "description",
              "type": "string"
            },
            {
              "internalType": "string",
              "name": "imageURI",
              "type": "string"
            },
            {
              "internalType": "uint256",
              "name": "value",
              "type": "uint256"
            },
            {
              "internalType": "bytes32",
              "name": "achievementHash",
              "type": "bytes32"
            }
          ],
          "internalType": "struct IBadge.BadgeInfo[]",
          "name": "badges",
          "type": "tuple[]"
        }
      ],
      "stateMutability": "view",
      "type": "function"
    },
    {
      "inputs": [],
      "name": "getNextTokenId",
      "outputs": [
        {
          "internalType": "uint256",
          "name": "tokenId",
          "type": "uint256"
        }
      ],
      "stateMutability": "view",
      "type": "function"
    },
    {
      "inputs": [
        {
          "internalType": "uint256",
          "name": "poolId",
          "type": "uint256"
        }
      ],
      "name": "getPoolBadges",
      "outputs": [
        {
          "components": [
            {
              "internalType": "uint256",
              "name": "tokenId",
              "type": "uint256"
            },
            {
              "internalType": "enum IBadge.BadgeType",
              "name": "badgeType",
              "type": "uint8"
            },
            {
              "internalType": "enum IBadge.BadgeRarity",
              "name": "rarity",
              "type": "uint8"
            },
            {
              "internalType": "address",
              "name": "recipient",
              "type": "address"
            },
            {
              "internalType": "uint256",
              "name": "earnedAt",
              "type": "uint256"
            },
            {
              "internalType": "uint256",
              "name": "poolId",
              "type": "uint256"
            },
            {
              "internalType": "string",
              "name": "title",
              "type": "string"
            },
            {
              "internalType": "string",
              "name": "description",
              "type": "string"
            },
            {
              "internalType": "string",
              "name": "imageURI",
              "type": "string"
            },
            {
              "internalType": "uint256",
              "name": "value",
              "type": "uint256"
            },
            {
              "internalType": "bytes32",
              "name": "achievementHash",
              "type": "bytes32"
            }
          ],
          "internalType": "struct IBadge.BadgeInfo[]",
          "name": "badges",
          "type": "tuple[]"
        }
      ],
      "stateMutability": "view",
      "type": "function"
    },
    {
      "inputs": [
        {
          "internalType": "enum IBadge.BadgeRarity",
          "name": "rarity",
          "type": "uint8"
        }
      ],
      "name": "getRarityMultiplier",
      "outputs": [
        {
          "internalType": "uint256",
          "name": "multiplier",
          "type": "uint256"
        }
      ],
      "stateMutability": "pure",
      "type": "function"
    },
    {
      "inputs": [
        {
          "internalType": "uint256",
          "name": "limit",
          "type": "uint256"
        }
      ],
      "name": "getReputationLeaderboard",
      "outputs": [
        {
          "internalType": "address[]",
          "name": "users",
          "type": "address[]"
        },
        {
          "internalType": "uint256[]",
          "name": "scores",
          "type": "uint256[]"
        }
      ],
      "stateMutability": "view",
      "type": "function"
    },
    {
      "inputs": [
        {
          "internalType": "bytes32",
          "name": "role",
          "type": "bytes32"
        }
      ],
      "name": "getRoleAdmin",
      "outputs": [
        {
          "internalType": "bytes32",
          "name": "",
          "type": "bytes32"
        }
      ],
      "stateMutability": "view",
      "type": "function"
    },
    {
      "inputs": [
        {
          "internalType": "address",
          "name": "user",
          "type": "address"
        }
      ],
      "name": "getUserBadgeStats",
      "outputs": [
        {
          "components": [
            {
              "internalType": "uint256",
              "name": "totalBadges",
              "type": "uint256"
            },
            {
              "internalType": "uint256",
              "name": "commonCount",
              "type": "uint256"
            },
            {
              "internalType": "uint256",
              "name": "uncommonCount",
              "type": "uint256"
            },
            {
              "internalType": "uint256",
              "name": "rareCount",
              "type": "uint256"
            },
            {
              "internalType": "uint256",
              "name": "epicCount",
              "type": "uint256"
            },
            {
              "internalType": "uint256",
              "name": "legendaryCount",
              "type": "uint256"
            },
            {
              "internalType": "uint256",
              "name": "reputationScore",
              "type": "uint256"
            }
          ],
          "internalType": "struct IBadge.UserBadgeStats",
          "name": "stats",
          "type": "tuple"
        }
      ],
      "stateMutability": "view",
      "type": "function"
    },
    {
      "inputs": [
        {
          "internalType": "address",
          "name": "user",
          "type": "address"
        }
      ],
      "name": "getUserBadges",
      "outputs": [
        {
          "components": [
            {
              "internalType": "uint256",
              "name": "tokenId",
              "type": "uint256"
            },
            {
              "internalType": "enum IBadge.BadgeType",
              "name": "badgeType",
              "type": "uint8"
            },
            {
              "internalType": "enum IBadge.BadgeRarity",
              "name": "rarity",
              "type": "uint8"
            },
            {
              "internalType": "address",
              "name": "recipient",
              "type": "address"
            },
            {
              "internalType": "uint256",
              "name": "earnedAt",
              "type": "uint256"
            },
            {
              "internalType": "uint256",
              "name": "poolId",
              "type": "uint256"
            },
            {
              "internalType": "string",
              "name": "title",
              "type": "string"
            },
            {
              "internalType": "string",
              "name": "description",
              "type": "string"
            },
            {
              "internalType": "string",
              "name": "imageURI",
              "type": "string"
            },
            {
              "internalType": "uint256",
              "name": "value",
              "type": "uint256"
            },
            {
              "internalType": "bytes32",
              "name": "achievementHash",
              "type": "bytes32"
            }
          ],
          "internalType": "struct IBadge.BadgeInfo[]",
          "name": "badges",
          "type": "tuple[]"
        }
      ],
      "stateMutability": "view",
      "type": "function"
    },
    {
      "inputs": [
        {
          "internalType": "bytes32",
          "name": "role",
          "type": "bytes32"
        },
        {
          "internalType": "address",
          "name": "account",
          "type": "address"
        }
      ],
      "name": "grantRole",
      "outputs": [],
      "stateMutability": "nonpayable",
      "type": "function"
    },
    {
      "inputs": [
        {
          "internalType": "bytes32",
          "name": "role",
          "type": "bytes32"
        },
        {
          "internalType": "address",
          "name": "account",
          "type": "address"
        }
      ],
      "name": "hasRole",
      "outputs": [
        {
          "internalType": "bool",
          "name": "",
          "type": "bool"
        }
      ],
      "stateMutability": "view",
      "type": "function"
    },
    {
      "inputs": [
        {
          "internalType": "address",
          "name": "owner",
          "type": "address"
        },
        {
          "internalType": "address",
          "name": "operator",
          "type": "address"
        }
      ],
      "name": "isApprovedForAll",
      "outputs": [
        {
          "internalType": "bool",
          "name": "",
          "type": "bool"
        }
      ],
      "stateMutability": "view",
      "type": "function"
    },
    {
      "inputs": [
        {
          "internalType": "address",
          "name": "",
          "type": "address"
        },
        {
          "internalType": "enum IBadge.BadgeType",
          "name": "badgeType",
          "type": "uint8"
        },
        {
          "internalType": "uint256",
          "name": "value",
          "type": "uint256"
        }
      ],
      "name": "isEligibleForBadge",
      "outputs": [
        {
          "internalType": "bool",
          "name": "isEligible",
          "type": "bool"
        }
      ],
      "stateMutability": "view",
      "type": "function"
    },
    {
      "inputs": [
        {
          "internalType": "address",
          "name": "recipient",
          "type": "address"
        },
        {
          "internalType": "enum IBadge.BadgeType",
          "name": "badgeType",
          "type": "uint8"
        },
        {
          "internalType": "uint256",
          "name": "poolId",
          "type": "uint256"
        },
        {
          "internalType": "uint256",
          "name": "value",
          "type": "uint256"
        },
        {
          "internalType": "bytes",
          "name": "achievementData",
          "type": "bytes"
        }
      ],
      "name": "mintBadge",
      "outputs": [
        {
          "internalType": "uint256",
          "name": "tokenId",
          "type": "uint256"
        }
      ],
      "stateMutability": "nonpayable",
      "type": "function"
    },
    {
      "inputs": [],
      "name": "name",
      "outputs": [
        {
          "internalType": "string",
          "name": "",
          "type": "string"
        }
      ],
      "stateMutability": "view",
      "type": "function"
    },
    {
      "inputs": [
        {
          "internalType": "uint256",
          "name": "tokenId",
          "type": "uint256"
        }
      ],
      "name": "ownerOf",
      "outputs": [
        {
          "internalType": "address",
          "name": "",
          "type": "address"
        }
      ],
      "stateMutability": "view",
      "type": "function"
    },
    {
      "inputs": [
        {
          "internalType": "address",
          "name": "user",
          "type": "address"
        },
        {
          "internalType": "enum IBadge.BadgeType",
          "name": "badgeType",
          "type": "uint8"
        }
      ],
      "name": "ownsBadgeType",
      "outputs": [
        {
          "internalType": "bool",
          "name": "owns",
          "type": "bool"
        }
      ],
      "stateMutability": "view",
      "type": "function"
    },
    {
      "inputs": [],
      "name": "pause",
      "outputs": [],
      "stateMutability": "nonpayable",
      "type": "function"
    },
    {
      "inputs": [],
      "name": "paused",
      "outputs": [
        {
          "internalType": "bool",
          "name": "",
          "type": "bool"
        }
      ],
      "stateMutability": "view",
      "type": "function"
    },
    {
      "inputs": [
        {
          "internalType": "bytes32",
          "name": "role",
          "type": "bytes32"
        },
        {
          "internalType": "address",
          "name": "callerConfirmation",
          "type": "address"
        }
      ],
      "name": "renounceRole",
      "outputs": [],
      "stateMutability": "nonpayable",
      "type": "function"
    },
    {
      "inputs": [
        {
          "internalType": "bytes32",
          "name": "role",
          "type": "bytes32"
        },
        {
          "internalType": "address",
          "name": "account",
          "type": "address"
        }
      ],
      "name": "revokeRole",
      "outputs": [],
      "stateMutability": "nonpayable",
      "type": "function"
    },
    {
      "inputs": [
        {
          "internalType": "address",
          "name": "from",
          "type": "address"
        },
        {
          "internalType": "address",
          "name": "to",
          "type": "address"
        },
        {
          "internalType": "uint256",
          "name": "tokenId",
          "type": "uint256"
        }
      ],
      "name": "safeTransferFrom",
      "outputs": [],
      "stateMutability": "nonpayable",
      "type": "function"
    },
    {
      "inputs": [
        {
          "internalType": "address",
          "name": "from",
          "type": "address"
        },
        {
          "internalType": "address",
          "name": "to",
          "type": "address"
        },
        {
          "internalType": "uint256",
          "name": "tokenId",
          "type": "uint256"
        },
        {
          "internalType": "bytes",
          "name": "data",
          "type": "bytes"
        }
      ],
      "name": "safeTransferFrom",
      "outputs": [],
      "stateMutability": "nonpayable",
      "type": "function"
    },
    {
      "inputs": [
        {
          "internalType": "address",
          "name": "operator",
          "type": "address"
        },
        {
          "internalType": "bool",
          "name": "approved",
          "type": "bool"
        }
      ],
      "name": "setApprovalForAll",
      "outputs": [],
      "stateMutability": "nonpayable",
      "type": "function"
    },
    {
      "inputs": [
        {
          "internalType": "string",
          "name": "newBaseURI",
          "type": "string"
        }
      ],
      "name": "setBaseURI",
      "outputs": [],
      "stateMutability": "nonpayable",
      "type": "function"
    },
    {
      "inputs": [
        {
          "internalType": "bytes4",
          "name": "interfaceId",
          "type": "bytes4"
        }
      ],
      "name": "supportsInterface",
      "outputs": [
        {
          "internalType": "bool",
          "name": "",
          "type": "bool"
        }
      ],
      "stateMutability": "view",
      "type": "function"
    },
    {
      "inputs": [],
      "name": "symbol",
      "outputs": [
        {
          "internalType": "string",
          "name": "",
          "type": "string"
        }
      ],
      "stateMutability": "view",
      "type": "function"
    },
    {
      "inputs": [
        {
          "internalType": "uint256",
          "name": "tokenId",
          "type": "uint256"
        }
      ],
      "name": "tokenURI",
      "outputs": [
        {
          "internalType": "string",
          "name": "",
          "type": "string"
        }
      ],
      "stateMutability": "view",
      "type": "function"
    },
    {
      "inputs": [
        {
          "internalType": "address",
          "name": "from",
          "type": "address"
        },
        {
          "internalType": "address",
          "name": "to",
          "type": "address"
        },
        {
          "internalType": "uint256",
          "name": "tokenId",
          "type": "uint256"
        }
      ],
      "name": "transferFrom",
      "outputs": [],
      "stateMutability": "nonpayable",
      "type": "function"
    },
    {
      "inputs": [],
      "name": "unpause",
      "outputs": [],
      "stateMutability": "nonpayable",
      "type": "function"
    },
    {
      "inputs": [
        {
          "internalType": "uint256",
          "name": "tokenId",
          "type": "uint256"
        },
        {
          "internalType": "string",
          "name": "newImageURI",
          "type": "string"
        }
      ],
      "name": "updateBadgeMetadata",
      "outputs": [],
      "stateMutability": "nonpayable",
      "type": "function"
    },
    {
      "inputs": [
        {
          "internalType": "enum IBadge.BadgeType",
          "name": "badgeType",
          "type": "uint8"
        },
        {
          "components": [
            {
              "internalType": "enum IBadge.BadgeType",
              "name": "badgeType",
              "type": "uint8"
            },
            {
              "internalType": "enum IBadge.BadgeRarity",
              "name": "rarity",
              "type": "uint8"
            },
            {
              "internalType": "string",
              "name": "title",
              "type": "string"
            },
            {
              "internalType": "string",
              "name": "description",
              "type": "string"
            },
            {
              "internalType": "string",
              "name": "imageURI",
              "type": "string"
            },
            {
              "internalType": "uint256",
              "name": "minValue",
              "type": "uint256"
            },
            {
              "internalType": "bool",
              "name": "isActive",
              "type": "bool"
            },
            {
              "internalType": "uint256",
              "name": "totalMinted",
              "type": "uint256"
            },
            {
              "internalType": "uint256",
              "name": "maxSupply",
              "type": "uint256"
            }
          ],
          "internalType": "struct IBadge.BadgeTemplate",
          "name": "template",
          "type": "tuple"
        }
      ],
      "name": "updateBadgeTemplate",
      "outputs": [],
      "stateMutability": "nonpayable",
      "type": "function"
    }
  ],
  "bytecode": "0x608060405234612c34576171568038038061001981612c59565b928339810190604081830312612c345780516001600160a01b03811691828203612c34576020810151906001600160401b038211612c34570183601f82011215612c34578051906001600160401b038211612a2157610081601f8301601f1916602001612c59565b9482865260208383010111612c345760005b828110612c1f5750506020600091850101526040916100b183612c59565b601a81527f41726973616e2b20416368696576656d656e742042616467657300000000000060208201526100e484612c59565b600781526641524953414e2b60c81b6020820152815190916001600160401b038211612a215760005490600182811c92168015612c15575b6020831014612a015781601f849311612ba6575b50602090601f8311600114612b4057600092612b35575b50508160011b916000199060031b1c1916176000555b8051906001600160401b038211612a215760015490600182811c92168015612b2b575b6020831014612a015781601f849311612abb575b50602090601f8311600114612a5357600092612a48575b50508160011b916000199060031b1c1916176001555b600160085515612a3757806101d86101de92612c7e565b50612cfa565b5081516001600160401b038111612a2157600b54600181811c91168015612a17575b6020821014612a0157601f811161299c575b50602092601f8211600114612937579281929360009261292c575b50508160011b916000199060031b1c191617600b555b6001600a818155600080805260166020528381208390559182528282206002908190558252828220600590556003825282822055600481528190206019905561028a612c39565b90600082526020820191600083526102a182612c59565b600c81526b2837b7b61021b932b0ba37b960a11b60208201528282019081526102c983612c59565b601681527f43726561746564206120736176696e677320706f6f6c0000000000000000000060208201526060830190815261030384612c59565b60118152703837b7b616b1b932b0ba37b9173539b7b760791b60208201526080840190815260a084016000815260c08501916001835260e08601936000855261010087019560008752886000808052600d60205220975160088110156129165760009a8954905160058110156118f95761ff0060ff9160081b1692169061ffff19161717885560018801905180519060018060401b0382116118e5578254600181811c9116801561290c575b60208210146118c7579081601f8493116128b9575b506020908d601f8411600114612856579261284b575b50508160011b916000199060031b1c19161790555b51805160028801916001600160401b0382116117f2578254600181811c91168015612841575b60208210146117d4579081601f8493116127f1575b50602090601f831160011461278e578c92612783575b50508160011b916000199060031b1c19161790555b51805160038701916001600160401b03821161276f578254600181811c91168015612765575b602082101461275157601f811161270c575b50602090601f83116001146126b9579180600798979694926104e496948d92611628575b50508160011b916000199060031b1c19161790555b516004870155511515600586019060ff801983541691151516179055565b516006840155519101556104f6612c39565b60018152602081019083825261050b83612c59565b91600c83526b22b0b9363c902537b4b732b960a11b602084015283820192835260609261053784612c59565b602781527f4a6f696e6564206120706f6f6c20616d6f6e67207468652066697273742033206020820152666d656d6265727360c81b8682015284840190815261057f86612c59565b601181527032b0b9363c96b537b4b732b9173539b7b760791b60208201526080850190815260a085019088825260c08601926001845260e08701948a86526101008801968b885260018c52600d6020528a8c2098519060088210156118f957895490516005811015611b835761ff0060ff9160081b1692169061ffff19161717885560018801905180519060018060401b038211611b6f578254600181811c911680156126af575b6020821014611b51578291818f92601f1061265b575b50602091601f84116001146125f857926125ed575b50508160011b916000199060031b1c19161790555b51805160028801916001600160401b0382116118e5578254600181811c911680156125e3575b60208210146118c7579081601f849311612590575b506020908d601f841160011461252d5792612522575b50508160011b916000199060031b1c19161790555b51805160038701916001600160401b0382116117f2578254600181811c91168015612518575b60208210146117d457601f81116124d3575b506020908b601f841160011461247f579260079897969492819261075b9795926116285750508160011b916000199060031b1c1916179055516004870155511515600586019060ff801983541691151516179055565b5160068401555191015561076d612c39565b60028152602081016001815261078284612c59565b600e81526d2637ba3a32b93c902bb4b73732b960911b60208201528483019081526107ac85612c59565b6012815271576f6e2061206c6f7474657279206472617760701b60208201528484019081526107da86612c59565b601381527f6c6f74746572792d77696e6e65722e6a736f6e0000000000000000000000000060208201526080850190815260a085019088825260c08601926001845260e08701948a86526101008801968b885260028c52600d6020528a8c2098519060088210156118f957895490516005811015611b835761ff0060ff9160081b1692169061ffff19161717885560018801905180519060018060401b038211611b6f578254600181811c91168015612475575b6020821014611b51578291818f92601f10612421575b50602091601f84116001146123be57926123b3575b50508160011b916000199060031b1c19161790555b51805160028801916001600160401b0382116118e5578254600181811c911680156123a9575b60208210146118c7579081601f849311612356575b506020908d601f84116001146122f357926122e8575b50508160011b916000199060031b1c19161790555b51805160038701916001600160401b0382116117f2578254600181811c911680156122de575b60208210146117d457601f8111612299575b506020908b601f841160011461224557926007989796949281926109c29795926116285750508160011b916000199060031b1c1916179055516004870155511515600586019060ff801983541691151516179055565b516006840155519101556109d4612c39565b60038152602081018481526109e884612c59565b600e81526d2837b7b61021b7b6b83632ba32b960911b6020820152848301908152610a1284612c59565b602581527f5375636365737366756c6c7920636f6d706c65746564206120736176696e6773602082015264081c1bdbdb60da1b86820152848401908152610a5886612c59565b601381527f706f6f6c2d636f6d706c657465722e6a736f6e0000000000000000000000000060208201526080850190815260a085019088825260c08601926001845260e08701948a86526101008801968b885260038c52600d6020528a8c2098519060088210156118f957895490516005811015611b835761ff0060ff9160081b1692169061ffff19161717885560018801905180519060018060401b038211611b6f578254600181811c9116801561223b575b6020821014611b51578291818f92601f106121e7575b50602091601f84116001146121845792612179575b50508160011b916000199060031b1c19161790555b51805160028801916001600160401b0382116118e5578254600181811c9116801561216f575b60208210146118c7579081601f84931161211c575b506020908d601f84116001146120b957926120ae575b50508160011b916000199060031b1c19161790555b51805160038701916001600160401b0382116117f2578254600181811c911680156120a4575b60208210146117d457601f811161205f575b506020908b601f841160011461200b5792600798979694928192610c409795926116285750508160011b916000199060031b1c1916179055516004870155511515600586019060ff801983541691151516179055565b51600684015551910155610c52612c39565b600481526020810160028152610c6784612c59565b600c81526b2434b3b4102cb4b2b63232b960a11b6020820152848301908152610c8f84612c59565b602381527f4561726e6564207369676e69666963616e74207969656c642066726f6d20706f6020820152626f6c7360e81b86820152848401908152610cd386612c59565b60118152703434b3b416bcb4b2b63232b9173539b7b760791b60208201526080850190815260a0850190670de0b6b3a7640000825260c08601926001845260e08701948a86526101008801968b885260048c52600d6020528a8c2098519060088210156118f957895490516005811015611b835761ff0060ff9160081b1692169061ffff19161717885560018801905180519060018060401b038211611b6f578254600181811c91168015612001575b6020821014611b51578291818f92601f10611fad575b50602091601f8411600114611f4a5792611f3f575b50508160011b916000199060031b1c19161790555b51805160028801916001600160401b0382116118e5578254600181811c91168015611f35575b60208210146118c7579081601f849311611ee2575b506020908d601f8411600114611e7f5792611e74575b50508160011b916000199060031b1c19161790555b51805160038701916001600160401b0382116117f2578254600181811c91168015611e6a575b60208210146117d457601f8111611e25575b506020908b601f8411600114611dd15792600798979694928192610eb79795926116285750508160011b916000199060031b1c1916179055516004870155511515600586019060ff801983541691151516179055565b51600684015551910155610ec9612c39565b600581526020810160038152610ede84612c59565b60078152662b32ba32b930b760c91b6020820152848301908152610f0185612c59565b601e81527f4c6f6e672d7465726d20706c6174666f726d207061727469636970616e7400006020820152848401908152610f3a86612c59565b600c81526b3b32ba32b930b7173539b7b760a11b60208201526080850190815260a0850190600a825260c08601926001845260e08701948a86526101008801966103e8885260058c52600d6020528a8c2098519060088210156118f957895490516005811015611b835761ff0060ff9160081b1692169061ffff19161717885560018801905180519060018060401b038211611b6f578254600181811c91168015611dc7575b6020821014611b51578291818f92601f10611d73575b50602091601f8411600114611d105792611d05575b50508160011b916000199060031b1c19161790555b51805160028801916001600160401b0382116118e5578254600181811c91168015611cfb575b60208210146118c7579081601f849311611ca8575b506020908d601f8411600114611c455792611c3a575b50508160011b916000199060031b1c19161790555b51805160038701916001600160401b0382116117f2578254600181811c91168015611c30575b60208210146117d457601f8111611beb575b506020908b601f8411600114611b9757926007989796949281926111149795926116285750508160011b916000199060031b1c1916179055516004870155511515600586019060ff801983541691151516179055565b51600684015551910155611126612c39565b60068152602081016002815261113b84612c59565b601181527029b7b1b4b0b61024b733363ab2b731b2b960791b602082015284830190815261116884612c59565b602781527f5265666572726564206d756c7469706c6520757365727320746f2074686520706020820152666c6174666f726d60c81b868201528484019081526111b086612c59565b601681527f736f6369616c2d696e666c75656e6365722e6a736f6e0000000000000000000060208201526080850190815260a08501906005825260c08601926001845260e08701948a86526101008801966101f4885260068c52600d6020528a8c2098519060088210156118f957895490516005811015611b835761ff0060ff9160081b1692169061ffff19161717885560018801905180519060018060401b038211611b6f578254600181811c91168015611b65575b6020821014611b51578291818f92601f10611afd575b50602091601f8411600114611a9a5792611a8f575b50508160011b916000199060031b1c19161790555b51805160028801916001600160401b0382116118e5578254600181811c91168015611a85575b60208210146118c7579081601f849311611a32575b506020908d601f84116001146119cf57926119c4575b50508160011b916000199060031b1c19161790555b51805160038701916001600160401b0382116117f2578254600181811c911680156119ba575b60208210146117d457601f8111611975575b506020908b601f8411600114611921579260079897969492819261139b9795926116285750508160011b916000199060031b1c1916179055516004870155511515600586019060ff801983541691151516179055565b516006840155519101556113ad612c39565b90600782526020820190600382526113c484612c59565b90600d82526c2a393ab9ba10213ab4b63232b960991b60208301528484019182526113ee81612c59565b90602182527f43726561746564206d756c7469706c65207375636365737366756c20706f6f6c6020830152607360f81b86830152840190815261143085612c59565b60128152713a393ab9ba16b13ab4b63232b9173539b7b760711b60208201526080850190815260a08501906005825260c08601926001845260e08701948986526101008801966064885260078b52600d602052898b20985190600882101561190d578954905160058110156118f95761ff0060ff9160081b1692169061ffff19161717885560018801905180519060018060401b0382116118e5578254600181811c911680156118db575b60208210146118c7579081601f849311611874575b506020908d601f84116001146118115792611806575b50508160011b916000199060031b1c19161790555b51805160028801916001600160401b0382116117f2578254600181811c911680156117e8575b60208210146117d4579081601f849311611784575b50602090601f8311600114611721578c92611716575b50508160011b916000199060031b1c19161790555b51805190976003870191906001600160401b038211611702578254600181811c911680156116f8575b60208210146116e457601f811161169f575b50602090601f8311600114611633579180916007999a9b61161197969594926116285750508160011b916000199060031b1c1916179055516004870155511515600586019060ff801983541691151516179055565b516006840155519101555161435f9081612db78239f35b0151905038806104b1565b99601f198316848c52828c209b5b81811061168757509a60019284926116119897969560079c9d9e1061166e575b505050811b0190556104c6565b015160001960f88460031b161c19169055388080611661565b838301518d556001909c019b60209384019301611641565b83825260208220601f840160051c810191602085106116da575b601f0160051c01905b8181106116cf57506115bc565b8281556001016116c2565b90915081906116b9565b634e487b7160e01b82526022600452602482fd5b90607f16906115aa565b634e487b7160e01b81526041600452602490fd5b01519050388061156c565b848d52818d209250601f1984168d5b81811061176c5750908460019594939210611753575b505050811b019055611581565b015160001960f88460031b161c19169055388080611746565b92936020600181928786015181550195019301611730565b909150838c5260208c20601f840160051c810191602085106117ca575b90601f859493920160051c01905b8181106117bc5750611556565b8d81558493506001016117af565b90915081906117a1565b634e487b7160e01b8c52602260045260248cfd5b90607f1690611541565b634e487b7160e01b8b52604160045260248bfd5b015190503880611506565b8581528281209350601f198516905b81811061185c5750908460019594939210611843575b505050811b01905561151b565b015160001960f88460031b161c19169055388080611836565b92936020600181928786015181550195019301611820565b909150838d5260208d20601f840160051c810191602085106118bd575b849392918f91601f0160051c0191905b8282106118af5750506114f0565b81558493506001018e6118a1565b9091508190611891565b634e487b7160e01b8d52602260045260248dfd5b90607f16906114db565b634e487b7160e01b8c52604160045260248cfd5b634e487b7160e01b8d52602160045260248dfd5b634e487b7160e01b8c52602160045260248cfd5b50838c52818c209190601f1984168d5b81811061195d575092600192859261139b989660079c9b9a98961061166e57505050811b0190556104c6565b92936020600181928786015181550195019301611931565b838c5260208c20601f840160051c810191602085106119b0575b601f0160051c01905b8181106119a55750611345565b8c8155600101611998565b909150819061198f565b90607f1690611333565b0151905038806112f8565b8581528281209350601f198516905b818110611a1a5750908460019594939210611a01575b505050811b01905561130d565b015160001960f88460031b161c191690553880806119f4565b929360206001819287860151815501950193016119de565b909150838d5260208d20601f840160051c81019160208510611a7b575b849392918f91601f0160051c0191905b828210611a6d5750506112e2565b81558493506001018e611a5f565b9091508190611a4f565b90607f16906112cd565b015190503880611292565b8581528281209350601f198516905b818110611ae55750908460019594939210611acc575b505050811b0190556112a7565b015160001960f88460031b161c19169055388080611abf565b92936020600181928786015181550195019301611aa9565b91602091935085815220601f840160051c81019160208510611b47575b918f9291601f8695930160051c01905b818110611b37575061127d565b9283558493508f92600101611b2a565b9091508190611b1a565b634e487b7160e01b8e52602260045260248efd5b90607f1690611267565b634e487b7160e01b8d52604160045260248dfd5b634e487b7160e01b8e52602160045260248efd5b50838c52818c209190601f1984168d5b818110611bd35750926001928592611114989660079c9b9a98961061166e57505050811b0190556104c6565b92936020600181928786015181550195019301611ba7565b838c5260208c20601f840160051c81019160208510611c26575b601f0160051c01905b818110611c1b57506110be565b8c8155600101611c0e565b9091508190611c05565b90607f16906110ac565b015190503880611071565b8581528281209350601f198516905b818110611c905750908460019594939210611c77575b505050811b019055611086565b015160001960f88460031b161c19169055388080611c6a565b92936020600181928786015181550195019301611c54565b909150838d5260208d20601f840160051c81019160208510611cf1575b849392918f91601f0160051c0191905b828210611ce357505061105b565b81558493506001018e611cd5565b9091508190611cc5565b90607f1690611046565b01519050388061100b565b8581528281209350601f198516905b818110611d5b5750908460019594939210611d42575b505050811b019055611020565b015160001960f88460031b161c19169055388080611d35565b92936020600181928786015181550195019301611d1f565b91602091935085815220601f840160051c81019160208510611dbd575b918f9291601f8695930160051c01905b818110611dad5750610ff6565b9283558493508f92600101611da0565b9091508190611d90565b90607f1690610fe0565b50838c52818c209190601f1984168d5b818110611e0d5750926001928592610eb7989660079c9b9a98961061166e57505050811b0190556104c6565b92936020600181928786015181550195019301611de1565b838c5260208c20601f840160051c81019160208510611e60575b601f0160051c01905b818110611e555750610e61565b8c8155600101611e48565b9091508190611e3f565b90607f1690610e4f565b015190503880610e14565b8581528281209350601f198516905b818110611eca5750908460019594939210611eb1575b505050811b019055610e29565b015160001960f88460031b161c19169055388080611ea4565b92936020600181928786015181550195019301611e8e565b909150838d5260208d20601f840160051c81019160208510611f2b575b849392918f91601f0160051c0191905b828210611f1d575050610dfe565b81558493506001018e611f0f565b9091508190611eff565b90607f1690610de9565b015190503880610dae565b8581528281209350601f198516905b818110611f955750908460019594939210611f7c575b505050811b019055610dc3565b015160001960f88460031b161c19169055388080611f6f565b92936020600181928786015181550195019301611f59565b91602091935085815220601f840160051c81019160208510611ff7575b918f9291601f8695930160051c01905b818110611fe75750610d99565b9283558493508f92600101611fda565b9091508190611fca565b90607f1690610d83565b50838c52818c209190601f1984168d5b8181106120475750926001928592610c40989660079c9b9a98961061166e57505050811b0190556104c6565b9293602060018192878601518155019501930161201b565b838c5260208c20601f840160051c8101916020851061209a575b601f0160051c01905b81811061208f5750610bea565b8c8155600101612082565b9091508190612079565b90607f1690610bd8565b015190503880610b9d565b8581528281209350601f198516905b81811061210457509084600195949392106120eb575b505050811b019055610bb2565b015160001960f88460031b161c191690553880806120de565b929360206001819287860151815501950193016120c8565b909150838d5260208d20601f840160051c81019160208510612165575b849392918f91601f0160051c0191905b828210612157575050610b87565b81558493506001018e612149565b9091508190612139565b90607f1690610b72565b015190503880610b37565b8581528281209350601f198516905b8181106121cf57509084600195949392106121b6575b505050811b019055610b4c565b015160001960f88460031b161c191690553880806121a9565b92936020600181928786015181550195019301612193565b91602091935085815220601f840160051c81019160208510612231575b918f9291601f8695930160051c01905b8181106122215750610b22565b9283558493508f92600101612214565b9091508190612204565b90607f1690610b0c565b50838c52818c209190601f1984168d5b81811061228157509260019285926109c2989660079c9b9a98961061166e57505050811b0190556104c6565b92936020600181928786015181550195019301612255565b838c5260208c20601f840160051c810191602085106122d4575b601f0160051c01905b8181106122c9575061096c565b8c81556001016122bc565b90915081906122b3565b90607f169061095a565b01519050388061091f565b8581528281209350601f198516905b81811061233e5750908460019594939210612325575b505050811b019055610934565b015160001960f88460031b161c19169055388080612318565b92936020600181928786015181550195019301612302565b909150838d5260208d20601f840160051c8101916020851061239f575b849392918f91601f0160051c0191905b828210612391575050610909565b81558493506001018e612383565b9091508190612373565b90607f16906108f4565b0151905038806108b9565b8581528281209350601f198516905b81811061240957509084600195949392106123f0575b505050811b0190556108ce565b015160001960f88460031b161c191690553880806123e3565b929360206001819287860151815501950193016123cd565b91602091935085815220601f840160051c8101916020851061246b575b918f9291601f8695930160051c01905b81811061245b57506108a4565b9283558493508f9260010161244e565b909150819061243e565b90607f169061088e565b50838c52818c209190601f1984168d5b8181106124bb575092600192859261075b989660079c9b9a98961061166e57505050811b0190556104c6565b9293602060018192878601518155019501930161248f565b838c5260208c20601f840160051c8101916020851061250e575b601f0160051c01905b8181106125035750610705565b8c81556001016124f6565b90915081906124ed565b90607f16906106f3565b0151905038806106b8565b8581528281209350601f198516905b818110612578575090846001959493921061255f575b505050811b0190556106cd565b015160001960f88460031b161c19169055388080612552565b9293602060018192878601518155019501930161253c565b909150838d5260208d20601f840160051c810191602085106125d9575b849392918f91601f0160051c0191905b8282106125cb5750506106a2565b81558493506001018e6125bd565b90915081906125ad565b90607f169061068d565b015190503880610652565b8581528281209350601f198516905b818110612643575090846001959493921061262a575b505050811b019055610667565b015160001960f88460031b161c1916905538808061261d565b92936020600181928786015181550195019301612607565b91602091935085815220601f840160051c810191602085106126a5575b918f9291601f8695930160051c01905b818110612695575061063d565b9283558493508f92600101612688565b9091508190612678565b90607f1690610627565b838b52818b209190601f1984168c5b8181106126f457509260019285926104e4989660079c9b9a98961061166e57505050811b0190556104c6565b929360206001819287860151815501950193016126c8565b838b5260208b20601f840160051c81019160208510612747575b601f0160051c01905b81811061273c575061048d565b8b815560010161272f565b9091508190612726565b634e487b7160e01b8b52602260045260248bfd5b90607f169061047b565b634e487b7160e01b8a52604160045260248afd5b015190503880610440565b848d52818d209250601f1984168d5b8181106127d957509084600195949392106127c0575b505050811b019055610455565b015160001960f88460031b161c191690553880806127b3565b9293602060018192878601518155019501930161279d565b909150838c5260208c20601f840160051c81019160208510612837575b90601f859493920160051c01905b818110612829575061042a565b8d815584935060010161281c565b909150819061280e565b90607f1690610415565b0151905038806103da565b8581528281209350601f198516905b8181106128a15750908460019594939210612888575b505050811b0190556103ef565b015160001960f88460031b161c1916905538808061287b565b92936020600181928786015181550195019301612865565b909150838d5260208d20601f840160051c81019160208510612902575b849392918f91601f0160051c0191905b8282106128f45750506103c4565b81558493506001018e6128e6565b90915081906128d6565b90607f16906103af565b634e487b7160e01b600052602160045260246000fd5b01519050388061022d565b601f19821693600b600052806000209160005b868110612984575083600195961061296b575b505050811b01600b55610243565b015160001960f88460031b161c1916905538808061295d565b9192602060018192868501518155019401920161294a565b600b6000527f0175b7a638427703f0dbe7bb9bbf987a2551717b34e79f33b5b1008d1fa01db9601f830160051c810191602084106129f7575b601f0160051c01905b8181106129eb5750610212565b600081556001016129de565b90915081906129d5565b634e487b7160e01b600052602260045260246000fd5b90607f1690610200565b634e487b7160e01b600052604160045260246000fd5b63d92e233d60e01b60005260046000fd5b0151905038806101ab565b600160009081528281209350601f198516905b818110612aa35750908460019594939210612a8a575b505050811b016001556101c1565b015160001960f88460031b161c19169055388080612a7c565b92936020600181928786015181550195019301612a66565b60016000529091507fb10e2d527612073b26eecdfd717e6a320cf44b4afac2b0732d9fcbe2b7fa0cf6601f840160051c81019160208510612b21575b90601f859493920160051c01905b818110612b125750610194565b60008155849350600101612b05565b9091508190612af7565b91607f1691610180565b015190503880610147565b60008080528281209350601f198516905b818110612b8e5750908460019594939210612b75575b505050811b0160005561015d565b015160001960f88460031b161c19169055388080612b67565b92936020600181928786015181550195019301612b51565b600080529091507f290decd9548b62a8d60345a988386fc84ba6bc95484008f6362f93160ef3e563601f840160051c81019160208510612c0b575b90601f859493920160051c01905b818110612bfc5750610130565b60008155849350600101612bef565b9091508190612be1565b91607f169161011c565b80602080928401015182828901015201610093565b600080fd5b6040519061012082016001600160401b03811183821017612a2157604052565b6040519190601f01601f191682016001600160401b03811183821017612a2157604052565b6001600160a01b0381166000908152600080516020617136833981519152602052604090205460ff16612cf4576001600160a01b0316600081815260008051602061713683398151915260205260408120805460ff191660011790553391906000805160206171168339815191528180a4600190565b50600090565b6001600160a01b03811660009081527f1ee73a39cd2228fe362a0a26e33e86fb7e43a15c8bae911cdda5e00079253e2e602052604090205460ff16612cf4576001600160a01b031660008181527f1ee73a39cd2228fe362a0a26e33e86fb7e43a15c8bae911cdda5e00079253e2e60205260408120805460ff191660011790553391907f4edf5afbdc763971556e31a9d4d295aa46e94ad2348abeeba4a0ffcac0b22967906000805160206171168339815191529080a460019056fe608080604052600436101561001357600080fd5b60003560e01c90816301ffc9a714612b895750806306fdde0314612ae4578063081812fc14612aa6578063095ea7b3146129b75780630a8fa8251461297a5780630f94be9b146129075780631f801e27146128cc578063219454ab146126c657806323b872dd146126af578063248a9ca3146126825780632f2ff15d14612642578063314ed2fa1461251757806335ba9f38146124e757806336568abe146124a1578063373e3a3a1461230d57806337c245fe146121d9578063396e45de146114305780633f4ba83a146113c757806342842e0e1461139757806347461b401461119457806355f804b31461102a5780635c975abb146110075780636352211e14610fd757806370a0823114610f8157806372b8fed814610f59578063765c38f014610af55780638456cb5914610a9b5780638e01ec891461097557806391d148541461092857806395d89b411461085b578063a09e97ce14610730578063a0c3074c14610645578063a217fddf14610629578063a22cb4651461057f578063ac90b87b14610540578063b54f0b3a146104ed578063b88d4fde14610482578063c87b56dd1461044f578063caa0f92a14610431578063d5391393146103f6578063d547741f146103af578063e2045b5e14610297578063e985e9c51461023c5763f73905391461020357600080fd5b3461023757602036600319011261023757600435600881101561023757600661022d602092613765565b0154604051908152f35b600080fd5b3461023757604036600319011261023757610255612c70565b61025d612c86565b9060018060a01b0316600052600560205260406000209060018060a01b0316600052602052602060ff604060002054166040519015158152f35b34610237576020366003190112610237576004356102b3613796565b506000818152600260205260409020546001600160a01b03161561039f57600052600c60205261039b60406000206008604051916102f083612e90565b80548352600181015461030960ff82166020860161383b565b61031b60ff82851c1660408601613847565b60101c6001600160a01b0316606084015260028101546080840152600381015460a084015261034c60048201613037565b60c084015261035d60058201613037565b60e084015261036e60068201613037565b61010084015260078101546101208401520154610140820152604051918291602083526020830190612d54565b0390f35b626f708760e21b60005260046000fd5b34610237576040366003190112610237576103f46004356103ce612c86565b906103ef6103ea82600052600760205260016040600020015490565b613bef565b613cd1565b005b346102375760003660031901126102375760206040517f9f2df0fed2c77648de5860a4cc508cd0818c85b8b8a1ab4ceeef8d981c8956a68152f35b34610237576000366003190112610237576020600a54604051908152f35b346102375760203660031901126102375761039b61046e600435614279565b604051918291602083526020830190612c4b565b346102375760803660031901126102375761049b612c70565b6104a3612c86565b90604435606435926001600160401b0384116102375736602385011215610237576104db6103f4943690602481600401359101612f1f565b926104e7838383613390565b336140f3565b3461023757604036600319011261023757610506612c70565b60243560088110156102375761053460ff9160209360018060a01b031660005260138452604060002061377e565b54166040519015158152f35b3461023757606036600319011261023757610559612c70565b5060243560088110156102375761057560209160443590613a81565b6040519015158152f35b3461023757604036600319011261023757610598612c70565b6024359081151590818303610237576001600160a01b0316918215610614576105e69033600052600560205260406000208460005260205260406000209060ff801983541691151516179055565b6040519081527f17307eab39ab6107e8899845ad3d59bd9653f200f220920489ca2b5937696c3160203392a3005b82630b61174360e31b60005260045260246000fd5b3461023757600036600319011261023757602060405160008152f35b346102375760203660031901126102375761065e612c70565b600060c060405161066e81612ec8565b8281528260208201528260408201528260608201528260808201528260a0820152015260018060a01b0316600052600e60205260e060406000206040516106b481612ec8565b815491828252600181015460208301908152600282015460408401908152600383015490606085019182526004840154926080860193845260c0600660058701549660a08901978852015496019586526040519687525160208701525160408601525160608501525160808401525160a08301525160c0820152f35b346102375760203660031901126102375760043560058110156102375761075690613968565b8054610761816137eb565b9160005b82811061077a576040518061039b8682612e03565b8061078760019284613153565b90549060031b1c600052600c60205260406000206008604051916107aa83612e90565b80548352848101546107c260ff82166020860161383b565b6107d460ff82851c1660408601613847565b858060a01b039060101c16606084015260028101546080840152600381015460a084015261080460048201613037565b60c084015261081560058201613037565b60e084015261082660068201613037565b61010084015260078101546101208401520154610140820152610849828761316b565b52610854818661316b565b5001610765565b3461023757600036600319011261023757604051600060015461087d81612f56565b808452906001811690811561090457506001146108a5575b61039b8361046e81850382612ee3565b600160009081527fb10e2d527612073b26eecdfd717e6a320cf44b4afac2b0732d9fcbe2b7fa0cf6939250905b8082106108ea5750909150810160200161046e610895565b9192600181602092548385880101520191019092916108d2565b60ff191660208086019190915291151560051b8401909101915061046e9050610895565b3461023757604036600319011261023757610941612c86565b600435600052600760205260406000209060018060a01b0316600052602052602060ff604060002054166040519015158152f35b34610237576020366003190112610237576004356000526012602052604060002080546109a1816137eb565b9160005b8281106109ba576040518061039b8682612e03565b806109c760019284613153565b90549060031b1c600052600c60205260406000206008604051916109ea83612e90565b8054835284810154610a0260ff82166020860161383b565b610a1460ff82851c1660408601613847565b858060a01b039060101c16606084015260028101546080840152600381015460a0840152610a4460048201613037565b60c0840152610a5560058201613037565b60e0840152610a6660068201613037565b61010084015260078101546101208401520154610140820152610a89828761316b565b52610a94818661316b565b50016109a5565b3461023757600036600319011261023757610ab4613b7d565b610abc613c2c565b600160ff1960095416176009557f62e78cea01bee320cd4e420270b5ea74000d11b0c9f74754ebdbfc544b05a2586020604051338152a1005b3461023757604036600319011261023757600435600881101561023757602435906001600160401b0382116102375781600401610120600319843603011261023757610b3f613b7d565b803592600884101561023757600091838503610f4a57610b5e84613765565b610b6886826138bc565b6024830135926005841015610f4657610b8184836138d4565b604481019460018301610b948786613a1e565b906001600160401b038211610f3257610bb782610bb18554612f56565b856138f3565b8390601f8311600114610ece57610be69291859183610ec3575b50508160011b916000199060031b1c19161790565b90555b6064820160028401610bfb8287613a1e565b906001600160401b038211610eaf57610c1882610bb18554612f56565b8490601f8311600114610e4b57610c469291869183610e405750508160011b916000199060031b1c19161790565b90555b6084830160038501610c5b8288613a1e565b906001600160401b038211610e2c57610c7882610bb18554612f56565b8590601f8311600114610dc857610ca69291879183610dbd5750508160011b916000199060031b1c19161790565b90555b60a48401359586600487015560c48501359283151594858503610dba5760058801805460ff191660ff8715151617905560e4870135968760068a0155610104013560078199015550604051998a9960208b5260009d60208c01610d0b91612d3a565b60408b01610d1891612d47565b610d229083613a50565b60608b0161012090526101408b0190610d3a926139c6565b90610d459083613a50565b8a8303601f190160808c0152610d5b92916139c6565b91610d6591613a50565b888303601f190160a08a0152610d7b92916139c6565b9460c08701525060e0850152610100840152610120830152037f21e0fc9794d662555c3b57c2fc117e9ee386368826d830494b361463dbc6bc6d91a280f35b80fd5b013590508e80610bd1565b8387526020872091601f198416885b818110610e145750908460019594939210610dfa575b505050811b019055610ca9565b0135600019600384901b60f8161c191690558d8080610ded565b91936020600181928787013581550195019201610dd7565b634e487b7160e01b86526041600452602486fd5b013590508d80610bd1565b8386526020862091601f198416875b818110610e975750908460019594939210610e7d575b505050811b019055610c49565b0135600019600384901b60f8161c191690558c8080610e70565b91936020600181928787013581550195019201610e5a565b634e487b7160e01b85526041600452602485fd5b013590508c80610bd1565b8385526020852091601f198416865b818110610f1a5750908460019594939210610f00575b505050811b019055610be9565b0135600019600384901b60f8161c191690558b8080610ef3565b91936020600181928787013581550195019201610edd565b634e487b7160e01b84526041600452602484fd5b8480fd5b63ec55b8cd60e01b8352600483fd5b34610237576020366003190112610237576004356008811015610237576105756020916139e7565b34610237576020366003190112610237576001600160a01b03610fa2612c70565b168015610fc15760005260036020526020604060002054604051908152f35b6322718ad960e21b600052600060045260246000fd5b34610237576020366003190112610237576020610ff5600435613ad4565b6040516001600160a01b039091168152f35b3461023757600036600319011261023757602060ff600954166040519015158152f35b34610237576020366003190112610237576004356001600160401b0381116102375761105a903690600401612e63565b611062613b7d565b6001600160401b03811161117e5761107b600b54612f56565b601f811161112b575b506000601f82116001146110c45781906110b4936000926110b95750508160011b916000199060031b1c19161790565b600b55005b013590508380610bd1565b601f1982169260008051602061430a83398151915291805b858110611113575083600195106110f9575b505050811b01600b55005b0135600019600384901b60f8161c191690558280806110ee565b909260206001819286860135815501940191016110dc565b600b60005260008051602061430a833981519152601f830160051c81019160208410611174575b601f0160051c01905b8181106111685750611084565b6000815560010161115b565b9091508190611152565b634e487b7160e01b600052604160045260246000fd5b34610237576040366003190112610237576004356024356001600160401b038111610237576111c7903690600401612e63565b600083815260026020526040902054909291906001600160a01b03161561039f573360009081527f1ee73a39cd2228fe362a0a26e33e86fb7e43a15c8bae911cdda5e00079253e2e602052604090205460ff16158061137c575b61136b5781600052600c6020526006604060002001926001600160401b03811161117e57611259816112538654612f56565b866138f3565b600093601f82116001146112e9576112ab82807fb810609e93b7325976c078b96d9c92d3160d0d165073b8c9a8a6a4d257fd047796976000916112de575b508160011b916000199060031b1c19161790565b90555b6112c26112bc368385612f1f565b85613fc5565b6112d96040519283926020845260208401916139c6565b0390a2005b905085013588611297565b80855260208520601f19831695805b8781106113535750837fb810609e93b7325976c078b96d9c92d3160d0d165073b8c9a8a6a4d257fd0477969710611339575b5050600182811b0190556112ae565b840135600019600385901b60f8161c19169055858061132a565b909160206001819285890135815501930191016112f8565b6321280bd960e21b60005260046000fd5b50336001600160a01b0361138f84613ad4565b161415611221565b34610237576103f46113a836612d00565b90604051926113b8602085612ee3565b600084526104e7838383613390565b34610237576000366003190112610237576113e0613b7d565b60095460ff81161561141f5760ff19166009557f5db9ee0a495bf2e6ff9c91a7834c1ba4fdd244a5e8aa4e537bd38aeae4b073aa6020604051338152a1005b638dfc202b60e01b60005260046000fd5b346102375760a036600319011261023757611449612c70565b60086024351015610237576064356084356001600160401b03811161023757611476903690600401612e63565b611481939193613b0b565b611489613c2c565b6001600160a01b038216156121c8576114a36024356139e7565b156121b7576114b3602435613765565b60ff600582015416156121b757600781015480151590816121a8575b5061219757600a54936114e1856138ad565b600a556114f081602435613d57565b9260405161155160958260208101946bffffffffffffffffffffffff198a60601b1686528060009c60243560f81b603485015260443560358501528860558501524260758501528484013781018b838201520301601f198101835282612ee3565b5190206040519161156183612e90565b868352828080868a8c8b8b6040602087019361157f6024358661383b565b61158c8289019384613847565b606088019360018060a01b0316845260808801954287526101406115e1600360a08c019a6044358c5260c06115c360018301613037565b9d019c8d5260e06115d660028301613037565b9e019d8e5201613037565b9b61010081019c8d5261012081019d8e52019c8d528152600c602052209a518b5560018b01925160088110156121815761161b90846138bc565b51600581101561216c5761162f90836138d4565b51815462010000600160b01b03191660109190911b62010000600160b01b03161790555160028801555160038701555180516004870191906001600160401b0381116121585761168381610bb18554612f56565b60208d601f83116001146120f557906116b09383611fe75750508160011b916000199060031b1c19161790565b90555b60058501905180516001600160401b0381116120e1576116d781610bb18554612f56565b60208c601f831160011461207e579061170493836120735750508160011b916000199060031b1c19161790565b90555b51805160068501916001600160401b03821161205f5761172b82610bb18554612f56565b6020908b601f8411600114611ff257928060069998979593611765936008989692611fe75750508160011b916000199060031b1c19161790565b90555b516007840155519101550161177d81546138ad565b90556117938361178e60243561374c565b613945565b6117a08361178e83613968565b604435611fcb575b6001600160a01b0382168452600e6020526040842080549091906117cb906138ad565b8255600581109182159283611fb75782611f4a57600182016117ed81546138ad565b90555b15611f36578186526016602052604086205490600681018054928301809311611f22578290555460405191825260208201527f5b88a2e3fc1a53234357ab78c104df11c33ccfa79886793654565ad70b8afb6e604060018060a01b03861692a26001600160a01b0383168552600f60205260408520611870908590613945565b6001600160a01b0383168552601360205260408520611892906024359061377e565b805460ff191660011790556001600160a01b03831685526015602052604085205460ff1615611ef4575b6020946040516118cc8782612ee3565b81815285825260028088526040808420548885529189528320546001600160a01b03908116911681611ec0575b6001600160a01b038716151580611ea0575b88855260028a526040852080546001600160a01b0319166001600160a01b038a169081179091558990847fddf252ad1be2c89b69c2b068fc378daa952ba7f163c4a11628f55a4df523b3ef8880a48115159081611e98575b5080611e85575b611c3b575b50611c27578690853b611ae8575b50505061198b602435613e56565b91611ad257839161199b82613e56565b8660405192600090600b546119af81612f56565b9060018116908115611ab95750600114611a73575b5084611a239594611a1d94846119e4856005976001975194859201612c28565b01602f60f81b81526119ff8d83519384918785019101612c28565b0164173539b7b760d91b838201520301601a19810184520182612ee3565b83613fc5565b611a306040518092612d47565b60443581860152602435926001600160a01b0316907f56557cffa61c856d7cfdc713344a3673047cc5f6f192e2df3c494df190dddb1e90604090a4604051908152f35b909150600b60005260008051602061430a8339815191526000905b828210611aa25750508401820190846119c4565b80548288018601528a985090840190600101611a8e565b60ff1916858801525080151502850183019150846119c4565b634e487b7160e01b600052602160045260246000fd5b90611b2691604097959493975180938192630a85bd0160e11b83523360048401528a6024840152886044840152608060648401526084830190612c4b565b0381896001600160a01b038a165af1869181611be3575b50611ba257505050503d600014611b9a573d92611b5984612f04565b93611b676040519586612ee3565b84523d838286013e5b83519384611b9457633250574960e11b84526001600160a01b038316600452602484fd5b84925001fd5b606092611b70565b929491929091906001600160e01b03191663757a42ff60e11b01611bc757858761197d565b633250574960e11b81526001600160a01b038416600452602490fd5b9091508781813d8311611c20575b611bfb8183612ee3565b81010312611c1c57516001600160e01b031981168103611c1c579088611b3d565b8680fd5b503d611bf1565b6339e3563760e11b82526004829052602482fd5b96949290959391878252600f89526040822096825b885480821015611e765788611c65838c613153565b90549060031b1c14611c7a5750600101611c50565b60009a92939495969798999a198101908111611e625790611caf611ca1611cc8938d613153565b90549060031b1c918c613153565b90919082549060031b91821b91600019901b1916179055565b88548015611e4e5760001901611cf2611ce1828c613153565b8154906000199060031b1b19169055565b89555b6001600160a01b0387168452600f8a5260408420611d14908990613945565b878452600c8a5260ff6001604086200154169084859a80549b5b8d8d8210611de3575b505050611d66939495969798999a5015611dc2575b506001600160a01b038816855260138a526040852061377e565b805460ff191660011790556001600160a01b038616835260158852604083205460ff1615611d95575b8861196f565b611d9e86613981565b6001600160a01b03861683526015885260408320805460ff19166001179055611d8f565b855260138a52611dd5816040872061377e565b805460ff191690558a611d4c565b600c90611df08385613153565b90549060031b1c8a525260ff600160408a200154166008861015611e3a576008811015611e3a578514611e2557600101611d2e565b50999a508a995060019050611d668d8d611d37565b634e487b7160e01b89526021600452602489fd5b634e487b7160e01b85526031600452602485fd5b634e487b7160e01b86526011600452602486fd5b50509091929394959697611cf5565b506001600160a01b03871681141561196a565b90508a611963565b6001600160a01b038816855260038a52604085208054600101905561190b565b600088815260046020526040902080546001600160a01b0319169055818452600389526040842080546000190190556118f9565b611efd83613981565b6001600160a01b0383168552601560205260408520805460ff191660011790556118bc565b634e487b7160e01b88526011600452602488fd5b634e487b7160e01b86526021600452602486fd5b86935060018303611f6b5760028201611f6381546138ad565b90555b6117f0565b86935060028303611f845760038201611f6381546138ad565b86935060038303611f9d5760048201611f6381546138ad565b8693506003198301611f665760058201611f6381546138ad565b634e487b7160e01b87526021600452602487fd5b60443584526012602052611fe28360408620613945565b6117a8565b015190508e80610bd1565b50838c52818c209190601f1984168d5b81811061204757509260019285926008989660069c9b9a98961061202e575b505050811b019055611768565b015160001960f88460031b161c191690558d8080612021565b92936020600181928786015181550195019301612002565b634e487b7160e01b8b52604160045260248bfd5b015190508d80610bd1565b9192601f198416858452828420935b8181106120c957509084600195949392106120b0575b505050811b019055611707565b015160001960f88460031b161c191690558c80806120a3565b9293602060018192878601518155019501930161208d565b634e487b7160e01b8c52604160045260248cfd5b9192601f198416858452828420935b8181106121405750908460019594939210612127575b505050811b0190556116b3565b015160001960f88460031b161c191690558d808061211a565b92936020600181928786015181550195019301612104565b634e487b7160e01b8d52604160045260248dfd5b50634e487b7160e01b8f52602160045260248ffd5b5050634e487b7160e01b8f52602160045260248ffd5b63c30436e960e01b60005260046000fd5b905060068201541015866114cf565b631974d3ab60e01b60005260046000fd5b63d92e233d60e01b60005260046000fd5b34610237576020366003190112610237576001600160a01b036121fa612c70565b16600052600f60205260406000208054612213816137eb565b9160005b82811061222c576040518061039b8682612e03565b8061223960019284613153565b90549060031b1c600052600c602052604060002060086040519161225c83612e90565b805483528481015461227460ff82166020860161383b565b61228660ff82851c1660408601613847565b858060a01b039060101c16606084015260028101546080840152600381015460a08401526122b660048201613037565b60c08401526122c760058201613037565b60e08401526122d860068201613037565b610100840152600781015461012084015201546101408201526122fb828761316b565b52612306818661316b565b5001612217565b346102375760203660031901126102375760043560088110156102375761237590600061010060405161233f81612eac565b82815282602082015260606040820152606080820152606060808201528260a08201528260c08201528260e08201520152613765565b60206040519161238483612eac565b828082549261239660ff85168361383b565b6123a960ff8684019560081c1685613847565b6124806123b860018301613037565b6040840190815261246d6123ce60028501613037565b6060860190815261245a6123e460038701613037565b936080880194855261244660048801549a60a08a019b8c52610100600760ff60058c0154169a60c08d019b15158c5260e060068201549d019c8d5201549b019a8b5261243b6040519e8f9e8f818152019051612d3a565b5160408d0190612d47565b5161012060608c01526101408b0190612c4b565b9051898203601f190160808b0152612c4b565b9051878203601f190160a0890152612c4b565b935160c086015251151560e085015251610100840152516101208301520390f35b34610237576040366003190112610237576124ba612c86565b336001600160a01b038216036124d6576103f490600435613cd1565b63334bd91960e11b60005260046000fd5b346102375760203660031901126102375760043560058110156102375761250f602091613853565b604051908152f35b346102375760203660031901126102375760043560088110156102375761253d9061374c565b8054612548816137eb565b9160005b828110612561576040518061039b8682612e03565b8061256e60019284613153565b90549060031b1c600052600c602052604060002060086040519161259183612e90565b80548352848101546125a960ff82166020860161383b565b6125bb60ff82851c1660408601613847565b858060a01b039060101c16606084015260028101546080840152600381015460a08401526125eb60048201613037565b60c08401526125fc60058201613037565b60e084015261260d60068201613037565b61010084015260078101546101208401520154610140820152612630828761316b565b5261263b818661316b565b500161254c565b34610237576040366003190112610237576103f4600435612661612c86565b9061267d6103ea82600052600760205260016040600020015490565b613c49565b3461023757602036600319011261023757602061250f600435600052600760205260016040600020015490565b34610237576103f46126c036612d00565b91613390565b34610237576080366003190112610237576126df612c70565b6024356001600160401b038111610237576126fe903690600401612cd0565b90916044356001600160401b0381116102375761271f903690600401612cd0565b936064356001600160401b0381116102375761273f903690600401612cd0565b61274a929192613b0b565b612752613c2c565b8686148015906128c2575b6128b15761276d869592956130f0565b956001600160a01b039092169160005b81811061279a576040516020808252819061039b9082018b612c9c565b6127a5818389613380565b35600881101561023757602061282c6127bf848d8b613380565b35926128476127cf86898c613380565b3560405190604086830152600a60608301526910985d18da081b5a5b9d60b21b60808301528760408301526080825261280960a083612ee3565b604051631cb722ef60e11b8152600481018c905296879586956024870190612d3a565b6044850152606484015260a0608484015260a4830190612c4b565b03816000305af19081156128a557600091612873575b509060019161286c828b61316b565b520161277d565b906020823d821161289d575b8161288c60209383612ee3565b81010312610dba575051600161285d565b3d915061287f565b6040513d6000823e3d90fd5b63512509d360e11b60005260046000fd5b508086141561275d565b346102375760003660031901126102375760206040517f4edf5afbdc763971556e31a9d4d295aa46e94ad2348abeeba4a0ffcac0b229678152f35b346102375760203660031901126102375761292360043561317f565b604051906040820160408352835180915260206060840194019060005b81811061295b57848061039b88878382036020850152612c9c565b82516001600160a01b0316865260209586019590920191600101612940565b34610237576020366003190112610237576001600160a01b0361299b612c70565b16600052600e6020526020600660406000200154604051908152f35b34610237576040366003190112610237576129d0612c70565b6024356129dc81613ad4565b33151580612a93575b80612a65575b612a505781906001600160a01b0384811691167f8c5be1e5ebec7d5bd14f71427d1e84f3dd0314c0f7b2291e5b200ac8c7c3b925600080a4600090815260046020526040902080546001600160a01b0319166001600160a01b03909216919091179055005b63a9fbf51f60e01b6000523360045260246000fd5b506001600160a01b038116600090815260056020908152604080832033845290915290205460ff16156129eb565b506001600160a01b0381163314156129e5565b3461023757602036600319011261023757600435612ac381613ad4565b506000526004602052602060018060a01b0360406000205416604051908152f35b346102375760003660031901126102375760405160008054612b0581612f56565b80845290600181169081156109045750600114612b2c5761039b8361046e81850382612ee3565b60008080527f290decd9548b62a8d60345a988386fc84ba6bc95484008f6362f93160ef3e563939250905b808210612b6f5750909150810160200161046e610895565b919260018160209254838588010152019101909291612b57565b34610237576020366003190112610237576004359063ffffffff60e01b821680920361023757602091637965db0b60e01b8114908115612bcb575b5015158152f35b632483248360e11b811491508115612be5575b5083612bc4565b6380ac58cd60e01b811491508115612c17575b8115612c06575b5083612bde565b6301ffc9a760e01b14905083612bff565b635b5e139f60e01b81149150612bf8565b60005b838110612c3b5750506000910152565b8181015183820152602001612c2b565b90602091612c6481518092818552858086019101612c28565b601f01601f1916010190565b600435906001600160a01b038216820361023757565b602435906001600160a01b038216820361023757565b906020808351928381520192019060005b818110612cba5750505090565b8251845260209384019390920191600101612cad565b9181601f84011215610237578235916001600160401b038311610237576020808501948460051b01011161023757565b6060906003190112610237576004356001600160a01b038116810361023757906024356001600160a01b0381168103610237579060443590565b906008821015611ad25752565b906005821015611ad25752565b9081518152612d6b60208301516020830190612d3a565b612d7d60408301516040830190612d47565b60018060a01b0360608301511660608201526080820151608082015260a082015160a082015261014080612dee612dda612dc860c087015161016060c0880152610160870190612c4b565b60e087015186820360e0880152612c4b565b610100860151858203610100870152612c4b565b93610120810151610120850152015191015290565b602081016020825282518091526040820191602060408360051b8301019401926000915b838310612e3657505050505090565b9091929394602080612e54600193603f198682030187528951612d54565b97019301930191939290612e27565b9181601f84011215610237578235916001600160401b038311610237576020838186019501011161023757565b61016081019081106001600160401b0382111761117e57604052565b61012081019081106001600160401b0382111761117e57604052565b60e081019081106001600160401b0382111761117e57604052565b90601f801991011681019081106001600160401b0382111761117e57604052565b6001600160401b03811161117e57601f01601f191660200190565b929192612f2b82612f04565b91612f396040519384612ee3565b829481845281830111610237578281602093846000960137010152565b90600182811c92168015612f86575b6020831014612f7057565b634e487b7160e01b600052602260045260246000fd5b91607f1691612f65565b60405190600082600b5491612fa483612f56565b80835292600181169081156130185750600114612fca575b612fc892500383612ee3565b565b50600b6000908152909160008051602061430a8339815191525b818310612ffc575050906020612fc892820101612fbc565b6020919350806001915483858901015201910190918492612fe4565b60209250612fc894915060ff191682840152151560051b820101612fbc565b906040519182600082549261304b84612f56565b80845293600181169081156130b75750600114613070575b50612fc892500383612ee3565b90506000929192526020600020906000915b81831061309b575050906020612fc89282010138613063565b6020919350806001915483858901015201910190918492613082565b905060209250612fc894915060ff191682840152151560051b82010138613063565b6001600160401b03811161117e5760051b60200190565b906130fa826130d9565b6131076040519182612ee3565b8281528092613118601f19916130d9565b0190602036910137565b60145481101561313d57601460005260206000200190600090565b634e487b7160e01b600052603260045260246000fd5b805482101561313d5760005260206000200190600090565b805182101561313d5760209160051b010190565b9060145491821561334957613193836130f0565b9261319d816130f0565b9160005b8281106132eb575060005b82811061322957508082101561322257505b6131c7816130f0565b916131d1826130f0565b9460005b8381106131e457505050509190565b6001906001600160a01b036131f9828561316b565b5116613205828861316b565b52613210818561316b565b5161321b828a61316b565b52016131d5565b90506131be565b600181018082116132d5575b83811061324557506001016131ac565b600190613252838761316b565b5161325d828861316b565b511161326a575b01613235565b613274838761316b565b5161327f828861316b565b5161328a858961316b565b52613295828861316b565b52818060a01b036132a6848a61316b565b5116828060a01b036132b8838b61316b565b51166132c4858b61316b565b526132cf828a61316b565b52613264565b634e487b7160e01b600052601160045260246000fd5b806132f7600192613122565b838060a01b0391549060031b1c1661330f828961316b565b5261331981613122565b838060a01b0391549060031b1c16600052600e602052600660406000200154613342828761316b565b52016131a1565b506040516020925061335b8382612ee3565b600081526000368137604051926133728185612ee3565b600084525060003681379190565b919081101561313d5760051b0190565b6001600160a01b03821692918315613736576000838152600260205260408120546001600160a01b03169485929091331515806136a7575b5086613672575b82815260036020526040812060018154019055858152600260205260408120836bffffffffffffffffffffffff60a01b8254161790558583887fddf252ad1be2c89b69c2b068fc378daa952ba7f163c4a11628f55a4df523b3ef8480a48315158061366a575b80613660575b613472575b5050505060018060a01b031680830361345857505050565b6364283d7b60e01b60005260045260245260445260646000fd5b838197959396949752600f6020526040812095815b875480821015613652578661349c838b613153565b90549060031b1c146134b15750600101613487565b600099929394959697989919810190811161363e5790611caf6134d76134e5938c613153565b90549060031b1c918b613153565b8754801561362a57600019016134fe611ce1828b613153565b88555b818352600f6020526135168660408520613945565b858352600c60205260ff6001604085200154169083848a549a6008851015915b8c81106135d3575b5050506135649394959697989950156135b1575b5082845260136020526040842061377e565b805460ff191660011790558082526015602052604082205460ff161561358b575b80613440565b613596604093613981565b8152601560205220805460ff19166001179055388080613585565b845260136020526135c5816040862061377e565b805460ff1916905538613552565b6135dd8183613153565b90549060031b1c8852600c6020528260ff600160408b2001541690611e3a576008811015611e3a57861461361357600101613536565b50999a508a9950600191506135649050388061353e565b634e487b7160e01b84526031600452602484fd5b634e487b7160e01b85526011600452602485fd5b505090919293949596613501565b508284141561343b565b506001613435565b600086815260046020526040902080546001600160a01b031916905586815260036020526040812080546000190190556133cf565b806136e7575b156136b857386133c8565b8590876136d157602491637e27328960e01b8252600452fd5b60449163177e802f60e01b825233600452602452fd5b503387148015613715575b806136ad5750858152600460205260408120546001600160a01b031633146136ad565b5086815260056020908152604080832033845290915281205460ff166136f2565b633250574960e11b600052600060045260246000fd5b6008811015611ad2576000526010602052604060002090565b6008811015611ad257600052600d602052604060002090565b906008811015611ad257600052602052604060002090565b604051906137a382612e90565b6000610140838281528260208201528260408201528260608201528260808201528260a0820152606060c0820152606060e08201526060610100820152826101208201520152565b906137f5826130d9565b6138026040519182612ee3565b8281528092613813601f19916130d9565b019060005b82811061382457505050565b60209061382f613796565b82828501015201613818565b6008821015611ad25752565b6005821015611ad25752565b6005811015611ad25780156138a7576000600182146138a057506002811461389a576000906003811461389357600491501461388e57600190565b601990565b5050600a90565b50600590565b5050600290565b50600190565b60001981146132d55760010190565b906008811015611ad25760ff80198354169116179055565b906005811015611ad25761ff0082549160081b169061ff001916179055565b601f821161390057505050565b6000526020600020906020601f840160051c8301931061393b575b601f0160051c01905b81811061392f575050565b60008155600101613924565b909150819061391b565b90815491600160401b83101561117e5782611caf916001612fc895018155613153565b6005811015611ad2576000526011602052604060002090565b601454600160401b81101561117e578060016139a292016014556014613153565b81546001600160a01b0393841660039290921b91821b9390911b1916919091179055565b908060209392818452848401376000828201840152601f01601f1916010190565b6139f090613765565b60ff60058201541615613a18576007810154908115613a1157600601541090565b5050600190565b50600090565b903590601e198136030182121561023757018035906001600160401b0382116102375760200191813603831361023757565b9035601e19823603018112156102375701602081359101916001600160401b03821161023757813603831361023757565b613a8a90613765565b60ff60058201541615613abe5760078101548015159081613ac5575b50613abe576004015411613ab957600190565b600090565b5050600090565b90506006820154101538613aa6565b6000818152600260205260409020546001600160a01b0316908115613af7575090565b637e27328960e01b60005260045260246000fd5b3360009081527fa4bfd7afe708e2e87e7f0e2ad9b4d545417e0f795f57b5c5ab5d799c565a04f4602052604090205460ff1615613b4457565b63e2517d3f60e01b600052336004527f9f2df0fed2c77648de5860a4cc508cd0818c85b8b8a1ab4ceeef8d981c8956a660245260446000fd5b3360009081527f1ee73a39cd2228fe362a0a26e33e86fb7e43a15c8bae911cdda5e00079253e2e602052604090205460ff1615613bb657565b63e2517d3f60e01b600052336004527f4edf5afbdc763971556e31a9d4d295aa46e94ad2348abeeba4a0ffcac0b2296760245260446000fd5b600081815260076020908152604080832033845290915290205460ff1615613c145750565b63e2517d3f60e01b6000523360045260245260446000fd5b60ff60095416613c3857565b63d93c066560e01b60005260046000fd5b60008181526007602090815260408083206001600160a01b038616845290915290205460ff16613abe5760008181526007602090815260408083206001600160a01b0395909516808452949091528120805460ff19166001179055339291907f2f8788117e7eff1d82e926ec794901d17c78024a50270940304540a733656f0d9080a4600190565b60008181526007602090815260408083206001600160a01b038616845290915290205460ff1615613abe5760008181526007602090815260408083206001600160a01b0395909516808452949091528120805460ff19169055339291907ff6391f5c32d9c69d2a47ea670b442974b53935d1edc7fd64eb21e047a839171b9080a4600190565b6008811015611ad25760028103613dc45750678ac7230489e80000811015613dbe57674563918244f40000811015613db857670de0b6b3a7640000811015613db25767016345785d8a00001115613dad57600090565b600190565b50600290565b50600390565b50600490565b60048103613e13575068056bc75e2d63100000811015613dbe576802b5e3af16b1880000811015613db857678ac7230489e80000811015613db257670de0b6b3a76400001115613dad57600090565b8015908115613e4b575b5015613a18576064811015613dbe576032811015613db857600a811015613db25760051115613dad57600090565b600791501438613e1d565b8060009172184f03e93ff9f4daa797ed6e38ed64bf6a1f0160401b821015613fa2575b806d04ee2d6d415b85acef8100000000600a921015613f87575b662386f26fc10000811015613f73575b6305f5e100811015613f62575b612710811015613f53575b6064811015613f45575b1015613f3a575b600a60216001840193613ede85612f04565b94613eec6040519687612ee3565b808652613efb601f1991612f04565b013660208701378401015b60001901916f181899199a1a9b1b9c1cb0b131b232b360811b8282061a8353048015613f3557600a9091613f06565b505090565b600190910190613ecc565b606460029104930192613ec5565b61271060049104930192613ebb565b6305f5e10060089104930192613eb0565b662386f26fc1000060109104930192613ea3565b6d04ee2d6d415b85acef810000000060209104930192613e93565b506040915072184f03e93ff9f4daa797ed6e38ed64bf6a1f0160401b8104613e79565b919091806000526006602052604060002083516001600160401b03811161117e57613ffa81613ff48454612f56565b846138f3565b6020601f821160011461406757816020949392614050927ff8e1a15aba9398e019f0b49df1a4fde98ee17ae345cb5f6b5e2c27f5033e8ce7979860009261405c5750508160011b916000199060031b1c19161790565b90555b604051908152a1565b015190503880610bd1565b601f1982169583600052816000209660005b8181106140db575096600192849260209796957ff8e1a15aba9398e019f0b49df1a4fde98ee17ae345cb5f6b5e2c27f5033e8ce7999a106140c2575b505050811b019055614053565b015160001960f88460031b161c191690553880806140b5565b83830151895560019098019760209384019301614079565b823b614101575b5050505050565b604051630a85bd0160e11b81526001600160a01b03918216600482015291811660248301526044820193909352608060648201529116916020908290819061414d906084830190612c4b565b03816000865af180916000916141ed575b50906141b757503d156141b0573d61417581612f04565b906141836040519283612ee3565b81523d6000602083013e5b805190816141ab5782633250574960e11b60005260045260246000fd5b602001fd5b606061418e565b6001600160e01b03191663757a42ff60e11b016141d9575038808080806140fa565b633250574960e11b60005260045260246000fd5b6020813d60201161422c575b8161420660209383612ee3565b810103126142285751906001600160e01b031982168203610dba57503861415e565b5080fd5b3d91506141f9565b612fc890929192602060405194826142558794518092858088019101612c28565b830161426982518093858085019101612c28565b010103601f198101845283612ee3565b61428281613ad4565b508060005260066020526142996040600020613037565b6142a1612f90565b8051156143035781516142f95750506142b981613ad4565b506142c2612f90565b8051600090156142e257506142d96142df92613e56565b90614234565b90565b915050604051906142f4602083612ee3565b815290565b6142df9250614234565b5090509056fe0175b7a638427703f0dbe7bb9bbf987a2551717b34e79f33b5b1008d1fa01db9a264697066735822122024fca617ff594b30980a48374587d415ead225124f8ec9b6d65765cff3d97e9164736f6c634300081c00332f8788117e7eff1d82e926ec794901d17c78024a50270940304540a733656f0d6d5257204ebe7d88fd91ae87941cb2dd9d8062b64ae5a2bd2d28ec40b9fbf6df",
  "linkReferences": {},
  "deployedLinkReferences": {}
}