{
  "_format": "hh-sol-artifact-1",
  "contractName": "Pool",
  "sourceName": "contracts/Pool.sol",
  "abi": [
    {
      "inputs": [
        {
          "internalType": "string",
          "name": "name",
          "type": "string"
        },
        {
          "internalType": "uint256",
          "name": "contributionAmount",
          "type": "uint256"
        },
        {
          "internalType": "uint256",
          "name": "maxMembers",
          "type": "uint256"
        },
        {
          "internalType": "uint256",
          "name": "duration",
          "type": "uint256"
        },
        {
          "internalType": "address",
          "name": "creator",
          "type": "address"
        },
        {
          "internalType": "address",
          "name": "yieldManager",
          "type": "address"
        },
        {
          "internalType": "address",
          "name": "badgeContract",
          "type": "address"
        },
        {
          "internalType": "address",
          "name": "lotteryManager",
          "type": "address"
        }
      ],
      "stateMutability": "nonpayable",
      "type": "constructor"
    },
    {
      "inputs": [],
      "name": "AccessControlBadConfirmation",
      "type": "error"
    },
    {
      "inputs": [
        {
          "internalType": "address",
          "name": "account",
          "type": "address"
        },
        {
          "internalType": "bytes32",
          "name": "neededRole",
          "type": "bytes32"
        }
      ],
      "name": "AccessControlUnauthorizedAccount",
      "type": "error"
    },
    {
      "inputs": [],
      "name": "AlreadyMember",
      "type": "error"
    },
    {
      "inputs": [],
      "name": "AlreadyWithdrawn",
      "type": "error"
    },
    {
      "inputs": [],
      "name": "BadgeMintingFailed",
      "type": "error"
    },
    {
      "inputs": [],
      "name": "CannotLeaveAfterLock",
      "type": "error"
    },
    {
      "inputs": [],
      "name": "DurationNotExpired",
      "type": "error"
    },
    {
      "inputs": [],
      "name": "EnforcedPause",
      "type": "error"
    },
    {
      "inputs": [],
      "name": "ExpectedPause",
      "type": "error"
    },
    {
      "inputs": [],
      "name": "InsufficientMembers",
      "type": "error"
    },
    {
      "inputs": [
        {
          "internalType": "uint256",
          "name": "sent",
          "type": "uint256"
        },
        {
          "internalType": "uint256",
          "name": "required",
          "type": "uint256"
        }
      ],
      "name": "InvalidContribution",
      "type": "error"
    },
    {
      "inputs": [],
      "name": "InvalidParameters",
      "type": "error"
    },
    {
      "inputs": [
        {
          "internalType": "enum IPool.PoolStatus",
          "name": "current",
          "type": "uint8"
        },
        {
          "internalType": "enum IPool.PoolStatus",
          "name": "required",
          "type": "uint8"
        }
      ],
      "name": "InvalidState",
      "type": "error"
    },
    {
      "inputs": [],
      "name": "NotMember",
      "type": "error"
    },
    {
      "inputs": [],
      "name": "PoolAlreadyInitialized",
      "type": "error"
    },
    {
      "inputs": [],
      "name": "PoolFull",
      "type": "error"
    },
    {
      "inputs": [],
      "name": "PoolNotActive",
      "type": "error"
    },
    {
      "inputs": [],
      "name": "PoolNotCompleted",
      "type": "error"
    },
    {
      "inputs": [],
      "name": "PoolNotLocked",
      "type": "error"
    },
    {
      "inputs": [],
      "name": "PoolNotOpen",
      "type": "error"
    },
    {
      "inputs": [],
      "name": "ReentrancyGuardReentrantCall",
      "type": "error"
    },
    {
      "inputs": [],
      "name": "UnauthorizedAccess",
      "type": "error"
    },
    {
      "inputs": [],
      "name": "WithdrawalFailed",
      "type": "error"
    },
    {
      "inputs": [],
      "name": "YieldManagerCallFailed",
      "type": "error"
    },
    {
      "inputs": [],
      "name": "ZeroAddress",
      "type": "error"
    },
    {
      "anonymous": false,
      "inputs": [
        {
          "indexed": true,
          "internalType": "address",
          "name": "member",
          "type": "address"
        },
        {
          "indexed": false,
          "internalType": "uint256",
          "name": "contribution",
          "type": "uint256"
        },
        {
          "indexed": false,
          "internalType": "uint256",
          "name": "totalMembers",
          "type": "uint256"
        }
      ],
      "name": "MemberJoined",
      "type": "event"
    },
    {
      "anonymous": false,
      "inputs": [
        {
          "indexed": true,
          "internalType": "address",
          "name": "member",
          "type": "address"
        },
        {
          "indexed": false,
          "internalType": "uint256",
          "name": "refundAmount",
          "type": "uint256"
        }
      ],
      "name": "MemberLeft",
      "type": "event"
    },
    {
      "anonymous": false,
      "inputs": [
        {
          "indexed": true,
          "internalType": "address",
          "name": "member",
          "type": "address"
        },
        {
          "indexed": false,
          "internalType": "uint256",
          "name": "principal",
          "type": "uint256"
        },
        {
          "indexed": false,
          "internalType": "uint256",
          "name": "yield",
          "type": "uint256"
        },
        {
          "indexed": false,
          "internalType": "uint256",
          "name": "totalAmount",
          "type": "uint256"
        }
      ],
      "name": "MemberWithdrawal",
      "type": "event"
    },
    {
      "anonymous": false,
      "inputs": [
        {
          "indexed": false,
          "internalType": "address",
          "name": "account",
          "type": "address"
        }
      ],
      "name": "Paused",
      "type": "event"
    },
    {
      "anonymous": false,
      "inputs": [
        {
          "indexed": false,
          "internalType": "uint256",
          "name": "totalYield",
          "type": "uint256"
        },
        {
          "indexed": false,
          "internalType": "uint256",
          "name": "finalAmount",
          "type": "uint256"
        }
      ],
      "name": "PoolCompleted",
      "type": "event"
    },
    {
      "anonymous": false,
      "inputs": [
        {
          "indexed": false,
          "internalType": "uint256",
          "name": "startTime",
          "type": "uint256"
        },
        {
          "indexed": false,
          "internalType": "uint256",
          "name": "totalFunds",
          "type": "uint256"
        }
      ],
      "name": "PoolLocked",
      "type": "event"
    },
    {
      "anonymous": false,
      "inputs": [
        {
          "indexed": true,
          "internalType": "bytes32",
          "name": "role",
          "type": "bytes32"
        },
        {
          "indexed": true,
          "internalType": "bytes32",
          "name": "previousAdminRole",
          "type": "bytes32"
        },
        {
          "indexed": true,
          "internalType": "bytes32",
          "name": "newAdminRole",
          "type": "bytes32"
        }
      ],
      "name": "RoleAdminChanged",
      "type": "event"
    },
    {
      "anonymous": false,
      "inputs": [
        {
          "indexed": true,
          "internalType": "bytes32",
          "name": "role",
          "type": "bytes32"
        },
        {
          "indexed": true,
          "internalType": "address",
          "name": "account",
          "type": "address"
        },
        {
          "indexed": true,
          "internalType": "address",
          "name": "sender",
          "type": "address"
        }
      ],
      "name": "RoleGranted",
      "type": "event"
    },
    {
      "anonymous": false,
      "inputs": [
        {
          "indexed": true,
          "internalType": "bytes32",
          "name": "role",
          "type": "bytes32"
        },
        {
          "indexed": true,
          "internalType": "address",
          "name": "account",
          "type": "address"
        },
        {
          "indexed": true,
          "internalType": "address",
          "name": "sender",
          "type": "address"
        }
      ],
      "name": "RoleRevoked",
      "type": "event"
    },
    {
      "anonymous": false,
      "inputs": [
        {
          "indexed": false,
          "internalType": "address",
          "name": "account",
          "type": "address"
        }
      ],
      "name": "Unpaused",
      "type": "event"
    },
    {
      "anonymous": false,
      "inputs": [
        {
          "indexed": false,
          "internalType": "uint256",
          "name": "newYield",
          "type": "uint256"
        },
        {
          "indexed": false,
          "internalType": "uint256",
          "name": "yieldRate",
          "type": "uint256"
        }
      ],
      "name": "YieldUpdated",
      "type": "event"
    },
    {
      "stateMutability": "payable",
      "type": "fallback"
    },
    {
      "inputs": [],
      "name": "DEFAULT_ADMIN_ROLE",
      "outputs": [
        {
          "internalType": "bytes32",
          "name": "",
          "type": "bytes32"
        }
      ],
      "stateMutability": "view",
      "type": "function"
    },
    {
      "inputs": [],
      "name": "EMERGENCY_ADMIN_ROLE",
      "outputs": [
        {
          "internalType": "bytes32",
          "name": "",
          "type": "bytes32"
        }
      ],
      "stateMutability": "view",
      "type": "function"
    },
    {
      "inputs": [],
      "name": "FACTORY_ROLE",
      "outputs": [
        {
          "internalType": "bytes32",
          "name": "",
          "type": "bytes32"
        }
      ],
      "stateMutability": "view",
      "type": "function"
    },
    {
      "inputs": [],
      "name": "MAX_MEMBERS_LIMIT",
      "outputs": [
        {
          "internalType": "uint256",
          "name": "",
          "type": "uint256"
        }
      ],
      "stateMutability": "view",
      "type": "function"
    },
    {
      "inputs": [],
      "name": "MAX_POOL_DURATION",
      "outputs": [
        {
          "internalType": "uint256",
          "name": "",
          "type": "uint256"
        }
      ],
      "stateMutability": "view",
      "type": "function"
    },
    {
      "inputs": [],
      "name": "MIN_MEMBERS_TO_LOCK",
      "outputs": [
        {
          "internalType": "uint256",
          "name": "",
          "type": "uint256"
        }
      ],
      "stateMutability": "view",
      "type": "function"
    },
    {
      "inputs": [],
      "name": "MIN_POOL_DURATION",
      "outputs": [
        {
          "internalType": "uint256",
          "name": "",
          "type": "uint256"
        }
      ],
      "stateMutability": "view",
      "type": "function"
    },
    {
      "inputs": [],
      "name": "canComplete",
      "outputs": [
        {
          "internalType": "bool",
          "name": "",
          "type": "bool"
        }
      ],
      "stateMutability": "view",
      "type": "function"
    },
    {
      "inputs": [],
      "name": "canLock",
      "outputs": [
        {
          "internalType": "bool",
          "name": "",
          "type": "bool"
        }
      ],
      "stateMutability": "view",
      "type": "function"
    },
    {
      "inputs": [],
      "name": "completePool",
      "outputs": [],
      "stateMutability": "nonpayable",
      "type": "function"
    },
    {
      "inputs": [
        {
          "internalType": "address",
          "name": "member",
          "type": "address"
        }
      ],
      "name": "emergencyWithdraw",
      "outputs": [],
      "stateMutability": "nonpayable",
      "type": "function"
    },
    {
      "inputs": [],
      "name": "getBadgeContract",
      "outputs": [
        {
          "internalType": "address",
          "name": "badgeContract",
          "type": "address"
        }
      ],
      "stateMutability": "view",
      "type": "function"
    },
    {
      "inputs": [],
      "name": "getLotteryManager",
      "outputs": [
        {
          "internalType": "address",
          "name": "lotteryManager",
          "type": "address"
        }
      ],
      "stateMutability": "view",
      "type": "function"
    },
    {
      "inputs": [
        {
          "internalType": "address",
          "name": "member",
          "type": "address"
        }
      ],
      "name": "getMemberInfo",
      "outputs": [
        {
          "components": [
            {
              "internalType": "address",
              "name": "memberAddress",
              "type": "address"
            },
            {
              "internalType": "uint256",
              "name": "contribution",
              "type": "uint256"
            },
            {
              "internalType": "uint256",
              "name": "joinedAt",
              "type": "uint256"
            },
            {
              "internalType": "bool",
              "name": "hasWithdrawn",
              "type": "bool"
            },
            {
              "internalType": "uint256",
              "name": "yieldEarned",
              "type": "uint256"
            }
          ],
          "internalType": "struct IPool.PoolMember",
          "name": "memberInfo",
          "type": "tuple"
        }
      ],
      "stateMutability": "view",
      "type": "function"
    },
    {
      "inputs": [
        {
          "internalType": "address",
          "name": "member",
          "type": "address"
        }
      ],
      "name": "getMemberWithdrawalInfo",
      "outputs": [
        {
          "internalType": "bool",
          "name": "canWithdraw",
          "type": "bool"
        },
        {
          "internalType": "uint256",
          "name": "principal",
          "type": "uint256"
        },
        {
          "internalType": "uint256",
          "name": "yieldShare",
          "type": "uint256"
        },
        {
          "internalType": "uint256",
          "name": "totalAmount",
          "type": "uint256"
        },
        {
          "internalType": "bool",
          "name": "contractHasFunds",
          "type": "bool"
        }
      ],
      "stateMutability": "view",
      "type": "function"
    },
    {
      "inputs": [],
      "name": "getMembers",
      "outputs": [
        {
          "internalType": "address[]",
          "name": "members",
          "type": "address[]"
        }
      ],
      "stateMutability": "view",
      "type": "function"
    },
    {
      "inputs": [],
      "name": "getPoolId",
      "outputs": [
        {
          "internalType": "uint256",
          "name": "poolId",
          "type": "uint256"
        }
      ],
      "stateMutability": "view",
      "type": "function"
    },
    {
      "inputs": [],
      "name": "getPoolInfo",
      "outputs": [
        {
          "components": [
            {
              "internalType": "address",
              "name": "creator",
              "type": "address"
            },
            {
              "internalType": "string",
              "name": "name",
              "type": "string"
            },
            {
              "internalType": "uint256",
              "name": "contributionAmount",
              "type": "uint256"
            },
            {
              "internalType": "uint256",
              "name": "maxMembers",
              "type": "uint256"
            },
            {
              "internalType": "uint256",
              "name": "duration",
              "type": "uint256"
            },
            {
              "internalType": "enum IPool.PoolStatus",
              "name": "status",
              "type": "uint8"
            },
            {
              "internalType": "uint256",
              "name": "createdAt",
              "type": "uint256"
            },
            {
              "internalType": "uint256",
              "name": "lockedAt",
              "type": "uint256"
            },
            {
              "internalType": "uint256",
              "name": "totalFunds",
              "type": "uint256"
            },
            {
              "internalType": "uint256",
              "name": "currentMembers",
              "type": "uint256"
            },
            {
              "internalType": "address",
              "name": "yieldManager",
              "type": "address"
            }
          ],
          "internalType": "struct IPool.PoolInfo",
          "name": "info",
          "type": "tuple"
        }
      ],
      "stateMutability": "view",
      "type": "function"
    },
    {
      "inputs": [
        {
          "internalType": "bytes32",
          "name": "role",
          "type": "bytes32"
        }
      ],
      "name": "getRoleAdmin",
      "outputs": [
        {
          "internalType": "bytes32",
          "name": "",
          "type": "bytes32"
        }
      ],
      "stateMutability": "view",
      "type": "function"
    },
    {
      "inputs": [],
      "name": "getTimeRemaining",
      "outputs": [
        {
          "internalType": "uint256",
          "name": "timeRemaining",
          "type": "uint256"
        }
      ],
      "stateMutability": "view",
      "type": "function"
    },
    {
      "inputs": [],
      "name": "getTotalValue",
      "outputs": [
        {
          "internalType": "uint256",
          "name": "totalValue",
          "type": "uint256"
        }
      ],
      "stateMutability": "view",
      "type": "function"
    },
    {
      "inputs": [],
      "name": "getWithdrawalDebugInfo",
      "outputs": [
        {
          "internalType": "uint256",
          "name": "contractBalance",
          "type": "uint256"
        },
        {
          "internalType": "uint256",
          "name": "totalWithdrawable",
          "type": "uint256"
        },
        {
          "internalType": "bool",
          "name": "hasAllFunds",
          "type": "bool"
        }
      ],
      "stateMutability": "view",
      "type": "function"
    },
    {
      "inputs": [],
      "name": "getYieldPerMember",
      "outputs": [
        {
          "internalType": "uint256",
          "name": "yieldPerMember",
          "type": "uint256"
        }
      ],
      "stateMutability": "view",
      "type": "function"
    },
    {
      "inputs": [
        {
          "internalType": "bytes32",
          "name": "role",
          "type": "bytes32"
        },
        {
          "internalType": "address",
          "name": "account",
          "type": "address"
        }
      ],
      "name": "grantRole",
      "outputs": [],
      "stateMutability": "nonpayable",
      "type": "function"
    },
    {
      "inputs": [
        {
          "internalType": "bytes32",
          "name": "role",
          "type": "bytes32"
        },
        {
          "internalType": "address",
          "name": "account",
          "type": "address"
        }
      ],
      "name": "hasRole",
      "outputs": [
        {
          "internalType": "bool",
          "name": "",
          "type": "bool"
        }
      ],
      "stateMutability": "view",
      "type": "function"
    },
    {
      "inputs": [],
      "name": "initializeCreatorBadge",
      "outputs": [],
      "stateMutability": "nonpayable",
      "type": "function"
    },
    {
      "inputs": [
        {
          "internalType": "address",
          "name": "account",
          "type": "address"
        }
      ],
      "name": "isMember",
      "outputs": [
        {
          "internalType": "bool",
          "name": "",
          "type": "bool"
        }
      ],
      "stateMutability": "view",
      "type": "function"
    },
    {
      "inputs": [],
      "name": "joinPool",
      "outputs": [],
      "stateMutability": "payable",
      "type": "function"
    },
    {
      "inputs": [],
      "name": "leavePool",
      "outputs": [],
      "stateMutability": "nonpayable",
      "type": "function"
    },
    {
      "inputs": [],
      "name": "lockPool",
      "outputs": [],
      "stateMutability": "nonpayable",
      "type": "function"
    },
    {
      "inputs": [],
      "name": "pause",
      "outputs": [],
      "stateMutability": "nonpayable",
      "type": "function"
    },
    {
      "inputs": [],
      "name": "paused",
      "outputs": [
        {
          "internalType": "bool",
          "name": "",
          "type": "bool"
        }
      ],
      "stateMutability": "view",
      "type": "function"
    },
    {
      "inputs": [
        {
          "internalType": "bytes32",
          "name": "role",
          "type": "bytes32"
        },
        {
          "internalType": "address",
          "name": "callerConfirmation",
          "type": "address"
        }
      ],
      "name": "renounceRole",
      "outputs": [],
      "stateMutability": "nonpayable",
      "type": "function"
    },
    {
      "inputs": [
        {
          "internalType": "bytes32",
          "name": "role",
          "type": "bytes32"
        },
        {
          "internalType": "address",
          "name": "account",
          "type": "address"
        }
      ],
      "name": "revokeRole",
      "outputs": [],
      "stateMutability": "nonpayable",
      "type": "function"
    },
    {
      "inputs": [
        {
          "internalType": "bytes4",
          "name": "interfaceId",
          "type": "bytes4"
        }
      ],
      "name": "supportsInterface",
      "outputs": [
        {
          "internalType": "bool",
          "name": "",
          "type": "bool"
        }
      ],
      "stateMutability": "view",
      "type": "function"
    },
    {
      "inputs": [],
      "name": "triggerCompletion",
      "outputs": [],
      "stateMutability": "nonpayable",
      "type": "function"
    },
    {
      "inputs": [],
      "name": "triggerLotteryDraw",
      "outputs": [],
      "stateMutability": "nonpayable",
      "type": "function"
    },
    {
      "inputs": [],
      "name": "unpause",
      "outputs": [],
      "stateMutability": "nonpayable",
      "type": "function"
    },
    {
      "inputs": [],
      "name": "updateYield",
      "outputs": [],
      "stateMutability": "nonpayable",
      "type": "function"
    },
    {
      "inputs": [],
      "name": "withdrawShare",
      "outputs": [],
      "stateMutability": "nonpayable",
      "type": "function"
    },
    {
      "stateMutability": "payable",
      "type": "receive"
    }
  ],
  "bytecode": "0x60806040523461048857612e37803803806100198161048d565b928339810190610100818303126104885780516001600160401b03811161048857810182601f82011215610488578051906001600160401b0382116104135761006b601f8301601f191660200161048d565b93828552602083830101116104885760005b8281106104735750506020600091840101526020810151916040820151926060830151936100ad608085016104b2565b946100ba60a086016104b2565b946100d360e06100cc60c084016104b2565b92016104b2565b600180556001600160a01b038816969091908715610462576001600160a01b03169788156104625760ff601254166104515786511561042957851561042957600285108015610447575b61042957620151808410801561043a575b610429578061013f610145926104c6565b50610542565b5061014f336105da565b5060128054610100600160a81b0319163360081b610100600160a81b0316179055601380546001600160a01b03199081166001600160a01b039384161790915560148054909116929091169190911790556040519461016086016001600160401b038111878210176104135760405285526020850193845260408501928352606085019182526080850190815260a08501906000825260c086019242845260e0870194600086526101008801966000885261012089019860008a5261014081019a8b5260018060a01b0390511660018060a01b031960035416176003555180519060018060401b0382116104135760045490600182811c92168015610409575b60208310146103f35781601f849311610383575b50602090601f831160011461031b57600092610310575b50508160011b916000199060031b1c1916176004555b5160055551600655516007555160048110156102fa5760ff8019600854169116176008555160095551600a5551600b5551600c5560018060a01b0390511660018060a01b0319600d541617600d55600160ff19601254161760125560405161274490816106738239f35b634e487b7160e01b600052602160045260246000fd5b01519050388061027a565b600460009081528281209350601f198516905b81811061036b5750908460019594939210610352575b505050811b01600455610290565b015160001960f88460031b161c19169055388080610344565b9293602060018192878601518155019501930161032e565b60046000529091507f8a35acfbc15ff81a39ae7d344fd709f28e8600b4aa8c65c6b64bfe7fe36bd19b601f840160051c810191602085106103e9575b90601f859493920160051c01905b8181106103da5750610263565b600081558493506001016103cd565b90915081906103bf565b634e487b7160e01b600052602260045260246000fd5b91607f169161024f565b634e487b7160e01b600052604160045260246000fd5b630e52390960e41b60005260046000fd5b506301e13380841161012e565b506064851161011d565b637983c05160e01b60005260046000fd5b63d92e233d60e01b60005260046000fd5b8060208092840101518282880101520161007d565b600080fd5b6040519190601f01601f191682016001600160401b0381118382101761041357604052565b51906001600160a01b038216820361048857565b6001600160a01b0381166000908152600080516020612e17833981519152602052604090205460ff1661053c576001600160a01b03166000818152600080516020612e1783398151915260205260408120805460ff19166001179055339190600080516020612db78339815191528180a4600190565b50600090565b6001600160a01b0381166000908152600080516020612dd7833981519152602052604090205460ff1661053c576001600160a01b03166000818152600080516020612dd783398151915260205260408120805460ff191660011790553391907f5358bcfd81d1ef3da152b1755e1c3c6739686fa7e83dbcad0071568cc4b73a6390600080516020612db78339815191529080a4600190565b6001600160a01b0381166000908152600080516020612df7833981519152602052604090205460ff1661053c576001600160a01b03166000818152600080516020612df783398151915260205260408120805460ff191660011790553391907fdfbefbf47cfe66b701d8cfdbce1de81c821590819cb07e71cb01b6602fb0ee2790600080516020612db78339815191529080a460019056fe6080604052600436101561001d575b366106af5761001b611a97565b005b60003560e01c806301ffc9a71461029d57806304a0fb17146102985780631db8e04f14610293578063243496711461028e578063248a9ca3146102895780632f2ff15d1461028457806336568abe1461027f57806338fff2d01461027a5780633f4ba83a146102755780634026478e146102705780635c975abb1461026b5780635f1231ea1461026657806360246c8814610261578063647bff481461025c5780636c459b61146102575780636cbb721f146102525780636e76fc8f1461024d5780636ff1c9bc1461024857806370656fe4146102435780638346226c1461023e5780638371e6b4146102395780638456cb5914610234578063876d50c11461022f57806391d148541461022a5780639a9935b3146102255780639e6af512146102205780639eab52531461021b578063a217fddf14610216578063a230c52414610211578063aac4987d1461020c578063bb21a99714610207578063bfffc1a814610202578063caa648b4146101fd578063ce2cf5d9146101f8578063d547741f146101f3578063dac6270d146101ee578063dcdcc983146101e9578063e0b1d267146101e4578063e6d6f7fd146101df5763f19e9d810361000e576113cb565b611351565b6112b8565b61129c565b611281565b611241565b6111f2565b6111c7565b6111a9565b611190565b61113d565b6110fe565b6110e2565b611061565b610f45565b610f26565b610ed3565b610eaa565b610e50565b610c48565b610c2d565b610c04565b610afc565b610ac1565b610a80565b610a29565b6109e2565b6108ec565b6106e3565b6106c0565b61061e565b6105b5565b61059a565b610554565b61050f565b6104ae565b61034f565b610333565b6102f8565b346102f35760203660031901126102f35760043563ffffffff60e01b81168091036102f357602090637965db0b60e01b81149081156102e2575b506040519015158152f35b6301ffc9a760e01b149050386102d7565b600080fd5b346102f35760003660031901126102f35760206040517fdfbefbf47cfe66b701d8cfdbce1de81c821590819cb07e71cb01b6602fb0ee278152f35b346102f35760003660031901126102f357602060405160648152f35b346102f35760003660031901126102f357610368611acd565b610370611aef565b60ff6008541660048110156104a95760038103610485573360009081526010602052604090206103aa906103a6905b5460ff1690565b1590565b61047457336000908152600f6020526040902060038101805460ff166104635760046001830154920154906103df82846114f2565b9081471061045257805460ff19166001179055600080808084335af1610403611596565b5015610452576040805193845260208401929092529082015233907f2fd1e546181ffabf6481547aaef86d68a6eb14b1ef9bc7324c3aeff09bc295aa9080606081015b0390a261001b60018055565b6327fcd9d160e01b60005260046000fd5b636507689f60e01b60005260046000fd5b63148fe22160e11b60005260046000fd5b633bf2e2f960e11b6000526104999061082a565b6104a36003602452565b60446000fd5b61080a565b346102f35760203660031901126102f35760206104db600435600052600060205260016040600020015490565b604051908152f35b602435906001600160a01b03821682036102f357565b600435906001600160a01b03821682036102f357565b346102f35760403660031901126102f35761001b60043561052e6104e3565b9061054f61054a82600052600060205260016040600020015490565b611b7e565b611bb9565b346102f35760403660031901126102f3576004356105706104e3565b336001600160a01b038216036105895761001b91611c49565b63334bd91960e11b60005260046000fd5b346102f35760003660031901126102f35760206104db611cd0565b346102f35760003660031901126102f3576105ce611b0c565b60025460ff81161561060d5760ff19166002557f5db9ee0a495bf2e6ff9c91a7834c1ba4fdd244a5e8aa4e537bd38aeae4b073aa6020604051338152a1005b638dfc202b60e01b60005260046000fd5b346102f35760003660031901126102f3576003546001600160a01b031633036106af57610649611acd565b610651611aef565b60ff6008541660048110156104a95780610691576002600c541061068057610677611d63565b61001b60018055565b63e2155f6960e01b60005260046000fd5b633bf2e2f960e11b6000526106a59061082a565b6104a36000602452565b631a27eac360e11b60005260046000fd5b346102f35760003660031901126102f357602060ff600254166040519015158152f35b346102f35760203660031901126102f3576106fc6104f9565b6000608060405161070c81611515565b828152826020820152826040820152826060820152015260018060a01b0316600052600f6020526107c5604060002060046040519161074a83611515565b60018060a01b038154168352600181015460208401526002810154604084015260ff60038201541615156060840152015460808201526040519182918291909160808060a083019460018060a01b03815116845260208101516020850152604081015160408501526060810151151560608501520151910152565b0390f35b919082519283825260005b8481106107f5575050826000602080949584010152601f8019910116010190565b806020809284010151828286010152016107d4565b634e487b7160e01b600052602160045260246000fd5b600411156104a957565b60048110156104a957600452565b9060048210156104a95752565b602080825282516001600160a01b0316908201526108e99061016061014061087c60208601518360408601526101808501906107c9565b946040810151606085015260608101516080850152608081015160a08501526108ad60a082015160c0860190610838565b60c081015160e085015260e081015161010085015261010081015161012085015261012081015182850152015191019060018060a01b03169052565b90565b346102f35760003660031901126102f357600061014060405161090e81611536565b828152606060208201528260408201528260608201528260808201528260a08201528260c08201528260e0820152826101008201528261012082015201526107c5610957611575565b6003546001600160a01b0316815261096d6115d6565b60208201526005546040820152600654606082015260075460808201526109a261099960085460ff1690565b60a083016116af565b60095460c0820152600a5460e0820152600b54610100820152600c54610120820152600d546001600160a01b031661014082015260405191829182610845565b346102f35760203660031901126102f35760a0610a05610a006104f9565b6116bb565b92604092919251941515855260208501526040840152606083015215156080820152f35b346102f35760003660031901126102f357610a42611b0c565b60ff6008541660048110156104a95760028103610a615761001b611e7f565b633bf2e2f960e11b600052610a759061082a565b600260245260446000fd5b346102f35760003660031901126102f35760ff6008541660048110156104a9571580610ab4575b6020906040519015158152f35b50600c5460021115610aa7565b346102f35760003660031901126102f35760206040517f5358bcfd81d1ef3da152b1755e1c3c6739686fa7e83dbcad0071568cc4b73a638152f35b346102f35760203660031901126102f357610b156104f9565b610b1d611b0c565b610b25611acd565b6001600160a01b0381166000908152601060205260409020610b4a906103a69061039f565b610474576001600160a01b0381166000908152600f60205260409020906003820190610b77825460ff1690565b610463576004600184015493015490610ba1610b9383866114f2565b845460ff1916600117909455565b6001600160a01b031692600080808086885af1610bbc611596565b5015610452576104467f2fd1e546181ffabf6481547aaef86d68a6eb14b1ef9bc7324c3aeff09bc295aa93604051938493846040919493926060820195825260208201520152565b346102f35760003660031901126102f3576014546040516001600160a01b039091168152602090f35b346102f35760003660031901126102f35760206104db611791565b60003660031901126102f357610c5c611acd565b610c64611aef565b60ff6008541660048110156104a9578061069157600554803403610e3757336000908152601060205260409020610c9a9061039f565b610e2657600c546006541115610e1557610d46610cb5611587565b3381523460208201524260408201526000606082015260006080820152610cee3360018060a01b0316600052600f602052604060002090565b90608060049160018060a01b038151166bffffffffffffffffffffffff60a01b8554161784556020810151600185015560408101516002850155600384016060820151151560ff801983541691161790550151910155565b336000908152601060205260409020610d6690805460ff19166001179055565b610d6f336117e2565b610d82610d7d600c5461183e565b600c55565b610d96610d9134600b546114f2565b600b55565b600c5460408051348152602081019290925233917fab585a62abffb5c5f3221cacd949f94b54770198cc25af3ad1d315e51be8e3e39190a2610dd83433611fa9565b600c546006541480610dff575b610df25761001b60018055565b610dfa611d63565b610677565b5060085460ff16610e0f81610820565b15610de5565b6327a01e0760e21b60005260046000fd5b6340803a5f60e11b60005260046000fd5b6357353eb960e11b6000523460045260245260445b6000fd5b346102f35760003660031901126102f357610e69611b0c565b610e71611aef565b600160ff1960025416176002557f62e78cea01bee320cd4e420270b5ea74000d11b0c9f74754ebdbfc544b05a2586020604051338152a1005b346102f35760003660031901126102f3576013546040516001600160a01b039091168152602090f35b346102f35760403660031901126102f357602060ff610f1a600435610ef66104e3565b906000526000845260406000209060018060a01b0316600052602052604060002090565b54166040519015158152f35b346102f35760003660031901126102f35760206040516301e133808152f35b346102f35760003660031901126102f357600e5447906000805b82811015611006576000805160206126cf8339815191528101546001600160a01b03166000818152600f602052604090206003015460ff1615610fa6575b50600101610f5f565b60019192610ff9826004610ff186610fd3610fff9760018060a01b0316600052600f602052604060002090565b01546001600160a01b039093166000908152600f6020526040902090565b0154906114f2565b906114f2565b9190610f9d565b60408051858152602081018490528386101591810191909152606090f35b906020808351928381520192019060005b8181106110425750505090565b82516001600160a01b0316845260209384019390920191600101611035565b346102f35760003660031901126102f357604051600e8054808352600091825260208301916000805160206126cf83398151915291905b8181106110c3576107c5856110af81870382611553565b604051918291602083526020830190611024565b82546001600160a01b0316845260209093019260019283019201611098565b346102f35760003660031901126102f357602060405160008152f35b346102f35760203660031901126102f3576001600160a01b0361111f6104f9565b166000526010602052602060ff604060002054166040519015158152f35b346102f35760003660031901126102f35760ff6008541660048110156104a95760021480611173575b6040519015158152602090f35b50600a54600754810180911161118b57421015611166565b6114dc565b346102f35760003660031901126102f35761001b6118d1565b346102f35760003660031901126102f3576020604051620151808152f35b346102f35760003660031901126102f357600b54601154810180911161118b57602090604051908152f35b346102f35760003660031901126102f35760ff6008541660048110156104a95760021480611229575b61122157005b61001b612067565b50600a54600754810180911161118b5742101561121b565b346102f35760403660031901126102f35761001b6004356112606104e3565b9061127c61054a82600052600060205260016040600020015490565b611c49565b346102f35760003660031901126102f35760206104db611a58565b346102f35760003660031901126102f357602060405160028152f35b346102f35760003660031901126102f3573360009081527faae065819044e7c1f6f3a25fcf56eec95d9ef9dcbfbb8eb1f8a4a273b3bd0146602052604090205460ff16156113185760035460055461001b916001600160a01b0316612252565b63e2517d3f60e01b600052336004527fdfbefbf47cfe66b701d8cfdbce1de81c821590819cb07e71cb01b6602fb0ee2760245260446000fd5b346102f35760003660031901126102f35761136a611acd565b611372611aef565b60ff6008541660048110156104a957600281036113b757611398600a54600754906114f2565b42106113a657610677612067565b631436150f60e11b60005260046000fd5b633bf2e2f960e11b600052610e4c906114c5565b346102f35760003660031901126102f3576113e4611acd565b6113ec611aef565b60ff6008541660048110156104a957806106915733600090815260106020526040902061141c906103a69061039f565b61047457336000908152600f602052604090206001015461143c33612356565b60085460ff1661144b81610820565b1515806114b1575b6114a3575b600080808084335af1611469611596565b50156104525760405190815233907f9346ee3b9c76468ddd2fdbfb65dae9da6e2479083b25cd80377d6809f6f8c69d908060208101610446565b6114ac33612468565b611458565b506014546001600160a01b03161515611453565b9060449160048110156104a9576004526002602452565b634e487b7160e01b600052601160045260246000fd5b9190820180921161118b57565b634e487b7160e01b600052604160045260246000fd5b60a0810190811067ffffffffffffffff82111761153157604052565b6114ff565b610160810190811067ffffffffffffffff82111761153157604052565b90601f8019910116810190811067ffffffffffffffff82111761153157604052565b6040519061158561016083611553565b565b6040519061158560a083611553565b3d156115d1573d9067ffffffffffffffff821161153157604051916115c5601f8201601f191660200184611553565b82523d6000602084013e565b606090565b604051906000600454908160011c91600181169081156116a5575b60208410821461169157838652859291602084019181156116785750600114611622575b5061158592500383611553565b6004600090815291507f8a35acfbc15ff81a39ae7d344fd709f28e8600b4aa8c65c6b64bfe7fe36bd19b5b848310611661575061158593500138611615565b80548284015286935060209092019160010161164d565b60ff191682525061158593151560051b01905038611615565b634e487b7160e01b83526022600452602483fd5b92607f16926115f1565b60048210156104a95752565b6001600160a01b03811660009081526010602052604090205460ff1615801561174c575b8015611733575b61172157600461170d6001610fd38460018060a01b0316600052600f602052604060002090565b015461171981836114f2565b804710158094565b50600090600090600090600090600090565b50600360ff6008541661174581610820565b14156116e6565b506001600160a01b0381166000908152600f602052604090206003015460ff166116df565b811561177b570490565b634e487b7160e01b600052601260045260246000fd5b600c5480156117a6576108e990601154611771565b50600090565b634e487b7160e01b600052603260045260246000fd5b600e548110156117dd57600e60005260206000200190600090565b6117ac565b600e5490680100000000000000008210156115315760018201600e55600e548210156117dd57600e6000526000805160206126cf83398151915290910180546001600160a01b0319166001600160a01b03909216919091179055565b600019811461118b5760010190565b906020825491828152019160005260206000209060005b8181106118715750505090565b82546001600160a01b0316845260209093019260019283019201611864565b60405190611585826118a381600e61184d565b0383611553565b908160209103126102f3575190565b90612710820291808304612710149015171561118b57565b60026118df60085460ff1690565b6118e881610820565b1480611a24575b611a1c5760085460ff1661190281610820565b60028114908115611a08575b5061191557565b600080611920611cd0565b600d546001600160a01b031690604051611962816119546020820194630201762160e21b8652602483019190602083019252565b03601f198101835282611553565b51915afa61196e611596565b90806119fe575b61197d575b50565b61199381602080611998945183010191016118aa565b601155565b6119a06121f9565b600b5480156119e7576119cc6000805160206126ef833981519152916119c76011546118b9565b611771565b601154604080519182526020820192909252a1611585611e7f565b506000805160206126ef83398151915260006119cc565b5080511515611975565b60039150611a1581610820565b143861190e565b611585612067565b50611a34600a54600754906114f2565b4210156118ef565b60001981019190821161118b57565b9190820391821161118b57565b60ff6008541660048110156104a957600203611a9257600a54600754810180911161118b57804210156117a65742810390811161118b5790565b600090565b600d546001600160a01b031633141580611ab2575b6106af57565b506012543360089190911c6001600160a01b03161415611aac565b600260015414611ade576002600155565b633ee5aeb560e01b60005260046000fd5b60ff60025416611afb57565b63d93c066560e01b60005260046000fd5b3360009081527f329977736520969c9868a184f64244da927a0462c6cb802bad0ae0d6d568ac82602052604090205460ff1615611b4557565b63e2517d3f60e01b600052336004527f5358bcfd81d1ef3da152b1755e1c3c6739686fa7e83dbcad0071568cc4b73a6360245260446000fd5b60008181526020818152604080832033845290915290205460ff1615611ba15750565b63e2517d3f60e01b6000523360045260245260446000fd5b6000818152602081815260408083206001600160a01b038616845290915290205460ff16611c42576000818152602081815260408083206001600160a01b03861684529091529020805460ff1916600117905533916001600160a01b0316907f2f8788117e7eff1d82e926ec794901d17c78024a50270940304540a733656f0d600080a4600190565b5050600090565b6000818152602081815260408083206001600160a01b038616845290915290205460ff1615611c42576000818152602081815260408083206001600160a01b03861684529091529020805460ff1916905533916001600160a01b0316907ff6391f5c32d9c69d2a47ea670b442974b53935d1edc7fd64eb21e047a839171b600080a4600190565b60125460081c6001600160a01b03166001600160a01b038116156117a657803b156117a6576001600160a01b031660405163caa9a08d60e01b815230600482015290602090829060249082905afa60009181611d32575b506108e95750600090565b611d5591925060203d602011611d5c575b611d4d8183611553565b8101906118aa565b9038611d27565b503d611d43565b60085460ff16611d7281610820565b61158557611d88600160ff196008541617600855565b611d9142600a55565b600b5480611ded575b50600a54600b546040805192835260208301919091527f3b4c9debfd13874e80f37195e52ad2c52e13807b61e5d15ac97a43c8c2e7dd9791a1611ddb61257a565b611585600260ff196008541617600855565b60008091611df9611cd0565b600d546001600160a01b031660405163654cfdff60e01b60208201908152602482019390935260006044820152909290611e368160648101611954565b51925af1611e42611596565b90611d9a57805115611e5657805190602001fd5b63ab04572f60e01b60005260046000fd5b908160209103126102f3575180151581036102f35790565b6014546001600160a01b0316801561197a576002611e9f60085460ff1690565b611ea881610820565b0361197a57611eb5611cd0565b8015611f975760405163400ca15560e11b6020820190815260248201839052600091829190611ee78160448101611954565b5190855afa611ef4611596565b90158015611fa0575b611f9b576103a681602080611f1794518301019101611e67565b611f97576011546040516331b0bfa360e01b6020820190815260248201939093526044810191909152600092839290918390611f568160648101611954565b51925af1611f62611596565b5015611f6a57565b6000805160206126ef83398151915260405180611f9281906000602060408401938281520152565b0390a1565b5050565b505050565b50805115611efd565b6013549091906001600160a01b0316158015612040575b611f9757611fcc611cd0565b8015611f9b57601254604051635f669d4160e01b602082019081526001600160a01b03958616602483015260448201939093526064810193909352600093849360089290921c16919083906120248160848101611954565b51925af1612030611596565b90156120395750565b51611f6a57565b5061204c6103a6612614565b611fc0565b91908260409103126102f3576020825192015190565b61206f611cd0565b600d5447916000918291906001600160a01b031690826040516120ac816119546020820195632e1a7d4d60e01b8752602483019190602083019252565b51925af16120b8611596565b90156121bd576120d4816020806120f194518301019101612051565b9190926120e083601155565b6120eb4793856114f2565b92611a4b565b908110612166575b50505b6121046121f9565b612116600360ff196008541617600855565b61211e612652565b7fe6e3f8167a0352c51f4a5dc639deb5c5679ccf396f92c55db62037faa0a2351260115461214e81600b546114f2565b60408051928352602083019190915281908101611f92565b8181106121815761217a9161199391611a4b565b38806120f9565b505061218d6000601155565b6000805160206126ef833981519152604051806121b581906000602060408401938281520152565b0390a161217a565b50506121c96000601155565b6000805160206126ef833981519152604051806121f181906000602060408401938281520152565b0390a16120fc565b600c54801561197a5761220e90601154611771565b60005b600e54811015611f97576000805160206126cf8339815191528101546001600160a01b03166000908152600f60205260409020600401829055600101612211565b6013549091906001600160a01b03161580156122cd575b611f9757612275611cd0565b8015611f9b5760125460405163f2a5109f60e01b602082019081526001600160a01b03958616602483015260448201939093526064810193909352600093849360089290921c16919083906120248160848101611954565b506122d96103a6612614565b612269565b600e54801561233357600e546000198201916000918310156117dd57600e918290527fbb7b4a454dc3493923482f07822329ed19e8244eff582cc204f8554c3620c3fc0180546001600160a01b031916905555565b634e487b7160e01b600052603160045260246000fd5b801561118b576000190190565b6001600160a01b0381166000908152600f60209081526040808320600181018054858355908590556002820185905560038201859055600490910184905560109092528220805460ff19169055905b600e5480821015612458576123d16123bc836117c2565b905460039190911b1c6001600160a01b031690565b6001600160a01b038581169116146123ec57506001016123a5565b6115859350610d9192916124166124106123bc61240b61243a95611a3c565b6117c2565b916117c2565b81546001600160a01b0393841660039290921b91821b9390911b1916919091179055565b6124426122de565b612450610d7d600c54612349565b600b54611a4b565b50506115859150610d9190612442565b6014546001600160a01b0316908115611f9757612483611cd0565b918215611f9b5760405163c4434b8560e01b6020820190815260248201949094526001600160a01b03909216604483015260009283928390611f568160648101611954565b67ffffffffffffffff81116115315760051b60200190565b906124ea826124c8565b6124f76040519182611553565b8281528092612508601f19916124c8565b0190602036910137565b80518210156117dd5760209160051b010190565b9161253e918352606060208401526060830190611024565b9060408183039101526020808351928381520192019060005b8181106125645750505090565b8251845260209384019390920191600101612557565b6014546001600160a01b031690811561261057600e5491821561260b5761259f611cd0565b8015612605576125ad611890565b6125b6856124e0565b9460005b8181106125f0575050906000809495611f56829594611954604051938492602084019763750b7a1160e11b895260248501612526565b8060016125fe81938a612512565b52016125ba565b50509050565b509050565b9050565b60125460081c6001600160a01b031680156117a6573b151590565b604090939291936060815261264860608201600e61184d565b9460208201520152565b6013546001600160a01b03161580156126bd575b61158557612672611cd0565b801561197a57600e541561197a57601254600091829160081c6001600160a01b03169082611954612024601154604051928391602083019663035f52c560e31b88526024840161262f565b506126c96103a6612614565b61266656febb7b4a454dc3493923482f07822329ed19e8244eff582cc204f8554c3620c3fdb5caada44c21534f899b80931d6822af878c135819ecf2b62cfb2b81d7f299d4a26469706673582212204f40119ddfe031e8043784c548af32ea76bb37244824ccd4cfb0d9d3d3cfad7764736f6c634300081c00332f8788117e7eff1d82e926ec794901d17c78024a50270940304540a733656f0d329977736520969c9868a184f64244da927a0462c6cb802bad0ae0d6d568ac82aae065819044e7c1f6f3a25fcf56eec95d9ef9dcbfbb8eb1f8a4a273b3bd0146ad3228b676f7d3cd4284a5443f17f1962b36e491b30a40b2405849e597ba5fb5",
  "linkReferences": {},
  "deployedLinkReferences": {}
}