{
  "_format": "hh-sol-artifact-1",
  "contractName": "Pool",
  "sourceName": "contracts/Pool.sol",
  "abi": [
    {
      "inputs": [
        {
          "internalType": "string",
          "name": "name",
          "type": "string"
        },
        {
          "internalType": "uint256",
          "name": "contributionAmount",
          "type": "uint256"
        },
        {
          "internalType": "uint256",
          "name": "maxMembers",
          "type": "uint256"
        },
        {
          "internalType": "uint256",
          "name": "duration",
          "type": "uint256"
        },
        {
          "internalType": "address",
          "name": "creator",
          "type": "address"
        },
        {
          "internalType": "address",
          "name": "yieldManager",
          "type": "address"
        },
        {
          "internalType": "address",
          "name": "badgeContract",
          "type": "address"
        }
      ],
      "stateMutability": "nonpayable",
      "type": "constructor"
    },
    {
      "inputs": [],
      "name": "AccessControlBadConfirmation",
      "type": "error"
    },
    {
      "inputs": [
        {
          "internalType": "address",
          "name": "account",
          "type": "address"
        },
        {
          "internalType": "bytes32",
          "name": "neededRole",
          "type": "bytes32"
        }
      ],
      "name": "AccessControlUnauthorizedAccount",
      "type": "error"
    },
    {
      "inputs": [],
      "name": "AlreadyMember",
      "type": "error"
    },
    {
      "inputs": [],
      "name": "AlreadyWithdrawn",
      "type": "error"
    },
    {
      "inputs": [],
      "name": "BadgeMintingFailed",
      "type": "error"
    },
    {
      "inputs": [],
      "name": "CannotLeaveAfterLock",
      "type": "error"
    },
    {
      "inputs": [],
      "name": "DurationNotExpired",
      "type": "error"
    },
    {
      "inputs": [],
      "name": "EnforcedPause",
      "type": "error"
    },
    {
      "inputs": [],
      "name": "ExpectedPause",
      "type": "error"
    },
    {
      "inputs": [],
      "name": "InsufficientMembers",
      "type": "error"
    },
    {
      "inputs": [
        {
          "internalType": "uint256",
          "name": "sent",
          "type": "uint256"
        },
        {
          "internalType": "uint256",
          "name": "required",
          "type": "uint256"
        }
      ],
      "name": "InvalidContribution",
      "type": "error"
    },
    {
      "inputs": [],
      "name": "InvalidParameters",
      "type": "error"
    },
    {
      "inputs": [
        {
          "internalType": "enum IPool.PoolStatus",
          "name": "current",
          "type": "uint8"
        },
        {
          "internalType": "enum IPool.PoolStatus",
          "name": "required",
          "type": "uint8"
        }
      ],
      "name": "InvalidState",
      "type": "error"
    },
    {
      "inputs": [],
      "name": "NotMember",
      "type": "error"
    },
    {
      "inputs": [],
      "name": "PoolAlreadyInitialized",
      "type": "error"
    },
    {
      "inputs": [],
      "name": "PoolFull",
      "type": "error"
    },
    {
      "inputs": [],
      "name": "PoolNotActive",
      "type": "error"
    },
    {
      "inputs": [],
      "name": "PoolNotCompleted",
      "type": "error"
    },
    {
      "inputs": [],
      "name": "PoolNotLocked",
      "type": "error"
    },
    {
      "inputs": [],
      "name": "PoolNotOpen",
      "type": "error"
    },
    {
      "inputs": [],
      "name": "ReentrancyGuardReentrantCall",
      "type": "error"
    },
    {
      "inputs": [],
      "name": "UnauthorizedAccess",
      "type": "error"
    },
    {
      "inputs": [],
      "name": "WithdrawalFailed",
      "type": "error"
    },
    {
      "inputs": [],
      "name": "YieldManagerCallFailed",
      "type": "error"
    },
    {
      "inputs": [],
      "name": "ZeroAddress",
      "type": "error"
    },
    {
      "anonymous": false,
      "inputs": [
        {
          "indexed": true,
          "internalType": "address",
          "name": "member",
          "type": "address"
        },
        {
          "indexed": false,
          "internalType": "uint256",
          "name": "contribution",
          "type": "uint256"
        },
        {
          "indexed": false,
          "internalType": "uint256",
          "name": "totalMembers",
          "type": "uint256"
        }
      ],
      "name": "MemberJoined",
      "type": "event"
    },
    {
      "anonymous": false,
      "inputs": [
        {
          "indexed": true,
          "internalType": "address",
          "name": "member",
          "type": "address"
        },
        {
          "indexed": false,
          "internalType": "uint256",
          "name": "refundAmount",
          "type": "uint256"
        }
      ],
      "name": "MemberLeft",
      "type": "event"
    },
    {
      "anonymous": false,
      "inputs": [
        {
          "indexed": true,
          "internalType": "address",
          "name": "member",
          "type": "address"
        },
        {
          "indexed": false,
          "internalType": "uint256",
          "name": "principal",
          "type": "uint256"
        },
        {
          "indexed": false,
          "internalType": "uint256",
          "name": "yield",
          "type": "uint256"
        },
        {
          "indexed": false,
          "internalType": "uint256",
          "name": "totalAmount",
          "type": "uint256"
        }
      ],
      "name": "MemberWithdrawal",
      "type": "event"
    },
    {
      "anonymous": false,
      "inputs": [
        {
          "indexed": false,
          "internalType": "address",
          "name": "account",
          "type": "address"
        }
      ],
      "name": "Paused",
      "type": "event"
    },
    {
      "anonymous": false,
      "inputs": [
        {
          "indexed": false,
          "internalType": "uint256",
          "name": "totalYield",
          "type": "uint256"
        },
        {
          "indexed": false,
          "internalType": "uint256",
          "name": "finalAmount",
          "type": "uint256"
        }
      ],
      "name": "PoolCompleted",
      "type": "event"
    },
    {
      "anonymous": false,
      "inputs": [
        {
          "indexed": false,
          "internalType": "uint256",
          "name": "startTime",
          "type": "uint256"
        },
        {
          "indexed": false,
          "internalType": "uint256",
          "name": "totalFunds",
          "type": "uint256"
        }
      ],
      "name": "PoolLocked",
      "type": "event"
    },
    {
      "anonymous": false,
      "inputs": [
        {
          "indexed": true,
          "internalType": "bytes32",
          "name": "role",
          "type": "bytes32"
        },
        {
          "indexed": true,
          "internalType": "bytes32",
          "name": "previousAdminRole",
          "type": "bytes32"
        },
        {
          "indexed": true,
          "internalType": "bytes32",
          "name": "newAdminRole",
          "type": "bytes32"
        }
      ],
      "name": "RoleAdminChanged",
      "type": "event"
    },
    {
      "anonymous": false,
      "inputs": [
        {
          "indexed": true,
          "internalType": "bytes32",
          "name": "role",
          "type": "bytes32"
        },
        {
          "indexed": true,
          "internalType": "address",
          "name": "account",
          "type": "address"
        },
        {
          "indexed": true,
          "internalType": "address",
          "name": "sender",
          "type": "address"
        }
      ],
      "name": "RoleGranted",
      "type": "event"
    },
    {
      "anonymous": false,
      "inputs": [
        {
          "indexed": true,
          "internalType": "bytes32",
          "name": "role",
          "type": "bytes32"
        },
        {
          "indexed": true,
          "internalType": "address",
          "name": "account",
          "type": "address"
        },
        {
          "indexed": true,
          "internalType": "address",
          "name": "sender",
          "type": "address"
        }
      ],
      "name": "RoleRevoked",
      "type": "event"
    },
    {
      "anonymous": false,
      "inputs": [
        {
          "indexed": false,
          "internalType": "address",
          "name": "account",
          "type": "address"
        }
      ],
      "name": "Unpaused",
      "type": "event"
    },
    {
      "anonymous": false,
      "inputs": [
        {
          "indexed": false,
          "internalType": "uint256",
          "name": "newYield",
          "type": "uint256"
        },
        {
          "indexed": false,
          "internalType": "uint256",
          "name": "yieldRate",
          "type": "uint256"
        }
      ],
      "name": "YieldUpdated",
      "type": "event"
    },
    {
      "stateMutability": "payable",
      "type": "fallback"
    },
    {
      "inputs": [],
      "name": "DEFAULT_ADMIN_ROLE",
      "outputs": [
        {
          "internalType": "bytes32",
          "name": "",
          "type": "bytes32"
        }
      ],
      "stateMutability": "view",
      "type": "function"
    },
    {
      "inputs": [],
      "name": "EMERGENCY_ADMIN_ROLE",
      "outputs": [
        {
          "internalType": "bytes32",
          "name": "",
          "type": "bytes32"
        }
      ],
      "stateMutability": "view",
      "type": "function"
    },
    {
      "inputs": [],
      "name": "FACTORY_ROLE",
      "outputs": [
        {
          "internalType": "bytes32",
          "name": "",
          "type": "bytes32"
        }
      ],
      "stateMutability": "view",
      "type": "function"
    },
    {
      "inputs": [],
      "name": "MAX_MEMBERS_LIMIT",
      "outputs": [
        {
          "internalType": "uint256",
          "name": "",
          "type": "uint256"
        }
      ],
      "stateMutability": "view",
      "type": "function"
    },
    {
      "inputs": [],
      "name": "MAX_POOL_DURATION",
      "outputs": [
        {
          "internalType": "uint256",
          "name": "",
          "type": "uint256"
        }
      ],
      "stateMutability": "view",
      "type": "function"
    },
    {
      "inputs": [],
      "name": "MIN_MEMBERS_TO_LOCK",
      "outputs": [
        {
          "internalType": "uint256",
          "name": "",
          "type": "uint256"
        }
      ],
      "stateMutability": "view",
      "type": "function"
    },
    {
      "inputs": [],
      "name": "MIN_POOL_DURATION",
      "outputs": [
        {
          "internalType": "uint256",
          "name": "",
          "type": "uint256"
        }
      ],
      "stateMutability": "view",
      "type": "function"
    },
    {
      "inputs": [],
      "name": "canComplete",
      "outputs": [
        {
          "internalType": "bool",
          "name": "",
          "type": "bool"
        }
      ],
      "stateMutability": "view",
      "type": "function"
    },
    {
      "inputs": [],
      "name": "canLock",
      "outputs": [
        {
          "internalType": "bool",
          "name": "",
          "type": "bool"
        }
      ],
      "stateMutability": "view",
      "type": "function"
    },
    {
      "inputs": [],
      "name": "completePool",
      "outputs": [],
      "stateMutability": "nonpayable",
      "type": "function"
    },
    {
      "inputs": [
        {
          "internalType": "address",
          "name": "member",
          "type": "address"
        }
      ],
      "name": "emergencyWithdraw",
      "outputs": [],
      "stateMutability": "nonpayable",
      "type": "function"
    },
    {
      "inputs": [],
      "name": "getBadgeContract",
      "outputs": [
        {
          "internalType": "address",
          "name": "badgeContract",
          "type": "address"
        }
      ],
      "stateMutability": "view",
      "type": "function"
    },
    {
      "inputs": [
        {
          "internalType": "address",
          "name": "member",
          "type": "address"
        }
      ],
      "name": "getMemberInfo",
      "outputs": [
        {
          "components": [
            {
              "internalType": "address",
              "name": "memberAddress",
              "type": "address"
            },
            {
              "internalType": "uint256",
              "name": "contribution",
              "type": "uint256"
            },
            {
              "internalType": "uint256",
              "name": "joinedAt",
              "type": "uint256"
            },
            {
              "internalType": "bool",
              "name": "hasWithdrawn",
              "type": "bool"
            },
            {
              "internalType": "uint256",
              "name": "yieldEarned",
              "type": "uint256"
            }
          ],
          "internalType": "struct IPool.PoolMember",
          "name": "memberInfo",
          "type": "tuple"
        }
      ],
      "stateMutability": "view",
      "type": "function"
    },
    {
      "inputs": [],
      "name": "getMembers",
      "outputs": [
        {
          "internalType": "address[]",
          "name": "members",
          "type": "address[]"
        }
      ],
      "stateMutability": "view",
      "type": "function"
    },
    {
      "inputs": [],
      "name": "getPoolId",
      "outputs": [
        {
          "internalType": "uint256",
          "name": "poolId",
          "type": "uint256"
        }
      ],
      "stateMutability": "view",
      "type": "function"
    },
    {
      "inputs": [],
      "name": "getPoolInfo",
      "outputs": [
        {
          "components": [
            {
              "internalType": "address",
              "name": "creator",
              "type": "address"
            },
            {
              "internalType": "string",
              "name": "name",
              "type": "string"
            },
            {
              "internalType": "uint256",
              "name": "contributionAmount",
              "type": "uint256"
            },
            {
              "internalType": "uint256",
              "name": "maxMembers",
              "type": "uint256"
            },
            {
              "internalType": "uint256",
              "name": "duration",
              "type": "uint256"
            },
            {
              "internalType": "enum IPool.PoolStatus",
              "name": "status",
              "type": "uint8"
            },
            {
              "internalType": "uint256",
              "name": "createdAt",
              "type": "uint256"
            },
            {
              "internalType": "uint256",
              "name": "lockedAt",
              "type": "uint256"
            },
            {
              "internalType": "uint256",
              "name": "totalFunds",
              "type": "uint256"
            },
            {
              "internalType": "uint256",
              "name": "currentMembers",
              "type": "uint256"
            },
            {
              "internalType": "address",
              "name": "yieldManager",
              "type": "address"
            }
          ],
          "internalType": "struct IPool.PoolInfo",
          "name": "info",
          "type": "tuple"
        }
      ],
      "stateMutability": "view",
      "type": "function"
    },
    {
      "inputs": [
        {
          "internalType": "bytes32",
          "name": "role",
          "type": "bytes32"
        }
      ],
      "name": "getRoleAdmin",
      "outputs": [
        {
          "internalType": "bytes32",
          "name": "",
          "type": "bytes32"
        }
      ],
      "stateMutability": "view",
      "type": "function"
    },
    {
      "inputs": [],
      "name": "getTimeRemaining",
      "outputs": [
        {
          "internalType": "uint256",
          "name": "timeRemaining",
          "type": "uint256"
        }
      ],
      "stateMutability": "view",
      "type": "function"
    },
    {
      "inputs": [],
      "name": "getTotalValue",
      "outputs": [
        {
          "internalType": "uint256",
          "name": "totalValue",
          "type": "uint256"
        }
      ],
      "stateMutability": "view",
      "type": "function"
    },
    {
      "inputs": [],
      "name": "getYieldPerMember",
      "outputs": [
        {
          "internalType": "uint256",
          "name": "yieldPerMember",
          "type": "uint256"
        }
      ],
      "stateMutability": "view",
      "type": "function"
    },
    {
      "inputs": [
        {
          "internalType": "bytes32",
          "name": "role",
          "type": "bytes32"
        },
        {
          "internalType": "address",
          "name": "account",
          "type": "address"
        }
      ],
      "name": "grantRole",
      "outputs": [],
      "stateMutability": "nonpayable",
      "type": "function"
    },
    {
      "inputs": [
        {
          "internalType": "bytes32",
          "name": "role",
          "type": "bytes32"
        },
        {
          "internalType": "address",
          "name": "account",
          "type": "address"
        }
      ],
      "name": "hasRole",
      "outputs": [
        {
          "internalType": "bool",
          "name": "",
          "type": "bool"
        }
      ],
      "stateMutability": "view",
      "type": "function"
    },
    {
      "inputs": [],
      "name": "initializeCreatorBadge",
      "outputs": [],
      "stateMutability": "nonpayable",
      "type": "function"
    },
    {
      "inputs": [
        {
          "internalType": "address",
          "name": "account",
          "type": "address"
        }
      ],
      "name": "isMember",
      "outputs": [
        {
          "internalType": "bool",
          "name": "",
          "type": "bool"
        }
      ],
      "stateMutability": "view",
      "type": "function"
    },
    {
      "inputs": [],
      "name": "joinPool",
      "outputs": [],
      "stateMutability": "payable",
      "type": "function"
    },
    {
      "inputs": [],
      "name": "leavePool",
      "outputs": [],
      "stateMutability": "nonpayable",
      "type": "function"
    },
    {
      "inputs": [],
      "name": "lockPool",
      "outputs": [],
      "stateMutability": "nonpayable",
      "type": "function"
    },
    {
      "inputs": [],
      "name": "pause",
      "outputs": [],
      "stateMutability": "nonpayable",
      "type": "function"
    },
    {
      "inputs": [],
      "name": "paused",
      "outputs": [
        {
          "internalType": "bool",
          "name": "",
          "type": "bool"
        }
      ],
      "stateMutability": "view",
      "type": "function"
    },
    {
      "inputs": [
        {
          "internalType": "bytes32",
          "name": "role",
          "type": "bytes32"
        },
        {
          "internalType": "address",
          "name": "callerConfirmation",
          "type": "address"
        }
      ],
      "name": "renounceRole",
      "outputs": [],
      "stateMutability": "nonpayable",
      "type": "function"
    },
    {
      "inputs": [
        {
          "internalType": "bytes32",
          "name": "role",
          "type": "bytes32"
        },
        {
          "internalType": "address",
          "name": "account",
          "type": "address"
        }
      ],
      "name": "revokeRole",
      "outputs": [],
      "stateMutability": "nonpayable",
      "type": "function"
    },
    {
      "inputs": [
        {
          "internalType": "bytes4",
          "name": "interfaceId",
          "type": "bytes4"
        }
      ],
      "name": "supportsInterface",
      "outputs": [
        {
          "internalType": "bool",
          "name": "",
          "type": "bool"
        }
      ],
      "stateMutability": "view",
      "type": "function"
    },
    {
      "inputs": [],
      "name": "triggerCompletion",
      "outputs": [],
      "stateMutability": "nonpayable",
      "type": "function"
    },
    {
      "inputs": [],
      "name": "unpause",
      "outputs": [],
      "stateMutability": "nonpayable",
      "type": "function"
    },
    {
      "inputs": [],
      "name": "updateYield",
      "outputs": [],
      "stateMutability": "nonpayable",
      "type": "function"
    },
    {
      "inputs": [],
      "name": "withdrawShare",
      "outputs": [],
      "stateMutability": "nonpayable",
      "type": "function"
    },
    {
      "stateMutability": "payable",
      "type": "receive"
    }
  ],
  "bytecode": "0x608060405234610467576127d1803803806100198161046c565b92833981019060e0818303126104675780516001600160401b03811161046757810182601f82011215610467578051906001600160401b0382116103f25761006a601f8301601f191660200161046c565b93828552602083830101116104675760005b8281106104525750506020600091840101526020810151916040820151926060830151936100ac60808501610491565b946100c560c06100be60a08801610491565b9601610491565b600180556001600160a01b038716958615610441576001600160a01b03169687156104415760ff601254166104305785511561040857841561040857600284108015610426575b610408576201518083108015610419575b610408578061012e610134926104a5565b50610521565b5061013e336105b9565b5060128054610100600160a81b0319163360081b610100600160a81b0316179055601380546001600160a01b0319166001600160a01b03929092169190911790556040519461016086016001600160401b038111878210176103f25760405285526020850193845260408501928352606085019182526080850190815260a08501906000825260c086019242845260e0870194600086526101008801966000885261012089019860008a5261014081019a8b5260018060a01b0390511660018060a01b031960035416176003555180519060018060401b0382116103f25760045490600182811c921680156103e8575b60208310146103d25781601f849311610362575b50602090601f83116001146102fa576000926102ef575b50508160011b916000199060031b1c1916176004555b5160055551600655516007555160048110156102d95760ff8019600854169116176008555160095551600a5551600b5551600c5560018060a01b0390511660018060a01b0319600d541617600d55600160ff1960125416176012556040516120ff90816106528239f35b634e487b7160e01b600052602160045260246000fd5b015190503880610259565b600460009081528281209350601f198516905b81811061034a5750908460019594939210610331575b505050811b0160045561026f565b015160001960f88460031b161c19169055388080610323565b9293602060018192878601518155019501930161030d565b60046000529091507f8a35acfbc15ff81a39ae7d344fd709f28e8600b4aa8c65c6b64bfe7fe36bd19b601f840160051c810191602085106103c8575b90601f859493920160051c01905b8181106103b95750610242565b600081558493506001016103ac565b909150819061039e565b634e487b7160e01b600052602260045260246000fd5b91607f169161022e565b634e487b7160e01b600052604160045260246000fd5b630e52390960e41b60005260046000fd5b506301e13380831161011d565b506064841161010c565b637983c05160e01b60005260046000fd5b63d92e233d60e01b60005260046000fd5b8060208092840101518282880101520161007c565b600080fd5b6040519190601f01601f191682016001600160401b038111838210176103f257604052565b51906001600160a01b038216820361046757565b6001600160a01b03811660009081526000805160206127b1833981519152602052604090205460ff1661051b576001600160a01b031660008181526000805160206127b183398151915260205260408120805460ff191660011790553391906000805160206127518339815191528180a4600190565b50600090565b6001600160a01b0381166000908152600080516020612771833981519152602052604090205460ff1661051b576001600160a01b0316600081815260008051602061277183398151915260205260408120805460ff191660011790553391907f5358bcfd81d1ef3da152b1755e1c3c6739686fa7e83dbcad0071568cc4b73a63906000805160206127518339815191529080a4600190565b6001600160a01b0381166000908152600080516020612791833981519152602052604090205460ff1661051b576001600160a01b0316600081815260008051602061279183398151915260205260408120805460ff191660011790553391907fdfbefbf47cfe66b701d8cfdbce1de81c821590819cb07e71cb01b6602fb0ee27906000805160206127518339815191529080a460019056fe6080604052600436101561001d575b3661066d5761001b611753565b005b60003560e01c806301ffc9a71461025d57806304a0fb17146102585780631db8e04f14610253578063243496711461024e578063248a9ca3146102495780632f2ff15d1461024457806336568abe1461023f57806338fff2d01461023a5780633f4ba83a146102355780634026478e146102305780635c975abb1461022b5780635f1231ea1461022657806360246c88146102215780636cbb721f1461021c5780636e76fc8f146102175780636ff1c9bc146102125780638346226c1461020d5780638371e6b4146102085780638456cb5914610203578063876d50c1146101fe57806391d14854146101f95780639a9935b3146101f45780639eab5253146101ef578063a217fddf146101ea578063a230c524146101e5578063aac4987d146101e0578063bb21a997146101db578063bfffc1a8146101d6578063caa648b4146101d1578063ce2cf5d9146101cc578063d547741f146101c7578063dac6270d146101c2578063dcdcc983146101bd578063e0b1d267146101b8578063e6d6f7fd146101b35763f19e9d810361000e5761117f565b611105565b61106c565b611050565b611035565b610ff5565b610fa6565b610f7b565b610f5d565b610f44565b610ef1565b610eb2565b610e96565b610e20565b610e01565b610dae565b610d85565b610d2b565b610b3f565b610b24565b610a1c565b6109e1565b6109a0565b6108aa565b6106a1565b61067e565b6105dc565b610573565b610558565b610512565b6104cd565b61046c565b61030f565b6102f3565b6102b8565b346102b35760203660031901126102b35760043563ffffffff60e01b81168091036102b357602090637965db0b60e01b81149081156102a2575b506040519015158152f35b6301ffc9a760e01b14905038610297565b600080fd5b346102b35760003660031901126102b35760206040517fdfbefbf47cfe66b701d8cfdbce1de81c821590819cb07e71cb01b6602fb0ee278152f35b346102b35760003660031901126102b357602060405160648152f35b346102b35760003660031901126102b357610328611789565b6103306117ab565b60ff60085416600481101561046757600381036104435733600090815260106020526040902061036a90610366905b5460ff1690565b1590565b61043257336000908152600f6020526040902060038101805460ff166104215760046001830154920154906103b06103a28385611268565b825460ff1916600117909255565b600080808084335af16103c161130c565b5015610410576040805193845260208401929092529082015233907f2fd1e546181ffabf6481547aaef86d68a6eb14b1ef9bc7324c3aeff09bc295aa9080606081015b0390a261001b60018055565b6327fcd9d160e01b60005260046000fd5b636507689f60e01b60005260046000fd5b63148fe22160e11b60005260046000fd5b633bf2e2f960e11b600052610457906107e8565b6104616003602452565b60446000fd5b6107c8565b346102b35760203660031901126102b3576020610499600435600052600060205260016040600020015490565b604051908152f35b602435906001600160a01b03821682036102b357565b600435906001600160a01b03821682036102b357565b346102b35760403660031901126102b35761001b6004356104ec6104a1565b9061050d61050882600052600060205260016040600020015490565b61183a565b611875565b346102b35760403660031901126102b35760043561052e6104a1565b336001600160a01b038216036105475761001b91611905565b63334bd91960e11b60005260046000fd5b346102b35760003660031901126102b357602061049961198c565b346102b35760003660031901126102b35761058c6117c8565b60025460ff8116156105cb5760ff19166002557f5db9ee0a495bf2e6ff9c91a7834c1ba4fdd244a5e8aa4e537bd38aeae4b073aa6020604051338152a1005b638dfc202b60e01b60005260046000fd5b346102b35760003660031901126102b3576003546001600160a01b0316330361066d57610607611789565b61060f6117ab565b60ff600854166004811015610467578061064f576002600c541061063e57610635611a1f565b61001b60018055565b63e2155f6960e01b60005260046000fd5b633bf2e2f960e11b600052610663906107e8565b6104616000602452565b631a27eac360e11b60005260046000fd5b346102b35760003660031901126102b357602060ff600254166040519015158152f35b346102b35760203660031901126102b3576106ba6104b7565b600060806040516106ca8161128b565b828152826020820152826040820152826060820152015260018060a01b0316600052600f60205261078360406000206004604051916107088361128b565b60018060a01b038154168352600181015460208401526002810154604084015260ff60038201541615156060840152015460808201526040519182918291909160808060a083019460018060a01b03815116845260208101516020850152604081015160408501526060810151151560608501520151910152565b0390f35b919082519283825260005b8481106107b3575050826000602080949584010152601f8019910116010190565b80602080928401015182828601015201610792565b634e487b7160e01b600052602160045260246000fd5b6004111561046757565b600481101561046757600452565b9060048210156104675752565b602080825282516001600160a01b0316908201526108a79061016061014061083a6020860151836040860152610180850190610787565b946040810151606085015260608101516080850152608081015160a085015261086b60a082015160c08601906107f6565b60c081015160e085015260e081015161010085015261010081015161012085015261012081015182850152015191019060018060a01b03169052565b90565b346102b35760003660031901126102b35760006101406040516108cc816112ac565b828152606060208201528260408201528260608201528260808201528260a08201528260c08201528260e0820152826101008201528261012082015201526107836109156112eb565b6003546001600160a01b0316815261092b61134c565b602082015260055460408201526006546060820152600754608082015261096061095760085460ff1690565b60a08301611425565b60095460c0820152600a5460e0820152600b54610100820152600c54610120820152600d546001600160a01b031661014082015260405191829182610803565b346102b35760003660031901126102b35760ff6008541660048110156104675715806109d4575b6020906040519015158152f35b50600c54600211156109c7565b346102b35760003660031901126102b35760206040517f5358bcfd81d1ef3da152b1755e1c3c6739686fa7e83dbcad0071568cc4b73a638152f35b346102b35760203660031901126102b357610a356104b7565b610a3d6117c8565b610a45611789565b6001600160a01b0381166000908152601060205260409020610a6a906103669061035f565b610432576001600160a01b0381166000908152600f60205260409020906003820190610a97825460ff1690565b610421576004600184015493015490610ac1610ab38386611268565b845460ff1916600117909455565b6001600160a01b031692600080808086885af1610adc61130c565b5015610410576104047f2fd1e546181ffabf6481547aaef86d68a6eb14b1ef9bc7324c3aeff09bc295aa93604051938493846040919493926060820195825260208201520152565b346102b35760003660031901126102b3576020610499611451565b60003660031901126102b357610b53611789565b610b5b6117ab565b60ff600854166004811015610467578061064f57600554803403610d1257336000908152601060205260409020610b919061035f565b610d0157600c546006541115610cf057610c3d610bac6112fd565b3381523460208201524260408201526000606082015260006080820152610be53360018060a01b0316600052600f602052604060002090565b90608060049160018060a01b038151166bffffffffffffffffffffffff60a01b8554161784556020810151600185015560408101516002850155600384016060820151151560ff801983541691161790550151910155565b336000908152601060205260409020610c5d90805460ff19166001179055565b610c66336114a2565b610c79610c74600c54611510565b600c55565b610c8d610c8834600b54611268565b600b55565b600c5460408051348152602081019290925233917fab585a62abffb5c5f3221cacd949f94b54770198cc25af3ad1d315e51be8e3e39190a2610ccf3433611b08565b600c5460065414610ce35761001b60018055565b610ceb611a1f565b610635565b6327a01e0760e21b60005260046000fd5b6340803a5f60e11b60005260046000fd5b6357353eb960e11b6000523460045260245260445b6000fd5b346102b35760003660031901126102b357610d446117c8565b610d4c6117ab565b600160ff1960025416176002557f62e78cea01bee320cd4e420270b5ea74000d11b0c9f74754ebdbfc544b05a2586020604051338152a1005b346102b35760003660031901126102b3576013546040516001600160a01b039091168152602090f35b346102b35760403660031901126102b357602060ff610df5600435610dd16104a1565b906000526000845260406000209060018060a01b0316600052602052604060002090565b54166040519015158152f35b346102b35760003660031901126102b35760206040516301e133808152f35b346102b35760003660031901126102b357604051610e4881610e418161151f565b03826112c9565b60405180916020820160208352815180915260206040840192019060005b818110610e74575050500390f35b82516001600160a01b0316845285945060209384019390920191600101610e66565b346102b35760003660031901126102b357602060405160008152f35b346102b35760203660031901126102b3576001600160a01b03610ed36104b7565b166000526010602052602060ff604060002054166040519015158152f35b346102b35760003660031901126102b35760ff6008541660048110156104675760021480610f27575b6040519015158152602090f35b50600a546007548101809111610f3f57421015610f1a565b611252565b346102b35760003660031901126102b35761001b61158b565b346102b35760003660031901126102b3576020604051620151808152f35b346102b35760003660031901126102b357600b546011548101809111610f3f57602090604051908152f35b346102b35760003660031901126102b35760ff6008541660048110156104675760021480610fdd575b610fd557005b61001b611bf7565b50600a546007548101809111610f3f57421015610fcf565b346102b35760403660031901126102b35761001b6004356110146104a1565b9061103061050882600052600060205260016040600020015490565b611905565b346102b35760003660031901126102b3576020610499611714565b346102b35760003660031901126102b357602060405160028152f35b346102b35760003660031901126102b3573360009081527faae065819044e7c1f6f3a25fcf56eec95d9ef9dcbfbb8eb1f8a4a273b3bd0146602052604090205460ff16156110cc5760035460055461001b916001600160a01b0316611da0565b63e2517d3f60e01b600052336004527fdfbefbf47cfe66b701d8cfdbce1de81c821590819cb07e71cb01b6602fb0ee2760245260446000fd5b346102b35760003660031901126102b35761111e611789565b6111266117ab565b60ff600854166004811015610467576002810361116b5761114c600a5460075490611268565b421061115a57610635611bf7565b631436150f60e11b60005260046000fd5b633bf2e2f960e11b600052610d279061123b565b346102b35760003660031901126102b357611198611789565b6111a06117ab565b60ff600854166004811015610467578061064f573360005260106020526111d0610366604060002060ff90541690565b61043257336000908152600f60205260409020600101546111f033611ea4565b600080808084335af161120161130c565b50156104105760405190815233907f9346ee3b9c76468ddd2fdbfb65dae9da6e2479083b25cd80377d6809f6f8c69d908060208101610404565b906044916004811015610467576004526002602452565b634e487b7160e01b600052601160045260246000fd5b91908201809211610f3f57565b634e487b7160e01b600052604160045260246000fd5b60a0810190811067ffffffffffffffff8211176112a757604052565b611275565b610160810190811067ffffffffffffffff8211176112a757604052565b90601f8019910116810190811067ffffffffffffffff8211176112a757604052565b604051906112fb610160836112c9565b565b604051906112fb60a0836112c9565b3d15611347573d9067ffffffffffffffff82116112a7576040519161133b601f8201601f1916602001846112c9565b82523d6000602084013e565b606090565b604051906000600454908160011c916001811690811561141b575b60208410821461140757838652859291602084019181156113ee5750600114611398575b506112fb925003836112c9565b6004600090815291507f8a35acfbc15ff81a39ae7d344fd709f28e8600b4aa8c65c6b64bfe7fe36bd19b5b8483106113d757506112fb9350013861138b565b8054828401528693506020909201916001016113c3565b60ff19168252506112fb93151560051b0190503861138b565b634e487b7160e01b83526022600452602483fd5b92607f1692611367565b60048210156104675752565b811561143b570490565b634e487b7160e01b600052601260045260246000fd5b600c548015611466576108a790601154611431565b50600090565b634e487b7160e01b600052603260045260246000fd5b600e5481101561149d57600e60005260206000200190600090565b61146c565b600e5490680100000000000000008210156112a75760018201600e55600e5482101561149d57600e6000527fbb7b4a454dc3493923482f07822329ed19e8244eff582cc204f8554c3620c3fd90910180546001600160a01b0319166001600160a01b03909216919091179055565b6000198114610f3f5760010190565b6020600e54918281520190600e60005260206000209060005b8181106115455750505090565b82546001600160a01b0316845260209093019260019283019201611538565b908160209103126102b3575190565b906127108202918083046127101490151715610f3f57565b600261159960085460ff1690565b6115a2816107de565b14806116e0575b6116d85760085460ff166115bc816107de565b600281149081156116c4575b506115cf57565b6000806115da61198c565b600d546001600160a01b03169060405161161c8161160e6020820194630201762160e21b8652602483019190602083019252565b03601f1981018352826112c9565b51915afa61162861130c565b90806116ba575b611637575b50565b61164d8160208061165294518301019101611564565b601155565b61165a611d35565b600b5480156116a3576116866000805160206120aa83398151915291611681601154611573565b611431565b60115460408051918252602082019290925290819081015b0390a1565b506000805160206120aa8339815191526000611686565b508051151561162f565b600391506116d1816107de565b14386115c8565b6112fb611bf7565b506116f0600a5460075490611268565b4210156115a9565b600019810191908211610f3f57565b91908203918211610f3f57565b60ff6008541660048110156104675760020361174e57600a546007548101809111610f3f578042101561146657428103908111610f3f5790565b600090565b600d546001600160a01b03163314158061176e575b61066d57565b506012543360089190911c6001600160a01b03161415611768565b60026001541461179a576002600155565b633ee5aeb560e01b60005260046000fd5b60ff600254166117b757565b63d93c066560e01b60005260046000fd5b3360009081527f329977736520969c9868a184f64244da927a0462c6cb802bad0ae0d6d568ac82602052604090205460ff161561180157565b63e2517d3f60e01b600052336004527f5358bcfd81d1ef3da152b1755e1c3c6739686fa7e83dbcad0071568cc4b73a6360245260446000fd5b60008181526020818152604080832033845290915290205460ff161561185d5750565b63e2517d3f60e01b6000523360045260245260446000fd5b6000818152602081815260408083206001600160a01b038616845290915290205460ff166118fe576000818152602081815260408083206001600160a01b03861684529091529020805460ff1916600117905533916001600160a01b0316907f2f8788117e7eff1d82e926ec794901d17c78024a50270940304540a733656f0d600080a4600190565b5050600090565b6000818152602081815260408083206001600160a01b038616845290915290205460ff16156118fe576000818152602081815260408083206001600160a01b03861684529091529020805460ff1916905533916001600160a01b0316907ff6391f5c32d9c69d2a47ea670b442974b53935d1edc7fd64eb21e047a839171b600080a4600190565b60125460081c6001600160a01b03166001600160a01b0381161561146657803b15611466576001600160a01b031660405163caa9a08d60e01b815230600482015290602090829060249082905afa600091816119ee575b506108a75750600090565b611a1191925060203d602011611a18575b611a0981836112c9565b810190611564565b90386119e3565b503d6119ff565b611a31600160ff196008541617600855565b611a3a42600a55565b600b5480611a8e575b50600a54600b546040805192835260208301919091527f3b4c9debfd13874e80f37195e52ad2c52e13807b61e5d15ac97a43c8c2e7dd9791a16112fb600260ff196008541617600855565b60008091611a9a61198c565b600d546001600160a01b031660405163654cfdff60e01b60208201908152602482019390935260006044820152909290611ad7816064810161160e565b51925af1611ae361130c565b90611a4357805115611af757805190602001fd5b63ab04572f60e01b60005260046000fd5b6013549091906001600160a01b0316158015611bd0575b611bcc57611b2b61198c565b8015611bc757601254604051635f669d4160e01b602082019081526001600160a01b03958616602483015260448201939093526064810193909352600093849360089290921c1691908390611b83816084810161160e565b51925af1611b8f61130c565b9015611b985750565b51611b9f57565b6000805160206120aa8339815191526040518061169e81906000602060408401938281520152565b505050565b5050565b50611bdc610366611fb6565b611b1f565b91908260409103126102b3576020825192015190565b600080611c0261198c565b600d546001600160a01b03169082604051611c378161160e6020820195632e1a7d4d60e01b8752602483019190602083019252565b51925af1611c4361130c565b9015611d0257611c5f81602080611c6594518301019101611be1565b60115590565b600b5403611cd3575b611c76611d35565b611c88600360ff196008541617600855565b611c9061202d565b7fe6e3f8167a0352c51f4a5dc639deb5c5679ccf396f92c55db62037faa0a23512601154611cc081600b54611268565b60408051928352602083019190915290a1565b60115460408051918252600060208301526000805160206120aa8339815191529190819081015b0390a1611c6e565b50611d0d6000601155565b6000805160206120aa83398151915260405180611cfa81906000602060408401938281520152565b600c54801561163457611d4a90601154611431565b60005b600e54811015611bcc577fbb7b4a454dc3493923482f07822329ed19e8244eff582cc204f8554c3620c3fd8101546001600160a01b03166000908152600f60205260409020600401829055600101611d4d565b6013549091906001600160a01b0316158015611e1b575b611bcc57611dc361198c565b8015611bc75760125460405163f2a5109f60e01b602082019081526001600160a01b03958616602483015260448201939093526064810193909352600093849360089290921c1691908390611b83816084810161160e565b50611e27610366611fb6565b611db7565b600e548015611e8157600e5460001982019160009183101561149d57600e918290527fbb7b4a454dc3493923482f07822329ed19e8244eff582cc204f8554c3620c3fc0180546001600160a01b031916905555565b634e487b7160e01b600052603160045260246000fd5b8015610f3f576000190190565b6001600160a01b0381166000908152600f60209081526040808320600181018054858355908590556002820185905560038201859055600490910184905560109092528220805460ff19169055905b600e5480821015611fa657611f1f611f0a83611482565b905460039190911b1c6001600160a01b031690565b6001600160a01b03858116911614611f3a5750600101611ef3565b6112fb9350610c889291611f64611f5e611f0a611f59611f88956116f8565b611482565b91611482565b81546001600160a01b0393841660039290921b91821b9390911b1916919091179055565b611f90611e2c565b611f9e610c74600c54611e97565b600b54611707565b50506112fb9150610c8890611f90565b60125460081c6001600160a01b03168015611466573b151590565b929190926060810160608252600e548091526080820190600e60005260206000209060005b81811061200e57505050602082019490945260400152565b82546001600160a01b0316845260209093019260019283019201611ff6565b6013546001600160a01b0316158015612098575b6112fb5761204d61198c565b801561163457600e541561163457601254600091829160081c6001600160a01b0316908261160e611b83601154604051928391602083019663035f52c560e31b885260248401611fd1565b506120a4610366611fb6565b61204156feb5caada44c21534f899b80931d6822af878c135819ecf2b62cfb2b81d7f299d4a26469706673582212208265ec04d668f9d5ae812c97b4996e8f43f745e45281fc9dc5b7c03c153d0a9664736f6c634300081c00332f8788117e7eff1d82e926ec794901d17c78024a50270940304540a733656f0d329977736520969c9868a184f64244da927a0462c6cb802bad0ae0d6d568ac82aae065819044e7c1f6f3a25fcf56eec95d9ef9dcbfbb8eb1f8a4a273b3bd0146ad3228b676f7d3cd4284a5443f17f1962b36e491b30a40b2405849e597ba5fb5",
  "linkReferences": {},
  "deployedLinkReferences": {}
}