{
  "_format": "hh-sol-artifact-1",
  "contractName": "PoolFactory",
  "sourceName": "contracts/PoolFactory.sol",
  "abi": [
    {
      "inputs": [
        {
          "internalType": "address",
          "name": "admin",
          "type": "address"
        },
        {
          "internalType": "address",
          "name": "badgeContract",
          "type": "address"
        },
        {
          "internalType": "address",
          "name": "lotteryManager",
          "type": "address"
        }
      ],
      "stateMutability": "nonpayable",
      "type": "constructor"
    },
    {
      "inputs": [],
      "name": "AccessControlBadConfirmation",
      "type": "error"
    },
    {
      "inputs": [
        {
          "internalType": "address",
          "name": "account",
          "type": "address"
        },
        {
          "internalType": "bytes32",
          "name": "neededRole",
          "type": "bytes32"
        }
      ],
      "name": "AccessControlUnauthorizedAccount",
      "type": "error"
    },
    {
      "inputs": [],
      "name": "FactoryPaused",
      "type": "error"
    },
    {
      "inputs": [
        {
          "internalType": "string",
          "name": "constraint",
          "type": "string"
        }
      ],
      "name": "InvalidConstraintValue",
      "type": "error"
    },
    {
      "inputs": [
        {
          "internalType": "uint256",
          "name": "amount",
          "type": "uint256"
        }
      ],
      "name": "InvalidContribution",
      "type": "error"
    },
    {
      "inputs": [
        {
          "internalType": "uint256",
          "name": "duration",
          "type": "uint256"
        }
      ],
      "name": "InvalidDuration",
      "type": "error"
    },
    {
      "inputs": [
        {
          "internalType": "uint256",
          "name": "count",
          "type": "uint256"
        }
      ],
      "name": "InvalidMemberCount",
      "type": "error"
    },
    {
      "inputs": [
        {
          "internalType": "address",
          "name": "yieldManager",
          "type": "address"
        }
      ],
      "name": "InvalidYieldManager",
      "type": "error"
    },
    {
      "inputs": [
        {
          "internalType": "uint256",
          "name": "maxPools",
          "type": "uint256"
        }
      ],
      "name": "MaxActivePoolsPerCreatorReached",
      "type": "error"
    },
    {
      "inputs": [
        {
          "internalType": "uint256",
          "name": "maxPools",
          "type": "uint256"
        }
      ],
      "name": "MaxPoolsPerCreatorReached",
      "type": "error"
    },
    {
      "inputs": [
        {
          "internalType": "uint256",
          "name": "maxPools",
          "type": "uint256"
        }
      ],
      "name": "MaxPoolsReached",
      "type": "error"
    },
    {
      "inputs": [],
      "name": "PoolCreationFailed",
      "type": "error"
    },
    {
      "inputs": [
        {
          "internalType": "uint256",
          "name": "minInterval",
          "type": "uint256"
        }
      ],
      "name": "PoolCreationTooFrequent",
      "type": "error"
    },
    {
      "inputs": [],
      "name": "PoolNameEmpty",
      "type": "error"
    },
    {
      "inputs": [
        {
          "internalType": "uint256",
          "name": "poolId",
          "type": "uint256"
        }
      ],
      "name": "PoolNotFound",
      "type": "error"
    },
    {
      "inputs": [],
      "name": "ReentrancyGuardReentrantCall",
      "type": "error"
    },
    {
      "inputs": [],
      "name": "UnauthorizedAccess",
      "type": "error"
    },
    {
      "anonymous": false,
      "inputs": [
        {
          "indexed": true,
          "internalType": "address",
          "name": "admin",
          "type": "address"
        },
        {
          "components": [
            {
              "internalType": "uint256",
              "name": "maxTotalPools",
              "type": "uint256"
            },
            {
              "internalType": "uint256",
              "name": "maxPoolsPerCreator",
              "type": "uint256"
            },
            {
              "internalType": "uint256",
              "name": "maxActivePoolsPerCreator",
              "type": "uint256"
            },
            {
              "internalType": "uint256",
              "name": "minTimeBetweenPools",
              "type": "uint256"
            },
            {
              "internalType": "bool",
              "name": "enforceConstraints",
              "type": "bool"
            }
          ],
          "indexed": false,
          "internalType": "struct PoolFactory.GlobalConstraints",
          "name": "newConstraints",
          "type": "tuple"
        }
      ],
      "name": "GlobalConstraintsUpdated",
      "type": "event"
    },
    {
      "anonymous": false,
      "inputs": [
        {
          "indexed": true,
          "internalType": "address",
          "name": "account",
          "type": "address"
        },
        {
          "indexed": false,
          "internalType": "bool",
          "name": "paused",
          "type": "bool"
        }
      ],
      "name": "PauseChanged",
      "type": "event"
    },
    {
      "anonymous": false,
      "inputs": [
        {
          "indexed": true,
          "internalType": "uint256",
          "name": "poolId",
          "type": "uint256"
        },
        {
          "indexed": true,
          "internalType": "address",
          "name": "poolAddress",
          "type": "address"
        },
        {
          "indexed": true,
          "internalType": "address",
          "name": "creator",
          "type": "address"
        },
        {
          "indexed": false,
          "internalType": "string",
          "name": "name",
          "type": "string"
        },
        {
          "indexed": false,
          "internalType": "uint256",
          "name": "contributionAmount",
          "type": "uint256"
        },
        {
          "indexed": false,
          "internalType": "uint256",
          "name": "maxMembers",
          "type": "uint256"
        },
        {
          "indexed": false,
          "internalType": "uint256",
          "name": "duration",
          "type": "uint256"
        }
      ],
      "name": "PoolCreated",
      "type": "event"
    },
    {
      "anonymous": false,
      "inputs": [
        {
          "indexed": false,
          "internalType": "uint256",
          "name": "totalPools",
          "type": "uint256"
        },
        {
          "indexed": false,
          "internalType": "uint256",
          "name": "activePools",
          "type": "uint256"
        },
        {
          "indexed": false,
          "internalType": "uint256",
          "name": "totalValueLocked",
          "type": "uint256"
        }
      ],
      "name": "PoolStatisticsUpdated",
      "type": "event"
    },
    {
      "anonymous": false,
      "inputs": [
        {
          "indexed": true,
          "internalType": "bytes32",
          "name": "role",
          "type": "bytes32"
        },
        {
          "indexed": true,
          "internalType": "bytes32",
          "name": "previousAdminRole",
          "type": "bytes32"
        },
        {
          "indexed": true,
          "internalType": "bytes32",
          "name": "newAdminRole",
          "type": "bytes32"
        }
      ],
      "name": "RoleAdminChanged",
      "type": "event"
    },
    {
      "anonymous": false,
      "inputs": [
        {
          "indexed": true,
          "internalType": "bytes32",
          "name": "role",
          "type": "bytes32"
        },
        {
          "indexed": true,
          "internalType": "address",
          "name": "account",
          "type": "address"
        },
        {
          "indexed": true,
          "internalType": "address",
          "name": "sender",
          "type": "address"
        }
      ],
      "name": "RoleGranted",
      "type": "event"
    },
    {
      "anonymous": false,
      "inputs": [
        {
          "indexed": true,
          "internalType": "bytes32",
          "name": "role",
          "type": "bytes32"
        },
        {
          "indexed": true,
          "internalType": "address",
          "name": "account",
          "type": "address"
        },
        {
          "indexed": true,
          "internalType": "address",
          "name": "sender",
          "type": "address"
        }
      ],
      "name": "RoleRevoked",
      "type": "event"
    },
    {
      "inputs": [],
      "name": "DEFAULT_ADMIN_ROLE",
      "outputs": [
        {
          "internalType": "bytes32",
          "name": "",
          "type": "bytes32"
        }
      ],
      "stateMutability": "view",
      "type": "function"
    },
    {
      "inputs": [],
      "name": "EMERGENCY_ADMIN_ROLE",
      "outputs": [
        {
          "internalType": "bytes32",
          "name": "",
          "type": "bytes32"
        }
      ],
      "stateMutability": "view",
      "type": "function"
    },
    {
      "inputs": [],
      "name": "MAX_CONTRIBUTION",
      "outputs": [
        {
          "internalType": "uint256",
          "name": "",
          "type": "uint256"
        }
      ],
      "stateMutability": "view",
      "type": "function"
    },
    {
      "inputs": [],
      "name": "MAX_DURATION",
      "outputs": [
        {
          "internalType": "uint256",
          "name": "",
          "type": "uint256"
        }
      ],
      "stateMutability": "view",
      "type": "function"
    },
    {
      "inputs": [],
      "name": "MAX_MEMBERS",
      "outputs": [
        {
          "internalType": "uint256",
          "name": "",
          "type": "uint256"
        }
      ],
      "stateMutability": "view",
      "type": "function"
    },
    {
      "inputs": [],
      "name": "MIN_CONTRIBUTION",
      "outputs": [
        {
          "internalType": "uint256",
          "name": "",
          "type": "uint256"
        }
      ],
      "stateMutability": "view",
      "type": "function"
    },
    {
      "inputs": [],
      "name": "MIN_DURATION",
      "outputs": [
        {
          "internalType": "uint256",
          "name": "",
          "type": "uint256"
        }
      ],
      "stateMutability": "view",
      "type": "function"
    },
    {
      "inputs": [],
      "name": "MIN_MEMBERS",
      "outputs": [
        {
          "internalType": "uint256",
          "name": "",
          "type": "uint256"
        }
      ],
      "stateMutability": "view",
      "type": "function"
    },
    {
      "inputs": [],
      "name": "POOL_CREATOR_ROLE",
      "outputs": [
        {
          "internalType": "bytes32",
          "name": "",
          "type": "bytes32"
        }
      ],
      "stateMutability": "view",
      "type": "function"
    },
    {
      "inputs": [
        {
          "internalType": "address",
          "name": "creator",
          "type": "address"
        }
      ],
      "name": "canCreatePool",
      "outputs": [
        {
          "internalType": "bool",
          "name": "canCreate",
          "type": "bool"
        },
        {
          "internalType": "string",
          "name": "reason",
          "type": "string"
        }
      ],
      "stateMutability": "view",
      "type": "function"
    },
    {
      "inputs": [
        {
          "components": [
            {
              "internalType": "string",
              "name": "name",
              "type": "string"
            },
            {
              "internalType": "uint256",
              "name": "contributionAmount",
              "type": "uint256"
            },
            {
              "internalType": "uint256",
              "name": "maxMembers",
              "type": "uint256"
            },
            {
              "internalType": "uint256",
              "name": "duration",
              "type": "uint256"
            },
            {
              "internalType": "address",
              "name": "yieldManager",
              "type": "address"
            }
          ],
          "internalType": "struct PoolFactory.PoolCreationParams",
          "name": "params",
          "type": "tuple"
        }
      ],
      "name": "createPool",
      "outputs": [
        {
          "internalType": "uint256",
          "name": "poolId",
          "type": "uint256"
        },
        {
          "internalType": "address",
          "name": "poolAddress",
          "type": "address"
        }
      ],
      "stateMutability": "nonpayable",
      "type": "function"
    },
    {
      "inputs": [
        {
          "internalType": "address",
          "name": "creator",
          "type": "address"
        }
      ],
      "name": "getActivePoolsCount",
      "outputs": [
        {
          "internalType": "uint256",
          "name": "activeCount",
          "type": "uint256"
        }
      ],
      "stateMutability": "view",
      "type": "function"
    },
    {
      "inputs": [],
      "name": "getAllPools",
      "outputs": [
        {
          "internalType": "address[]",
          "name": "pools",
          "type": "address[]"
        }
      ],
      "stateMutability": "view",
      "type": "function"
    },
    {
      "inputs": [],
      "name": "getBadgeContract",
      "outputs": [
        {
          "internalType": "address",
          "name": "badgeContract",
          "type": "address"
        }
      ],
      "stateMutability": "view",
      "type": "function"
    },
    {
      "inputs": [
        {
          "internalType": "address",
          "name": "creator",
          "type": "address"
        }
      ],
      "name": "getCreatorPools",
      "outputs": [
        {
          "internalType": "address[]",
          "name": "pools",
          "type": "address[]"
        }
      ],
      "stateMutability": "view",
      "type": "function"
    },
    {
      "inputs": [],
      "name": "getGlobalConstraints",
      "outputs": [
        {
          "components": [
            {
              "internalType": "uint256",
              "name": "maxTotalPools",
              "type": "uint256"
            },
            {
              "internalType": "uint256",
              "name": "maxPoolsPerCreator",
              "type": "uint256"
            },
            {
              "internalType": "uint256",
              "name": "maxActivePoolsPerCreator",
              "type": "uint256"
            },
            {
              "internalType": "uint256",
              "name": "minTimeBetweenPools",
              "type": "uint256"
            },
            {
              "internalType": "bool",
              "name": "enforceConstraints",
              "type": "bool"
            }
          ],
          "internalType": "struct PoolFactory.GlobalConstraints",
          "name": "constraints",
          "type": "tuple"
        }
      ],
      "stateMutability": "view",
      "type": "function"
    },
    {
      "inputs": [
        {
          "internalType": "address",
          "name": "creator",
          "type": "address"
        }
      ],
      "name": "getLastPoolCreation",
      "outputs": [
        {
          "internalType": "uint256",
          "name": "timestamp",
          "type": "uint256"
        }
      ],
      "stateMutability": "view",
      "type": "function"
    },
    {
      "inputs": [],
      "name": "getLotteryManager",
      "outputs": [
        {
          "internalType": "address",
          "name": "lotteryManager",
          "type": "address"
        }
      ],
      "stateMutability": "view",
      "type": "function"
    },
    {
      "inputs": [
        {
          "internalType": "uint256",
          "name": "poolId",
          "type": "uint256"
        }
      ],
      "name": "getPool",
      "outputs": [
        {
          "internalType": "address",
          "name": "poolAddress",
          "type": "address"
        }
      ],
      "stateMutability": "view",
      "type": "function"
    },
    {
      "inputs": [],
      "name": "getPoolCount",
      "outputs": [
        {
          "internalType": "uint256",
          "name": "count",
          "type": "uint256"
        }
      ],
      "stateMutability": "view",
      "type": "function"
    },
    {
      "inputs": [
        {
          "internalType": "address",
          "name": "poolAddress",
          "type": "address"
        }
      ],
      "name": "getPoolId",
      "outputs": [
        {
          "internalType": "uint256",
          "name": "poolId",
          "type": "uint256"
        }
      ],
      "stateMutability": "view",
      "type": "function"
    },
    {
      "inputs": [
        {
          "internalType": "uint256",
          "name": "poolId",
          "type": "uint256"
        }
      ],
      "name": "getPoolInfo",
      "outputs": [
        {
          "components": [
            {
              "internalType": "address",
              "name": "creator",
              "type": "address"
            },
            {
              "internalType": "string",
              "name": "name",
              "type": "string"
            },
            {
              "internalType": "uint256",
              "name": "contributionAmount",
              "type": "uint256"
            },
            {
              "internalType": "uint256",
              "name": "maxMembers",
              "type": "uint256"
            },
            {
              "internalType": "uint256",
              "name": "duration",
              "type": "uint256"
            },
            {
              "internalType": "enum IPool.PoolStatus",
              "name": "status",
              "type": "uint8"
            },
            {
              "internalType": "uint256",
              "name": "createdAt",
              "type": "uint256"
            },
            {
              "internalType": "uint256",
              "name": "lockedAt",
              "type": "uint256"
            },
            {
              "internalType": "uint256",
              "name": "totalFunds",
              "type": "uint256"
            },
            {
              "internalType": "uint256",
              "name": "currentMembers",
              "type": "uint256"
            },
            {
              "internalType": "address",
              "name": "yieldManager",
              "type": "address"
            }
          ],
          "internalType": "struct IPool.PoolInfo",
          "name": "info",
          "type": "tuple"
        }
      ],
      "stateMutability": "view",
      "type": "function"
    },
    {
      "inputs": [],
      "name": "getPoolStatistics",
      "outputs": [
        {
          "components": [
            {
              "internalType": "uint256",
              "name": "totalPools",
              "type": "uint256"
            },
            {
              "internalType": "uint256",
              "name": "activePools",
              "type": "uint256"
            },
            {
              "internalType": "uint256",
              "name": "completedPools",
              "type": "uint256"
            },
            {
              "internalType": "uint256",
              "name": "totalValueLocked",
              "type": "uint256"
            },
            {
              "internalType": "uint256",
              "name": "totalYieldGenerated",
              "type": "uint256"
            }
          ],
          "internalType": "struct PoolFactory.PoolStatistics",
          "name": "statistics",
          "type": "tuple"
        }
      ],
      "stateMutability": "view",
      "type": "function"
    },
    {
      "inputs": [
        {
          "internalType": "address",
          "name": "poolAddress",
          "type": "address"
        }
      ],
      "name": "getPoolStatus",
      "outputs": [
        {
          "internalType": "enum IPool.PoolStatus",
          "name": "status",
          "type": "uint8"
        }
      ],
      "stateMutability": "view",
      "type": "function"
    },
    {
      "inputs": [
        {
          "internalType": "enum IPool.PoolStatus",
          "name": "status",
          "type": "uint8"
        }
      ],
      "name": "getPoolsByStatus",
      "outputs": [
        {
          "internalType": "address[]",
          "name": "pools",
          "type": "address[]"
        }
      ],
      "stateMutability": "view",
      "type": "function"
    },
    {
      "inputs": [
        {
          "internalType": "bytes32",
          "name": "role",
          "type": "bytes32"
        }
      ],
      "name": "getRoleAdmin",
      "outputs": [
        {
          "internalType": "bytes32",
          "name": "",
          "type": "bytes32"
        }
      ],
      "stateMutability": "view",
      "type": "function"
    },
    {
      "inputs": [],
      "name": "globalConstraints",
      "outputs": [
        {
          "internalType": "uint256",
          "name": "maxTotalPools",
          "type": "uint256"
        },
        {
          "internalType": "uint256",
          "name": "maxPoolsPerCreator",
          "type": "uint256"
        },
        {
          "internalType": "uint256",
          "name": "maxActivePoolsPerCreator",
          "type": "uint256"
        },
        {
          "internalType": "uint256",
          "name": "minTimeBetweenPools",
          "type": "uint256"
        },
        {
          "internalType": "bool",
          "name": "enforceConstraints",
          "type": "bool"
        }
      ],
      "stateMutability": "view",
      "type": "function"
    },
    {
      "inputs": [
        {
          "internalType": "address",
          "name": "account",
          "type": "address"
        }
      ],
      "name": "grantPoolCreatorRole",
      "outputs": [],
      "stateMutability": "nonpayable",
      "type": "function"
    },
    {
      "inputs": [
        {
          "internalType": "bytes32",
          "name": "role",
          "type": "bytes32"
        },
        {
          "internalType": "address",
          "name": "account",
          "type": "address"
        }
      ],
      "name": "grantRole",
      "outputs": [],
      "stateMutability": "nonpayable",
      "type": "function"
    },
    {
      "inputs": [
        {
          "internalType": "bytes32",
          "name": "role",
          "type": "bytes32"
        },
        {
          "internalType": "address",
          "name": "account",
          "type": "address"
        }
      ],
      "name": "hasRole",
      "outputs": [
        {
          "internalType": "bool",
          "name": "",
          "type": "bool"
        }
      ],
      "stateMutability": "view",
      "type": "function"
    },
    {
      "inputs": [],
      "name": "isPaused",
      "outputs": [
        {
          "internalType": "bool",
          "name": "paused",
          "type": "bool"
        }
      ],
      "stateMutability": "view",
      "type": "function"
    },
    {
      "inputs": [
        {
          "internalType": "address",
          "name": "poolAddress",
          "type": "address"
        }
      ],
      "name": "isValidPool",
      "outputs": [
        {
          "internalType": "bool",
          "name": "isValid",
          "type": "bool"
        }
      ],
      "stateMutability": "view",
      "type": "function"
    },
    {
      "inputs": [
        {
          "internalType": "address[]",
          "name": "members",
          "type": "address[]"
        },
        {
          "internalType": "uint256",
          "name": "poolId",
          "type": "uint256"
        },
        {
          "internalType": "uint256",
          "name": "totalYield",
          "type": "uint256"
        }
      ],
      "name": "mintPoolCompletionBadges",
      "outputs": [],
      "stateMutability": "nonpayable",
      "type": "function"
    },
    {
      "inputs": [
        {
          "internalType": "address",
          "name": "creator",
          "type": "address"
        },
        {
          "internalType": "uint256",
          "name": "poolId",
          "type": "uint256"
        },
        {
          "internalType": "uint256",
          "name": "contributionAmount",
          "type": "uint256"
        }
      ],
      "name": "mintPoolCreatorBadge",
      "outputs": [],
      "stateMutability": "nonpayable",
      "type": "function"
    },
    {
      "inputs": [
        {
          "internalType": "address",
          "name": "member",
          "type": "address"
        },
        {
          "internalType": "uint256",
          "name": "poolId",
          "type": "uint256"
        },
        {
          "internalType": "uint256",
          "name": "contribution",
          "type": "uint256"
        }
      ],
      "name": "mintPoolMemberBadge",
      "outputs": [],
      "stateMutability": "nonpayable",
      "type": "function"
    },
    {
      "inputs": [],
      "name": "poolStatistics",
      "outputs": [
        {
          "internalType": "uint256",
          "name": "totalPools",
          "type": "uint256"
        },
        {
          "internalType": "uint256",
          "name": "activePools",
          "type": "uint256"
        },
        {
          "internalType": "uint256",
          "name": "completedPools",
          "type": "uint256"
        },
        {
          "internalType": "uint256",
          "name": "totalValueLocked",
          "type": "uint256"
        },
        {
          "internalType": "uint256",
          "name": "totalYieldGenerated",
          "type": "uint256"
        }
      ],
      "stateMutability": "view",
      "type": "function"
    },
    {
      "inputs": [
        {
          "internalType": "bytes32",
          "name": "role",
          "type": "bytes32"
        },
        {
          "internalType": "address",
          "name": "callerConfirmation",
          "type": "address"
        }
      ],
      "name": "renounceRole",
      "outputs": [],
      "stateMutability": "nonpayable",
      "type": "function"
    },
    {
      "inputs": [
        {
          "internalType": "address",
          "name": "account",
          "type": "address"
        }
      ],
      "name": "revokePoolCreatorRole",
      "outputs": [],
      "stateMutability": "nonpayable",
      "type": "function"
    },
    {
      "inputs": [
        {
          "internalType": "bytes32",
          "name": "role",
          "type": "bytes32"
        },
        {
          "internalType": "address",
          "name": "account",
          "type": "address"
        }
      ],
      "name": "revokeRole",
      "outputs": [],
      "stateMutability": "nonpayable",
      "type": "function"
    },
    {
      "inputs": [
        {
          "internalType": "address",
          "name": "badgeContract",
          "type": "address"
        }
      ],
      "name": "setBadgeContract",
      "outputs": [],
      "stateMutability": "nonpayable",
      "type": "function"
    },
    {
      "inputs": [
        {
          "internalType": "address",
          "name": "lotteryManager",
          "type": "address"
        }
      ],
      "name": "setLotteryManager",
      "outputs": [],
      "stateMutability": "nonpayable",
      "type": "function"
    },
    {
      "inputs": [
        {
          "internalType": "bool",
          "name": "paused",
          "type": "bool"
        }
      ],
      "name": "setPaused",
      "outputs": [],
      "stateMutability": "nonpayable",
      "type": "function"
    },
    {
      "inputs": [
        {
          "internalType": "bytes4",
          "name": "interfaceId",
          "type": "bytes4"
        }
      ],
      "name": "supportsInterface",
      "outputs": [
        {
          "internalType": "bool",
          "name": "",
          "type": "bool"
        }
      ],
      "stateMutability": "view",
      "type": "function"
    },
    {
      "inputs": [
        {
          "components": [
            {
              "internalType": "uint256",
              "name": "maxTotalPools",
              "type": "uint256"
            },
            {
              "internalType": "uint256",
              "name": "maxPoolsPerCreator",
              "type": "uint256"
            },
            {
              "internalType": "uint256",
              "name": "maxActivePoolsPerCreator",
              "type": "uint256"
            },
            {
              "internalType": "uint256",
              "name": "minTimeBetweenPools",
              "type": "uint256"
            },
            {
              "internalType": "bool",
              "name": "enforceConstraints",
              "type": "bool"
            }
          ],
          "internalType": "struct PoolFactory.GlobalConstraints",
          "name": "newConstraints",
          "type": "tuple"
        }
      ],
      "name": "updateGlobalConstraints",
      "outputs": [],
      "stateMutability": "nonpayable",
      "type": "function"
    },
    {
      "inputs": [
        {
          "internalType": "address",
          "name": "poolAddress",
          "type": "address"
        },
        {
          "internalType": "enum IPool.PoolStatus",
          "name": "newStatus",
          "type": "uint8"
        }
      ],
      "name": "updatePoolStatus",
      "outputs": [],
      "stateMutability": "nonpayable",
      "type": "function"
    }
  ],
  "bytecode": "0x6080604052346101d557604051601f615e5838819003918201601f19168301916001600160401b038311848410176101da578084926060946040528339810103126101d55761004d8161020f565b90610066604061005f6020840161020f565b920161020f565b60018055916001600160a01b038116156101c4578061008761009792610223565b506100918161029f565b50610337565b50600c80546001600160a01b039283166001600160a01b031991821617909155600d8054939092169216919091179055600080516020615df8833981519152600081815260208190527f7d21986f97b64cd2d9c36c5f357e46868c76c53128809cf5af679c0bf9c6ed9f80549082905590917fbd79b86ffe0ab8e8776151514217cd7cacd52c909f66475c3af44e129f0b00ff8380a4600160806101396101f0565b612710815260326020820152600a6040820152610e10606082015201526127106002556032600355600a600455610e10600555600160ff196006541617600655600060806101856101f0565b82815282602082015282604082015282606082015201526000600755600060085560006009556000600a556000600b556040516159fa90816103be8239f35b631a27eac360e11b60005260046000fd5b600080fd5b634e487b7160e01b600052604160045260246000fd5b6040519060a082016001600160401b038111838210176101da57604052565b51906001600160a01b03821682036101d557565b6001600160a01b0381166000908152600080516020615e38833981519152602052604090205460ff16610299576001600160a01b03166000818152600080516020615e3883398151915260205260408120805460ff19166001179055339190600080516020615db88339815191528180a4600190565b50600090565b6001600160a01b0381166000908152600080516020615e18833981519152602052604090205460ff16610299576001600160a01b03166000818152600080516020615e1883398151915260205260408120805460ff191660011790553391907f5358bcfd81d1ef3da152b1755e1c3c6739686fa7e83dbcad0071568cc4b73a6390600080516020615db88339815191529080a4600190565b6001600160a01b0381166000908152600080516020615dd8833981519152602052604090205460ff16610299576001600160a01b03166000818152600080516020615dd883398151915260205260408120805460ff19166001179055339190600080516020615df883398151915290600080516020615db88339815191529080a460019056fe6080604052600436101561001257600080fd5b60003560e01c806301ffc9a7146102e7578063068bcd8d146102e257806312e320d2146102dd57806315d9d2f9146102d857806316c38b3c146102d35780631afa9628146102ce578063248a9ca3146102c95780632f2ff15d146102c45780632f380b35146102bf57806331ad3dde146102ba578063327e378f146102b557806336568abe146102b05780633f3d69e3146102ab57806340650c91146102a657806347d212da146102a15780635ab78ee11461029c5780635f669d41146102975780635f75e359146102925780636e76fc8f1461028d57806370656fe414610288578063855cdf2814610283578063876d50c11461027e5780638a6e4b57146102795780638eec5d701461027457806391d148541461026f57806394d95f8f1461026a5780639f0c820414610265578063a217fddf14610260578063a55ba3b31461025b578063b09728a514610256578063b1724b4614610251578063b187bd261461024c578063b6a6d17714610247578063b98346f214610242578063ba3194ed1461023d578063c390cd7714610238578063c69c302a14610233578063caa9a08d1461022e578063d547741f14610229578063d69a48ee14610224578063d88ff1f41461021f578063d9a672201461021a578063e86c24f914610215578063ea0e35b1146102105763f2a5109f1461020b57600080fd5b6118dc565b6118c0565b61183e565b611822565b6117fa565b6117cd565b61178a565b611744565b611700565b6116c3565b61163f565b6115f8565b6115da565b6115b7565b611598565b61155d565b61151d565b611501565b6114c4565b6114a0565b61144a565b61142c565b611252565b611229565b6111e4565b6111bb565b611180565b61106b565b611011565b610faf565b610f68565b610f46565b610e34565b610de0565b6109bb565b61090c565b610804565b6106cd565b610698565b610600565b610496565b610418565b6103a5565b610342565b3461033d57602036600319011261033d5760043563ffffffff60e01b811680910361033d57602090637965db0b60e01b811490811561032c575b506040519015158152f35b6301ffc9a760e01b14905038610321565b600080fd5b3461033d57602036600319011261033d576004356000818152601060205260409020546001600160a01b0316801561037f57602090604051908152f35b506302ad881560e41b60005260045260246000fd5b6001600160a01b0381160361033d57565b3461033d57602036600319011261033d576103d26004356103c581610394565b6103cd61249b565b612529565b005b634e487b7160e01b600052602160045260246000fd5b600411156103f457565b6103d4565b9060048210156103f45752565b60208101929161041691906103f9565b565b3461033d57602036600319011261033d5760043561043581610394565b6001600160a01b03166000818152601160205260409020541561047657600052601560205261047260ff6040600020541660405191829182610406565b0390f35b6302ad881560e41b600052600060045260246000fd5b8015150361033d57565b3461033d57602036600319011261033d576004356104b38161048c565b3360009081527f329977736520969c9868a184f64244da927a0462c6cb802bad0ae0d6d568ac82602052604090205460ff161561052957151560ff196016541660ff8216176016556040519081527fb10cf107ab53f31a52bd0f36488303c6c8a0dc518d7673e408e81cebf1cd544d60203392a2005b63e2517d3f60e01b600052336004527f5358bcfd81d1ef3da152b1755e1c3c6739686fa7e83dbcad0071568cc4b73a6360245260446000fd5b634e487b7160e01b600052604160045260246000fd5b610160810190811067ffffffffffffffff82111761059557604052565b610562565b60a0810190811067ffffffffffffffff82111761059557604052565b90601f8019910116810190811067ffffffffffffffff82111761059557604052565b60405190610416610160836105b6565b67ffffffffffffffff81116105955760051b60200190565b3461033d57606036600319011261033d5760043567ffffffffffffffff811161033d573660238201121561033d5780600401359061063d826105e8565b9161064b60405193846105b6565b8083526024602084019160051b8301019136831161033d57602401905b82821061067e576103d260443560243586611a83565b60208091833561068d81610394565b815201910190610668565b3461033d57602036600319011261033d5760206106c5600435600052600060205260016040600020015490565b604051908152f35b3461033d57604036600319011261033d576103d26024356004356106f082610394565b61071061070b82600052600060205260016040600020015490565b6124ee565b6125e2565b60005b8381106107285750506000910152565b8181015183820152602001610718565b9060209161075181518092818552858086019101610715565b601f01601f1916010190565b602080825282516001600160a01b031690820152610801906101606101406107946020860151836040860152610180850190610738565b946040810151606085015260608101516080850152608081015160a08501526107c560a082015160c08601906103f9565b60c081015160e085015260e081015161010085015261010081015161012085015261012081015182850152015191019060018060a01b03169052565b90565b3461033d57602036600319011261033d57600435600061014060405161082981610578565b828152606060208201528260408201528260608201528260808201528260a08201528260c08201528260e08201528261010082015282610120820152015260018060a01b03610892610885836000526010602052604060002090565b546001600160a01b031690565b169081156108f757604051630c048d9160e31b8152600081600481865afa80156108f257610472916000916108cf575b506040519182918261075d565b6108ec91503d806000833e6108e481836105b6565b810190611cf2565b826108c2565b611a77565b6302ad881560e41b60005260045260245b6000fd5b3461033d57600036600319011261033d57610925611dc4565b506104726040516109358161059a565b600254815260035460208201526004546040820152600554606082015260ff60065416151560808201526040519182918291909160808060a08301948051845260208101516020850152604081015160408501526060810151606085015201511515910152565b60a090600319011261033d57600490565b908160a091031261033d5790565b3461033d57602036600319011261033d5760043567ffffffffffffffff811161033d576109ec9036906004016109ad565b600260015414610dcf57600260015560165460ff16610dbe57610a0e81612672565b610a1733612785565b610a22600e54611def565b610a2b81600e55565b610a358280611e03565b604084013591602085013591606086013591610a5360808801611e36565b600c549092906001600160a01b0316600d546001600160a01b03169060405194612e37938487019087821067ffffffffffffffff831117610595578a8a8a928a99610aa499612b6e8c393395611e61565b03906000f080156108f2576001600160a01b0316948515610dad5785928592610c1d610c0c7fc0b0e59209ea88ad9c9fbc66fb25ca843a4089b4279573a8067d82db5a95bf4894610b2288610b03896000526010602052604060002090565b80546001600160a01b0319166001600160a01b03909216919091179055565b6001600160a01b0388166000908152601160205260409020879055610b4688611eba565b336000908152601260205260409020610b60908990611f1e565b336000908152601360209081526040808320429055601490915290208054610b8790611def565b90556001600160a01b0388166000908152601560205260409020805460ff19169055610bbc610bb7600754611def565b600755565b610bcf610bca600854611def565b600855565b600d546001600160a01b031680610d37575b50600c54610bff906001600160a01b03165b6001600160a01b031690565b80610c85575b5080611e03565b929097604051948594339a86611fc2565b0390a4600754600854600a54604080519384526020840192909252908201527fa903350a76439c821e3481f6350dab5c2bb11eefe3e2ce97053501d0e1f03d6590606090a1610c6b60018055565b604080519182526001600160a01b03929092166020820152f35b610d01906020906001600160a01b031660405190610cdf82610cd142868301919060408352600c60408401526b2837b7b61021b932b0ba37b960a11b6060840152602060808401930152565b03601f1981018452836105b6565b8860008c60405196879586948593631cb722ef60e11b855233600486016119b3565b03925af115610c0557610d2b9060203d602011610d30575b610d2381836105b6565b8101906119a4565b610c05565b503d610d19565b604051632f2ff15d60e01b602082019081527fb8179c2726c8d8961ef054875ab3f4c1c3d34e1cb429c3d5e0bc97958e4cab9d60248301526001600160a01b038b16604480840191909152825260009283929091908390610d996064826105b6565b51925af150610da6611f92565b5038610be1565b6337200b1d60e21b60005260046000fd5b633461791360e11b60005260046000fd5b633ee5aeb560e01b60005260046000fd5b3461033d57604036600319011261033d57600435602435610e0081610394565b336001600160a01b03821603610e19576103d29161297f565b63334bd91960e11b60005260046000fd5b6004111561033d57565b3461033d57604036600319011261033d57600435610e5181610394565b602435610e5d81610e2a565b336001600160a01b038316141580610f0d575b610efc576001600160a01b03821660009081526011602052604090205415610ee6576001600160a01b03821660009081526015602052604090206103d29290610ebb905b5460ff1690565b90610ee183610edc8360018060a01b03166000526015602052604060002090565b611f65565b612a13565b6302ad881560e41b600090815260045260246000fd5b631a27eac360e11b60005260046000fd5b503360009081527fad3228b676f7d3cd4284a5443f17f1962b36e491b30a40b2405849e597ba5fb5602052604090205460ff1615610e70565b3461033d57600036600319011261033d576020604051662386f26fc100008152f35b3461033d57602036600319011261033d57600435610f8581610394565b610f8d61249b565b600c80546001600160a01b0319166001600160a01b0392909216919091179055005b3461033d57602036600319011261033d57600435610fcc81610394565b60018060a01b0316600052601160205260206040600020541515604051908152f35b606090600319011261033d5760043561100681610394565b906024359060443590565b3461033d576103d261102236610fee565b91611feb565b602060408183019282815284518094520192019060005b81811061104c5750505090565b82516001600160a01b031684526020938401939092019160010161103f565b3461033d57602036600319011261033d5760043561108881610e2a565b6110906120b8565b9081519161109d836105e8565b926110ab60405194856105b6565b8084526110ba601f19916105e8565b0136602085013760009260005b825181101561116f5783611105610eb46001600160a01b036110e9858861198b565b51166001600160a01b0316600090815260156020526040902090565b61110e826103ea565b611117816103ea565b14611125575b6001016110c7565b9361116760019161116261114961113c898861198b565b516001600160a01b031690565b611153838761198b565b6001600160a01b039091169052565b611def565b94905061111d565b848252604051806104728482611028565b3461033d57600036600319011261033d5760206040517f5358bcfd81d1ef3da152b1755e1c3c6739686fa7e83dbcad0071568cc4b73a638152f35b3461033d57600036600319011261033d57600d546040516001600160a01b039091168152602090f35b3461033d57600036600319011261033d5760a06002546003546004546005549060ff600654169260405194855260208501526040840152606083015215156080820152f35b3461033d57600036600319011261033d57600c546040516001600160a01b039091168152602090f35b3461033d5760a036600319011261033d5761126c3661099c565b61127461249b565b8035156113e65760208101358015611396576040820135801561134057116112d45761129f8161210c565b7f89d0adfa87bb49222e2c5dd9286f0262f4a1a036f5ad662150f1ed505a962689604051806112cf339482612148565b0390a2005b604051639acfe81f60e01b815260206004820152603960248201527f6d6178416374697665506f6f6c7350657243726561746f722063616e6e6f742060448201527f657863656564206d6178506f6f6c7350657243726561746f72000000000000006064820152608490fd5b604051639acfe81f60e01b815260206004820152602760248201527f6d6178416374697665506f6f6c7350657243726561746f722063616e6e6f74206044820152666265207a65726f60c81b6064820152608490fd5b604051639acfe81f60e01b815260206004820152602160248201527f6d6178506f6f6c7350657243726561746f722063616e6e6f74206265207a65726044820152606f60f81b6064820152608490fd5b604051639acfe81f60e01b815260206004820152601c60248201527f6d6178546f74616c506f6f6c732063616e6e6f74206265207a65726f000000006044820152606490fd5b3461033d57600036600319011261033d576020600e54604051908152f35b3461033d57604036600319011261033d57602060ff61149460243560043561147182610394565b6000526000845260406000209060018060a01b0316600052602052604060002090565b54166040519015158152f35b3461033d57600036600319011261033d57602060405168056bc75e2d631000008152f35b3461033d57602036600319011261033d576004356114e181610394565b60018060a01b031660005260146020526020604060002054604051908152f35b3461033d57600036600319011261033d57602060405160008152f35b3461033d57600036600319011261033d5760a0600754600854600954600a5490600b54926040519485526020850152604084015260608301526080820152f35b3461033d57600036600319011261033d5760206040517f4066b03ab177190abcd4de6384e71f7a60f56b879537b65d43a0523ade6cfe528152f35b3461033d57600036600319011261033d5760206040516301e133808152f35b3461033d57600036600319011261033d57602060ff601654166040519015158152f35b3461033d57600036600319011261033d57602060405162093a808152f35b3461033d57602036600319011261033d5760043561161581610394565b61161d61249b565b600d80546001600160a01b0319166001600160a01b0392909216919091179055005b3461033d57600036600319011261033d57611658611dc4565b506040516116658161059a565b600754815260085460208201526009546040820152600a546060820152600b5460808201526040518091608060a083019180518452602081015160208501526040810151604085015260608101516060850152015160808301520390f35b3461033d57602036600319011261033d576004356116e081610394565b60018060a01b031660005260136020526020604060002054604051908152f35b3461033d57602036600319011261033d5761172560043561172081610394565b61229b565b9061047260405192839215158352604060208401526040830190610738565b3461033d57602036600319011261033d5760043561176181610394565b6001600160a01b0316600090815260116020526040902054801561047657602090604051908152f35b3461033d57604036600319011261033d576103d26024356004356117ad82610394565b6117c861070b82600052600060205260016040600020015490565b61297f565b3461033d57602036600319011261033d576103d26004356117ed81610394565b6117f561249b565b6128d7565b3461033d57600036600319011261033d576104726118166120b8565b60405191829182611028565b3461033d57600036600319011261033d57602060405160028152f35b3461033d57602036600319011261033d5760043561185b81610394565b60018060a01b031660005260126020526040600020604051908054808352602083019160005260206000209060005b8181106118a15761047285611816818703826105b6565b82546001600160a01b031684526020909301926001928301920161188a565b3461033d57600036600319011261033d57602060405160648152f35b3461033d576103d26118ed36610fee565b916123e8565b156118fa57565b60405162461bcd60e51b815260206004820152601a60248201527f4f6e6c7920706f6f6c732063616e206d696e74206261646765730000000000006044820152606490fd5b634e487b7160e01b600052601160045260246000fd5b811561195f570490565b634e487b7160e01b600052601260045260246000fd5b634e487b7160e01b600052603260045260246000fd5b805182101561199f5760209160051b010190565b611975565b9081602091031261033d575190565b909260a0926108019594600180861b0316835260006020840152604083015260608201528160808201520190610738565b909260a0926108019594600180861b0316835260036020840152604083015260608201528160808201520190610738565b909260a0926108019594600180861b0316835260046020840152604083015260608201528160808201520190610738565b909260a0926108019594600180861b0316835260016020840152604083015260608201528160808201520190610738565b6040513d6000823e3d90fd5b3360009081526011602052604090209093929190611aa4905b5415156118f3565b600c546001600160a01b031615611c785783516000908015611c7257611acb915083611955565b60005b8551811015611c6a5780611ae761113c6001938961198b565b600c54611b6e90602090611b0590610bf3906001600160a01b031681565b60405190611b4c82610cd18c428784016040909392919360608152600e60608201526d141bdbdb0810dbdb5c1b195d195960921b608082015260a081019460208201520152565b8760008a60405196879586948593631cb722ef60e11b85528b600486016119e4565b03925af1611c4e575b5067016345785d8a0000841015611b90575b5001611ace565b600c546020908590611bac90610bf3906001600160a01b031681565b87600060405195611c0987611bfb87428a840160409093929193606081526013606082015272121a59da08165a595b19081058da1a595d9959606a1b608082015260a081019460208201520152565b03601f1981018952886105b6565b611c2960405197889687958694631cb722ef60e11b865260048601611a15565b03925af115611b8957611c499060203d8111610d3057610d2381836105b6565b611b89565b611c659060203d8111610d3057610d2381836105b6565b611b77565b505050509050565b50611acb565b50509050565b519061041682610394565b67ffffffffffffffff811161059557601f01601f191660200190565b81601f8201121561033d578051611cbb81611c89565b92611cc960405194856105b6565b8184526020828401011161033d576108019160208085019101610715565b519061041682610e2a565b60208183031261033d5780519067ffffffffffffffff821161033d57016101608183031261033d57611d226105d8565b91611d2c82611c7e565b835260208201519167ffffffffffffffff831161033d57611d5561014092611dbb948301611ca5565b6020850152604081015160408501526060810151606085015260808101516080850152611d8460a08201611ce7565b60a085015260c081015160c085015260e081015160e085015261010081015161010085015261012081015161012085015201611c7e565b61014082015290565b60405190611dd18261059a565b60006080838281528260208201528260408201528260608201520152565b6000198114611dfe5760010190565b61193f565b903590601e198136030182121561033d570180359067ffffffffffffffff821161033d5760200191813603831361033d57565b3561080181610394565b908060209392818452848401376000828201840152601f01601f1916010190565b97949160e0979491611e82919b9a97949b6101008b526101008b0191611e40565b602089019a909a52604088015260608701526001600160a01b03908116608087015290811660a086015290811660c085015216910152565b600f54600160401b811015610595576001810180600f5581101561199f57600f6000527f8d1108e10bcb7c27dddfc02ed9d693a074039d026cf4ea4240b40f7d581ac8020180546001600160a01b0319166001600160a01b03909216919091179055565b805490600160401b821015610595576001820180825582101561199f576000526020600020019060018060a01b03166bffffffffffffffffffffffff60a01b825416179055565b9060048110156103f45760ff80198354169116179055565b60405190611f8c6020836105b6565b60008252565b3d15611fbd573d90611fa382611c89565b91611fb160405193846105b6565b82523d6000602084013e565b606090565b9160609396959491611fdc91608085526080850191611e40565b95602083015260408201520152565b33600090815260116020526040902090929061200690611a9c565b600c546001600160a01b03169182156120b25760209261202e906001600160a01b0316610bf3565b9060006040519561206c87611bfb42898301919060408352600b60408401526a2837b7b6102537b4b732b960a91b6060840152602060808401930152565b61208c60405197889687958694631cb722ef60e11b865260048601611a46565b03925af16120975750565b6120af9060203d602011610d3057610d2381836105b6565b50565b50505050565b60405190600f548083528260208101600f60005260206000209260005b8181106120ea575050610416925003836105b6565b84546001600160a01b03168352600194850194879450602090930192016120d5565b8035600255602081013560035560408101356004556060810135600555608001356121368161048c565b60ff8019600654169115151617600655565b91909160808060a08301948035845260208101356020850152604081013560408501526060810135606085015201356121808161048c565b1515910152565b604051906121966040836105b6565b601b82527f4d6178696d756d20746f74616c20706f6f6c73207265616368656400000000006020830152565b604051906121d16060836105b6565b60218252601960fa1b6040837f4d6178696d756d20706f6f6c73207065722063726561746f722072656163686560208201520152565b604051906122166060836105b6565b6028825267081c995858da195960c21b6040837f4d6178696d756d2061637469766520706f6f6c73207065722063726561746f7260208201520152565b91908201809211611dfe57565b6040519061226f6040836105b6565b601a82527f506f6f6c206372656174696f6e20746f6f206672657175656e740000000000006020830152565b6122ae6122aa60065460ff1690565b1590565b6123dc5760025480151590816123cf575b506123c35760035480151590816123a0575b50612394576004548015159081612371575b50612365576005548015159182612343575b82612317575b505061230c57600190610801611f7d565b600090610801612260565b6001600160a01b0316600090815260136020526040902061233a92505b54612253565b421038806122fb565b6001600160a01b038116600090815260136020526040902054151592506122f5565b50600090610801612207565b6001600160a01b03831660009081526014602052604090205410159050386122e3565b506000906108016121c2565b6001600160a01b03831660009081526012602052604090205410159050386122d1565b50600090610801612187565b90506007541015386122bf565b50600190610801611f7d565b33600090815260116020526040902090929061240390611a9c565b600c546001600160a01b03169182156120b25760209261242b906001600160a01b0316610bf3565b9060006040519561246a87611bfb42898301919060408352600c60408401526b2837b7b61021b932b0ba37b960a11b6060840152602060808401930152565b61248a60405197889687958694631cb722ef60e11b8652600486016119b3565b03925af180156108f2576120975750565b3360009081527fad3228b676f7d3cd4284a5443f17f1962b36e491b30a40b2405849e597ba5fb5602052604090205460ff16156124d457565b63e2517d3f60e01b60005233600452600060245260446000fd5b60008181526020818152604080832033845290915290205460ff16156125115750565b63e2517d3f60e01b6000523360045260245260446000fd5b6001600160a01b03811660009081526000805160206159a5833981519152602052604090205460ff166125dc576001600160a01b03811660009081526000805160206159a583398151915260205260409020805460ff1916600117905533906001600160a01b03167f4066b03ab177190abcd4de6384e71f7a60f56b879537b65d43a0523ade6cfe527f2f8788117e7eff1d82e926ec794901d17c78024a50270940304540a733656f0d600080a4600190565b50600090565b6000818152602081815260408083206001600160a01b038616845290915290205460ff1661266b576000818152602081815260408083206001600160a01b03861684529091529020805460ff1916600117905533916001600160a01b0316907f2f8788117e7eff1d82e926ec794901d17c78024a50270940304540a733656f0d600080a4600190565b5050600090565b61267c8180611e03565b905015612774576020810135662386f26fc1000081108015612762575b61274e57506040810135600281108015612744575b6127305750606081013562093a8081108015612723575b61270f57506080016001600160a01b036126de82611e36565b16156126e75750565b6126f361090891611e36565b632e337d1f60e21b6000526001600160a01b0316600452602490565b6313b783af60e21b60005260045260246000fd5b506301e1338081116126c5565b6375a6cbdd60e01b60005260045260246000fd5b50606481116126ae565b635ac3ef8160e11b60005260045260246000fd5b5068056bc75e2d631000008111612699565b631c61bbb560e01b60005260046000fd5b6127946122aa60065460ff1690565b6120af57600254801515806128cb575b6128b7575060035480151580612894575b61288057506004548015158061285d575b612849575060055490818015159182612827575b826127fd575b50506127e95750565b6398bfc6e960e01b60005260045260246000fd5b6001600160a01b0316600090815260136020526040902061281e9250612334565b421081386127e0565b6001600160a01b038116600090815260136020526040902054151592506127da565b63309d213b60e11b60005260045260246000fd5b506001600160a01b038216600090815260146020526040902081905410156127c6565b63fc807da560e01b60005260045260246000fd5b506001600160a01b038216600090815260126020526040902081905410156127b5565b63474a7cbf60e11b60005260045260246000fd5b508060075410156127a4565b6001600160a01b03811660009081526000805160206159a5833981519152602052604090205460ff16156125dc576001600160a01b031660008181526000805160206159a583398151915260205260408120805460ff191690553391907f4066b03ab177190abcd4de6384e71f7a60f56b879537b65d43a0523ade6cfe52907ff6391f5c32d9c69d2a47ea670b442974b53935d1edc7fd64eb21e047a839171b9080a4600190565b6000818152602081815260408083206001600160a01b038616845290915290205460ff161561266b576000818152602081815260408083206001600160a01b03861684529091529020805460ff1916905533916001600160a01b0316907ff6391f5c32d9c69d2a47ea670b442974b53935d1edc7fd64eb21e047a839171b600080a4600190565b8015611dfe576000190190565b604051630c048d9160e31b815291929190600090829060049082906001600160a01b03165afa80156108f257612a5991600091612b52575b50516001600160a01b031690565b91612a63816103ea565b8015908115612b3d575b8115612b29575b50612ac0575b5050600754600854600a54604080519384526020840192909252908201527fa903350a76439c821e3481f6350dab5c2bb11eefe3e2ce97053501d0e1f03d6590606090a1565b80612acc6003926103ea565b14612ad8575b80612a7a565b612b1790612aea610bca600854612a06565b612afd612af8600954611def565b600955565b6001600160a01b0316600090815260146020526040902090565b612b218154612a06565b905538612ad2565b60029150612b36816103ea565b1438612a74565b9050612b48816103ea565b6001811490612a6d565b612b6791503d806000833e6108e481836105b6565b38612a4b56fe60806040523461048857612e37803803806100198161048d565b928339810190610100818303126104885780516001600160401b03811161048857810182601f82011215610488578051906001600160401b0382116104135761006b601f8301601f191660200161048d565b93828552602083830101116104885760005b8281106104735750506020600091840101526020810151916040820151926060830151936100ad608085016104b2565b946100ba60a086016104b2565b946100d360e06100cc60c084016104b2565b92016104b2565b600180556001600160a01b038816969091908715610462576001600160a01b03169788156104625760ff601254166104515786511561042957851561042957600285108015610447575b61042957620151808410801561043a575b610429578061013f610145926104c6565b50610542565b5061014f336105da565b5060128054610100600160a81b0319163360081b610100600160a81b0316179055601380546001600160a01b03199081166001600160a01b039384161790915560148054909116929091169190911790556040519461016086016001600160401b038111878210176104135760405285526020850193845260408501928352606085019182526080850190815260a08501906000825260c086019242845260e0870194600086526101008801966000885261012089019860008a5261014081019a8b5260018060a01b0390511660018060a01b031960035416176003555180519060018060401b0382116104135760045490600182811c92168015610409575b60208310146103f35781601f849311610383575b50602090601f831160011461031b57600092610310575b50508160011b916000199060031b1c1916176004555b5160055551600655516007555160048110156102fa5760ff8019600854169116176008555160095551600a5551600b5551600c5560018060a01b0390511660018060a01b0319600d541617600d55600160ff19601254161760125560405161274490816106738239f35b634e487b7160e01b600052602160045260246000fd5b01519050388061027a565b600460009081528281209350601f198516905b81811061036b5750908460019594939210610352575b505050811b01600455610290565b015160001960f88460031b161c19169055388080610344565b9293602060018192878601518155019501930161032e565b60046000529091507f8a35acfbc15ff81a39ae7d344fd709f28e8600b4aa8c65c6b64bfe7fe36bd19b601f840160051c810191602085106103e9575b90601f859493920160051c01905b8181106103da5750610263565b600081558493506001016103cd565b90915081906103bf565b634e487b7160e01b600052602260045260246000fd5b91607f169161024f565b634e487b7160e01b600052604160045260246000fd5b630e52390960e41b60005260046000fd5b506301e13380841161012e565b506064851161011d565b637983c05160e01b60005260046000fd5b63d92e233d60e01b60005260046000fd5b8060208092840101518282880101520161007d565b600080fd5b6040519190601f01601f191682016001600160401b0381118382101761041357604052565b51906001600160a01b038216820361048857565b6001600160a01b0381166000908152600080516020612e17833981519152602052604090205460ff1661053c576001600160a01b03166000818152600080516020612e1783398151915260205260408120805460ff19166001179055339190600080516020612db78339815191528180a4600190565b50600090565b6001600160a01b0381166000908152600080516020612dd7833981519152602052604090205460ff1661053c576001600160a01b03166000818152600080516020612dd783398151915260205260408120805460ff191660011790553391907f5358bcfd81d1ef3da152b1755e1c3c6739686fa7e83dbcad0071568cc4b73a6390600080516020612db78339815191529080a4600190565b6001600160a01b0381166000908152600080516020612df7833981519152602052604090205460ff1661053c576001600160a01b03166000818152600080516020612df783398151915260205260408120805460ff191660011790553391907fdfbefbf47cfe66b701d8cfdbce1de81c821590819cb07e71cb01b6602fb0ee2790600080516020612db78339815191529080a460019056fe6080604052600436101561001d575b366106af5761001b611a97565b005b60003560e01c806301ffc9a71461029d57806304a0fb17146102985780631db8e04f14610293578063243496711461028e578063248a9ca3146102895780632f2ff15d1461028457806336568abe1461027f57806338fff2d01461027a5780633f4ba83a146102755780634026478e146102705780635c975abb1461026b5780635f1231ea1461026657806360246c8814610261578063647bff481461025c5780636c459b61146102575780636cbb721f146102525780636e76fc8f1461024d5780636ff1c9bc1461024857806370656fe4146102435780638346226c1461023e5780638371e6b4146102395780638456cb5914610234578063876d50c11461022f57806391d148541461022a5780639a9935b3146102255780639e6af512146102205780639eab52531461021b578063a217fddf14610216578063a230c52414610211578063aac4987d1461020c578063bb21a99714610207578063bfffc1a814610202578063caa648b4146101fd578063ce2cf5d9146101f8578063d547741f146101f3578063dac6270d146101ee578063dcdcc983146101e9578063e0b1d267146101e4578063e6d6f7fd146101df5763f19e9d810361000e576113cb565b611351565b6112b8565b61129c565b611281565b611241565b6111f2565b6111c7565b6111a9565b611190565b61113d565b6110fe565b6110e2565b611061565b610f45565b610f26565b610ed3565b610eaa565b610e50565b610c48565b610c2d565b610c04565b610afc565b610ac1565b610a80565b610a29565b6109e2565b6108ec565b6106e3565b6106c0565b61061e565b6105b5565b61059a565b610554565b61050f565b6104ae565b61034f565b610333565b6102f8565b346102f35760203660031901126102f35760043563ffffffff60e01b81168091036102f357602090637965db0b60e01b81149081156102e2575b506040519015158152f35b6301ffc9a760e01b149050386102d7565b600080fd5b346102f35760003660031901126102f35760206040517fdfbefbf47cfe66b701d8cfdbce1de81c821590819cb07e71cb01b6602fb0ee278152f35b346102f35760003660031901126102f357602060405160648152f35b346102f35760003660031901126102f357610368611acd565b610370611aef565b60ff6008541660048110156104a95760038103610485573360009081526010602052604090206103aa906103a6905b5460ff1690565b1590565b61047457336000908152600f6020526040902060038101805460ff166104635760046001830154920154906103df82846114f2565b9081471061045257805460ff19166001179055600080808084335af1610403611596565b5015610452576040805193845260208401929092529082015233907f2fd1e546181ffabf6481547aaef86d68a6eb14b1ef9bc7324c3aeff09bc295aa9080606081015b0390a261001b60018055565b6327fcd9d160e01b60005260046000fd5b636507689f60e01b60005260046000fd5b63148fe22160e11b60005260046000fd5b633bf2e2f960e11b6000526104999061082a565b6104a36003602452565b60446000fd5b61080a565b346102f35760203660031901126102f35760206104db600435600052600060205260016040600020015490565b604051908152f35b602435906001600160a01b03821682036102f357565b600435906001600160a01b03821682036102f357565b346102f35760403660031901126102f35761001b60043561052e6104e3565b9061054f61054a82600052600060205260016040600020015490565b611b7e565b611bb9565b346102f35760403660031901126102f3576004356105706104e3565b336001600160a01b038216036105895761001b91611c49565b63334bd91960e11b60005260046000fd5b346102f35760003660031901126102f35760206104db611cd0565b346102f35760003660031901126102f3576105ce611b0c565b60025460ff81161561060d5760ff19166002557f5db9ee0a495bf2e6ff9c91a7834c1ba4fdd244a5e8aa4e537bd38aeae4b073aa6020604051338152a1005b638dfc202b60e01b60005260046000fd5b346102f35760003660031901126102f3576003546001600160a01b031633036106af57610649611acd565b610651611aef565b60ff6008541660048110156104a95780610691576002600c541061068057610677611d63565b61001b60018055565b63e2155f6960e01b60005260046000fd5b633bf2e2f960e11b6000526106a59061082a565b6104a36000602452565b631a27eac360e11b60005260046000fd5b346102f35760003660031901126102f357602060ff600254166040519015158152f35b346102f35760203660031901126102f3576106fc6104f9565b6000608060405161070c81611515565b828152826020820152826040820152826060820152015260018060a01b0316600052600f6020526107c5604060002060046040519161074a83611515565b60018060a01b038154168352600181015460208401526002810154604084015260ff60038201541615156060840152015460808201526040519182918291909160808060a083019460018060a01b03815116845260208101516020850152604081015160408501526060810151151560608501520151910152565b0390f35b919082519283825260005b8481106107f5575050826000602080949584010152601f8019910116010190565b806020809284010151828286010152016107d4565b634e487b7160e01b600052602160045260246000fd5b600411156104a957565b60048110156104a957600452565b9060048210156104a95752565b602080825282516001600160a01b0316908201526108e99061016061014061087c60208601518360408601526101808501906107c9565b946040810151606085015260608101516080850152608081015160a08501526108ad60a082015160c0860190610838565b60c081015160e085015260e081015161010085015261010081015161012085015261012081015182850152015191019060018060a01b03169052565b90565b346102f35760003660031901126102f357600061014060405161090e81611536565b828152606060208201528260408201528260608201528260808201528260a08201528260c08201528260e0820152826101008201528261012082015201526107c5610957611575565b6003546001600160a01b0316815261096d6115d6565b60208201526005546040820152600654606082015260075460808201526109a261099960085460ff1690565b60a083016116af565b60095460c0820152600a5460e0820152600b54610100820152600c54610120820152600d546001600160a01b031661014082015260405191829182610845565b346102f35760203660031901126102f35760a0610a05610a006104f9565b6116bb565b92604092919251941515855260208501526040840152606083015215156080820152f35b346102f35760003660031901126102f357610a42611b0c565b60ff6008541660048110156104a95760028103610a615761001b611e7f565b633bf2e2f960e11b600052610a759061082a565b600260245260446000fd5b346102f35760003660031901126102f35760ff6008541660048110156104a9571580610ab4575b6020906040519015158152f35b50600c5460021115610aa7565b346102f35760003660031901126102f35760206040517f5358bcfd81d1ef3da152b1755e1c3c6739686fa7e83dbcad0071568cc4b73a638152f35b346102f35760203660031901126102f357610b156104f9565b610b1d611b0c565b610b25611acd565b6001600160a01b0381166000908152601060205260409020610b4a906103a69061039f565b610474576001600160a01b0381166000908152600f60205260409020906003820190610b77825460ff1690565b610463576004600184015493015490610ba1610b9383866114f2565b845460ff1916600117909455565b6001600160a01b031692600080808086885af1610bbc611596565b5015610452576104467f2fd1e546181ffabf6481547aaef86d68a6eb14b1ef9bc7324c3aeff09bc295aa93604051938493846040919493926060820195825260208201520152565b346102f35760003660031901126102f3576014546040516001600160a01b039091168152602090f35b346102f35760003660031901126102f35760206104db611791565b60003660031901126102f357610c5c611acd565b610c64611aef565b60ff6008541660048110156104a9578061069157600554803403610e3757336000908152601060205260409020610c9a9061039f565b610e2657600c546006541115610e1557610d46610cb5611587565b3381523460208201524260408201526000606082015260006080820152610cee3360018060a01b0316600052600f602052604060002090565b90608060049160018060a01b038151166bffffffffffffffffffffffff60a01b8554161784556020810151600185015560408101516002850155600384016060820151151560ff801983541691161790550151910155565b336000908152601060205260409020610d6690805460ff19166001179055565b610d6f336117e2565b610d82610d7d600c5461183e565b600c55565b610d96610d9134600b546114f2565b600b55565b600c5460408051348152602081019290925233917fab585a62abffb5c5f3221cacd949f94b54770198cc25af3ad1d315e51be8e3e39190a2610dd83433611fa9565b600c546006541480610dff575b610df25761001b60018055565b610dfa611d63565b610677565b5060085460ff16610e0f81610820565b15610de5565b6327a01e0760e21b60005260046000fd5b6340803a5f60e11b60005260046000fd5b6357353eb960e11b6000523460045260245260445b6000fd5b346102f35760003660031901126102f357610e69611b0c565b610e71611aef565b600160ff1960025416176002557f62e78cea01bee320cd4e420270b5ea74000d11b0c9f74754ebdbfc544b05a2586020604051338152a1005b346102f35760003660031901126102f3576013546040516001600160a01b039091168152602090f35b346102f35760403660031901126102f357602060ff610f1a600435610ef66104e3565b906000526000845260406000209060018060a01b0316600052602052604060002090565b54166040519015158152f35b346102f35760003660031901126102f35760206040516301e133808152f35b346102f35760003660031901126102f357600e5447906000805b82811015611006576000805160206126cf8339815191528101546001600160a01b03166000818152600f602052604090206003015460ff1615610fa6575b50600101610f5f565b60019192610ff9826004610ff186610fd3610fff9760018060a01b0316600052600f602052604060002090565b01546001600160a01b039093166000908152600f6020526040902090565b0154906114f2565b906114f2565b9190610f9d565b60408051858152602081018490528386101591810191909152606090f35b906020808351928381520192019060005b8181106110425750505090565b82516001600160a01b0316845260209384019390920191600101611035565b346102f35760003660031901126102f357604051600e8054808352600091825260208301916000805160206126cf83398151915291905b8181106110c3576107c5856110af81870382611553565b604051918291602083526020830190611024565b82546001600160a01b0316845260209093019260019283019201611098565b346102f35760003660031901126102f357602060405160008152f35b346102f35760203660031901126102f3576001600160a01b0361111f6104f9565b166000526010602052602060ff604060002054166040519015158152f35b346102f35760003660031901126102f35760ff6008541660048110156104a95760021480611173575b6040519015158152602090f35b50600a54600754810180911161118b57421015611166565b6114dc565b346102f35760003660031901126102f35761001b6118d1565b346102f35760003660031901126102f3576020604051620151808152f35b346102f35760003660031901126102f357600b54601154810180911161118b57602090604051908152f35b346102f35760003660031901126102f35760ff6008541660048110156104a95760021480611229575b61122157005b61001b612067565b50600a54600754810180911161118b5742101561121b565b346102f35760403660031901126102f35761001b6004356112606104e3565b9061127c61054a82600052600060205260016040600020015490565b611c49565b346102f35760003660031901126102f35760206104db611a58565b346102f35760003660031901126102f357602060405160028152f35b346102f35760003660031901126102f3573360009081527faae065819044e7c1f6f3a25fcf56eec95d9ef9dcbfbb8eb1f8a4a273b3bd0146602052604090205460ff16156113185760035460055461001b916001600160a01b0316612252565b63e2517d3f60e01b600052336004527fdfbefbf47cfe66b701d8cfdbce1de81c821590819cb07e71cb01b6602fb0ee2760245260446000fd5b346102f35760003660031901126102f35761136a611acd565b611372611aef565b60ff6008541660048110156104a957600281036113b757611398600a54600754906114f2565b42106113a657610677612067565b631436150f60e11b60005260046000fd5b633bf2e2f960e11b600052610e4c906114c5565b346102f35760003660031901126102f3576113e4611acd565b6113ec611aef565b60ff6008541660048110156104a957806106915733600090815260106020526040902061141c906103a69061039f565b61047457336000908152600f602052604090206001015461143c33612356565b60085460ff1661144b81610820565b1515806114b1575b6114a3575b600080808084335af1611469611596565b50156104525760405190815233907f9346ee3b9c76468ddd2fdbfb65dae9da6e2479083b25cd80377d6809f6f8c69d908060208101610446565b6114ac33612468565b611458565b506014546001600160a01b03161515611453565b9060449160048110156104a9576004526002602452565b634e487b7160e01b600052601160045260246000fd5b9190820180921161118b57565b634e487b7160e01b600052604160045260246000fd5b60a0810190811067ffffffffffffffff82111761153157604052565b6114ff565b610160810190811067ffffffffffffffff82111761153157604052565b90601f8019910116810190811067ffffffffffffffff82111761153157604052565b6040519061158561016083611553565b565b6040519061158560a083611553565b3d156115d1573d9067ffffffffffffffff821161153157604051916115c5601f8201601f191660200184611553565b82523d6000602084013e565b606090565b604051906000600454908160011c91600181169081156116a5575b60208410821461169157838652859291602084019181156116785750600114611622575b5061158592500383611553565b6004600090815291507f8a35acfbc15ff81a39ae7d344fd709f28e8600b4aa8c65c6b64bfe7fe36bd19b5b848310611661575061158593500138611615565b80548284015286935060209092019160010161164d565b60ff191682525061158593151560051b01905038611615565b634e487b7160e01b83526022600452602483fd5b92607f16926115f1565b60048210156104a95752565b6001600160a01b03811660009081526010602052604090205460ff1615801561174c575b8015611733575b61172157600461170d6001610fd38460018060a01b0316600052600f602052604060002090565b015461171981836114f2565b804710158094565b50600090600090600090600090600090565b50600360ff6008541661174581610820565b14156116e6565b506001600160a01b0381166000908152600f602052604090206003015460ff166116df565b811561177b570490565b634e487b7160e01b600052601260045260246000fd5b600c5480156117a6576108e990601154611771565b50600090565b634e487b7160e01b600052603260045260246000fd5b600e548110156117dd57600e60005260206000200190600090565b6117ac565b600e5490680100000000000000008210156115315760018201600e55600e548210156117dd57600e6000526000805160206126cf83398151915290910180546001600160a01b0319166001600160a01b03909216919091179055565b600019811461118b5760010190565b906020825491828152019160005260206000209060005b8181106118715750505090565b82546001600160a01b0316845260209093019260019283019201611864565b60405190611585826118a381600e61184d565b0383611553565b908160209103126102f3575190565b90612710820291808304612710149015171561118b57565b60026118df60085460ff1690565b6118e881610820565b1480611a24575b611a1c5760085460ff1661190281610820565b60028114908115611a08575b5061191557565b600080611920611cd0565b600d546001600160a01b031690604051611962816119546020820194630201762160e21b8652602483019190602083019252565b03601f198101835282611553565b51915afa61196e611596565b90806119fe575b61197d575b50565b61199381602080611998945183010191016118aa565b601155565b6119a06121f9565b600b5480156119e7576119cc6000805160206126ef833981519152916119c76011546118b9565b611771565b601154604080519182526020820192909252a1611585611e7f565b506000805160206126ef83398151915260006119cc565b5080511515611975565b60039150611a1581610820565b143861190e565b611585612067565b50611a34600a54600754906114f2565b4210156118ef565b60001981019190821161118b57565b9190820391821161118b57565b60ff6008541660048110156104a957600203611a9257600a54600754810180911161118b57804210156117a65742810390811161118b5790565b600090565b600d546001600160a01b031633141580611ab2575b6106af57565b506012543360089190911c6001600160a01b03161415611aac565b600260015414611ade576002600155565b633ee5aeb560e01b60005260046000fd5b60ff60025416611afb57565b63d93c066560e01b60005260046000fd5b3360009081527f329977736520969c9868a184f64244da927a0462c6cb802bad0ae0d6d568ac82602052604090205460ff1615611b4557565b63e2517d3f60e01b600052336004527f5358bcfd81d1ef3da152b1755e1c3c6739686fa7e83dbcad0071568cc4b73a6360245260446000fd5b60008181526020818152604080832033845290915290205460ff1615611ba15750565b63e2517d3f60e01b6000523360045260245260446000fd5b6000818152602081815260408083206001600160a01b038616845290915290205460ff16611c42576000818152602081815260408083206001600160a01b03861684529091529020805460ff1916600117905533916001600160a01b0316907f2f8788117e7eff1d82e926ec794901d17c78024a50270940304540a733656f0d600080a4600190565b5050600090565b6000818152602081815260408083206001600160a01b038616845290915290205460ff1615611c42576000818152602081815260408083206001600160a01b03861684529091529020805460ff1916905533916001600160a01b0316907ff6391f5c32d9c69d2a47ea670b442974b53935d1edc7fd64eb21e047a839171b600080a4600190565b60125460081c6001600160a01b03166001600160a01b038116156117a657803b156117a6576001600160a01b031660405163caa9a08d60e01b815230600482015290602090829060249082905afa60009181611d32575b506108e95750600090565b611d5591925060203d602011611d5c575b611d4d8183611553565b8101906118aa565b9038611d27565b503d611d43565b60085460ff16611d7281610820565b61158557611d88600160ff196008541617600855565b611d9142600a55565b600b5480611ded575b50600a54600b546040805192835260208301919091527f3b4c9debfd13874e80f37195e52ad2c52e13807b61e5d15ac97a43c8c2e7dd9791a1611ddb61257a565b611585600260ff196008541617600855565b60008091611df9611cd0565b600d546001600160a01b031660405163654cfdff60e01b60208201908152602482019390935260006044820152909290611e368160648101611954565b51925af1611e42611596565b90611d9a57805115611e5657805190602001fd5b63ab04572f60e01b60005260046000fd5b908160209103126102f3575180151581036102f35790565b6014546001600160a01b0316801561197a576002611e9f60085460ff1690565b611ea881610820565b0361197a57611eb5611cd0565b8015611f975760405163400ca15560e11b6020820190815260248201839052600091829190611ee78160448101611954565b5190855afa611ef4611596565b90158015611fa0575b611f9b576103a681602080611f1794518301019101611e67565b611f97576011546040516331b0bfa360e01b6020820190815260248201939093526044810191909152600092839290918390611f568160648101611954565b51925af1611f62611596565b5015611f6a57565b6000805160206126ef83398151915260405180611f9281906000602060408401938281520152565b0390a1565b5050565b505050565b50805115611efd565b6013549091906001600160a01b0316158015612040575b611f9757611fcc611cd0565b8015611f9b57601254604051635f669d4160e01b602082019081526001600160a01b03958616602483015260448201939093526064810193909352600093849360089290921c16919083906120248160848101611954565b51925af1612030611596565b90156120395750565b51611f6a57565b5061204c6103a6612614565b611fc0565b91908260409103126102f3576020825192015190565b61206f611cd0565b600d5447916000918291906001600160a01b031690826040516120ac816119546020820195632e1a7d4d60e01b8752602483019190602083019252565b51925af16120b8611596565b90156121bd576120d4816020806120f194518301019101612051565b9190926120e083601155565b6120eb4793856114f2565b92611a4b565b908110612166575b50505b6121046121f9565b612116600360ff196008541617600855565b61211e612652565b7fe6e3f8167a0352c51f4a5dc639deb5c5679ccf396f92c55db62037faa0a2351260115461214e81600b546114f2565b60408051928352602083019190915281908101611f92565b8181106121815761217a9161199391611a4b565b38806120f9565b505061218d6000601155565b6000805160206126ef833981519152604051806121b581906000602060408401938281520152565b0390a161217a565b50506121c96000601155565b6000805160206126ef833981519152604051806121f181906000602060408401938281520152565b0390a16120fc565b600c54801561197a5761220e90601154611771565b60005b600e54811015611f97576000805160206126cf8339815191528101546001600160a01b03166000908152600f60205260409020600401829055600101612211565b6013549091906001600160a01b03161580156122cd575b611f9757612275611cd0565b8015611f9b5760125460405163f2a5109f60e01b602082019081526001600160a01b03958616602483015260448201939093526064810193909352600093849360089290921c16919083906120248160848101611954565b506122d96103a6612614565b612269565b600e54801561233357600e546000198201916000918310156117dd57600e918290527fbb7b4a454dc3493923482f07822329ed19e8244eff582cc204f8554c3620c3fc0180546001600160a01b031916905555565b634e487b7160e01b600052603160045260246000fd5b801561118b576000190190565b6001600160a01b0381166000908152600f60209081526040808320600181018054858355908590556002820185905560038201859055600490910184905560109092528220805460ff19169055905b600e5480821015612458576123d16123bc836117c2565b905460039190911b1c6001600160a01b031690565b6001600160a01b038581169116146123ec57506001016123a5565b6115859350610d9192916124166124106123bc61240b61243a95611a3c565b6117c2565b916117c2565b81546001600160a01b0393841660039290921b91821b9390911b1916919091179055565b6124426122de565b612450610d7d600c54612349565b600b54611a4b565b50506115859150610d9190612442565b6014546001600160a01b0316908115611f9757612483611cd0565b918215611f9b5760405163c4434b8560e01b6020820190815260248201949094526001600160a01b03909216604483015260009283928390611f568160648101611954565b67ffffffffffffffff81116115315760051b60200190565b906124ea826124c8565b6124f76040519182611553565b8281528092612508601f19916124c8565b0190602036910137565b80518210156117dd5760209160051b010190565b9161253e918352606060208401526060830190611024565b9060408183039101526020808351928381520192019060005b8181106125645750505090565b8251845260209384019390920191600101612557565b6014546001600160a01b031690811561261057600e5491821561260b5761259f611cd0565b8015612605576125ad611890565b6125b6856124e0565b9460005b8181106125f0575050906000809495611f56829594611954604051938492602084019763750b7a1160e11b895260248501612526565b8060016125fe81938a612512565b52016125ba565b50509050565b509050565b9050565b60125460081c6001600160a01b031680156117a6573b151590565b604090939291936060815261264860608201600e61184d565b9460208201520152565b6013546001600160a01b03161580156126bd575b61158557612672611cd0565b801561197a57600e541561197a57601254600091829160081c6001600160a01b03169082611954612024601154604051928391602083019663035f52c560e31b88526024840161262f565b506126c96103a6612614565b61266656febb7b4a454dc3493923482f07822329ed19e8244eff582cc204f8554c3620c3fdb5caada44c21534f899b80931d6822af878c135819ecf2b62cfb2b81d7f299d4a26469706673582212204f40119ddfe031e8043784c548af32ea76bb37244824ccd4cfb0d9d3d3cfad7764736f6c634300081c00332f8788117e7eff1d82e926ec794901d17c78024a50270940304540a733656f0d329977736520969c9868a184f64244da927a0462c6cb802bad0ae0d6d568ac82aae065819044e7c1f6f3a25fcf56eec95d9ef9dcbfbb8eb1f8a4a273b3bd0146ad3228b676f7d3cd4284a5443f17f1962b36e491b30a40b2405849e597ba5fb57d21986f97b64cd2d9c36c5f357e46868c76c53128809cf5af679c0bf9c6ed9ea2646970667358221220ad7758b1bb0c88415a6aa2dca20d9f278b30c63c71661c9b92a188635774d68f64736f6c634300081c00332f8788117e7eff1d82e926ec794901d17c78024a50270940304540a733656f0d7d21986f97b64cd2d9c36c5f357e46868c76c53128809cf5af679c0bf9c6ed9e4066b03ab177190abcd4de6384e71f7a60f56b879537b65d43a0523ade6cfe52329977736520969c9868a184f64244da927a0462c6cb802bad0ae0d6d568ac82ad3228b676f7d3cd4284a5443f17f1962b36e491b30a40b2405849e597ba5fb5",
  "linkReferences": {},
  "deployedLinkReferences": {}
}