{
  "_format": "hh-sol-artifact-1",
  "contractName": "PoolFactory",
  "sourceName": "contracts/PoolFactory.sol",
  "abi": [
    {
      "inputs": [
        {
          "internalType": "address",
          "name": "admin",
          "type": "address"
        },
        {
          "internalType": "address",
          "name": "badgeContract",
          "type": "address"
        }
      ],
      "stateMutability": "nonpayable",
      "type": "constructor"
    },
    {
      "inputs": [],
      "name": "AccessControlBadConfirmation",
      "type": "error"
    },
    {
      "inputs": [
        {
          "internalType": "address",
          "name": "account",
          "type": "address"
        },
        {
          "internalType": "bytes32",
          "name": "neededRole",
          "type": "bytes32"
        }
      ],
      "name": "AccessControlUnauthorizedAccount",
      "type": "error"
    },
    {
      "inputs": [],
      "name": "FactoryPaused",
      "type": "error"
    },
    {
      "inputs": [
        {
          "internalType": "string",
          "name": "constraint",
          "type": "string"
        }
      ],
      "name": "InvalidConstraintValue",
      "type": "error"
    },
    {
      "inputs": [
        {
          "internalType": "uint256",
          "name": "amount",
          "type": "uint256"
        }
      ],
      "name": "InvalidContribution",
      "type": "error"
    },
    {
      "inputs": [
        {
          "internalType": "uint256",
          "name": "duration",
          "type": "uint256"
        }
      ],
      "name": "InvalidDuration",
      "type": "error"
    },
    {
      "inputs": [
        {
          "internalType": "uint256",
          "name": "count",
          "type": "uint256"
        }
      ],
      "name": "InvalidMemberCount",
      "type": "error"
    },
    {
      "inputs": [
        {
          "internalType": "address",
          "name": "yieldManager",
          "type": "address"
        }
      ],
      "name": "InvalidYieldManager",
      "type": "error"
    },
    {
      "inputs": [
        {
          "internalType": "uint256",
          "name": "maxPools",
          "type": "uint256"
        }
      ],
      "name": "MaxActivePoolsPerCreatorReached",
      "type": "error"
    },
    {
      "inputs": [
        {
          "internalType": "uint256",
          "name": "maxPools",
          "type": "uint256"
        }
      ],
      "name": "MaxPoolsPerCreatorReached",
      "type": "error"
    },
    {
      "inputs": [
        {
          "internalType": "uint256",
          "name": "maxPools",
          "type": "uint256"
        }
      ],
      "name": "MaxPoolsReached",
      "type": "error"
    },
    {
      "inputs": [],
      "name": "PoolCreationFailed",
      "type": "error"
    },
    {
      "inputs": [
        {
          "internalType": "uint256",
          "name": "minInterval",
          "type": "uint256"
        }
      ],
      "name": "PoolCreationTooFrequent",
      "type": "error"
    },
    {
      "inputs": [],
      "name": "PoolNameEmpty",
      "type": "error"
    },
    {
      "inputs": [
        {
          "internalType": "uint256",
          "name": "poolId",
          "type": "uint256"
        }
      ],
      "name": "PoolNotFound",
      "type": "error"
    },
    {
      "inputs": [],
      "name": "ReentrancyGuardReentrantCall",
      "type": "error"
    },
    {
      "inputs": [],
      "name": "UnauthorizedAccess",
      "type": "error"
    },
    {
      "anonymous": false,
      "inputs": [
        {
          "indexed": true,
          "internalType": "address",
          "name": "admin",
          "type": "address"
        },
        {
          "components": [
            {
              "internalType": "uint256",
              "name": "maxTotalPools",
              "type": "uint256"
            },
            {
              "internalType": "uint256",
              "name": "maxPoolsPerCreator",
              "type": "uint256"
            },
            {
              "internalType": "uint256",
              "name": "maxActivePoolsPerCreator",
              "type": "uint256"
            },
            {
              "internalType": "uint256",
              "name": "minTimeBetweenPools",
              "type": "uint256"
            },
            {
              "internalType": "bool",
              "name": "enforceConstraints",
              "type": "bool"
            }
          ],
          "indexed": false,
          "internalType": "struct PoolFactory.GlobalConstraints",
          "name": "newConstraints",
          "type": "tuple"
        }
      ],
      "name": "GlobalConstraintsUpdated",
      "type": "event"
    },
    {
      "anonymous": false,
      "inputs": [
        {
          "indexed": true,
          "internalType": "address",
          "name": "account",
          "type": "address"
        },
        {
          "indexed": false,
          "internalType": "bool",
          "name": "paused",
          "type": "bool"
        }
      ],
      "name": "PauseChanged",
      "type": "event"
    },
    {
      "anonymous": false,
      "inputs": [
        {
          "indexed": true,
          "internalType": "uint256",
          "name": "poolId",
          "type": "uint256"
        },
        {
          "indexed": true,
          "internalType": "address",
          "name": "poolAddress",
          "type": "address"
        },
        {
          "indexed": true,
          "internalType": "address",
          "name": "creator",
          "type": "address"
        },
        {
          "indexed": false,
          "internalType": "string",
          "name": "name",
          "type": "string"
        },
        {
          "indexed": false,
          "internalType": "uint256",
          "name": "contributionAmount",
          "type": "uint256"
        },
        {
          "indexed": false,
          "internalType": "uint256",
          "name": "maxMembers",
          "type": "uint256"
        },
        {
          "indexed": false,
          "internalType": "uint256",
          "name": "duration",
          "type": "uint256"
        }
      ],
      "name": "PoolCreated",
      "type": "event"
    },
    {
      "anonymous": false,
      "inputs": [
        {
          "indexed": false,
          "internalType": "uint256",
          "name": "totalPools",
          "type": "uint256"
        },
        {
          "indexed": false,
          "internalType": "uint256",
          "name": "activePools",
          "type": "uint256"
        },
        {
          "indexed": false,
          "internalType": "uint256",
          "name": "totalValueLocked",
          "type": "uint256"
        }
      ],
      "name": "PoolStatisticsUpdated",
      "type": "event"
    },
    {
      "anonymous": false,
      "inputs": [
        {
          "indexed": true,
          "internalType": "bytes32",
          "name": "role",
          "type": "bytes32"
        },
        {
          "indexed": true,
          "internalType": "bytes32",
          "name": "previousAdminRole",
          "type": "bytes32"
        },
        {
          "indexed": true,
          "internalType": "bytes32",
          "name": "newAdminRole",
          "type": "bytes32"
        }
      ],
      "name": "RoleAdminChanged",
      "type": "event"
    },
    {
      "anonymous": false,
      "inputs": [
        {
          "indexed": true,
          "internalType": "bytes32",
          "name": "role",
          "type": "bytes32"
        },
        {
          "indexed": true,
          "internalType": "address",
          "name": "account",
          "type": "address"
        },
        {
          "indexed": true,
          "internalType": "address",
          "name": "sender",
          "type": "address"
        }
      ],
      "name": "RoleGranted",
      "type": "event"
    },
    {
      "anonymous": false,
      "inputs": [
        {
          "indexed": true,
          "internalType": "bytes32",
          "name": "role",
          "type": "bytes32"
        },
        {
          "indexed": true,
          "internalType": "address",
          "name": "account",
          "type": "address"
        },
        {
          "indexed": true,
          "internalType": "address",
          "name": "sender",
          "type": "address"
        }
      ],
      "name": "RoleRevoked",
      "type": "event"
    },
    {
      "inputs": [],
      "name": "DEFAULT_ADMIN_ROLE",
      "outputs": [
        {
          "internalType": "bytes32",
          "name": "",
          "type": "bytes32"
        }
      ],
      "stateMutability": "view",
      "type": "function"
    },
    {
      "inputs": [],
      "name": "EMERGENCY_ADMIN_ROLE",
      "outputs": [
        {
          "internalType": "bytes32",
          "name": "",
          "type": "bytes32"
        }
      ],
      "stateMutability": "view",
      "type": "function"
    },
    {
      "inputs": [],
      "name": "MAX_CONTRIBUTION",
      "outputs": [
        {
          "internalType": "uint256",
          "name": "",
          "type": "uint256"
        }
      ],
      "stateMutability": "view",
      "type": "function"
    },
    {
      "inputs": [],
      "name": "MAX_DURATION",
      "outputs": [
        {
          "internalType": "uint256",
          "name": "",
          "type": "uint256"
        }
      ],
      "stateMutability": "view",
      "type": "function"
    },
    {
      "inputs": [],
      "name": "MAX_MEMBERS",
      "outputs": [
        {
          "internalType": "uint256",
          "name": "",
          "type": "uint256"
        }
      ],
      "stateMutability": "view",
      "type": "function"
    },
    {
      "inputs": [],
      "name": "MIN_CONTRIBUTION",
      "outputs": [
        {
          "internalType": "uint256",
          "name": "",
          "type": "uint256"
        }
      ],
      "stateMutability": "view",
      "type": "function"
    },
    {
      "inputs": [],
      "name": "MIN_DURATION",
      "outputs": [
        {
          "internalType": "uint256",
          "name": "",
          "type": "uint256"
        }
      ],
      "stateMutability": "view",
      "type": "function"
    },
    {
      "inputs": [],
      "name": "MIN_MEMBERS",
      "outputs": [
        {
          "internalType": "uint256",
          "name": "",
          "type": "uint256"
        }
      ],
      "stateMutability": "view",
      "type": "function"
    },
    {
      "inputs": [],
      "name": "POOL_CREATOR_ROLE",
      "outputs": [
        {
          "internalType": "bytes32",
          "name": "",
          "type": "bytes32"
        }
      ],
      "stateMutability": "view",
      "type": "function"
    },
    {
      "inputs": [
        {
          "internalType": "address",
          "name": "creator",
          "type": "address"
        }
      ],
      "name": "canCreatePool",
      "outputs": [
        {
          "internalType": "bool",
          "name": "canCreate",
          "type": "bool"
        },
        {
          "internalType": "string",
          "name": "reason",
          "type": "string"
        }
      ],
      "stateMutability": "view",
      "type": "function"
    },
    {
      "inputs": [
        {
          "components": [
            {
              "internalType": "string",
              "name": "name",
              "type": "string"
            },
            {
              "internalType": "uint256",
              "name": "contributionAmount",
              "type": "uint256"
            },
            {
              "internalType": "uint256",
              "name": "maxMembers",
              "type": "uint256"
            },
            {
              "internalType": "uint256",
              "name": "duration",
              "type": "uint256"
            },
            {
              "internalType": "address",
              "name": "yieldManager",
              "type": "address"
            }
          ],
          "internalType": "struct PoolFactory.PoolCreationParams",
          "name": "params",
          "type": "tuple"
        }
      ],
      "name": "createPool",
      "outputs": [
        {
          "internalType": "uint256",
          "name": "poolId",
          "type": "uint256"
        },
        {
          "internalType": "address",
          "name": "poolAddress",
          "type": "address"
        }
      ],
      "stateMutability": "nonpayable",
      "type": "function"
    },
    {
      "inputs": [
        {
          "internalType": "address",
          "name": "creator",
          "type": "address"
        }
      ],
      "name": "getActivePoolsCount",
      "outputs": [
        {
          "internalType": "uint256",
          "name": "activeCount",
          "type": "uint256"
        }
      ],
      "stateMutability": "view",
      "type": "function"
    },
    {
      "inputs": [],
      "name": "getAllPools",
      "outputs": [
        {
          "internalType": "address[]",
          "name": "pools",
          "type": "address[]"
        }
      ],
      "stateMutability": "view",
      "type": "function"
    },
    {
      "inputs": [],
      "name": "getBadgeContract",
      "outputs": [
        {
          "internalType": "address",
          "name": "badgeContract",
          "type": "address"
        }
      ],
      "stateMutability": "view",
      "type": "function"
    },
    {
      "inputs": [
        {
          "internalType": "address",
          "name": "creator",
          "type": "address"
        }
      ],
      "name": "getCreatorPools",
      "outputs": [
        {
          "internalType": "address[]",
          "name": "pools",
          "type": "address[]"
        }
      ],
      "stateMutability": "view",
      "type": "function"
    },
    {
      "inputs": [],
      "name": "getGlobalConstraints",
      "outputs": [
        {
          "components": [
            {
              "internalType": "uint256",
              "name": "maxTotalPools",
              "type": "uint256"
            },
            {
              "internalType": "uint256",
              "name": "maxPoolsPerCreator",
              "type": "uint256"
            },
            {
              "internalType": "uint256",
              "name": "maxActivePoolsPerCreator",
              "type": "uint256"
            },
            {
              "internalType": "uint256",
              "name": "minTimeBetweenPools",
              "type": "uint256"
            },
            {
              "internalType": "bool",
              "name": "enforceConstraints",
              "type": "bool"
            }
          ],
          "internalType": "struct PoolFactory.GlobalConstraints",
          "name": "constraints",
          "type": "tuple"
        }
      ],
      "stateMutability": "view",
      "type": "function"
    },
    {
      "inputs": [
        {
          "internalType": "address",
          "name": "creator",
          "type": "address"
        }
      ],
      "name": "getLastPoolCreation",
      "outputs": [
        {
          "internalType": "uint256",
          "name": "timestamp",
          "type": "uint256"
        }
      ],
      "stateMutability": "view",
      "type": "function"
    },
    {
      "inputs": [
        {
          "internalType": "uint256",
          "name": "poolId",
          "type": "uint256"
        }
      ],
      "name": "getPool",
      "outputs": [
        {
          "internalType": "address",
          "name": "poolAddress",
          "type": "address"
        }
      ],
      "stateMutability": "view",
      "type": "function"
    },
    {
      "inputs": [],
      "name": "getPoolCount",
      "outputs": [
        {
          "internalType": "uint256",
          "name": "count",
          "type": "uint256"
        }
      ],
      "stateMutability": "view",
      "type": "function"
    },
    {
      "inputs": [
        {
          "internalType": "address",
          "name": "poolAddress",
          "type": "address"
        }
      ],
      "name": "getPoolId",
      "outputs": [
        {
          "internalType": "uint256",
          "name": "poolId",
          "type": "uint256"
        }
      ],
      "stateMutability": "view",
      "type": "function"
    },
    {
      "inputs": [
        {
          "internalType": "uint256",
          "name": "poolId",
          "type": "uint256"
        }
      ],
      "name": "getPoolInfo",
      "outputs": [
        {
          "components": [
            {
              "internalType": "address",
              "name": "creator",
              "type": "address"
            },
            {
              "internalType": "string",
              "name": "name",
              "type": "string"
            },
            {
              "internalType": "uint256",
              "name": "contributionAmount",
              "type": "uint256"
            },
            {
              "internalType": "uint256",
              "name": "maxMembers",
              "type": "uint256"
            },
            {
              "internalType": "uint256",
              "name": "duration",
              "type": "uint256"
            },
            {
              "internalType": "enum IPool.PoolStatus",
              "name": "status",
              "type": "uint8"
            },
            {
              "internalType": "uint256",
              "name": "createdAt",
              "type": "uint256"
            },
            {
              "internalType": "uint256",
              "name": "lockedAt",
              "type": "uint256"
            },
            {
              "internalType": "uint256",
              "name": "totalFunds",
              "type": "uint256"
            },
            {
              "internalType": "uint256",
              "name": "currentMembers",
              "type": "uint256"
            },
            {
              "internalType": "address",
              "name": "yieldManager",
              "type": "address"
            }
          ],
          "internalType": "struct IPool.PoolInfo",
          "name": "info",
          "type": "tuple"
        }
      ],
      "stateMutability": "view",
      "type": "function"
    },
    {
      "inputs": [],
      "name": "getPoolStatistics",
      "outputs": [
        {
          "components": [
            {
              "internalType": "uint256",
              "name": "totalPools",
              "type": "uint256"
            },
            {
              "internalType": "uint256",
              "name": "activePools",
              "type": "uint256"
            },
            {
              "internalType": "uint256",
              "name": "completedPools",
              "type": "uint256"
            },
            {
              "internalType": "uint256",
              "name": "totalValueLocked",
              "type": "uint256"
            },
            {
              "internalType": "uint256",
              "name": "totalYieldGenerated",
              "type": "uint256"
            }
          ],
          "internalType": "struct PoolFactory.PoolStatistics",
          "name": "statistics",
          "type": "tuple"
        }
      ],
      "stateMutability": "view",
      "type": "function"
    },
    {
      "inputs": [
        {
          "internalType": "address",
          "name": "poolAddress",
          "type": "address"
        }
      ],
      "name": "getPoolStatus",
      "outputs": [
        {
          "internalType": "enum IPool.PoolStatus",
          "name": "status",
          "type": "uint8"
        }
      ],
      "stateMutability": "view",
      "type": "function"
    },
    {
      "inputs": [
        {
          "internalType": "enum IPool.PoolStatus",
          "name": "status",
          "type": "uint8"
        }
      ],
      "name": "getPoolsByStatus",
      "outputs": [
        {
          "internalType": "address[]",
          "name": "pools",
          "type": "address[]"
        }
      ],
      "stateMutability": "view",
      "type": "function"
    },
    {
      "inputs": [
        {
          "internalType": "bytes32",
          "name": "role",
          "type": "bytes32"
        }
      ],
      "name": "getRoleAdmin",
      "outputs": [
        {
          "internalType": "bytes32",
          "name": "",
          "type": "bytes32"
        }
      ],
      "stateMutability": "view",
      "type": "function"
    },
    {
      "inputs": [],
      "name": "globalConstraints",
      "outputs": [
        {
          "internalType": "uint256",
          "name": "maxTotalPools",
          "type": "uint256"
        },
        {
          "internalType": "uint256",
          "name": "maxPoolsPerCreator",
          "type": "uint256"
        },
        {
          "internalType": "uint256",
          "name": "maxActivePoolsPerCreator",
          "type": "uint256"
        },
        {
          "internalType": "uint256",
          "name": "minTimeBetweenPools",
          "type": "uint256"
        },
        {
          "internalType": "bool",
          "name": "enforceConstraints",
          "type": "bool"
        }
      ],
      "stateMutability": "view",
      "type": "function"
    },
    {
      "inputs": [
        {
          "internalType": "address",
          "name": "account",
          "type": "address"
        }
      ],
      "name": "grantPoolCreatorRole",
      "outputs": [],
      "stateMutability": "nonpayable",
      "type": "function"
    },
    {
      "inputs": [
        {
          "internalType": "bytes32",
          "name": "role",
          "type": "bytes32"
        },
        {
          "internalType": "address",
          "name": "account",
          "type": "address"
        }
      ],
      "name": "grantRole",
      "outputs": [],
      "stateMutability": "nonpayable",
      "type": "function"
    },
    {
      "inputs": [
        {
          "internalType": "bytes32",
          "name": "role",
          "type": "bytes32"
        },
        {
          "internalType": "address",
          "name": "account",
          "type": "address"
        }
      ],
      "name": "hasRole",
      "outputs": [
        {
          "internalType": "bool",
          "name": "",
          "type": "bool"
        }
      ],
      "stateMutability": "view",
      "type": "function"
    },
    {
      "inputs": [],
      "name": "isPaused",
      "outputs": [
        {
          "internalType": "bool",
          "name": "paused",
          "type": "bool"
        }
      ],
      "stateMutability": "view",
      "type": "function"
    },
    {
      "inputs": [
        {
          "internalType": "address",
          "name": "poolAddress",
          "type": "address"
        }
      ],
      "name": "isValidPool",
      "outputs": [
        {
          "internalType": "bool",
          "name": "isValid",
          "type": "bool"
        }
      ],
      "stateMutability": "view",
      "type": "function"
    },
    {
      "inputs": [
        {
          "internalType": "address[]",
          "name": "members",
          "type": "address[]"
        },
        {
          "internalType": "uint256",
          "name": "poolId",
          "type": "uint256"
        },
        {
          "internalType": "uint256",
          "name": "totalYield",
          "type": "uint256"
        }
      ],
      "name": "mintPoolCompletionBadges",
      "outputs": [],
      "stateMutability": "nonpayable",
      "type": "function"
    },
    {
      "inputs": [
        {
          "internalType": "address",
          "name": "creator",
          "type": "address"
        },
        {
          "internalType": "uint256",
          "name": "poolId",
          "type": "uint256"
        },
        {
          "internalType": "uint256",
          "name": "contributionAmount",
          "type": "uint256"
        }
      ],
      "name": "mintPoolCreatorBadge",
      "outputs": [],
      "stateMutability": "nonpayable",
      "type": "function"
    },
    {
      "inputs": [
        {
          "internalType": "address",
          "name": "member",
          "type": "address"
        },
        {
          "internalType": "uint256",
          "name": "poolId",
          "type": "uint256"
        },
        {
          "internalType": "uint256",
          "name": "contribution",
          "type": "uint256"
        }
      ],
      "name": "mintPoolMemberBadge",
      "outputs": [],
      "stateMutability": "nonpayable",
      "type": "function"
    },
    {
      "inputs": [],
      "name": "poolStatistics",
      "outputs": [
        {
          "internalType": "uint256",
          "name": "totalPools",
          "type": "uint256"
        },
        {
          "internalType": "uint256",
          "name": "activePools",
          "type": "uint256"
        },
        {
          "internalType": "uint256",
          "name": "completedPools",
          "type": "uint256"
        },
        {
          "internalType": "uint256",
          "name": "totalValueLocked",
          "type": "uint256"
        },
        {
          "internalType": "uint256",
          "name": "totalYieldGenerated",
          "type": "uint256"
        }
      ],
      "stateMutability": "view",
      "type": "function"
    },
    {
      "inputs": [
        {
          "internalType": "bytes32",
          "name": "role",
          "type": "bytes32"
        },
        {
          "internalType": "address",
          "name": "callerConfirmation",
          "type": "address"
        }
      ],
      "name": "renounceRole",
      "outputs": [],
      "stateMutability": "nonpayable",
      "type": "function"
    },
    {
      "inputs": [
        {
          "internalType": "address",
          "name": "account",
          "type": "address"
        }
      ],
      "name": "revokePoolCreatorRole",
      "outputs": [],
      "stateMutability": "nonpayable",
      "type": "function"
    },
    {
      "inputs": [
        {
          "internalType": "bytes32",
          "name": "role",
          "type": "bytes32"
        },
        {
          "internalType": "address",
          "name": "account",
          "type": "address"
        }
      ],
      "name": "revokeRole",
      "outputs": [],
      "stateMutability": "nonpayable",
      "type": "function"
    },
    {
      "inputs": [
        {
          "internalType": "address",
          "name": "badgeContract",
          "type": "address"
        }
      ],
      "name": "setBadgeContract",
      "outputs": [],
      "stateMutability": "nonpayable",
      "type": "function"
    },
    {
      "inputs": [
        {
          "internalType": "bool",
          "name": "paused",
          "type": "bool"
        }
      ],
      "name": "setPaused",
      "outputs": [],
      "stateMutability": "nonpayable",
      "type": "function"
    },
    {
      "inputs": [
        {
          "internalType": "bytes4",
          "name": "interfaceId",
          "type": "bytes4"
        }
      ],
      "name": "supportsInterface",
      "outputs": [
        {
          "internalType": "bool",
          "name": "",
          "type": "bool"
        }
      ],
      "stateMutability": "view",
      "type": "function"
    },
    {
      "inputs": [
        {
          "components": [
            {
              "internalType": "uint256",
              "name": "maxTotalPools",
              "type": "uint256"
            },
            {
              "internalType": "uint256",
              "name": "maxPoolsPerCreator",
              "type": "uint256"
            },
            {
              "internalType": "uint256",
              "name": "maxActivePoolsPerCreator",
              "type": "uint256"
            },
            {
              "internalType": "uint256",
              "name": "minTimeBetweenPools",
              "type": "uint256"
            },
            {
              "internalType": "bool",
              "name": "enforceConstraints",
              "type": "bool"
            }
          ],
          "internalType": "struct PoolFactory.GlobalConstraints",
          "name": "newConstraints",
          "type": "tuple"
        }
      ],
      "name": "updateGlobalConstraints",
      "outputs": [],
      "stateMutability": "nonpayable",
      "type": "function"
    },
    {
      "inputs": [
        {
          "internalType": "address",
          "name": "poolAddress",
          "type": "address"
        },
        {
          "internalType": "enum IPool.PoolStatus",
          "name": "newStatus",
          "type": "uint8"
        }
      ],
      "name": "updatePoolStatus",
      "outputs": [],
      "stateMutability": "nonpayable",
      "type": "function"
    }
  ],
  "bytecode": "0x6080604052346101b857604051601f61567338819003918201601f19168301916001600160401b038311848410176101bd5780849260409485528339810103126101b8576100586020610051836101f2565b92016101f2565b60018055906001600160a01b038116156101a7578061007961008992610206565b5061008381610282565b5061031a565b50600c80546001600160a01b0319166001600160a01b0392909216919091179055600080516020615613833981519152600081815260208190527f7d21986f97b64cd2d9c36c5f357e46868c76c53128809cf5af679c0bf9c6ed9f80549082905590917fbd79b86ffe0ab8e8776151514217cd7cacd52c909f66475c3af44e129f0b00ff8380a46001608061011c6101d3565b612710815260326020820152600a6040820152610e10606082015201526127106002556032600355600a600455610e10600555600160ff196006541617600655600060806101686101d3565b82815282602082015282604082015282606082015201526000600755600060085560006009556000600a556000600b5560405161523290816103a18239f35b631a27eac360e11b60005260046000fd5b600080fd5b634e487b7160e01b600052604160045260246000fd5b6040519060a082016001600160401b038111838210176101bd57604052565b51906001600160a01b03821682036101b857565b6001600160a01b0381166000908152600080516020615653833981519152602052604090205460ff1661027c576001600160a01b0316600081815260008051602061565383398151915260205260408120805460ff191660011790553391906000805160206155d38339815191528180a4600190565b50600090565b6001600160a01b0381166000908152600080516020615633833981519152602052604090205460ff1661027c576001600160a01b0316600081815260008051602061563383398151915260205260408120805460ff191660011790553391907f5358bcfd81d1ef3da152b1755e1c3c6739686fa7e83dbcad0071568cc4b73a63906000805160206155d38339815191529080a4600190565b6001600160a01b03811660009081526000805160206155f3833981519152602052604090205460ff1661027c576001600160a01b031660008181526000805160206155f383398151915260205260408120805460ff19166001179055339190600080516020615613833981519152906000805160206155d38339815191529080a460019056fe6080604052600436101561001257600080fd5b60003560e01c806301ffc9a7146102c7578063068bcd8d146102c257806312e320d2146102bd57806315d9d2f9146102b857806316c38b3c146102b35780631afa9628146102ae578063248a9ca3146102a95780632f2ff15d146102a45780632f380b351461029f57806331ad3dde1461029a578063327e378f1461029557806336568abe146102905780633f3d69e31461028b57806340650c911461028657806347d212da146102815780635ab78ee11461027c5780635f669d41146102775780635f75e359146102725780636e76fc8f1461026d578063855cdf2814610268578063876d50c1146102635780638a6e4b571461025e5780638eec5d701461025957806391d148541461025457806394d95f8f1461024f5780639f0c82041461024a578063a217fddf14610245578063a55ba3b314610240578063b09728a51461023b578063b1724b4614610236578063b187bd2614610231578063b6a6d1771461022c578063ba3194ed14610227578063c390cd7714610222578063c69c302a1461021d578063caa9a08d14610218578063d547741f14610213578063d69a48ee1461020e578063d88ff1f414610209578063d9a6722014610204578063e86c24f9146101ff578063ea0e35b1146101fa5763f2a5109f146101f557600080fd5b6117b6565b61179a565b611718565b6116fc565b6116d4565b6116a7565b611664565b61161e565b6115da565b61159d565b611519565b6114fb565b6114d8565b6114b9565b61147e565b61143e565b611422565b6113e5565b6113c1565b61136b565b61134d565b611173565b61114a565b611105565b6110ca565b610fb5565b610f5b565b610ef9565b610eb2565b610e90565b610d7e565b610d2a565b61099b565b6108ec565b6107e4565b6106ad565b610678565b6105e0565b610476565b6103f8565b610385565b610322565b3461031d57602036600319011261031d5760043563ffffffff60e01b811680910361031d57602090637965db0b60e01b811490811561030c575b506040519015158152f35b6301ffc9a760e01b14905038610301565b600080fd5b3461031d57602036600319011261031d576004356000818152600f60205260409020546001600160a01b0316801561035f57602090604051908152f35b506302ad881560e41b60005260045260246000fd5b6001600160a01b0381160361031d57565b3461031d57602036600319011261031d576103b26004356103a581610374565b6103ad612339565b6123c7565b005b634e487b7160e01b600052602160045260246000fd5b600411156103d457565b6103b4565b9060048210156103d45752565b6020810192916103f691906103d9565b565b3461031d57602036600319011261031d5760043561041581610374565b6001600160a01b03166000818152601060205260409020541561045657600052601460205261045260ff60406000205416604051918291826103e6565b0390f35b6302ad881560e41b600052600060045260246000fd5b8015150361031d57565b3461031d57602036600319011261031d576004356104938161046c565b3360009081527f329977736520969c9868a184f64244da927a0462c6cb802bad0ae0d6d568ac82602052604090205460ff161561050957151560ff196015541660ff8216176015556040519081527fb10cf107ab53f31a52bd0f36488303c6c8a0dc518d7673e408e81cebf1cd544d60203392a2005b63e2517d3f60e01b600052336004527f5358bcfd81d1ef3da152b1755e1c3c6739686fa7e83dbcad0071568cc4b73a6360245260446000fd5b634e487b7160e01b600052604160045260246000fd5b610160810190811067ffffffffffffffff82111761057557604052565b610542565b60a0810190811067ffffffffffffffff82111761057557604052565b90601f8019910116810190811067ffffffffffffffff82111761057557604052565b604051906103f661016083610596565b67ffffffffffffffff81116105755760051b60200190565b3461031d57606036600319011261031d5760043567ffffffffffffffff811161031d573660238201121561031d5780600401359061061d826105c8565b9161062b6040519384610596565b8083526024602084019160051b8301019136831161031d57602401905b82821061065e576103b26044356024358661195d565b60208091833561066d81610374565b815201910190610648565b3461031d57602036600319011261031d5760206106a5600435600052600060205260016040600020015490565b604051908152f35b3461031d57604036600319011261031d576103b26024356004356106d082610374565b6106f06106eb82600052600060205260016040600020015490565b61238c565b612480565b60005b8381106107085750506000910152565b81810151838201526020016106f8565b90602091610731815180928185528580860191016106f5565b601f01601f1916010190565b602080825282516001600160a01b0316908201526107e1906101606101406107746020860151836040860152610180850190610718565b946040810151606085015260608101516080850152608081015160a08501526107a560a082015160c08601906103d9565b60c081015160e085015260e081015161010085015261010081015161012085015261012081015182850152015191019060018060a01b03169052565b90565b3461031d57602036600319011261031d57600435600061014060405161080981610558565b828152606060208201528260408201528260608201528260808201528260a08201528260c08201528260e08201528261010082015282610120820152015260018060a01b0361087261086583600052600f602052604060002090565b546001600160a01b031690565b169081156108d757604051630c048d9160e31b8152600081600481865afa80156108d257610452916000916108af575b506040519182918261073d565b6108cc91503d806000833e6108c48183610596565b810190611bcc565b826108a2565b611951565b6302ad881560e41b60005260045260245b6000fd5b3461031d57600036600319011261031d57610905611c9e565b506104526040516109158161057a565b600254815260035460208201526004546040820152600554606082015260ff60065416151560808201526040519182918291909160808060a08301948051845260208101516020850152604081015160408501526060810151606085015201511515910152565b60a090600319011261031d57600490565b908160a091031261031d5790565b3461031d57602036600319011261031d5760043567ffffffffffffffff811161031d576109cc90369060040161098d565b600260015414610d1957600260015560155460ff16610d08576109ee81612510565b6109f733612623565b610a02600d54611cc9565b610a0b81600d55565b610a158280611cdd565b604084013591602085013591606086013591610a3360808801611d10565b600c549092906001600160a01b0316604051936127d1928386019086821067ffffffffffffffff83111761057557898989928998610a7798612a0c8b393395611d3b565b03906000f080156108d2576001600160a01b0316948515610cf75785928592610bdd610bcc7fc0b0e59209ea88ad9c9fbc66fb25ca843a4089b4279573a8067d82db5a95bf4894610af588610ad689600052600f602052604060002090565b80546001600160a01b0319166001600160a01b03909216919091179055565b6001600160a01b0388166000908152601060205260409020879055610b1988611d88565b336000908152601160205260409020610b33908990611dec565b336000908152601260209081526040808320429055601390915290208054610b5a90611cc9565b90556001600160a01b0388166000908152601460205260409020805460ff19169055610b8f610b8a600754611cc9565b600755565b610ba2610b9d600854611cc9565b600855565b600c54610bbf906001600160a01b03165b6001600160a01b031690565b80610c45575b5080611cdd565b929097604051948594339a86611e4b565b0390a4600754600854600a54604080519384526020840192909252908201527fa903350a76439c821e3481f6350dab5c2bb11eefe3e2ce97053501d0e1f03d6590606090a1610c2b60018055565b604080519182526001600160a01b03929092166020820152f35b610cc1906020906001600160a01b031660405190610c9f82610c9142868301919060408352600c60408401526b2837b7b61021b932b0ba37b960a11b6060840152602060808401930152565b03601f198101845283610596565b8860008c60405196879586948593631cb722ef60e11b8552336004860161188d565b03925af115610bc557610ceb9060203d602011610cf0575b610ce38183610596565b81019061187e565b610bc5565b503d610cd9565b6337200b1d60e21b60005260046000fd5b633461791360e11b60005260046000fd5b633ee5aeb560e01b60005260046000fd5b3461031d57604036600319011261031d57600435602435610d4a81610374565b336001600160a01b03821603610d63576103b29161281d565b63334bd91960e11b60005260046000fd5b6004111561031d57565b3461031d57604036600319011261031d57600435610d9b81610374565b602435610da781610d74565b336001600160a01b038316141580610e57575b610e46576001600160a01b03821660009081526010602052604090205415610e30576001600160a01b03821660009081526014602052604090206103b29290610e05905b5460ff1690565b90610e2b83610e268360018060a01b03166000526014602052604060002090565b611e33565b6128b1565b6302ad881560e41b600090815260045260246000fd5b631a27eac360e11b60005260046000fd5b503360009081527fad3228b676f7d3cd4284a5443f17f1962b36e491b30a40b2405849e597ba5fb5602052604090205460ff1615610dba565b3461031d57600036600319011261031d576020604051662386f26fc100008152f35b3461031d57602036600319011261031d57600435610ecf81610374565b610ed7612339565b600c80546001600160a01b0319166001600160a01b0392909216919091179055005b3461031d57602036600319011261031d57600435610f1681610374565b60018060a01b0316600052601060205260206040600020541515604051908152f35b606090600319011261031d57600435610f5081610374565b906024359060443590565b3461031d576103b2610f6c36610f38565b91611e74565b602060408183019282815284518094520192019060005b818110610f965750505090565b82516001600160a01b0316845260209384019390920191600101610f89565b3461031d57602036600319011261031d57600435610fd281610d74565b610fda611f41565b90815191610fe7836105c8565b92610ff56040519485610596565b808452611004601f19916105c8565b0136602085013760009260005b82518110156110b9578361104f610dfe6001600160a01b036110338588611865565b51166001600160a01b0316600090815260146020526040902090565b611058826103ca565b611061816103ca565b1461106f575b600101611011565b936110b16001916110ac6110936110868988611865565b516001600160a01b031690565b61109d8387611865565b6001600160a01b039091169052565b611cc9565b949050611067565b848252604051806104528482610f72565b3461031d57600036600319011261031d5760206040517f5358bcfd81d1ef3da152b1755e1c3c6739686fa7e83dbcad0071568cc4b73a638152f35b3461031d57600036600319011261031d5760a06002546003546004546005549060ff600654169260405194855260208501526040840152606083015215156080820152f35b3461031d57600036600319011261031d57600c546040516001600160a01b039091168152602090f35b3461031d5760a036600319011261031d5761118d3661097c565b611195612339565b80351561130757602081013580156112b7576040820135801561126157116111f5576111c081611f95565b7f89d0adfa87bb49222e2c5dd9286f0262f4a1a036f5ad662150f1ed505a962689604051806111f0339482611fd1565b0390a2005b604051639acfe81f60e01b815260206004820152603960248201527f6d6178416374697665506f6f6c7350657243726561746f722063616e6e6f742060448201527f657863656564206d6178506f6f6c7350657243726561746f72000000000000006064820152608490fd5b604051639acfe81f60e01b815260206004820152602760248201527f6d6178416374697665506f6f6c7350657243726561746f722063616e6e6f74206044820152666265207a65726f60c81b6064820152608490fd5b604051639acfe81f60e01b815260206004820152602160248201527f6d6178506f6f6c7350657243726561746f722063616e6e6f74206265207a65726044820152606f60f81b6064820152608490fd5b604051639acfe81f60e01b815260206004820152601c60248201527f6d6178546f74616c506f6f6c732063616e6e6f74206265207a65726f000000006044820152606490fd5b3461031d57600036600319011261031d576020600d54604051908152f35b3461031d57604036600319011261031d57602060ff6113b560243560043561139282610374565b6000526000845260406000209060018060a01b0316600052602052604060002090565b54166040519015158152f35b3461031d57600036600319011261031d57602060405168056bc75e2d631000008152f35b3461031d57602036600319011261031d5760043561140281610374565b60018060a01b031660005260136020526020604060002054604051908152f35b3461031d57600036600319011261031d57602060405160008152f35b3461031d57600036600319011261031d5760a0600754600854600954600a5490600b54926040519485526020850152604084015260608301526080820152f35b3461031d57600036600319011261031d5760206040517f4066b03ab177190abcd4de6384e71f7a60f56b879537b65d43a0523ade6cfe528152f35b3461031d57600036600319011261031d5760206040516301e133808152f35b3461031d57600036600319011261031d57602060ff601554166040519015158152f35b3461031d57600036600319011261031d57602060405162093a808152f35b3461031d57600036600319011261031d57611532611c9e565b5060405161153f8161057a565b600754815260085460208201526009546040820152600a546060820152600b5460808201526040518091608060a083019180518452602081015160208501526040810151604085015260608101516060850152015160808301520390f35b3461031d57602036600319011261031d576004356115ba81610374565b60018060a01b031660005260126020526020604060002054604051908152f35b3461031d57602036600319011261031d576115ff6004356115fa81610374565b612139565b9061045260405192839215158352604060208401526040830190610718565b3461031d57602036600319011261031d5760043561163b81610374565b6001600160a01b0316600090815260106020526040902054801561045657602090604051908152f35b3461031d57604036600319011261031d576103b260243560043561168782610374565b6116a26106eb82600052600060205260016040600020015490565b61281d565b3461031d57602036600319011261031d576103b26004356116c781610374565b6116cf612339565b612775565b3461031d57600036600319011261031d576104526116f0611f41565b60405191829182610f72565b3461031d57600036600319011261031d57602060405160028152f35b3461031d57602036600319011261031d5760043561173581610374565b60018060a01b031660005260116020526040600020604051908054808352602083019160005260206000209060005b81811061177b57610452856116f081870382610596565b82546001600160a01b0316845260209093019260019283019201611764565b3461031d57600036600319011261031d57602060405160648152f35b3461031d576103b26117c736610f38565b91612286565b156117d457565b60405162461bcd60e51b815260206004820152601a60248201527f4f6e6c7920706f6f6c732063616e206d696e74206261646765730000000000006044820152606490fd5b634e487b7160e01b600052601160045260246000fd5b8115611839570490565b634e487b7160e01b600052601260045260246000fd5b634e487b7160e01b600052603260045260246000fd5b80518210156118795760209160051b010190565b61184f565b9081602091031261031d575190565b909260a0926107e19594600180861b0316835260006020840152604083015260608201528160808201520190610718565b909260a0926107e19594600180861b0316835260036020840152604083015260608201528160808201520190610718565b909260a0926107e19594600180861b0316835260046020840152604083015260608201528160808201520190610718565b909260a0926107e19594600180861b0316835260016020840152604083015260608201528160808201520190610718565b6040513d6000823e3d90fd5b336000908152601060205260409020909392919061197e905b5415156117cd565b600c546001600160a01b031615611b525783516000908015611b4c576119a591508361182f565b60005b8551811015611b4457806119c161108660019389611865565b600c54611a48906020906119df90610bb3906001600160a01b031681565b60405190611a2682610c918c428784016040909392919360608152600e60608201526d141bdbdb0810dbdb5c1b195d195960921b608082015260a081019460208201520152565b8760008a60405196879586948593631cb722ef60e11b85528b600486016118be565b03925af1611b28575b5067016345785d8a0000841015611a6a575b50016119a8565b600c546020908590611a8690610bb3906001600160a01b031681565b87600060405195611ae387611ad587428a840160409093929193606081526013606082015272121a59da08165a595b19081058da1a595d9959606a1b608082015260a081019460208201520152565b03601f198101895288610596565b611b0360405197889687958694631cb722ef60e11b8652600486016118ef565b03925af115611a6357611b239060203d8111610cf057610ce38183610596565b611a63565b611b3f9060203d8111610cf057610ce38183610596565b611a51565b505050509050565b506119a5565b50509050565b51906103f682610374565b67ffffffffffffffff811161057557601f01601f191660200190565b81601f8201121561031d578051611b9581611b63565b92611ba36040519485610596565b8184526020828401011161031d576107e191602080850191016106f5565b51906103f682610d74565b60208183031261031d5780519067ffffffffffffffff821161031d57016101608183031261031d57611bfc6105b8565b91611c0682611b58565b835260208201519167ffffffffffffffff831161031d57611c2f61014092611c95948301611b7f565b6020850152604081015160408501526060810151606085015260808101516080850152611c5e60a08201611bc1565b60a085015260c081015160c085015260e081015160e085015261010081015161010085015261012081015161012085015201611b58565b61014082015290565b60405190611cab8261057a565b60006080838281528260208201528260408201528260608201520152565b6000198114611cd85760010190565b611819565b903590601e198136030182121561031d570180359067ffffffffffffffff821161031d5760200191813603831361031d57565b356107e181610374565b908060209392818452848401376000828201840152601f01601f1916010190565b969390611d589060c097949a99969360e08a5260e08a0191611d1a565b6020880199909952604087015260608601526001600160a01b03908116608086015290811660a085015216910152565b600e54600160401b811015610575576001810180600e5581101561187957600e6000527fbb7b4a454dc3493923482f07822329ed19e8244eff582cc204f8554c3620c3fd0180546001600160a01b0319166001600160a01b03909216919091179055565b805490600160401b8210156105755760018201808255821015611879576000526020600020019060018060a01b03166bffffffffffffffffffffffff60a01b825416179055565b9060048110156103d45760ff80198354169116179055565b9160609396959491611e6591608085526080850191611d1a565b95602083015260408201520152565b336000908152601060205260409020909290611e8f90611976565b600c546001600160a01b0316918215611f3b57602092611eb7906001600160a01b0316610bb3565b90600060405195611ef587611ad542898301919060408352600b60408401526a2837b7b6102537b4b732b960a91b6060840152602060808401930152565b611f1560405197889687958694631cb722ef60e11b865260048601611920565b03925af1611f205750565b611f389060203d602011610cf057610ce38183610596565b50565b50505050565b60405190600e548083528260208101600e60005260206000209260005b818110611f735750506103f692500383610596565b84546001600160a01b0316835260019485019487945060209093019201611f5e565b803560025560208101356003556040810135600455606081013560055560800135611fbf8161046c565b60ff8019600654169115151617600655565b91909160808060a08301948035845260208101356020850152604081013560408501526060810135606085015201356120098161046c565b1515910152565b6040519061201f602083610596565b60008252565b60405190612034604083610596565b601b82527f4d6178696d756d20746f74616c20706f6f6c73207265616368656400000000006020830152565b6040519061206f606083610596565b60218252601960fa1b6040837f4d6178696d756d20706f6f6c73207065722063726561746f722072656163686560208201520152565b604051906120b4606083610596565b6028825267081c995858da195960c21b6040837f4d6178696d756d2061637469766520706f6f6c73207065722063726561746f7260208201520152565b91908201809211611cd857565b6040519061210d604083610596565b601a82527f506f6f6c206372656174696f6e20746f6f206672657175656e740000000000006020830152565b61214c61214860065460ff1690565b1590565b61227a57600254801515908161226d575b5061226157600354801515908161223e575b5061223257600454801515908161220f575b506122035760055480151591826121e1575b826121b5575b50506121aa576001906107e1612010565b6000906107e16120fe565b6001600160a01b031660009081526012602052604090206121d892505b546120f1565b42103880612199565b6001600160a01b03811660009081526012602052604090205415159250612193565b506000906107e16120a5565b6001600160a01b0383166000908152601360205260409020541015905038612181565b506000906107e1612060565b6001600160a01b038316600090815260116020526040902054101590503861216f565b506000906107e1612025565b905060075410153861215d565b506001906107e1612010565b3360009081526010602052604090209092906122a190611976565b600c546001600160a01b0316918215611f3b576020926122c9906001600160a01b0316610bb3565b9060006040519561230887611ad542898301919060408352600c60408401526b2837b7b61021b932b0ba37b960a11b6060840152602060808401930152565b61232860405197889687958694631cb722ef60e11b86526004860161188d565b03925af180156108d257611f205750565b3360009081527fad3228b676f7d3cd4284a5443f17f1962b36e491b30a40b2405849e597ba5fb5602052604090205460ff161561237257565b63e2517d3f60e01b60005233600452600060245260446000fd5b60008181526020818152604080832033845290915290205460ff16156123af5750565b63e2517d3f60e01b6000523360045260245260446000fd5b6001600160a01b03811660009081526000805160206151dd833981519152602052604090205460ff1661247a576001600160a01b03811660009081526000805160206151dd83398151915260205260409020805460ff1916600117905533906001600160a01b03167f4066b03ab177190abcd4de6384e71f7a60f56b879537b65d43a0523ade6cfe527f2f8788117e7eff1d82e926ec794901d17c78024a50270940304540a733656f0d600080a4600190565b50600090565b6000818152602081815260408083206001600160a01b038616845290915290205460ff16612509576000818152602081815260408083206001600160a01b03861684529091529020805460ff1916600117905533916001600160a01b0316907f2f8788117e7eff1d82e926ec794901d17c78024a50270940304540a733656f0d600080a4600190565b5050600090565b61251a8180611cdd565b905015612612576020810135662386f26fc1000081108015612600575b6125ec575060408101356002811080156125e2575b6125ce5750606081013562093a80811080156125c1575b6125ad57506080016001600160a01b0361257c82611d10565b16156125855750565b6125916108e891611d10565b632e337d1f60e21b6000526001600160a01b0316600452602490565b6313b783af60e21b60005260045260246000fd5b506301e133808111612563565b6375a6cbdd60e01b60005260045260246000fd5b506064811161254c565b635ac3ef8160e11b60005260045260246000fd5b5068056bc75e2d631000008111612537565b631c61bbb560e01b60005260046000fd5b61263261214860065460ff1690565b611f385760025480151580612769575b612755575060035480151580612732575b61271e5750600454801515806126fb575b6126e75750600554908180151591826126c5575b8261269b575b50506126875750565b6398bfc6e960e01b60005260045260246000fd5b6001600160a01b031660009081526012602052604090206126bc92506121d2565b4210813861267e565b6001600160a01b03811660009081526012602052604090205415159250612678565b63309d213b60e11b60005260045260246000fd5b506001600160a01b03821660009081526013602052604090208190541015612664565b63fc807da560e01b60005260045260246000fd5b506001600160a01b03821660009081526011602052604090208190541015612653565b63474a7cbf60e11b60005260045260246000fd5b50806007541015612642565b6001600160a01b03811660009081526000805160206151dd833981519152602052604090205460ff161561247a576001600160a01b031660008181526000805160206151dd83398151915260205260408120805460ff191690553391907f4066b03ab177190abcd4de6384e71f7a60f56b879537b65d43a0523ade6cfe52907ff6391f5c32d9c69d2a47ea670b442974b53935d1edc7fd64eb21e047a839171b9080a4600190565b6000818152602081815260408083206001600160a01b038616845290915290205460ff1615612509576000818152602081815260408083206001600160a01b03861684529091529020805460ff1916905533916001600160a01b0316907ff6391f5c32d9c69d2a47ea670b442974b53935d1edc7fd64eb21e047a839171b600080a4600190565b8015611cd8576000190190565b604051630c048d9160e31b815291929190600090829060049082906001600160a01b03165afa80156108d2576128f7916000916129f0575b50516001600160a01b031690565b91612901816103ca565b80159081156129db575b81156129c7575b5061295e575b5050600754600854600a54604080519384526020840192909252908201527fa903350a76439c821e3481f6350dab5c2bb11eefe3e2ce97053501d0e1f03d6590606090a1565b8061296a6003926103ca565b14612976575b80612918565b6129b590612988610b9d6008546128a4565b61299b612996600954611cc9565b600955565b6001600160a01b0316600090815260136020526040902090565b6129bf81546128a4565b905538612970565b600291506129d4816103ca565b1438612912565b90506129e6816103ca565b600181149061290b565b612a0591503d806000833e6108c48183610596565b386128e956fe608060405234610467576127d1803803806100198161046c565b92833981019060e0818303126104675780516001600160401b03811161046757810182601f82011215610467578051906001600160401b0382116103f25761006a601f8301601f191660200161046c565b93828552602083830101116104675760005b8281106104525750506020600091840101526020810151916040820151926060830151936100ac60808501610491565b946100c560c06100be60a08801610491565b9601610491565b600180556001600160a01b038716958615610441576001600160a01b03169687156104415760ff601254166104305785511561040857841561040857600284108015610426575b610408576201518083108015610419575b610408578061012e610134926104a5565b50610521565b5061013e336105b9565b5060128054610100600160a81b0319163360081b610100600160a81b0316179055601380546001600160a01b0319166001600160a01b03929092169190911790556040519461016086016001600160401b038111878210176103f25760405285526020850193845260408501928352606085019182526080850190815260a08501906000825260c086019242845260e0870194600086526101008801966000885261012089019860008a5261014081019a8b5260018060a01b0390511660018060a01b031960035416176003555180519060018060401b0382116103f25760045490600182811c921680156103e8575b60208310146103d25781601f849311610362575b50602090601f83116001146102fa576000926102ef575b50508160011b916000199060031b1c1916176004555b5160055551600655516007555160048110156102d95760ff8019600854169116176008555160095551600a5551600b5551600c5560018060a01b0390511660018060a01b0319600d541617600d55600160ff1960125416176012556040516120ff90816106528239f35b634e487b7160e01b600052602160045260246000fd5b015190503880610259565b600460009081528281209350601f198516905b81811061034a5750908460019594939210610331575b505050811b0160045561026f565b015160001960f88460031b161c19169055388080610323565b9293602060018192878601518155019501930161030d565b60046000529091507f8a35acfbc15ff81a39ae7d344fd709f28e8600b4aa8c65c6b64bfe7fe36bd19b601f840160051c810191602085106103c8575b90601f859493920160051c01905b8181106103b95750610242565b600081558493506001016103ac565b909150819061039e565b634e487b7160e01b600052602260045260246000fd5b91607f169161022e565b634e487b7160e01b600052604160045260246000fd5b630e52390960e41b60005260046000fd5b506301e13380831161011d565b506064841161010c565b637983c05160e01b60005260046000fd5b63d92e233d60e01b60005260046000fd5b8060208092840101518282880101520161007c565b600080fd5b6040519190601f01601f191682016001600160401b038111838210176103f257604052565b51906001600160a01b038216820361046757565b6001600160a01b03811660009081526000805160206127b1833981519152602052604090205460ff1661051b576001600160a01b031660008181526000805160206127b183398151915260205260408120805460ff191660011790553391906000805160206127518339815191528180a4600190565b50600090565b6001600160a01b0381166000908152600080516020612771833981519152602052604090205460ff1661051b576001600160a01b0316600081815260008051602061277183398151915260205260408120805460ff191660011790553391907f5358bcfd81d1ef3da152b1755e1c3c6739686fa7e83dbcad0071568cc4b73a63906000805160206127518339815191529080a4600190565b6001600160a01b0381166000908152600080516020612791833981519152602052604090205460ff1661051b576001600160a01b0316600081815260008051602061279183398151915260205260408120805460ff191660011790553391907fdfbefbf47cfe66b701d8cfdbce1de81c821590819cb07e71cb01b6602fb0ee27906000805160206127518339815191529080a460019056fe6080604052600436101561001d575b3661066d5761001b611753565b005b60003560e01c806301ffc9a71461025d57806304a0fb17146102585780631db8e04f14610253578063243496711461024e578063248a9ca3146102495780632f2ff15d1461024457806336568abe1461023f57806338fff2d01461023a5780633f4ba83a146102355780634026478e146102305780635c975abb1461022b5780635f1231ea1461022657806360246c88146102215780636cbb721f1461021c5780636e76fc8f146102175780636ff1c9bc146102125780638346226c1461020d5780638371e6b4146102085780638456cb5914610203578063876d50c1146101fe57806391d14854146101f95780639a9935b3146101f45780639eab5253146101ef578063a217fddf146101ea578063a230c524146101e5578063aac4987d146101e0578063bb21a997146101db578063bfffc1a8146101d6578063caa648b4146101d1578063ce2cf5d9146101cc578063d547741f146101c7578063dac6270d146101c2578063dcdcc983146101bd578063e0b1d267146101b8578063e6d6f7fd146101b35763f19e9d810361000e5761117f565b611105565b61106c565b611050565b611035565b610ff5565b610fa6565b610f7b565b610f5d565b610f44565b610ef1565b610eb2565b610e96565b610e20565b610e01565b610dae565b610d85565b610d2b565b610b3f565b610b24565b610a1c565b6109e1565b6109a0565b6108aa565b6106a1565b61067e565b6105dc565b610573565b610558565b610512565b6104cd565b61046c565b61030f565b6102f3565b6102b8565b346102b35760203660031901126102b35760043563ffffffff60e01b81168091036102b357602090637965db0b60e01b81149081156102a2575b506040519015158152f35b6301ffc9a760e01b14905038610297565b600080fd5b346102b35760003660031901126102b35760206040517fdfbefbf47cfe66b701d8cfdbce1de81c821590819cb07e71cb01b6602fb0ee278152f35b346102b35760003660031901126102b357602060405160648152f35b346102b35760003660031901126102b357610328611789565b6103306117ab565b60ff60085416600481101561046757600381036104435733600090815260106020526040902061036a90610366905b5460ff1690565b1590565b61043257336000908152600f6020526040902060038101805460ff166104215760046001830154920154906103b06103a28385611268565b825460ff1916600117909255565b600080808084335af16103c161130c565b5015610410576040805193845260208401929092529082015233907f2fd1e546181ffabf6481547aaef86d68a6eb14b1ef9bc7324c3aeff09bc295aa9080606081015b0390a261001b60018055565b6327fcd9d160e01b60005260046000fd5b636507689f60e01b60005260046000fd5b63148fe22160e11b60005260046000fd5b633bf2e2f960e11b600052610457906107e8565b6104616003602452565b60446000fd5b6107c8565b346102b35760203660031901126102b3576020610499600435600052600060205260016040600020015490565b604051908152f35b602435906001600160a01b03821682036102b357565b600435906001600160a01b03821682036102b357565b346102b35760403660031901126102b35761001b6004356104ec6104a1565b9061050d61050882600052600060205260016040600020015490565b61183a565b611875565b346102b35760403660031901126102b35760043561052e6104a1565b336001600160a01b038216036105475761001b91611905565b63334bd91960e11b60005260046000fd5b346102b35760003660031901126102b357602061049961198c565b346102b35760003660031901126102b35761058c6117c8565b60025460ff8116156105cb5760ff19166002557f5db9ee0a495bf2e6ff9c91a7834c1ba4fdd244a5e8aa4e537bd38aeae4b073aa6020604051338152a1005b638dfc202b60e01b60005260046000fd5b346102b35760003660031901126102b3576003546001600160a01b0316330361066d57610607611789565b61060f6117ab565b60ff600854166004811015610467578061064f576002600c541061063e57610635611a1f565b61001b60018055565b63e2155f6960e01b60005260046000fd5b633bf2e2f960e11b600052610663906107e8565b6104616000602452565b631a27eac360e11b60005260046000fd5b346102b35760003660031901126102b357602060ff600254166040519015158152f35b346102b35760203660031901126102b3576106ba6104b7565b600060806040516106ca8161128b565b828152826020820152826040820152826060820152015260018060a01b0316600052600f60205261078360406000206004604051916107088361128b565b60018060a01b038154168352600181015460208401526002810154604084015260ff60038201541615156060840152015460808201526040519182918291909160808060a083019460018060a01b03815116845260208101516020850152604081015160408501526060810151151560608501520151910152565b0390f35b919082519283825260005b8481106107b3575050826000602080949584010152601f8019910116010190565b80602080928401015182828601015201610792565b634e487b7160e01b600052602160045260246000fd5b6004111561046757565b600481101561046757600452565b9060048210156104675752565b602080825282516001600160a01b0316908201526108a79061016061014061083a6020860151836040860152610180850190610787565b946040810151606085015260608101516080850152608081015160a085015261086b60a082015160c08601906107f6565b60c081015160e085015260e081015161010085015261010081015161012085015261012081015182850152015191019060018060a01b03169052565b90565b346102b35760003660031901126102b35760006101406040516108cc816112ac565b828152606060208201528260408201528260608201528260808201528260a08201528260c08201528260e0820152826101008201528261012082015201526107836109156112eb565b6003546001600160a01b0316815261092b61134c565b602082015260055460408201526006546060820152600754608082015261096061095760085460ff1690565b60a08301611425565b60095460c0820152600a5460e0820152600b54610100820152600c54610120820152600d546001600160a01b031661014082015260405191829182610803565b346102b35760003660031901126102b35760ff6008541660048110156104675715806109d4575b6020906040519015158152f35b50600c54600211156109c7565b346102b35760003660031901126102b35760206040517f5358bcfd81d1ef3da152b1755e1c3c6739686fa7e83dbcad0071568cc4b73a638152f35b346102b35760203660031901126102b357610a356104b7565b610a3d6117c8565b610a45611789565b6001600160a01b0381166000908152601060205260409020610a6a906103669061035f565b610432576001600160a01b0381166000908152600f60205260409020906003820190610a97825460ff1690565b610421576004600184015493015490610ac1610ab38386611268565b845460ff1916600117909455565b6001600160a01b031692600080808086885af1610adc61130c565b5015610410576104047f2fd1e546181ffabf6481547aaef86d68a6eb14b1ef9bc7324c3aeff09bc295aa93604051938493846040919493926060820195825260208201520152565b346102b35760003660031901126102b3576020610499611451565b60003660031901126102b357610b53611789565b610b5b6117ab565b60ff600854166004811015610467578061064f57600554803403610d1257336000908152601060205260409020610b919061035f565b610d0157600c546006541115610cf057610c3d610bac6112fd565b3381523460208201524260408201526000606082015260006080820152610be53360018060a01b0316600052600f602052604060002090565b90608060049160018060a01b038151166bffffffffffffffffffffffff60a01b8554161784556020810151600185015560408101516002850155600384016060820151151560ff801983541691161790550151910155565b336000908152601060205260409020610c5d90805460ff19166001179055565b610c66336114a2565b610c79610c74600c54611510565b600c55565b610c8d610c8834600b54611268565b600b55565b600c5460408051348152602081019290925233917fab585a62abffb5c5f3221cacd949f94b54770198cc25af3ad1d315e51be8e3e39190a2610ccf3433611b08565b600c5460065414610ce35761001b60018055565b610ceb611a1f565b610635565b6327a01e0760e21b60005260046000fd5b6340803a5f60e11b60005260046000fd5b6357353eb960e11b6000523460045260245260445b6000fd5b346102b35760003660031901126102b357610d446117c8565b610d4c6117ab565b600160ff1960025416176002557f62e78cea01bee320cd4e420270b5ea74000d11b0c9f74754ebdbfc544b05a2586020604051338152a1005b346102b35760003660031901126102b3576013546040516001600160a01b039091168152602090f35b346102b35760403660031901126102b357602060ff610df5600435610dd16104a1565b906000526000845260406000209060018060a01b0316600052602052604060002090565b54166040519015158152f35b346102b35760003660031901126102b35760206040516301e133808152f35b346102b35760003660031901126102b357604051610e4881610e418161151f565b03826112c9565b60405180916020820160208352815180915260206040840192019060005b818110610e74575050500390f35b82516001600160a01b0316845285945060209384019390920191600101610e66565b346102b35760003660031901126102b357602060405160008152f35b346102b35760203660031901126102b3576001600160a01b03610ed36104b7565b166000526010602052602060ff604060002054166040519015158152f35b346102b35760003660031901126102b35760ff6008541660048110156104675760021480610f27575b6040519015158152602090f35b50600a546007548101809111610f3f57421015610f1a565b611252565b346102b35760003660031901126102b35761001b61158b565b346102b35760003660031901126102b3576020604051620151808152f35b346102b35760003660031901126102b357600b546011548101809111610f3f57602090604051908152f35b346102b35760003660031901126102b35760ff6008541660048110156104675760021480610fdd575b610fd557005b61001b611bf7565b50600a546007548101809111610f3f57421015610fcf565b346102b35760403660031901126102b35761001b6004356110146104a1565b9061103061050882600052600060205260016040600020015490565b611905565b346102b35760003660031901126102b3576020610499611714565b346102b35760003660031901126102b357602060405160028152f35b346102b35760003660031901126102b3573360009081527faae065819044e7c1f6f3a25fcf56eec95d9ef9dcbfbb8eb1f8a4a273b3bd0146602052604090205460ff16156110cc5760035460055461001b916001600160a01b0316611da0565b63e2517d3f60e01b600052336004527fdfbefbf47cfe66b701d8cfdbce1de81c821590819cb07e71cb01b6602fb0ee2760245260446000fd5b346102b35760003660031901126102b35761111e611789565b6111266117ab565b60ff600854166004811015610467576002810361116b5761114c600a5460075490611268565b421061115a57610635611bf7565b631436150f60e11b60005260046000fd5b633bf2e2f960e11b600052610d279061123b565b346102b35760003660031901126102b357611198611789565b6111a06117ab565b60ff600854166004811015610467578061064f573360005260106020526111d0610366604060002060ff90541690565b61043257336000908152600f60205260409020600101546111f033611ea4565b600080808084335af161120161130c565b50156104105760405190815233907f9346ee3b9c76468ddd2fdbfb65dae9da6e2479083b25cd80377d6809f6f8c69d908060208101610404565b906044916004811015610467576004526002602452565b634e487b7160e01b600052601160045260246000fd5b91908201809211610f3f57565b634e487b7160e01b600052604160045260246000fd5b60a0810190811067ffffffffffffffff8211176112a757604052565b611275565b610160810190811067ffffffffffffffff8211176112a757604052565b90601f8019910116810190811067ffffffffffffffff8211176112a757604052565b604051906112fb610160836112c9565b565b604051906112fb60a0836112c9565b3d15611347573d9067ffffffffffffffff82116112a7576040519161133b601f8201601f1916602001846112c9565b82523d6000602084013e565b606090565b604051906000600454908160011c916001811690811561141b575b60208410821461140757838652859291602084019181156113ee5750600114611398575b506112fb925003836112c9565b6004600090815291507f8a35acfbc15ff81a39ae7d344fd709f28e8600b4aa8c65c6b64bfe7fe36bd19b5b8483106113d757506112fb9350013861138b565b8054828401528693506020909201916001016113c3565b60ff19168252506112fb93151560051b0190503861138b565b634e487b7160e01b83526022600452602483fd5b92607f1692611367565b60048210156104675752565b811561143b570490565b634e487b7160e01b600052601260045260246000fd5b600c548015611466576108a790601154611431565b50600090565b634e487b7160e01b600052603260045260246000fd5b600e5481101561149d57600e60005260206000200190600090565b61146c565b600e5490680100000000000000008210156112a75760018201600e55600e5482101561149d57600e6000527fbb7b4a454dc3493923482f07822329ed19e8244eff582cc204f8554c3620c3fd90910180546001600160a01b0319166001600160a01b03909216919091179055565b6000198114610f3f5760010190565b6020600e54918281520190600e60005260206000209060005b8181106115455750505090565b82546001600160a01b0316845260209093019260019283019201611538565b908160209103126102b3575190565b906127108202918083046127101490151715610f3f57565b600261159960085460ff1690565b6115a2816107de565b14806116e0575b6116d85760085460ff166115bc816107de565b600281149081156116c4575b506115cf57565b6000806115da61198c565b600d546001600160a01b03169060405161161c8161160e6020820194630201762160e21b8652602483019190602083019252565b03601f1981018352826112c9565b51915afa61162861130c565b90806116ba575b611637575b50565b61164d8160208061165294518301019101611564565b601155565b61165a611d35565b600b5480156116a3576116866000805160206120aa83398151915291611681601154611573565b611431565b60115460408051918252602082019290925290819081015b0390a1565b506000805160206120aa8339815191526000611686565b508051151561162f565b600391506116d1816107de565b14386115c8565b6112fb611bf7565b506116f0600a5460075490611268565b4210156115a9565b600019810191908211610f3f57565b91908203918211610f3f57565b60ff6008541660048110156104675760020361174e57600a546007548101809111610f3f578042101561146657428103908111610f3f5790565b600090565b600d546001600160a01b03163314158061176e575b61066d57565b506012543360089190911c6001600160a01b03161415611768565b60026001541461179a576002600155565b633ee5aeb560e01b60005260046000fd5b60ff600254166117b757565b63d93c066560e01b60005260046000fd5b3360009081527f329977736520969c9868a184f64244da927a0462c6cb802bad0ae0d6d568ac82602052604090205460ff161561180157565b63e2517d3f60e01b600052336004527f5358bcfd81d1ef3da152b1755e1c3c6739686fa7e83dbcad0071568cc4b73a6360245260446000fd5b60008181526020818152604080832033845290915290205460ff161561185d5750565b63e2517d3f60e01b6000523360045260245260446000fd5b6000818152602081815260408083206001600160a01b038616845290915290205460ff166118fe576000818152602081815260408083206001600160a01b03861684529091529020805460ff1916600117905533916001600160a01b0316907f2f8788117e7eff1d82e926ec794901d17c78024a50270940304540a733656f0d600080a4600190565b5050600090565b6000818152602081815260408083206001600160a01b038616845290915290205460ff16156118fe576000818152602081815260408083206001600160a01b03861684529091529020805460ff1916905533916001600160a01b0316907ff6391f5c32d9c69d2a47ea670b442974b53935d1edc7fd64eb21e047a839171b600080a4600190565b60125460081c6001600160a01b03166001600160a01b0381161561146657803b15611466576001600160a01b031660405163caa9a08d60e01b815230600482015290602090829060249082905afa600091816119ee575b506108a75750600090565b611a1191925060203d602011611a18575b611a0981836112c9565b810190611564565b90386119e3565b503d6119ff565b611a31600160ff196008541617600855565b611a3a42600a55565b600b5480611a8e575b50600a54600b546040805192835260208301919091527f3b4c9debfd13874e80f37195e52ad2c52e13807b61e5d15ac97a43c8c2e7dd9791a16112fb600260ff196008541617600855565b60008091611a9a61198c565b600d546001600160a01b031660405163654cfdff60e01b60208201908152602482019390935260006044820152909290611ad7816064810161160e565b51925af1611ae361130c565b90611a4357805115611af757805190602001fd5b63ab04572f60e01b60005260046000fd5b6013549091906001600160a01b0316158015611bd0575b611bcc57611b2b61198c565b8015611bc757601254604051635f669d4160e01b602082019081526001600160a01b03958616602483015260448201939093526064810193909352600093849360089290921c1691908390611b83816084810161160e565b51925af1611b8f61130c565b9015611b985750565b51611b9f57565b6000805160206120aa8339815191526040518061169e81906000602060408401938281520152565b505050565b5050565b50611bdc610366611fb6565b611b1f565b91908260409103126102b3576020825192015190565b600080611c0261198c565b600d546001600160a01b03169082604051611c378161160e6020820195632e1a7d4d60e01b8752602483019190602083019252565b51925af1611c4361130c565b9015611d0257611c5f81602080611c6594518301019101611be1565b60115590565b600b5403611cd3575b611c76611d35565b611c88600360ff196008541617600855565b611c9061202d565b7fe6e3f8167a0352c51f4a5dc639deb5c5679ccf396f92c55db62037faa0a23512601154611cc081600b54611268565b60408051928352602083019190915290a1565b60115460408051918252600060208301526000805160206120aa8339815191529190819081015b0390a1611c6e565b50611d0d6000601155565b6000805160206120aa83398151915260405180611cfa81906000602060408401938281520152565b600c54801561163457611d4a90601154611431565b60005b600e54811015611bcc577fbb7b4a454dc3493923482f07822329ed19e8244eff582cc204f8554c3620c3fd8101546001600160a01b03166000908152600f60205260409020600401829055600101611d4d565b6013549091906001600160a01b0316158015611e1b575b611bcc57611dc361198c565b8015611bc75760125460405163f2a5109f60e01b602082019081526001600160a01b03958616602483015260448201939093526064810193909352600093849360089290921c1691908390611b83816084810161160e565b50611e27610366611fb6565b611db7565b600e548015611e8157600e5460001982019160009183101561149d57600e918290527fbb7b4a454dc3493923482f07822329ed19e8244eff582cc204f8554c3620c3fc0180546001600160a01b031916905555565b634e487b7160e01b600052603160045260246000fd5b8015610f3f576000190190565b6001600160a01b0381166000908152600f60209081526040808320600181018054858355908590556002820185905560038201859055600490910184905560109092528220805460ff19169055905b600e5480821015611fa657611f1f611f0a83611482565b905460039190911b1c6001600160a01b031690565b6001600160a01b03858116911614611f3a5750600101611ef3565b6112fb9350610c889291611f64611f5e611f0a611f59611f88956116f8565b611482565b91611482565b81546001600160a01b0393841660039290921b91821b9390911b1916919091179055565b611f90611e2c565b611f9e610c74600c54611e97565b600b54611707565b50506112fb9150610c8890611f90565b60125460081c6001600160a01b03168015611466573b151590565b929190926060810160608252600e548091526080820190600e60005260206000209060005b81811061200e57505050602082019490945260400152565b82546001600160a01b0316845260209093019260019283019201611ff6565b6013546001600160a01b0316158015612098575b6112fb5761204d61198c565b801561163457600e541561163457601254600091829160081c6001600160a01b0316908261160e611b83601154604051928391602083019663035f52c560e31b885260248401611fd1565b506120a4610366611fb6565b61204156feb5caada44c21534f899b80931d6822af878c135819ecf2b62cfb2b81d7f299d4a26469706673582212208265ec04d668f9d5ae812c97b4996e8f43f745e45281fc9dc5b7c03c153d0a9664736f6c634300081c00332f8788117e7eff1d82e926ec794901d17c78024a50270940304540a733656f0d329977736520969c9868a184f64244da927a0462c6cb802bad0ae0d6d568ac82aae065819044e7c1f6f3a25fcf56eec95d9ef9dcbfbb8eb1f8a4a273b3bd0146ad3228b676f7d3cd4284a5443f17f1962b36e491b30a40b2405849e597ba5fb57d21986f97b64cd2d9c36c5f357e46868c76c53128809cf5af679c0bf9c6ed9ea2646970667358221220874a317e3fa6c160cb2bfc9586aa3fced41d65f563790e99f0eb6e8ad31264b064736f6c634300081c00332f8788117e7eff1d82e926ec794901d17c78024a50270940304540a733656f0d7d21986f97b64cd2d9c36c5f357e46868c76c53128809cf5af679c0bf9c6ed9e4066b03ab177190abcd4de6384e71f7a60f56b879537b65d43a0523ade6cfe52329977736520969c9868a184f64244da927a0462c6cb802bad0ae0d6d568ac82ad3228b676f7d3cd4284a5443f17f1962b36e491b30a40b2405849e597ba5fb5",
  "linkReferences": {},
  "deployedLinkReferences": {}
}