{
  "_format": "hh-sol-artifact-1",
  "contractName": "RewardNFT",
  "sourceName": "contracts/RewardNFT.sol",
  "abi": [
    {
      "inputs": [
        {
          "internalType": "address",
          "name": "admin",
          "type": "address"
        },
        {
          "internalType": "string",
          "name": "name",
          "type": "string"
        },
        {
          "internalType": "string",
          "name": "symbol",
          "type": "string"
        }
      ],
      "stateMutability": "nonpayable",
      "type": "constructor"
    },
    {
      "inputs": [],
      "name": "AccessControlBadConfirmation",
      "type": "error"
    },
    {
      "inputs": [
        {
          "internalType": "address",
          "name": "account",
          "type": "address"
        },
        {
          "internalType": "bytes32",
          "name": "neededRole",
          "type": "bytes32"
        }
      ],
      "name": "AccessControlUnauthorizedAccount",
      "type": "error"
    },
    {
      "inputs": [
        {
          "internalType": "address",
          "name": "user",
          "type": "address"
        },
        {
          "internalType": "enum IBadge.BadgeType",
          "name": "badgeType",
          "type": "uint8"
        }
      ],
      "name": "BadgeAlreadyOwned",
      "type": "error"
    },
    {
      "inputs": [
        {
          "internalType": "enum IBadge.BadgeType",
          "name": "badgeType",
          "type": "uint8"
        }
      ],
      "name": "BadgeNotActive",
      "type": "error"
    },
    {
      "inputs": [
        {
          "internalType": "uint256",
          "name": "tokenId",
          "type": "uint256"
        }
      ],
      "name": "BadgeNotFound",
      "type": "error"
    },
    {
      "inputs": [],
      "name": "ERC721EnumerableForbiddenBatchMint",
      "type": "error"
    },
    {
      "inputs": [
        {
          "internalType": "address",
          "name": "sender",
          "type": "address"
        },
        {
          "internalType": "uint256",
          "name": "tokenId",
          "type": "uint256"
        },
        {
          "internalType": "address",
          "name": "owner",
          "type": "address"
        }
      ],
      "name": "ERC721IncorrectOwner",
      "type": "error"
    },
    {
      "inputs": [
        {
          "internalType": "address",
          "name": "operator",
          "type": "address"
        },
        {
          "internalType": "uint256",
          "name": "tokenId",
          "type": "uint256"
        }
      ],
      "name": "ERC721InsufficientApproval",
      "type": "error"
    },
    {
      "inputs": [
        {
          "internalType": "address",
          "name": "approver",
          "type": "address"
        }
      ],
      "name": "ERC721InvalidApprover",
      "type": "error"
    },
    {
      "inputs": [
        {
          "internalType": "address",
          "name": "operator",
          "type": "address"
        }
      ],
      "name": "ERC721InvalidOperator",
      "type": "error"
    },
    {
      "inputs": [
        {
          "internalType": "address",
          "name": "owner",
          "type": "address"
        }
      ],
      "name": "ERC721InvalidOwner",
      "type": "error"
    },
    {
      "inputs": [
        {
          "internalType": "address",
          "name": "receiver",
          "type": "address"
        }
      ],
      "name": "ERC721InvalidReceiver",
      "type": "error"
    },
    {
      "inputs": [
        {
          "internalType": "address",
          "name": "sender",
          "type": "address"
        }
      ],
      "name": "ERC721InvalidSender",
      "type": "error"
    },
    {
      "inputs": [
        {
          "internalType": "uint256",
          "name": "tokenId",
          "type": "uint256"
        }
      ],
      "name": "ERC721NonexistentToken",
      "type": "error"
    },
    {
      "inputs": [
        {
          "internalType": "address",
          "name": "owner",
          "type": "address"
        },
        {
          "internalType": "uint256",
          "name": "index",
          "type": "uint256"
        }
      ],
      "name": "ERC721OutOfBoundsIndex",
      "type": "error"
    },
    {
      "inputs": [],
      "name": "EnforcedPause",
      "type": "error"
    },
    {
      "inputs": [],
      "name": "ExpectedPause",
      "type": "error"
    },
    {
      "inputs": [
        {
          "internalType": "uint256",
          "name": "required",
          "type": "uint256"
        },
        {
          "internalType": "uint256",
          "name": "provided",
          "type": "uint256"
        }
      ],
      "name": "InsufficientValue",
      "type": "error"
    },
    {
      "inputs": [],
      "name": "InvalidArrayLength",
      "type": "error"
    },
    {
      "inputs": [
        {
          "internalType": "enum IBadge.BadgeType",
          "name": "badgeType",
          "type": "uint8"
        }
      ],
      "name": "InvalidBadgeType",
      "type": "error"
    },
    {
      "inputs": [
        {
          "internalType": "enum IBadge.BadgeType",
          "name": "badgeType",
          "type": "uint8"
        }
      ],
      "name": "MaxSupplyReached",
      "type": "error"
    },
    {
      "inputs": [],
      "name": "ReentrancyGuardReentrantCall",
      "type": "error"
    },
    {
      "inputs": [
        {
          "internalType": "address",
          "name": "caller",
          "type": "address"
        }
      ],
      "name": "UnauthorizedMinter",
      "type": "error"
    },
    {
      "anonymous": false,
      "inputs": [
        {
          "indexed": true,
          "internalType": "address",
          "name": "owner",
          "type": "address"
        },
        {
          "indexed": true,
          "internalType": "address",
          "name": "approved",
          "type": "address"
        },
        {
          "indexed": true,
          "internalType": "uint256",
          "name": "tokenId",
          "type": "uint256"
        }
      ],
      "name": "Approval",
      "type": "event"
    },
    {
      "anonymous": false,
      "inputs": [
        {
          "indexed": true,
          "internalType": "address",
          "name": "owner",
          "type": "address"
        },
        {
          "indexed": true,
          "internalType": "address",
          "name": "operator",
          "type": "address"
        },
        {
          "indexed": false,
          "internalType": "bool",
          "name": "approved",
          "type": "bool"
        }
      ],
      "name": "ApprovalForAll",
      "type": "event"
    },
    {
      "anonymous": false,
      "inputs": [
        {
          "indexed": true,
          "internalType": "uint256",
          "name": "tokenId",
          "type": "uint256"
        },
        {
          "indexed": false,
          "internalType": "string",
          "name": "newImageURI",
          "type": "string"
        }
      ],
      "name": "BadgeMetadataUpdated",
      "type": "event"
    },
    {
      "anonymous": false,
      "inputs": [
        {
          "indexed": true,
          "internalType": "address",
          "name": "recipient",
          "type": "address"
        },
        {
          "indexed": true,
          "internalType": "uint256",
          "name": "tokenId",
          "type": "uint256"
        },
        {
          "indexed": true,
          "internalType": "enum IBadge.BadgeType",
          "name": "badgeType",
          "type": "uint8"
        },
        {
          "indexed": false,
          "internalType": "enum IBadge.BadgeRarity",
          "name": "rarity",
          "type": "uint8"
        },
        {
          "indexed": false,
          "internalType": "uint256",
          "name": "poolId",
          "type": "uint256"
        }
      ],
      "name": "BadgeMinted",
      "type": "event"
    },
    {
      "anonymous": false,
      "inputs": [
        {
          "indexed": true,
          "internalType": "enum IBadge.BadgeType",
          "name": "badgeType",
          "type": "uint8"
        },
        {
          "components": [
            {
              "internalType": "enum IBadge.BadgeType",
              "name": "badgeType",
              "type": "uint8"
            },
            {
              "internalType": "enum IBadge.BadgeRarity",
              "name": "rarity",
              "type": "uint8"
            },
            {
              "internalType": "string",
              "name": "title",
              "type": "string"
            },
            {
              "internalType": "string",
              "name": "description",
              "type": "string"
            },
            {
              "internalType": "string",
              "name": "imageURI",
              "type": "string"
            },
            {
              "internalType": "uint256",
              "name": "minValue",
              "type": "uint256"
            },
            {
              "internalType": "bool",
              "name": "isActive",
              "type": "bool"
            },
            {
              "internalType": "uint256",
              "name": "totalMinted",
              "type": "uint256"
            },
            {
              "internalType": "uint256",
              "name": "maxSupply",
              "type": "uint256"
            }
          ],
          "indexed": false,
          "internalType": "struct IBadge.BadgeTemplate",
          "name": "template",
          "type": "tuple"
        }
      ],
      "name": "BadgeTemplateUpdated",
      "type": "event"
    },
    {
      "anonymous": false,
      "inputs": [
        {
          "indexed": false,
          "internalType": "uint256",
          "name": "_fromTokenId",
          "type": "uint256"
        },
        {
          "indexed": false,
          "internalType": "uint256",
          "name": "_toTokenId",
          "type": "uint256"
        }
      ],
      "name": "BatchMetadataUpdate",
      "type": "event"
    },
    {
      "anonymous": false,
      "inputs": [
        {
          "indexed": false,
          "internalType": "uint256",
          "name": "_tokenId",
          "type": "uint256"
        }
      ],
      "name": "MetadataUpdate",
      "type": "event"
    },
    {
      "anonymous": false,
      "inputs": [
        {
          "indexed": false,
          "internalType": "address",
          "name": "account",
          "type": "address"
        }
      ],
      "name": "Paused",
      "type": "event"
    },
    {
      "anonymous": false,
      "inputs": [
        {
          "indexed": true,
          "internalType": "address",
          "name": "user",
          "type": "address"
        },
        {
          "indexed": false,
          "internalType": "uint256",
          "name": "newScore",
          "type": "uint256"
        },
        {
          "indexed": false,
          "internalType": "uint256",
          "name": "badgeCount",
          "type": "uint256"
        }
      ],
      "name": "ReputationUpdated",
      "type": "event"
    },
    {
      "anonymous": false,
      "inputs": [
        {
          "indexed": true,
          "internalType": "bytes32",
          "name": "role",
          "type": "bytes32"
        },
        {
          "indexed": true,
          "internalType": "bytes32",
          "name": "previousAdminRole",
          "type": "bytes32"
        },
        {
          "indexed": true,
          "internalType": "bytes32",
          "name": "newAdminRole",
          "type": "bytes32"
        }
      ],
      "name": "RoleAdminChanged",
      "type": "event"
    },
    {
      "anonymous": false,
      "inputs": [
        {
          "indexed": true,
          "internalType": "bytes32",
          "name": "role",
          "type": "bytes32"
        },
        {
          "indexed": true,
          "internalType": "address",
          "name": "account",
          "type": "address"
        },
        {
          "indexed": true,
          "internalType": "address",
          "name": "sender",
          "type": "address"
        }
      ],
      "name": "RoleGranted",
      "type": "event"
    },
    {
      "anonymous": false,
      "inputs": [
        {
          "indexed": true,
          "internalType": "bytes32",
          "name": "role",
          "type": "bytes32"
        },
        {
          "indexed": true,
          "internalType": "address",
          "name": "account",
          "type": "address"
        },
        {
          "indexed": true,
          "internalType": "address",
          "name": "sender",
          "type": "address"
        }
      ],
      "name": "RoleRevoked",
      "type": "event"
    },
    {
      "anonymous": false,
      "inputs": [
        {
          "indexed": true,
          "internalType": "address",
          "name": "from",
          "type": "address"
        },
        {
          "indexed": true,
          "internalType": "address",
          "name": "to",
          "type": "address"
        },
        {
          "indexed": true,
          "internalType": "uint256",
          "name": "tokenId",
          "type": "uint256"
        }
      ],
      "name": "Transfer",
      "type": "event"
    },
    {
      "anonymous": false,
      "inputs": [
        {
          "indexed": false,
          "internalType": "address",
          "name": "account",
          "type": "address"
        }
      ],
      "name": "Unpaused",
      "type": "event"
    },
    {
      "inputs": [],
      "name": "BADGE_ADMIN_ROLE",
      "outputs": [
        {
          "internalType": "bytes32",
          "name": "",
          "type": "bytes32"
        }
      ],
      "stateMutability": "view",
      "type": "function"
    },
    {
      "inputs": [],
      "name": "BADGE_MINTER_ROLE",
      "outputs": [
        {
          "internalType": "bytes32",
          "name": "",
          "type": "bytes32"
        }
      ],
      "stateMutability": "view",
      "type": "function"
    },
    {
      "inputs": [],
      "name": "DEFAULT_ADMIN_ROLE",
      "outputs": [
        {
          "internalType": "bytes32",
          "name": "",
          "type": "bytes32"
        }
      ],
      "stateMutability": "view",
      "type": "function"
    },
    {
      "inputs": [
        {
          "internalType": "address",
          "name": "to",
          "type": "address"
        },
        {
          "internalType": "uint256",
          "name": "tokenId",
          "type": "uint256"
        }
      ],
      "name": "approve",
      "outputs": [],
      "stateMutability": "nonpayable",
      "type": "function"
    },
    {
      "inputs": [
        {
          "internalType": "address",
          "name": "owner",
          "type": "address"
        }
      ],
      "name": "balanceOf",
      "outputs": [
        {
          "internalType": "uint256",
          "name": "",
          "type": "uint256"
        }
      ],
      "stateMutability": "view",
      "type": "function"
    },
    {
      "inputs": [
        {
          "internalType": "address",
          "name": "recipient",
          "type": "address"
        },
        {
          "internalType": "enum IBadge.BadgeType[]",
          "name": "badgeTypes",
          "type": "uint8[]"
        },
        {
          "internalType": "uint256[]",
          "name": "poolIds",
          "type": "uint256[]"
        },
        {
          "internalType": "uint256[]",
          "name": "values",
          "type": "uint256[]"
        }
      ],
      "name": "batchMintBadges",
      "outputs": [
        {
          "internalType": "uint256[]",
          "name": "tokenIds",
          "type": "uint256[]"
        }
      ],
      "stateMutability": "nonpayable",
      "type": "function"
    },
    {
      "inputs": [
        {
          "internalType": "address",
          "name": "user",
          "type": "address"
        }
      ],
      "name": "calculateReputationScore",
      "outputs": [
        {
          "internalType": "uint256",
          "name": "reputationScore",
          "type": "uint256"
        }
      ],
      "stateMutability": "view",
      "type": "function"
    },
    {
      "inputs": [
        {
          "internalType": "enum IBadge.BadgeType",
          "name": "badgeType",
          "type": "uint8"
        }
      ],
      "name": "canMintBadge",
      "outputs": [
        {
          "internalType": "bool",
          "name": "canMint",
          "type": "bool"
        }
      ],
      "stateMutability": "view",
      "type": "function"
    },
    {
      "inputs": [],
      "name": "emergencyPause",
      "outputs": [],
      "stateMutability": "nonpayable",
      "type": "function"
    },
    {
      "inputs": [],
      "name": "emergencyUnpause",
      "outputs": [],
      "stateMutability": "nonpayable",
      "type": "function"
    },
    {
      "inputs": [
        {
          "internalType": "uint256",
          "name": "tokenId",
          "type": "uint256"
        }
      ],
      "name": "getApproved",
      "outputs": [
        {
          "internalType": "address",
          "name": "",
          "type": "address"
        }
      ],
      "stateMutability": "view",
      "type": "function"
    },
    {
      "inputs": [
        {
          "internalType": "uint256",
          "name": "tokenId",
          "type": "uint256"
        }
      ],
      "name": "getBadgeInfo",
      "outputs": [
        {
          "components": [
            {
              "internalType": "uint256",
              "name": "tokenId",
              "type": "uint256"
            },
            {
              "internalType": "enum IBadge.BadgeType",
              "name": "badgeType",
              "type": "uint8"
            },
            {
              "internalType": "enum IBadge.BadgeRarity",
              "name": "rarity",
              "type": "uint8"
            },
            {
              "internalType": "address",
              "name": "recipient",
              "type": "address"
            },
            {
              "internalType": "uint256",
              "name": "earnedAt",
              "type": "uint256"
            },
            {
              "internalType": "uint256",
              "name": "poolId",
              "type": "uint256"
            },
            {
              "internalType": "string",
              "name": "title",
              "type": "string"
            },
            {
              "internalType": "string",
              "name": "description",
              "type": "string"
            },
            {
              "internalType": "string",
              "name": "imageURI",
              "type": "string"
            },
            {
              "internalType": "uint256",
              "name": "value",
              "type": "uint256"
            },
            {
              "internalType": "bytes32",
              "name": "achievementHash",
              "type": "bytes32"
            }
          ],
          "internalType": "struct IBadge.BadgeInfo",
          "name": "badgeInfo",
          "type": "tuple"
        }
      ],
      "stateMutability": "view",
      "type": "function"
    },
    {
      "inputs": [
        {
          "internalType": "enum IBadge.BadgeType",
          "name": "badgeType",
          "type": "uint8"
        }
      ],
      "name": "getBadgeTemplate",
      "outputs": [
        {
          "components": [
            {
              "internalType": "enum IBadge.BadgeType",
              "name": "badgeType",
              "type": "uint8"
            },
            {
              "internalType": "enum IBadge.BadgeRarity",
              "name": "rarity",
              "type": "uint8"
            },
            {
              "internalType": "string",
              "name": "title",
              "type": "string"
            },
            {
              "internalType": "string",
              "name": "description",
              "type": "string"
            },
            {
              "internalType": "string",
              "name": "imageURI",
              "type": "string"
            },
            {
              "internalType": "uint256",
              "name": "minValue",
              "type": "uint256"
            },
            {
              "internalType": "bool",
              "name": "isActive",
              "type": "bool"
            },
            {
              "internalType": "uint256",
              "name": "totalMinted",
              "type": "uint256"
            },
            {
              "internalType": "uint256",
              "name": "maxSupply",
              "type": "uint256"
            }
          ],
          "internalType": "struct IBadge.BadgeTemplate",
          "name": "template",
          "type": "tuple"
        }
      ],
      "stateMutability": "view",
      "type": "function"
    },
    {
      "inputs": [
        {
          "internalType": "enum IBadge.BadgeType",
          "name": "badgeType",
          "type": "uint8"
        }
      ],
      "name": "getBadgeTypeSupply",
      "outputs": [
        {
          "internalType": "uint256",
          "name": "totalSupply",
          "type": "uint256"
        }
      ],
      "stateMutability": "view",
      "type": "function"
    },
    {
      "inputs": [
        {
          "internalType": "enum IBadge.BadgeRarity",
          "name": "rarity",
          "type": "uint8"
        }
      ],
      "name": "getBadgesByRarity",
      "outputs": [
        {
          "components": [
            {
              "internalType": "uint256",
              "name": "tokenId",
              "type": "uint256"
            },
            {
              "internalType": "enum IBadge.BadgeType",
              "name": "badgeType",
              "type": "uint8"
            },
            {
              "internalType": "enum IBadge.BadgeRarity",
              "name": "rarity",
              "type": "uint8"
            },
            {
              "internalType": "address",
              "name": "recipient",
              "type": "address"
            },
            {
              "internalType": "uint256",
              "name": "earnedAt",
              "type": "uint256"
            },
            {
              "internalType": "uint256",
              "name": "poolId",
              "type": "uint256"
            },
            {
              "internalType": "string",
              "name": "title",
              "type": "string"
            },
            {
              "internalType": "string",
              "name": "description",
              "type": "string"
            },
            {
              "internalType": "string",
              "name": "imageURI",
              "type": "string"
            },
            {
              "internalType": "uint256",
              "name": "value",
              "type": "uint256"
            },
            {
              "internalType": "bytes32",
              "name": "achievementHash",
              "type": "bytes32"
            }
          ],
          "internalType": "struct IBadge.BadgeInfo[]",
          "name": "badges",
          "type": "tuple[]"
        }
      ],
      "stateMutability": "view",
      "type": "function"
    },
    {
      "inputs": [
        {
          "internalType": "enum IBadge.BadgeType",
          "name": "badgeType",
          "type": "uint8"
        }
      ],
      "name": "getBadgesByType",
      "outputs": [
        {
          "components": [
            {
              "internalType": "uint256",
              "name": "tokenId",
              "type": "uint256"
            },
            {
              "internalType": "enum IBadge.BadgeType",
              "name": "badgeType",
              "type": "uint8"
            },
            {
              "internalType": "enum IBadge.BadgeRarity",
              "name": "rarity",
              "type": "uint8"
            },
            {
              "internalType": "address",
              "name": "recipient",
              "type": "address"
            },
            {
              "internalType": "uint256",
              "name": "earnedAt",
              "type": "uint256"
            },
            {
              "internalType": "uint256",
              "name": "poolId",
              "type": "uint256"
            },
            {
              "internalType": "string",
              "name": "title",
              "type": "string"
            },
            {
              "internalType": "string",
              "name": "description",
              "type": "string"
            },
            {
              "internalType": "string",
              "name": "imageURI",
              "type": "string"
            },
            {
              "internalType": "uint256",
              "name": "value",
              "type": "uint256"
            },
            {
              "internalType": "bytes32",
              "name": "achievementHash",
              "type": "bytes32"
            }
          ],
          "internalType": "struct IBadge.BadgeInfo[]",
          "name": "badges",
          "type": "tuple[]"
        }
      ],
      "stateMutability": "view",
      "type": "function"
    },
    {
      "inputs": [],
      "name": "getNextTokenId",
      "outputs": [
        {
          "internalType": "uint256",
          "name": "tokenId",
          "type": "uint256"
        }
      ],
      "stateMutability": "view",
      "type": "function"
    },
    {
      "inputs": [
        {
          "internalType": "uint256",
          "name": "poolId",
          "type": "uint256"
        }
      ],
      "name": "getPoolBadges",
      "outputs": [
        {
          "components": [
            {
              "internalType": "uint256",
              "name": "tokenId",
              "type": "uint256"
            },
            {
              "internalType": "enum IBadge.BadgeType",
              "name": "badgeType",
              "type": "uint8"
            },
            {
              "internalType": "enum IBadge.BadgeRarity",
              "name": "rarity",
              "type": "uint8"
            },
            {
              "internalType": "address",
              "name": "recipient",
              "type": "address"
            },
            {
              "internalType": "uint256",
              "name": "earnedAt",
              "type": "uint256"
            },
            {
              "internalType": "uint256",
              "name": "poolId",
              "type": "uint256"
            },
            {
              "internalType": "string",
              "name": "title",
              "type": "string"
            },
            {
              "internalType": "string",
              "name": "description",
              "type": "string"
            },
            {
              "internalType": "string",
              "name": "imageURI",
              "type": "string"
            },
            {
              "internalType": "uint256",
              "name": "value",
              "type": "uint256"
            },
            {
              "internalType": "bytes32",
              "name": "achievementHash",
              "type": "bytes32"
            }
          ],
          "internalType": "struct IBadge.BadgeInfo[]",
          "name": "badges",
          "type": "tuple[]"
        }
      ],
      "stateMutability": "view",
      "type": "function"
    },
    {
      "inputs": [
        {
          "internalType": "enum IBadge.BadgeRarity",
          "name": "rarity",
          "type": "uint8"
        }
      ],
      "name": "getRarityMultiplier",
      "outputs": [
        {
          "internalType": "uint256",
          "name": "multiplier",
          "type": "uint256"
        }
      ],
      "stateMutability": "pure",
      "type": "function"
    },
    {
      "inputs": [
        {
          "internalType": "uint256",
          "name": "",
          "type": "uint256"
        }
      ],
      "name": "getReputationLeaderboard",
      "outputs": [
        {
          "internalType": "address[]",
          "name": "users",
          "type": "address[]"
        },
        {
          "internalType": "uint256[]",
          "name": "scores",
          "type": "uint256[]"
        }
      ],
      "stateMutability": "view",
      "type": "function"
    },
    {
      "inputs": [
        {
          "internalType": "bytes32",
          "name": "role",
          "type": "bytes32"
        }
      ],
      "name": "getRoleAdmin",
      "outputs": [
        {
          "internalType": "bytes32",
          "name": "",
          "type": "bytes32"
        }
      ],
      "stateMutability": "view",
      "type": "function"
    },
    {
      "inputs": [
        {
          "internalType": "address",
          "name": "user",
          "type": "address"
        }
      ],
      "name": "getUserBadgeStats",
      "outputs": [
        {
          "components": [
            {
              "internalType": "uint256",
              "name": "totalBadges",
              "type": "uint256"
            },
            {
              "internalType": "uint256",
              "name": "commonCount",
              "type": "uint256"
            },
            {
              "internalType": "uint256",
              "name": "uncommonCount",
              "type": "uint256"
            },
            {
              "internalType": "uint256",
              "name": "rareCount",
              "type": "uint256"
            },
            {
              "internalType": "uint256",
              "name": "epicCount",
              "type": "uint256"
            },
            {
              "internalType": "uint256",
              "name": "legendaryCount",
              "type": "uint256"
            },
            {
              "internalType": "uint256",
              "name": "reputationScore",
              "type": "uint256"
            }
          ],
          "internalType": "struct IBadge.UserBadgeStats",
          "name": "stats",
          "type": "tuple"
        }
      ],
      "stateMutability": "view",
      "type": "function"
    },
    {
      "inputs": [
        {
          "internalType": "address",
          "name": "user",
          "type": "address"
        }
      ],
      "name": "getUserBadges",
      "outputs": [
        {
          "components": [
            {
              "internalType": "uint256",
              "name": "tokenId",
              "type": "uint256"
            },
            {
              "internalType": "enum IBadge.BadgeType",
              "name": "badgeType",
              "type": "uint8"
            },
            {
              "internalType": "enum IBadge.BadgeRarity",
              "name": "rarity",
              "type": "uint8"
            },
            {
              "internalType": "address",
              "name": "recipient",
              "type": "address"
            },
            {
              "internalType": "uint256",
              "name": "earnedAt",
              "type": "uint256"
            },
            {
              "internalType": "uint256",
              "name": "poolId",
              "type": "uint256"
            },
            {
              "internalType": "string",
              "name": "title",
              "type": "string"
            },
            {
              "internalType": "string",
              "name": "description",
              "type": "string"
            },
            {
              "internalType": "string",
              "name": "imageURI",
              "type": "string"
            },
            {
              "internalType": "uint256",
              "name": "value",
              "type": "uint256"
            },
            {
              "internalType": "bytes32",
              "name": "achievementHash",
              "type": "bytes32"
            }
          ],
          "internalType": "struct IBadge.BadgeInfo[]",
          "name": "badges",
          "type": "tuple[]"
        }
      ],
      "stateMutability": "view",
      "type": "function"
    },
    {
      "inputs": [
        {
          "internalType": "bytes32",
          "name": "role",
          "type": "bytes32"
        },
        {
          "internalType": "address",
          "name": "account",
          "type": "address"
        }
      ],
      "name": "grantRole",
      "outputs": [],
      "stateMutability": "nonpayable",
      "type": "function"
    },
    {
      "inputs": [
        {
          "internalType": "bytes32",
          "name": "role",
          "type": "bytes32"
        },
        {
          "internalType": "address",
          "name": "account",
          "type": "address"
        }
      ],
      "name": "hasRole",
      "outputs": [
        {
          "internalType": "bool",
          "name": "",
          "type": "bool"
        }
      ],
      "stateMutability": "view",
      "type": "function"
    },
    {
      "inputs": [
        {
          "internalType": "address",
          "name": "owner",
          "type": "address"
        },
        {
          "internalType": "address",
          "name": "operator",
          "type": "address"
        }
      ],
      "name": "isApprovedForAll",
      "outputs": [
        {
          "internalType": "bool",
          "name": "",
          "type": "bool"
        }
      ],
      "stateMutability": "view",
      "type": "function"
    },
    {
      "inputs": [
        {
          "internalType": "address",
          "name": "user",
          "type": "address"
        },
        {
          "internalType": "enum IBadge.BadgeType",
          "name": "badgeType",
          "type": "uint8"
        },
        {
          "internalType": "uint256",
          "name": "value",
          "type": "uint256"
        }
      ],
      "name": "isEligibleForBadge",
      "outputs": [
        {
          "internalType": "bool",
          "name": "isEligible",
          "type": "bool"
        }
      ],
      "stateMutability": "view",
      "type": "function"
    },
    {
      "inputs": [
        {
          "internalType": "address",
          "name": "recipient",
          "type": "address"
        },
        {
          "internalType": "enum IBadge.BadgeType",
          "name": "badgeType",
          "type": "uint8"
        },
        {
          "internalType": "uint256",
          "name": "poolId",
          "type": "uint256"
        },
        {
          "internalType": "uint256",
          "name": "value",
          "type": "uint256"
        },
        {
          "internalType": "bytes",
          "name": "achievementData",
          "type": "bytes"
        }
      ],
      "name": "mintBadge",
      "outputs": [
        {
          "internalType": "uint256",
          "name": "tokenId",
          "type": "uint256"
        }
      ],
      "stateMutability": "nonpayable",
      "type": "function"
    },
    {
      "inputs": [],
      "name": "name",
      "outputs": [
        {
          "internalType": "string",
          "name": "",
          "type": "string"
        }
      ],
      "stateMutability": "view",
      "type": "function"
    },
    {
      "inputs": [
        {
          "internalType": "uint256",
          "name": "tokenId",
          "type": "uint256"
        }
      ],
      "name": "ownerOf",
      "outputs": [
        {
          "internalType": "address",
          "name": "",
          "type": "address"
        }
      ],
      "stateMutability": "view",
      "type": "function"
    },
    {
      "inputs": [
        {
          "internalType": "address",
          "name": "user",
          "type": "address"
        },
        {
          "internalType": "enum IBadge.BadgeType",
          "name": "badgeType",
          "type": "uint8"
        }
      ],
      "name": "ownsBadgeType",
      "outputs": [
        {
          "internalType": "bool",
          "name": "owns",
          "type": "bool"
        }
      ],
      "stateMutability": "view",
      "type": "function"
    },
    {
      "inputs": [],
      "name": "paused",
      "outputs": [
        {
          "internalType": "bool",
          "name": "",
          "type": "bool"
        }
      ],
      "stateMutability": "view",
      "type": "function"
    },
    {
      "inputs": [
        {
          "internalType": "bytes32",
          "name": "role",
          "type": "bytes32"
        },
        {
          "internalType": "address",
          "name": "callerConfirmation",
          "type": "address"
        }
      ],
      "name": "renounceRole",
      "outputs": [],
      "stateMutability": "nonpayable",
      "type": "function"
    },
    {
      "inputs": [
        {
          "internalType": "bytes32",
          "name": "role",
          "type": "bytes32"
        },
        {
          "internalType": "address",
          "name": "account",
          "type": "address"
        }
      ],
      "name": "revokeRole",
      "outputs": [],
      "stateMutability": "nonpayable",
      "type": "function"
    },
    {
      "inputs": [
        {
          "internalType": "address",
          "name": "from",
          "type": "address"
        },
        {
          "internalType": "address",
          "name": "to",
          "type": "address"
        },
        {
          "internalType": "uint256",
          "name": "tokenId",
          "type": "uint256"
        }
      ],
      "name": "safeTransferFrom",
      "outputs": [],
      "stateMutability": "nonpayable",
      "type": "function"
    },
    {
      "inputs": [
        {
          "internalType": "address",
          "name": "from",
          "type": "address"
        },
        {
          "internalType": "address",
          "name": "to",
          "type": "address"
        },
        {
          "internalType": "uint256",
          "name": "tokenId",
          "type": "uint256"
        },
        {
          "internalType": "bytes",
          "name": "data",
          "type": "bytes"
        }
      ],
      "name": "safeTransferFrom",
      "outputs": [],
      "stateMutability": "nonpayable",
      "type": "function"
    },
    {
      "inputs": [
        {
          "internalType": "address",
          "name": "operator",
          "type": "address"
        },
        {
          "internalType": "bool",
          "name": "approved",
          "type": "bool"
        }
      ],
      "name": "setApprovalForAll",
      "outputs": [],
      "stateMutability": "nonpayable",
      "type": "function"
    },
    {
      "inputs": [
        {
          "internalType": "bytes4",
          "name": "interfaceId",
          "type": "bytes4"
        }
      ],
      "name": "supportsInterface",
      "outputs": [
        {
          "internalType": "bool",
          "name": "",
          "type": "bool"
        }
      ],
      "stateMutability": "view",
      "type": "function"
    },
    {
      "inputs": [],
      "name": "symbol",
      "outputs": [
        {
          "internalType": "string",
          "name": "",
          "type": "string"
        }
      ],
      "stateMutability": "view",
      "type": "function"
    },
    {
      "inputs": [
        {
          "internalType": "uint256",
          "name": "index",
          "type": "uint256"
        }
      ],
      "name": "tokenByIndex",
      "outputs": [
        {
          "internalType": "uint256",
          "name": "",
          "type": "uint256"
        }
      ],
      "stateMutability": "view",
      "type": "function"
    },
    {
      "inputs": [
        {
          "internalType": "address",
          "name": "owner",
          "type": "address"
        },
        {
          "internalType": "uint256",
          "name": "index",
          "type": "uint256"
        }
      ],
      "name": "tokenOfOwnerByIndex",
      "outputs": [
        {
          "internalType": "uint256",
          "name": "",
          "type": "uint256"
        }
      ],
      "stateMutability": "view",
      "type": "function"
    },
    {
      "inputs": [
        {
          "internalType": "uint256",
          "name": "tokenId",
          "type": "uint256"
        }
      ],
      "name": "tokenURI",
      "outputs": [
        {
          "internalType": "string",
          "name": "",
          "type": "string"
        }
      ],
      "stateMutability": "view",
      "type": "function"
    },
    {
      "inputs": [],
      "name": "totalSupply",
      "outputs": [
        {
          "internalType": "uint256",
          "name": "",
          "type": "uint256"
        }
      ],
      "stateMutability": "view",
      "type": "function"
    },
    {
      "inputs": [
        {
          "internalType": "address",
          "name": "from",
          "type": "address"
        },
        {
          "internalType": "address",
          "name": "to",
          "type": "address"
        },
        {
          "internalType": "uint256",
          "name": "tokenId",
          "type": "uint256"
        }
      ],
      "name": "transferFrom",
      "outputs": [],
      "stateMutability": "nonpayable",
      "type": "function"
    },
    {
      "inputs": [
        {
          "internalType": "uint256",
          "name": "tokenId",
          "type": "uint256"
        },
        {
          "internalType": "string",
          "name": "newImageURI",
          "type": "string"
        }
      ],
      "name": "updateBadgeMetadata",
      "outputs": [],
      "stateMutability": "nonpayable",
      "type": "function"
    },
    {
      "inputs": [
        {
          "internalType": "enum IBadge.BadgeType",
          "name": "badgeType",
          "type": "uint8"
        },
        {
          "components": [
            {
              "internalType": "enum IBadge.BadgeType",
              "name": "badgeType",
              "type": "uint8"
            },
            {
              "internalType": "enum IBadge.BadgeRarity",
              "name": "rarity",
              "type": "uint8"
            },
            {
              "internalType": "string",
              "name": "title",
              "type": "string"
            },
            {
              "internalType": "string",
              "name": "description",
              "type": "string"
            },
            {
              "internalType": "string",
              "name": "imageURI",
              "type": "string"
            },
            {
              "internalType": "uint256",
              "name": "minValue",
              "type": "uint256"
            },
            {
              "internalType": "bool",
              "name": "isActive",
              "type": "bool"
            },
            {
              "internalType": "uint256",
              "name": "totalMinted",
              "type": "uint256"
            },
            {
              "internalType": "uint256",
              "name": "maxSupply",
              "type": "uint256"
            }
          ],
          "internalType": "struct IBadge.BadgeTemplate",
          "name": "template",
          "type": "tuple"
        }
      ],
      "name": "updateBadgeTemplate",
      "outputs": [],
      "stateMutability": "nonpayable",
      "type": "function"
    }
  ],
  "bytecode": "0x608060405234612ae2576167eb8038038061001981612b07565b928339810190606081830312612ae25780516001600160a01b03811691828203612ae25760208101516001600160401b038111612ae2578461005c918301612b2c565b60408201519094906001600160401b038111612ae25761007c9201612b2c565b83519092906001600160401b0381116129ed57600054600181811c91168015612ad8575b60208210146129cd57601f8111612a74575b50602094601f8211600114612a0e57948192939495600092612a03575b50508160011b916000199060031b1c1916176000555b82516001600160401b0381116129ed57600154600181811c911680156129e3575b60208210146129cd57601f8111612968575b506020601f821160011461290157819293946000926128f6575b50508160011b916000199060031b1c1916176001555b6001600c55156128e0578061015f61016592612b97565b50612c13565b506001600e55610173612ae7565b6000815260208101906001825260409061018c82612b07565b90600c82526b2837b7b61021b932b0ba37b960a11b60208301528281019182526101b583612b07565b91601f83527f4372656174656420796f757220666972737420736176696e677320706f6f6c006020840152606082019283526060926101f384612b07565b602c815260008051602061678b83398151915260208201526b31b932b0ba37b9173539b7b760a11b868201526080840190815260a084016001815260c08501916001835260e08601936000855261010087019560008752896000808052601060205220975160088110156128ca5760009b895490516005811015611b5a5761ff0060ff9160081b1692169061ffff19161717885560018801905180519060018060401b038211611b46578254600181811c911680156128c0575b6020821014611b28578291818f92601f1061286c575b50602091601f841160011461280957926127fe575b50508160011b916000199060031b1c19161790555b51805160028801916001600160401b0382116118bc578254600181811c911680156127f4575b602082101461189e579081601f8493116127a1575b506020908d601f841160011461273e5792612733575b50508160011b916000199060031b1c19161790555b51805160038701916001600160401b0382116117c9578254600181811c91168015612729575b60208210146117ab57601f81116126e4575b506020908b601f841160011461269057926007989796949281926103e39795926115ff575b50508160011b916000199060031b1c19161790555b516004870155511515600586019060ff801983541691151516179055565b516006840155519101556103f5612ae7565b600181526020810184815261040984612b07565b600c81526b22b0b9363c902537b4b732b960a11b602082015284830190815261043184612b07565b602781527f4a6f696e6564206120706f6f6c20616d6f6e67207468652066697273742033206020820152666d656d6265727360c81b8682015284840190815261047985612b07565b602c81527f68747470733a2f2f6261646765732e61726973616e2e706c75732f6561726c7960208201526b16b537b4b732b9173539b7b760a11b878201526080850190815260a08501906001825260c08601926001845260e08701948a86526101008801968b885260018c5260106020528a8c2098519060088210156118d057895490516005811015611b5a5761ff0060ff9160081b1692169061ffff19161717885560018801905180519060018060401b038211611b46578254600181811c91168015612686575b6020821014611b28578291818f92601f10612632575b50602091601f84116001146125cf57926125c4575b50508160011b916000199060031b1c19161790555b51805160028801916001600160401b0382116118bc578254600181811c911680156125ba575b602082101461189e579081601f849311612567575b506020908d601f841160011461250457926124f9575b50508160011b916000199060031b1c19161790555b51805160038701916001600160401b0382116117c9578254600181811c911680156124ef575b60208210146117ab57601f81116124aa575b506020908b601f841160011461245657926007989796949281926106769795926115ff5750508160011b916000199060031b1c1916179055516004870155511515600586019060ff801983541691151516179055565b51600684015551910155610688612ae7565b60028152602081016002815261069d84612b07565b600e81526d2637ba3a32b93c902bb4b73732b960911b60208201528483019081526106c785612b07565b601981527f576f6e2061207765656b6c79206c6f7474657279206472617700000000000000602082015284840190815261070085612b07565b602e81527f68747470733a2f2f6261646765732e61726973616e2e706c75732f6c6f74746560208201526d393c96bbb4b73732b9173539b7b760911b878201526080850190815260a08501906001825260c08601926001845260e08701948a86526101008801968b885260028c5260106020528a8c2098519060088210156118d057895490516005811015611b5a5761ff0060ff9160081b1692169061ffff19161717885560018801905180519060018060401b038211611b46578254600181811c9116801561244c575b6020821014611b28578291818f92601f106123f8575b50602091601f8411600114612395579261238a575b50508160011b916000199060031b1c19161790555b51805160028801916001600160401b0382116118bc578254600181811c91168015612380575b602082101461189e579081601f84931161232d575b506020908d601f84116001146122ca57926122bf575b50508160011b916000199060031b1c19161790555b51805160038701916001600160401b0382116117c9578254600181811c911680156122b5575b60208210146117ab57601f8111612270575b506020908b601f841160011461221c57926007989796949281926108ff9795926115ff5750508160011b916000199060031b1c1916179055516004870155511515600586019060ff801983541691151516179055565b51600684015551910155610911612ae7565b600381526020810184815261092584612b07565b600e81526d2837b7b61021b7b6b83632ba32b960911b602082015284830190815261094f84612b07565b602581527f5375636365737366756c6c7920636f6d706c65746564206120736176696e6773602082015264081c1bdbdb60da1b8682015284840190815261099585612b07565b602e815260008051602061678b83398151915260208201526d31b7b6b83632ba32b9173539b7b760911b878201526080850190815260a08501906001825260c08601926001845260e08701948a86526101008801968b885260038c5260106020528a8c2098519060088210156118d057895490516005811015611b5a5761ff0060ff9160081b1692169061ffff19161717885560018801905180519060018060401b038211611b46578254600181811c91168015612212575b6020821014611b28578291818f92601f106121be575b50602091601f841160011461215b5792612150575b50508160011b916000199060031b1c19161790555b51805160028801916001600160401b0382116118bc578254600181811c91168015612146575b602082101461189e579081601f8493116120f3575b506020908d601f84116001146120905792612085575b50508160011b916000199060031b1c19161790555b51805160038701916001600160401b0382116117c9578254600181811c9116801561207b575b60208210146117ab57601f8111612036575b506020908b601f8411600114611fe25792600798979694928192610b829795926115ff5750508160011b916000199060031b1c1916179055516004870155511515600586019060ff801983541691151516179055565b51600684015551910155610b94612ae7565b600481526020810160038152610ba984612b07565b600c81526b2434b3b4102cb4b2b63232b960a11b6020820152848301908152610bd184612b07565b602d81527f4561726e6564207369676e69666963616e74207969656c642066726f6d20446560208201526c4669207374726174656769657360981b86820152848401908152610c1f85612b07565b602c81527f68747470733a2f2f6261646765732e61726973616e2e706c75732f686967682d60208201526b3cb4b2b63232b9173539b7b760a11b878201526080850190815260a0850190670de0b6b3a7640000825260c08601926001845260e08701948a86526101008801968b885260048c5260106020528a8c2098519060088210156118d057895490516005811015611b5a5761ff0060ff9160081b1692169061ffff19161717885560018801905180519060018060401b038211611b46578254600181811c91168015611fd8575b6020821014611b28578291818f92601f10611f84575b50602091601f8411600114611f215792611f16575b50508160011b916000199060031b1c19161790555b51805160028801916001600160401b0382116118bc578254600181811c91168015611f0c575b602082101461189e579081601f849311611eb9575b506020908d601f8411600114611e565792611e4b575b50508160011b916000199060031b1c19161790555b51805160038701916001600160401b0382116117c9578254600181811c91168015611e41575b60208210146117ab57601f8111611dfc575b506020908b601f8411600114611da85792600798979694928192610e239795926115ff5750508160011b916000199060031b1c1916179055516004870155511515600586019060ff801983541691151516179055565b51600684015551910155610e35612ae7565b600581526020810160038152610e4a84612b07565b60078152662b32ba32b930b760c91b6020820152848301908152610e6d85612b07565b601981527f50617274696369706174656420696e2031302b20706f6f6c73000000000000006020820152848401908152610ea685612b07565b602781527f68747470733a2f2f6261646765732e61726973616e2e706c75732f766574657260208201526630b7173539b7b760c91b878201526080850190815260a0850190600a825260c08601926001845260e08701948a86526101008801968b885260058c5260106020528a8c2098519060088210156118d057895490516005811015611b5a5761ff0060ff9160081b1692169061ffff19161717885560018801905180519060018060401b038211611b46578254600181811c91168015611d9e575b6020821014611b28578291818f92601f10611d4a575b50602091601f8411600114611ce75792611cdc575b50508160011b916000199060031b1c19161790555b51805160028801916001600160401b0382116118bc578254600181811c91168015611cd2575b602082101461189e579081601f849311611c7f575b506020908d601f8411600114611c1c5792611c11575b50508160011b916000199060031b1c19161790555b51805160038701916001600160401b0382116117c9578254600181811c91168015611c07575b60208210146117ab57601f8111611bc2575b506020908b601f8411600114611b6e579260079897969492819261109e9795926115ff5750508160011b916000199060031b1c1916179055516004870155511515600586019060ff801983541691151516179055565b516006840155519101556110b0612ae7565b6006815260208101600281526110c584612b07565b601181527029b7b1b4b0b61024b733363ab2b731b2b960791b60208201528483019081526110f284612b07565b602181527f526566657272656420352b20757365727320746f2074686520706c6174666f726020820152606d60f81b8682015284840190815261113485612b07565b603181527f68747470733a2f2f6261646765732e61726973616e2e706c75732f736f6369616020820152703616b4b733363ab2b731b2b9173539b7b760791b878201526080850190815260a08501906005825260c08601926001845260e08701948a86526101008801968b885260068c5260106020528a8c2098519060088210156118d057895490516005811015611b5a5761ff0060ff9160081b1692169061ffff19161717885560018801905180519060018060401b038211611b46578254600181811c91168015611b3c575b6020821014611b28578291818f92601f10611ad4575b50602091601f8411600114611a715792611a66575b50508160011b916000199060031b1c19161790555b51805160028801916001600160401b0382116118bc578254600181811c91168015611a5c575b602082101461189e579081601f849311611a09575b506020908d601f84116001146119a6579261199b575b50508160011b916000199060031b1c19161790555b51805160038701916001600160401b0382116117c9578254600181811c91168015611991575b60208210146117ab57601f811161194c575b506020908b601f84116001146118f857926007989796949281926113369795926115ff5750508160011b916000199060031b1c1916179055516004870155511515600586019060ff801983541691151516179055565b51600684015551910155611348612ae7565b906007825260208201906004825261135f84612b07565b90600d82526c2a393ab9ba10213ab4b63232b960991b60208301528484019182526113e761138c82612b07565b91603583527f4372656174656420352b207375636365737366756c20706f6f6c73207769746860208401527f203130302520636f6d706c6574696f6e2072617465000000000000000000000087840152808601928352612b07565b602d81527f68747470733a2f2f6261646765732e61726973616e2e706c75732f747275737460208201526c16b13ab4b63232b9173539b7b760991b868201526080850190815260a08501906005825260c08601926001845260e08701948986526101008801966064885260078b526010602052898b2098519060088210156118e4578954905160058110156118d05761ff0060ff9160081b1692169061ffff19161717885560018801905180519060018060401b0382116118bc578254600181811c911680156118b2575b602082101461189e579081601f84931161184b575b506020908d601f84116001146117e857926117dd575b50508160011b916000199060031b1c19161790555b51805160028801916001600160401b0382116117c9578254600181811c911680156117bf575b60208210146117ab579081601f84931161175b575b50602090601f83116001146116f8578c926116ed575b50508160011b916000199060031b1c19161790555b51805190976003870191906001600160401b0382116116d9578254600181811c911680156116cf575b60208210146116bb57601f8111611676575b50602090601f831160011461160a579180916007999a9b6115e897969594926115ff5750508160011b916000199060031b1c1916179055516004870155511515600586019060ff801983541691151516179055565b5160068401555191015551613abf9081612cac8239f35b0151905038806103b0565b99601f198316848c52828c209b5b81811061165e57509a60019284926115e89897969560079c9d9e10611645575b505050811b0190556103c5565b015160001960f88460031b161c19169055388080611638565b838301518d556001909c019b60209384019301611618565b83825260208220601f840160051c810191602085106116b1575b601f0160051c01905b8181106116a65750611593565b828155600101611699565b9091508190611690565b634e487b7160e01b82526022600452602482fd5b90607f1690611581565b634e487b7160e01b81526041600452602490fd5b015190503880611543565b848d52818d209250601f1984168d5b818110611743575090846001959493921061172a575b505050811b019055611558565b015160001960f88460031b161c1916905538808061171d565b92936020600181928786015181550195019301611707565b909150838c5260208c20601f840160051c810191602085106117a1575b90601f859493920160051c01905b818110611793575061152d565b8d8155849350600101611786565b9091508190611778565b634e487b7160e01b8c52602260045260248cfd5b90607f1690611518565b634e487b7160e01b8b52604160045260248bfd5b0151905038806114dd565b8581528281209350601f198516905b818110611833575090846001959493921061181a575b505050811b0190556114f2565b015160001960f88460031b161c1916905538808061180d565b929360206001819287860151815501950193016117f7565b909150838d5260208d20601f840160051c81019160208510611894575b849392918f91601f0160051c0191905b8282106118865750506114c7565b81558493506001018e611878565b9091508190611868565b634e487b7160e01b8d52602260045260248dfd5b90607f16906114b2565b634e487b7160e01b8c52604160045260248cfd5b634e487b7160e01b8d52602160045260248dfd5b634e487b7160e01b8c52602160045260248cfd5b50838c52818c209190601f1984168d5b8181106119345750926001928592611336989660079c9b9a98961061164557505050811b0190556103c5565b92936020600181928786015181550195019301611908565b838c5260208c20601f840160051c81019160208510611987575b601f0160051c01905b81811061197c57506112e0565b8c815560010161196f565b9091508190611966565b90607f16906112ce565b015190503880611293565b8581528281209350601f198516905b8181106119f157509084600195949392106119d8575b505050811b0190556112a8565b015160001960f88460031b161c191690553880806119cb565b929360206001819287860151815501950193016119b5565b909150838d5260208d20601f840160051c81019160208510611a52575b849392918f91601f0160051c0191905b828210611a4457505061127d565b81558493506001018e611a36565b9091508190611a26565b90607f1690611268565b01519050388061122d565b8581528281209350601f198516905b818110611abc5750908460019594939210611aa3575b505050811b019055611242565b015160001960f88460031b161c19169055388080611a96565b92936020600181928786015181550195019301611a80565b91602091935085815220601f840160051c81019160208510611b1e575b918f9291601f8695930160051c01905b818110611b0e5750611218565b9283558493508f92600101611b01565b9091508190611af1565b634e487b7160e01b8e52602260045260248efd5b90607f1690611202565b634e487b7160e01b8d52604160045260248dfd5b634e487b7160e01b8e52602160045260248efd5b50838c52818c209190601f1984168d5b818110611baa575092600192859261109e989660079c9b9a98961061164557505050811b0190556103c5565b92936020600181928786015181550195019301611b7e565b838c5260208c20601f840160051c81019160208510611bfd575b601f0160051c01905b818110611bf25750611048565b8c8155600101611be5565b9091508190611bdc565b90607f1690611036565b015190503880610ffb565b8581528281209350601f198516905b818110611c675750908460019594939210611c4e575b505050811b019055611010565b015160001960f88460031b161c19169055388080611c41565b92936020600181928786015181550195019301611c2b565b909150838d5260208d20601f840160051c81019160208510611cc8575b849392918f91601f0160051c0191905b828210611cba575050610fe5565b81558493506001018e611cac565b9091508190611c9c565b90607f1690610fd0565b015190503880610f95565b8581528281209350601f198516905b818110611d325750908460019594939210611d19575b505050811b019055610faa565b015160001960f88460031b161c19169055388080611d0c565b92936020600181928786015181550195019301611cf6565b91602091935085815220601f840160051c81019160208510611d94575b918f9291601f8695930160051c01905b818110611d845750610f80565b9283558493508f92600101611d77565b9091508190611d67565b90607f1690610f6a565b50838c52818c209190601f1984168d5b818110611de45750926001928592610e23989660079c9b9a98961061164557505050811b0190556103c5565b92936020600181928786015181550195019301611db8565b838c5260208c20601f840160051c81019160208510611e37575b601f0160051c01905b818110611e2c5750610dcd565b8c8155600101611e1f565b9091508190611e16565b90607f1690610dbb565b015190503880610d80565b8581528281209350601f198516905b818110611ea15750908460019594939210611e88575b505050811b019055610d95565b015160001960f88460031b161c19169055388080611e7b565b92936020600181928786015181550195019301611e65565b909150838d5260208d20601f840160051c81019160208510611f02575b849392918f91601f0160051c0191905b828210611ef4575050610d6a565b81558493506001018e611ee6565b9091508190611ed6565b90607f1690610d55565b015190503880610d1a565b8581528281209350601f198516905b818110611f6c5750908460019594939210611f53575b505050811b019055610d2f565b015160001960f88460031b161c19169055388080611f46565b92936020600181928786015181550195019301611f30565b91602091935085815220601f840160051c81019160208510611fce575b918f9291601f8695930160051c01905b818110611fbe5750610d05565b9283558493508f92600101611fb1565b9091508190611fa1565b90607f1690610cef565b50838c52818c209190601f1984168d5b81811061201e5750926001928592610b82989660079c9b9a98961061164557505050811b0190556103c5565b92936020600181928786015181550195019301611ff2565b838c5260208c20601f840160051c81019160208510612071575b601f0160051c01905b8181106120665750610b2c565b8c8155600101612059565b9091508190612050565b90607f1690610b1a565b015190503880610adf565b8581528281209350601f198516905b8181106120db57509084600195949392106120c2575b505050811b019055610af4565b015160001960f88460031b161c191690553880806120b5565b9293602060018192878601518155019501930161209f565b909150838d5260208d20601f840160051c8101916020851061213c575b849392918f91601f0160051c0191905b82821061212e575050610ac9565b81558493506001018e612120565b9091508190612110565b90607f1690610ab4565b015190503880610a79565b8581528281209350601f198516905b8181106121a6575090846001959493921061218d575b505050811b019055610a8e565b015160001960f88460031b161c19169055388080612180565b9293602060018192878601518155019501930161216a565b91602091935085815220601f840160051c81019160208510612208575b918f9291601f8695930160051c01905b8181106121f85750610a64565b9283558493508f926001016121eb565b90915081906121db565b90607f1690610a4e565b50838c52818c209190601f1984168d5b81811061225857509260019285926108ff989660079c9b9a98961061164557505050811b0190556103c5565b9293602060018192878601518155019501930161222c565b838c5260208c20601f840160051c810191602085106122ab575b601f0160051c01905b8181106122a057506108a9565b8c8155600101612293565b909150819061228a565b90607f1690610897565b01519050388061085c565b8581528281209350601f198516905b81811061231557509084600195949392106122fc575b505050811b019055610871565b015160001960f88460031b161c191690553880806122ef565b929360206001819287860151815501950193016122d9565b909150838d5260208d20601f840160051c81019160208510612376575b849392918f91601f0160051c0191905b828210612368575050610846565b81558493506001018e61235a565b909150819061234a565b90607f1690610831565b0151905038806107f6565b8581528281209350601f198516905b8181106123e057509084600195949392106123c7575b505050811b01905561080b565b015160001960f88460031b161c191690553880806123ba565b929360206001819287860151815501950193016123a4565b91602091935085815220601f840160051c81019160208510612442575b918f9291601f8695930160051c01905b81811061243257506107e1565b9283558493508f92600101612425565b9091508190612415565b90607f16906107cb565b50838c52818c209190601f1984168d5b8181106124925750926001928592610676989660079c9b9a98961061164557505050811b0190556103c5565b92936020600181928786015181550195019301612466565b838c5260208c20601f840160051c810191602085106124e5575b601f0160051c01905b8181106124da5750610620565b8c81556001016124cd565b90915081906124c4565b90607f169061060e565b0151905038806105d3565b8581528281209350601f198516905b81811061254f5750908460019594939210612536575b505050811b0190556105e8565b015160001960f88460031b161c19169055388080612529565b92936020600181928786015181550195019301612513565b909150838d5260208d20601f840160051c810191602085106125b0575b849392918f91601f0160051c0191905b8282106125a25750506105bd565b81558493506001018e612594565b9091508190612584565b90607f16906105a8565b01519050388061056d565b8581528281209350601f198516905b81811061261a5750908460019594939210612601575b505050811b019055610582565b015160001960f88460031b161c191690553880806125f4565b929360206001819287860151815501950193016125de565b91602091935085815220601f840160051c8101916020851061267c575b918f9291601f8695930160051c01905b81811061266c5750610558565b9283558493508f9260010161265f565b909150819061264f565b90607f1690610542565b50838c52818c209190601f1984168d5b8181106126cc57509260019285926103e3989660079c9b9a98961061164557505050811b0190556103c5565b929360206001819287860151815501950193016126a0565b838c5260208c20601f840160051c8101916020851061271f575b601f0160051c01905b818110612714575061038b565b8c8155600101612707565b90915081906126fe565b90607f1690610379565b01519050388061033e565b8581528281209350601f198516905b8181106127895750908460019594939210612770575b505050811b019055610353565b015160001960f88460031b161c19169055388080612763565b9293602060018192878601518155019501930161274d565b909150838d5260208d20601f840160051c810191602085106127ea575b849392918f91601f0160051c0191905b8282106127dc575050610328565b81558493506001018e6127ce565b90915081906127be565b90607f1690610313565b0151905038806102d8565b8581528281209350601f198516905b818110612854575090846001959493921061283b575b505050811b0190556102ed565b015160001960f88460031b161c1916905538808061282e565b92936020600181928786015181550195019301612818565b91602091935085815220601f840160051c810191602085106128b6575b918f9291601f8695930160051c01905b8181106128a657506102c3565b9283558493508f92600101612899565b9091508190612889565b90607f16906102ad565b634e487b7160e01b600052602160045260246000fd5b631054bd0160e31b600052600060045260246000fd5b015190503880610132565b601f198216906001600052806000209160005b81811061295057509583600195969710612937575b505050811b01600155610148565b015160001960f88460031b161c19169055388080612929565b9192602060018192868b015181550194019201612914565b60016000527fb10e2d527612073b26eecdfd717e6a320cf44b4afac2b0732d9fcbe2b7fa0cf6601f830160051c810191602084106129c3575b601f0160051c01905b8181106129b75750610118565b600081556001016129aa565b90915081906129a1565b634e487b7160e01b600052602260045260246000fd5b90607f1690610106565b634e487b7160e01b600052604160045260246000fd5b0151905038806100cf565b601f1982169560008052806000209160005b888110612a5c57508360019596979810612a43575b505050811b016000556100e5565b015160001960f88460031b161c19169055388080612a35565b91926020600181928685015181550194019201612a20565b600080527f290decd9548b62a8d60345a988386fc84ba6bc95484008f6362f93160ef3e563601f830160051c81019160208410612ace575b601f0160051c01905b818110612ac257506100b2565b60008155600101612ab5565b9091508190612aac565b90607f16906100a0565b600080fd5b6040519061012082016001600160401b038111838210176129ed57604052565b6040519190601f01601f191682016001600160401b038111838210176129ed57604052565b81601f82011215612ae2578051906001600160401b0382116129ed57612b5b601f8301601f1916602001612b07565b9282845260208383010111612ae25760005b828110612b8257505060206000918301015290565b80602080928401015182828701015201612b6d565b6001600160a01b03811660009081526000805160206167cb833981519152602052604090205460ff16612c0d576001600160a01b031660008181526000805160206167cb83398151915260205260408120805460ff1916600117905533919060008051602061676b8339815191528180a4600190565b50600090565b6001600160a01b03811660009081526000805160206167ab833981519152602052604090205460ff16612c0d576001600160a01b031660008181526000805160206167ab83398151915260205260408120805460ff191660011790553391907f4edf5afbdc763971556e31a9d4d295aa46e94ad2348abeeba4a0ffcac0b229679060008051602061676b8339815191529080a460019056fe608080604052600436101561001357600080fd5b60003560e01c90816301ffc9a714611de45750806306fdde0314611d3f578063081812fc14611d01578063095ea7b314611c125780630a8fa82514611b7a5780630f94be9b14611a9f57806318160ddd14611a815780631f801e2714611a46578063219454ab146118c857806323b872dd146118b1578063248a9ca3146118845780632f2ff15d146118445780632f745c59146117cc578063314ed2fa146116a157806335ba9f381461167957806336568abe14611633578063373e3a3a1461149f57806337c245fe1461136b578063396e45de146112e257806342842e0e146112b257806347461b40146110965780634a4e3bd51461102d5780634f6ccce714610fdc57806351858e2714610f825780635c975abb14610f5f5780636352211e14610f2f57806370a0823114610f0457806372b8fed814610edc578063765c38f014610ab55780638e01ec891461098f5780638f24cbd41461095457806391d148541461090757806395d89b411461083a578063a09e97ce1461070f578063a0c3074c14610624578063a217fddf14610608578063a22cb4651461055e578063ac90b87b1461051f578063b54f0b3a146104cc578063b88d4fde14610461578063c87b56dd1461042e578063caa0f92a14610410578063d547741f146103c9578063e2045b5e146102ad578063e985e9c5146102525763f73905391461021957600080fd5b3461024d57602036600319011261024d57600435600881101561024d57600661024360209261261c565b0154604051908152f35b600080fd5b3461024d57604036600319011261024d5761026b611ee5565b610273611efb565b9060018060a01b0316600052600560205260406000209060018060a01b0316600052602052602060ff604060002054166040519015158152f35b3461024d57602036600319011261024d576004356102c961264d565b506000818152600260205260409020546001600160a01b0316156103b557600052600f6020526103b1604060002060086040519161030683612129565b80548352600181015461031f60ff821660208601612725565b61033160ff82851c1660408601612731565b60101c6001600160a01b0316606084015260028101546080840152600381015460a084015261036260048201612229565b60c084015261037360058201612229565b60e084015261038460068201612229565b61010084015260078101546101208401520154610140820152604051918291602083526020830190611fed565b0390f35b63dc29602f60e01b60005260045260246000fd5b3461024d57604036600319011261024d5761040e6004356103e8611efb565b9061040961040482600052600b60205260016040600020015490565b612afe565b613716565b005b3461024d57600036600319011261024d576020600e54604051908152f35b3461024d57602036600319011261024d576103b161044d600435613a56565b604051918291602083526020830190611ec0565b3461024d57608036600319011261024d5761047a611ee5565b610482611efb565b90604435606435926001600160401b03841161024d573660238501121561024d576104ba61040e9436906024816004013591016121b8565b926104c6838383612363565b33613912565b3461024d57604036600319011261024d576104e5611ee5565b602435600881101561024d5761051360ff9160209360018060a01b0316600052601684526040600020612635565b54166040519015158152f35b3461024d57606036600319011261024d57610538611ee5565b602435600881101561024d57602091610554916044359161293d565b6040519015158152f35b3461024d57604036600319011261024d57610577611ee5565b602435908115159081830361024d576001600160a01b03169182156105f3576105c59033600052600560205260406000208460005260205260406000209060ff801983541691151516179055565b6040519081527f17307eab39ab6107e8899845ad3d59bd9653f200f220920489ca2b5937696c3160203392a3005b82630b61174360e31b60005260045260246000fd5b3461024d57600036600319011261024d57602060405160008152f35b3461024d57602036600319011261024d5761063d611ee5565b600060c060405161064d81612161565b8281528260208201528260408201528260608201528260808201528260a0820152015260018060a01b0316600052601160205260e0604060002060405161069381612161565b815491828252600181015460208301908152600282015460408401908152600383015490606085019182526004840154926080860193845260c0600660058701549660a08901978852015496019586526040519687525160208701525160408601525160608501525160808401525160a08301525160c0820152f35b3461024d57602036600319011261024d57600435600581101561024d5761073590612924565b8054610740816126a2565b9160005b82811061075957604051806103b1868261209c565b806107666001928461270d565b90549060031b1c600052600f602052604060002060086040519161078983612129565b80548352848101546107a160ff821660208601612725565b6107b360ff82851c1660408601612731565b858060a01b039060101c16606084015260028101546080840152600381015460a08401526107e360048201612229565b60c08401526107f460058201612229565b60e084015261080560068201612229565b61010084015260078101546101208401520154610140820152610828828761234f565b52610833818661234f565b5001610744565b3461024d57600036600319011261024d57604051600060015461085c816121ef565b80845290600181169081156108e35750600114610884575b6103b18361044d8185038261217c565b600160009081527fb10e2d527612073b26eecdfd717e6a320cf44b4afac2b0732d9fcbe2b7fa0cf6939250905b8082106108c95750909150810160200161044d610874565b9192600181602092548385880101520191019092916108b1565b60ff191660208086019190915291151560051b8401909101915061044d9050610874565b3461024d57604036600319011261024d57610920611efb565b600435600052600b60205260406000209060018060a01b0316600052602052602060ff604060002054166040519015158152f35b3461024d57600036600319011261024d5760206040517fb8682d56f3ef6b06765e7b01f66fdb460df7549336aa15d45bc5437eb64fe7b98152f35b3461024d57602036600319011261024d576004356000526015602052604060002080546109bb816126a2565b9160005b8281106109d457604051806103b1868261209c565b806109e16001928461270d565b90549060031b1c600052600f6020526040600020600860405191610a0483612129565b8054835284810154610a1c60ff821660208601612725565b610a2e60ff82851c1660408601612731565b858060a01b039060101c16606084015260028101546080840152600381015460a0840152610a5e60048201612229565b60c0840152610a6f60058201612229565b60e0840152610a8060068201612229565b61010084015260078101546101208401520154610140820152610aa3828761234f565b52610aae818661234f565b50016109bf565b3461024d57604036600319011261024d57600435600881101561024d57602435906001600160401b03821161024d5781600401610120600319843603011261024d57610aff612a8c565b610b088261261c565b813591600883101561024d57610b1e838361288a565b602485013591600583101561024d57610b3783826128a2565b604486019560018201610b4a88856128c1565b906001600160401b038211610de857610b6d82610b6785546121ef565b85612797565b600090601f8311600114610e7857610b9e929160009183610e6d575b50508160011b916000199060031b1c19161790565b90555b6064810160028301610bb382866128c1565b906001600160401b038211610de857610bd082610b6785546121ef565b600090601f8311600114610e0957610c00929160009183610dfe5750508160011b916000199060031b1c19161790565b90555b608482019360038401610c1686836128c1565b906001600160401b038211610de857610c3382610b6785546121ef565b600090601f8311600114610d8457610c63929160009183610d795750508160011b916000199060031b1c19161790565b90555b60a48301359485600486015560c4840135918215159384840361024d5760058701805460ff191660ff8615151617905560e486013595866006890155610104013560078198015560009b8c996040519b8c9b60208d525060208c01610cca91611fd3565b60408b01610cd791611fe0565b610ce190836128f3565b60608b0161012090526101408b0190610cf9926127e9565b90610d0490836128f3565b8a8303601f190160808c0152610d1a92916127e9565b91610d24916128f3565b888303601f190160a08a0152610d3a92916127e9565b9460c08701525060e0850152610100840152610120830152037f21e0fc9794d662555c3b57c2fc117e9ee386368826d830494b361463dbc6bc6d91a280f35b013590508d80610b89565b8382526020822091601f198416815b818110610dd05750908460019594939210610db6575b505050811b019055610c66565b0135600019600384901b60f8161c191690558c8080610da9565b91936020600181928787013581550195019201610d93565b634e487b7160e01b600052604160045260246000fd5b013590508c80610b89565b8382526020822091601f198416815b818110610e555750908460019594939210610e3b575b505050811b019055610c03565b0135600019600384901b60f8161c191690558b8080610e2e565b91936020600181928787013581550195019201610e18565b013590508b80610b89565b8382526020822091601f198416815b818110610ec45750908460019594939210610eaa575b505050811b019055610ba1565b0135600019600384901b60f8161c191690558a8080610e9d565b91936020600181928787013581550195019201610e87565b3461024d57602036600319011261024d57600435600881101561024d57610554602091612840565b3461024d57602036600319011261024d576020610f27610f22611ee5565b61280a565b604051908152f35b3461024d57602036600319011261024d576020610f4d6004356129e3565b6040516001600160a01b039091168152f35b3461024d57600036600319011261024d57602060ff600d54166040519015158152f35b3461024d57600036600319011261024d57610f9b612a8c565b610fa3612b3b565b600160ff19600d541617600d557f62e78cea01bee320cd4e420270b5ea74000d11b0c9f74754ebdbfc544b05a2586020604051338152a1005b3461024d57602036600319011261024d57600435600954811015611014576110056020916126f2565b90549060031b1c604051908152f35b63295f44f760e21b600052600060045260245260446000fd5b3461024d57600036600319011261024d57611046612a8c565b600d5460ff8116156110855760ff1916600d557f5db9ee0a495bf2e6ff9c91a7834c1ba4fdd244a5e8aa4e537bd38aeae4b073aa6020604051338152a1005b638dfc202b60e01b60005260046000fd5b3461024d57604036600319011261024d576004356024356001600160401b03811161024d576110c99036906004016120fc565b600083815260026020526040902054909291906001600160a01b03161561129d573360009081527f7b06ea240279d044f420c835ccf4e51f6eccd6f47a4be23e72335ccb5e3e8028602052604090205460ff161580611282575b61126d5781600052600f6020526006604060002001926001600160401b038111610de85761115b8161115586546121ef565b86612797565b600093601f82116001146111eb576111ad82807fb810609e93b7325976c078b96d9c92d3160d0d165073b8c9a8a6a4d257fd047796976000916111e0575b508160011b916000199060031b1c19161790565b90555b6111c46111be3683856121b8565b8561379c565b6111db6040519283926020845260208401916127e9565b0390a2005b905085013588611199565b80855260208520601f19831695805b8781106112555750837fb810609e93b7325976c078b96d9c92d3160d0d165073b8c9a8a6a4d257fd047796971061123b575b5050600182811b0190556111b0565b840135600019600385901b60f8161c19169055858061122c565b909160206001819285890135815501930191016111fa565b63a4f3966560e01b6000523360045260246000fd5b50336001600160a01b03611295846129e3565b161415611123565b5063dc29602f60e01b60005260045260246000fd5b3461024d5761040e6112c336611f75565b90604051926112d360208561217c565b600084526104c6838383612363565b3461024d5760a036600319011261024d576112fb611ee5565b60243590600882101561024d57608435906001600160401b03821161024d5760209261135061133161135e9436906004016120fc565b611339612a1a565b611341612b3b565b611349612b58565b36916121b8565b916064359160443591612bdb565b6001600c55604051908152f35b3461024d57602036600319011261024d576001600160a01b0361138c611ee5565b166000526012602052604060002080546113a5816126a2565b9160005b8281106113be57604051806103b1868261209c565b806113cb6001928461270d565b90549060031b1c600052600f60205260406000206008604051916113ee83612129565b805483528481015461140660ff821660208601612725565b61141860ff82851c1660408601612731565b858060a01b039060101c16606084015260028101546080840152600381015460a084015261144860048201612229565b60c084015261145960058201612229565b60e084015261146a60068201612229565b6101008401526007810154610120840152015461014082015261148d828761234f565b52611498818661234f565b50016113a9565b3461024d57602036600319011261024d57600435600881101561024d576115079060006101006040516114d181612145565b82815282602082015260606040820152606080820152606060808201528260a08201528260c08201528260e0820152015261261c565b60206040519161151683612145565b828082549261152860ff851683612725565b61153b60ff8684019560081c1685612731565b61161261154a60018301612229565b604084019081526115ff61156060028501612229565b606086019081526115ec61157660038701612229565b93608088019485526115d860048801549a60a08a019b8c52610100600760ff60058c0154169a60c08d019b15158c5260e060068201549d019c8d5201549b019a8b526115cd6040519e8f9e8f818152019051611fd3565b5160408d0190611fe0565b5161012060608c01526101408b0190611ec0565b9051898203601f190160808b0152611ec0565b9051878203601f190160a0890152611ec0565b935160c086015251151560e085015251610100840152516101208301520390f35b3461024d57604036600319011261024d5761164c611efb565b336001600160a01b038216036116685761040e90600435613716565b63334bd91960e11b60005260046000fd5b3461024d57602036600319011261024d57600435600581101561024d57610f2760209161273d565b3461024d57602036600319011261024d57600435600881101561024d576116c790612603565b80546116d2816126a2565b9160005b8281106116eb57604051806103b1868261209c565b806116f86001928461270d565b90549060031b1c600052600f602052604060002060086040519161171b83612129565b805483528481015461173360ff821660208601612725565b61174560ff82851c1660408601612731565b858060a01b039060101c16606084015260028101546080840152600381015460a084015261177560048201612229565b60c084015261178660058201612229565b60e084015261179760068201612229565b610100840152600781015461012084015201546101408201526117ba828761234f565b526117c5818661234f565b50016116d6565b3461024d57604036600319011261024d576117e5611ee5565b602435906117f28161280a565b8210156118255760018060a01b031660005260076020526040600020906000526020526020604060002054604051908152f35b63295f44f760e21b60005260018060a01b031660045260245260446000fd5b3461024d57604036600319011261024d5761040e600435611863611efb565b9061187f61040482600052600b60205260016040600020015490565b61368e565b3461024d57602036600319011261024d576020610f27600435600052600b60205260016040600020015490565b3461024d5761040e6118c236611f75565b91612363565b3461024d57608036600319011261024d576118e1611ee5565b6024356001600160401b03811161024d57611900903690600401611f45565b90916044356001600160401b03811161024d57611921903690600401611f45565b6064356001600160401b03811161024d57611940903690600401611f45565b61194b939193612a1a565b611953612b3b565b61195b612b58565b828614801590611a3c575b611a2b5792959261197686612312565b96611984604051988961217c565b868852601f1961199388612312565b013660208a013760209660009190825b8181106119c2576001600c556040518a8152806103b1818d018e611f11565b6119cd81838a612329565b3590600882101561024d578b611a2482611a1e8e8e896001988f8f8f6119f8896119ff948194612329565b3594612329565b35928d60405195611a10818861217c565b600087523690870137612bdb565b9261234f565b52016119a3565b634ec4810560e11b60005260046000fd5b5080861415611966565b3461024d57600036600319011261024d5760206040517f4edf5afbdc763971556e31a9d4d295aa46e94ad2348abeeba4a0ffcac0b229678152f35b3461024d57600036600319011261024d576020600954604051908152f35b3461024d57602036600319011261024d5760006001600e54905b818110611b41576040516020611acf818361217c565b600082526000368137604051611ae5828261217c565b6000815260003681376040519160408301604084528451809152816060850195019060005b818110611b24578587038487015285806103b18988611f11565b82516001600160a01b031687529583019591830191600101611b0a565b6000818152600260205260409020546001600160a01b0316611b66575b600101611ab9565b91611b72600191612303565b929050611b5e565b3461024d57602036600319011261024d576001600160a01b03611b9b611ee5565b1660005260116020526020610f276040600020611be26005611c08611bf8611be8611bd26001870154611bcc600190565b906122cd565b611be26002880154611bcc600390565b906122f6565b611be26003870154611bcc600a90565b611be26004860154611bcc601e90565b9201546064611bcc565b3461024d57604036600319011261024d57611c2b611ee5565b602435611c37816129e3565b33151580611cee575b80611cc0575b611cab5781906001600160a01b0384811691167f8c5be1e5ebec7d5bd14f71427d1e84f3dd0314c0f7b2291e5b200ac8c7c3b925600080a4600090815260046020526040902080546001600160a01b0319166001600160a01b03909216919091179055005b63a9fbf51f60e01b6000523360045260246000fd5b506001600160a01b038116600090815260056020908152604080832033845290915290205460ff1615611c46565b506001600160a01b038116331415611c40565b3461024d57602036600319011261024d57600435611d1e816129e3565b506000526004602052602060018060a01b0360406000205416604051908152f35b3461024d57600036600319011261024d5760405160008054611d60816121ef565b80845290600181169081156108e35750600114611d87576103b18361044d8185038261217c565b60008080527f290decd9548b62a8d60345a988386fc84ba6bc95484008f6362f93160ef3e563939250905b808210611dca5750909150810160200161044d610874565b919260018160209254838588010152019101909291611db2565b3461024d57602036600319011261024d576004359063ffffffff60e01b821680920361024d57602091637965db0b60e01b8114908115611e26575b5015158152f35b63780e9d6360e01b811491508115611e40575b5083611e1f565b632483248360e11b811491508115611e5a575b5083611e39565b6380ac58cd60e01b811491508115611e8c575b8115611e7b575b5083611e53565b6301ffc9a760e01b14905083611e74565b635b5e139f60e01b81149150611e6d565b60005b838110611eb05750506000910152565b8181015183820152602001611ea0565b90602091611ed981518092818552858086019101611e9d565b601f01601f1916010190565b600435906001600160a01b038216820361024d57565b602435906001600160a01b038216820361024d57565b906020808351928381520192019060005b818110611f2f5750505090565b8251845260209384019390920191600101611f22565b9181601f8401121561024d578235916001600160401b03831161024d576020808501948460051b01011161024d57565b606090600319011261024d576004356001600160a01b038116810361024d57906024356001600160a01b038116810361024d579060443590565b6008811015611fbd57600452565b634e487b7160e01b600052602160045260246000fd5b906008821015611fbd5752565b906005821015611fbd5752565b908151815261200460208301516020830190611fd3565b61201660408301516040830190611fe0565b60018060a01b0360608301511660608201526080820151608082015260a082015160a08201526101408061208761207361206160c087015161016060c0880152610160870190611ec0565b60e087015186820360e0880152611ec0565b610100860151858203610100870152611ec0565b93610120810151610120850152015191015290565b602081016020825282518091526040820191602060408360051b8301019401926000915b8383106120cf57505050505090565b90919293946020806120ed600193603f198682030187528951611fed565b970193019301919392906120c0565b9181601f8401121561024d578235916001600160401b03831161024d576020838186019501011161024d57565b61016081019081106001600160401b03821117610de857604052565b61012081019081106001600160401b03821117610de857604052565b60e081019081106001600160401b03821117610de857604052565b90601f801991011681019081106001600160401b03821117610de857604052565b6001600160401b038111610de857601f01601f191660200190565b9291926121c48261219d565b916121d2604051938461217c565b82948184528183011161024d578281602093846000960137010152565b90600182811c9216801561221f575b602083101461220957565b634e487b7160e01b600052602260045260246000fd5b91607f16916121fe565b906040519182600082549261223d846121ef565b80845293600181169081156122ab5750600114612264575b506122629250038361217c565b565b90506000929192526020600020906000915b81831061228f5750509060206122629282010138612255565b6020919350806001915483858901015201910190918492612276565b90506020925061226294915060ff191682840152151560051b82010138612255565b818102929181159184041417156122e057565b634e487b7160e01b600052601160045260246000fd5b919082018092116122e057565b60001981146122e05760010190565b6001600160401b038111610de85760051b60200190565b91908110156123395760051b0190565b634e487b7160e01b600052603260045260246000fd5b80518210156123395760209160051b010190565b9091906001600160a01b03831680156125ed576000838152600260205260408120546001600160a01b0316943315158061255e575b5085158015612529575b83835260036020526040832060018154019055858352600260205260408320846bffffffffffffffffffffffff60a01b8254161790558584887fddf252ad1be2c89b69c2b068fc378daa952ba7f163c4a11628f55a4df523b3ef8680a4156124ac57600954858352600a602052604083205561241d85612b7a565b828603612457575b5050506001600160a01b031680830361243d57505050565b6364283d7b60e01b60005260045260245260445260646000fd5b6124609061280a565b600019810192908311612498579060409181526007602052818120838252602052848282205584815260086020522055388080612425565b634e487b7160e01b82526011600452602482fd5b85831461241d576124bc8661280a565b8583526008602052604083205490878452600760205260408420918181036124fe575b508684526008602052836040812055835260205281604081205561241d565b81855282602052604085205481865283602052806040872055855260086020526040852055386124df565b600086815260046020526040902080546001600160a01b031916905586835260036020526040832080546000190190556123a2565b8061259e575b1561256f5738612398565b84828761258857602491637e27328960e01b8252600452fd5b60449163177e802f60e01b825233600452602452fd5b5033861480156125cc575b806125645750848252600460205260408220546001600160a01b03163314612564565b5085825260056020908152604080842033855290915282205460ff166125a9565b633250574960e11b600052600060045260246000fd5b6008811015611fbd576000526013602052604060002090565b6008811015611fbd576000526010602052604060002090565b906008811015611fbd57600052602052604060002090565b6040519061265a82612129565b6000610140838281528260208201528260408201528260608201528260808201528260a0820152606060c0820152606060e08201526060610100820152826101208201520152565b906126ac82612312565b6126b9604051918261217c565b82815280926126ca601f1991612312565b019060005b8281106126db57505050565b6020906126e661264d565b828285010152016126cf565b60095481101561233957600960005260206000200190600090565b80548210156123395760005260206000200190600090565b6008821015611fbd5752565b6005821015611fbd5752565b6005811015611fbd5780156127915760006001821461278a575060028114612784576000906003811461277d57600491501461277857600190565b606490565b5050601e90565b50600a90565b5050600390565b50600190565b601f82116127a457505050565b6000526020600020906020601f840160051c830193106127df575b601f0160051c01905b8181106127d3575050565b600081556001016127c8565b90915081906127bf565b908060209392818452848401376000828201840152601f01601f1916010190565b6001600160a01b0316801561282a57600052600360205260406000205490565b6322718ad960e21b600052600060045260246000fd5b6128499061261c565b60ff600582015416156128845760078101548015159182612875575b505061287057600190565b600090565b60060154101590503880612865565b50600090565b906008811015611fbd5760ff80198354169116179055565b906005811015611fbd5761ff0082549160081b169061ff001916179055565b903590601e198136030182121561024d57018035906001600160401b03821161024d5760200191813603831361024d57565b9035601e198236030181121561024d5701602081359101916001600160401b03821161024d57813603831361024d57565b6005811015611fbd576000526014602052604060002090565b916129478261261c565b9060ff600583015416156129da576004820154116129d257600781015480151591826129c3575b50506129bc5761297d816138bf565b918261298e57505061287057600190565b6001600160a01b0316600090815260166020526040902060ff92506129b39190612635565b54163880612865565b5050600090565b6006015410159050388061296e565b505050600090565b50505050600090565b6000818152600260205260409020546001600160a01b0316908115612a06575090565b637e27328960e01b60005260045260246000fd5b3360009081527ff3aafad748216392d8cddce27460440dec5545f785174105fc5a44cf46aef336602052604090205460ff1615612a5357565b63e2517d3f60e01b600052336004527fb8682d56f3ef6b06765e7b01f66fdb460df7549336aa15d45bc5437eb64fe7b960245260446000fd5b3360009081527f7b06ea240279d044f420c835ccf4e51f6eccd6f47a4be23e72335ccb5e3e8028602052604090205460ff1615612ac557565b63e2517d3f60e01b600052336004527f4edf5afbdc763971556e31a9d4d295aa46e94ad2348abeeba4a0ffcac0b2296760245260446000fd5b6000818152600b6020908152604080832033845290915290205460ff1615612b235750565b63e2517d3f60e01b6000523360045260245260446000fd5b60ff600d5416612b4757565b63d93c066560e01b60005260046000fd5b6002600c5414612b69576002600c55565b633ee5aeb560e01b60005260046000fd5b60095490600160401b821015610de857612b9f8260016122629401600955600961270d565b90919082549060031b91821b91600019901b1916179055565b90815491600160401b831015610de85782612b9f9160016122629501815561270d565b90926001600160a01b0382169290831561367a57612bf88561261c565b60ff6005820154161561366657600481015480831061364d57506007810154801515908161363e575b5061362457612c2f866138bf565b80613603575b6135e057600e5496612c4688612303565b600e5560405160208101916bffffffffffffffffffffffff198760601b1683526008891015611fbd57609582612cb5928b60f81b6034830152886035830152876055830152426075830152612ca48151809260208686019101611e9d565b81010301601f19810183528261217c565b51902060ff825460081c169060038301938960405193612cd485612129565b81855260208501612ce58c82612725565b612cf3604087019283612731565b60608601908b82526080870142815260a08801918b8352612d1660018b01612229565b9360c08a01948552612d2a60028c01612229565b9560e08b01968752612d3b8d612229565b976101008c019889526101208c01998a526101408c019a8b52600052600f60205260406000209a518b5560018b0192516008811015611fbd57612d7e908461288a565b516005811015611fbd57612d9290836128a2565b51815462010000600160b01b03191660109190911b62010000600160b01b031617905551600288015551600387015551805160048701916001600160401b038211610de857612de582610b6785546121ef565b602090601f831160011461357957612e1592916000918361349b5750508160011b916000199060031b1c19161790565b90555b51805160058601916001600160401b038211610de857612e3c82610b6785546121ef565b602090601f831160011461351257612e6c92916000918361349b5750508160011b916000199060031b1c19161790565b90555b51805160068501916001600160401b038211610de857612e9382610b6785546121ef565b602090601f83116001146134a6579180612ec99260089796959460009261349b5750508160011b916000199060031b1c19161790565b90555b5160078401555191015560068101612ee48154612303565b9055846000526012602052612efd876040600020612bb8565b846000526016602052612f14866040600020612635565b805460ff19166001179055612f3187612f2c88612603565b612bb8565b612f4587612f2c60ff845460081c16612924565b8261347f575b60ff815460081c168560005260116020526040600020612f6b8154612303565b81556005821015611fbd5760407f5b88a2e3fc1a53234357ab78c104df11c33ccfa79886793654565ad70b8afb6e9183899415600014613413575060018101612fb48154612303565b90555b613013613003612ff3612fe3612fd36001860154611bcc600190565b611be26002870154611bcc600390565b611be26003860154611bcc600a90565b611be26004850154611bcc601e90565b611be26005840154611bcc606490565b908160068201555482519182526020820152a2602091604051613036848261217c565b60008152600095898752600285528660018060a01b036040822054168681158d8c847fddf252ad1be2c89b69c2b068fc378daa952ba7f163c4a11628f55a4df523b3ef841597886133df575b600284159788156133c8575b868352526040812080546001600160a01b0319168517905580a415613350576009548d8b52600a895260408b20556130c58d612b7a565b1561330d5760095460001981019081116132f9578c8a52600a88526130ee60408b2054916126f2565b90549060031b1c61310281612b9f846126f2565b8a52600a885260408a20558b8952600a875288604081205560095480156132e55760001901613130816126f2565b8154906000199060031b1b191690556009555b506132d1573b6131a6575b509260409260ff8997969361318c6131867f56557cffa61c856d7cfdc713344a3673047cc5f6f192e2df3c494df190dddb1e98612229565b8a61379c565b5460081c16925061319f84518094611fe0565b820152a490565b836131e89160409b989996959b9a979a5180938192630a85bd0160e11b83523360048401528d60248401528a6044840152608060648401526084830190611ec0565b03818c8c5af189918161328d575b50613250578989893d15613248573d9261320f8461219d565b9361321d604051958661217c565b84523d838286013e5b8351938461324257633250574960e11b84526004839052602484fd5b84925001fd5b606092613226565b95989497939695939492936001600160e01b03191663757a42ff60e11b0161327957604061314e565b633250574960e11b85526004869052602485fd5b9091508a81813d83116132ca575b6132a5818361217c565b810103126132c657516001600160e01b0319811681036132c65790386131f6565b8980fd5b503d61329b565b6339e3563760e11b87526004879052602487fd5b634e487b7160e01b8a52603160045260248afd5b634e487b7160e01b8a52601160045260248afd5b808a146131435761331d8361280a565b60001981019081116132f9578a8a526007885260408a20818b5288528c60408b20558c8a526008885260408a2055613143565b818b146130c557898d6133628461280a565b9080835260088b52604083205485845260078c528b60408520948483036133a1575b9150505260088a528b60408120558b5288528960408120556130c5565b60086040928683528781528383205485845288825280858520558352522055388b8e613384565b85835260038152604083206001815401905561308e565b600085815260046020526040902080546001600160a01b031916905582815260038752604081208054600019019055613082565b6000600182036134355750506002810161342d8154612303565b90555b612fb7565b506002810361344d57506003810161342d8154612303565b600090600381036134685750506004810161342d8154612303565b6004915003613430576005810161342d8154612303565b826000526015602052613496876040600020612bb8565b612f4b565b015190503880610b89565b90601f1983169184600052816000209260005b8181106134fa575091600193918560089998979694106134e1575b505050811b019055612ecc565b015160001960f88460031b161c191690553880806134d4565b929360206001819287860151815501950193016134b9565b90601f1983169184600052816000209260005b8181106135615750908460019594939210613548575b505050811b019055612e6f565b015160001960f88460031b161c1916905538808061353b565b92936020600181928786015181550195019301613525565b90601f1983169184600052816000209260005b8181106135c857509084600195949392106135af575b505050811b019055612e18565b015160001960f88460031b161c191690553880806135a2565b9293602060018192878601518155019501930161358c565b63d94af29560e01b6000526004859052856008811015611fbd5760245260446000fd5b5084600052601660205260ff61361d876040600020612635565b5416612c35565b63ace6a27160e01b60005261363886611faf565b60246000fd5b90506006820154101538612c21565b9050631c102d6360e21b60005260045260245260446000fd5b631cc92f3d60e31b60005261363886611faf565b631054bd0160e31b60005261363885611faf565b6000818152600b602090815260408083206001600160a01b038616845290915290205460ff166129bc576000818152600b602090815260408083206001600160a01b0395909516808452949091528120805460ff19166001179055339291907f2f8788117e7eff1d82e926ec794901d17c78024a50270940304540a733656f0d9080a4600190565b6000818152600b602090815260408083206001600160a01b038616845290915290205460ff16156129bc576000818152600b602090815260408083206001600160a01b0395909516808452949091528120805460ff19169055339291907ff6391f5c32d9c69d2a47ea670b442974b53935d1edc7fd64eb21e047a839171b9080a4600190565b919091806000526006602052604060002083516001600160401b038111610de8576137d1816137cb84546121ef565b84612797565b6020601f821160011461383357816020949392613827927ff8e1a15aba9398e019f0b49df1a4fde98ee17ae345cb5f6b5e2c27f5033e8ce7979860009261349b5750508160011b916000199060031b1c19161790565b90555b604051908152a1565b601f1982169583600052816000209660005b8181106138a7575096600192849260209796957ff8e1a15aba9398e019f0b49df1a4fde98ee17ae345cb5f6b5e2c27f5033e8ce7999a1061388e575b505050811b01905561382a565b015160001960f88460031b161c19169055388080613881565b83830151895560019098019760209384019301613845565b60088110159081611fbd578015918215613904575b82156138f3575b82156138e657505090565b909150611fbd5760071490565b809250611fbd5760068114916138db565b5060058114915060006138d4565b823b613920575b5050505050565b604051630a85bd0160e11b81526001600160a01b03918216600482015291811660248301526044820193909352608060648201529116916020908290819061396c906084830190611ec0565b03816000865af18091600091613a0c575b50906139d657503d156139cf573d6139948161219d565b906139a2604051928361217c565b81523d6000602083013e5b805190816139ca5782633250574960e11b60005260045260246000fd5b602001fd5b60606139ad565b6001600160e01b03191663757a42ff60e11b016139f857503880808080613919565b633250574960e11b60005260045260246000fd5b6020813d602011613a4e575b81613a256020938361217c565b81010312613a4a5751906001600160e01b031982168203613a4757503861397d565b80fd5b5080fd5b3d9150613a18565b613a5f816129e3565b506000526006602052613a756040600020612229565b6000604051613a8560208261217c565b529056fea2646970667358221220c3728dd597f4c8219868975151354b4c67c0bbcf50552e8a3f1d1249052e189864736f6c634300081c00332f8788117e7eff1d82e926ec794901d17c78024a50270940304540a733656f0d68747470733a2f2f6261646765732e61726973616e2e706c75732f706f6f6c2d7b06ea240279d044f420c835ccf4e51f6eccd6f47a4be23e72335ccb5e3e8028df7de25b7f1fd6d0b5205f0e18f1f35bd7b8d84cce336588d184533ce43a6f76",
  "linkReferences": {},
  "deployedLinkReferences": {}
}